{
  "_format": "hh-sol-artifact-1",
  "contractName": "StyleArt",
  "sourceName": "contracts/StyleArt.sol",
  "abi": [
    {
      "inputs": [],
      "stateMutability": "nonpayable",
      "type": "constructor"
    },
    {
      "anonymous": false,
      "inputs": [
        {
          "indexed": true,
          "internalType": "address",
          "name": "owner",
          "type": "address"
        },
        {
          "indexed": true,
          "internalType": "address",
          "name": "approved",
          "type": "address"
        },
        {
          "indexed": true,
          "internalType": "uint256",
          "name": "tokenId",
          "type": "uint256"
        }
      ],
      "name": "Approval",
      "type": "event"
    },
    {
      "anonymous": false,
      "inputs": [
        {
          "indexed": true,
          "internalType": "address",
          "name": "owner",
          "type": "address"
        },
        {
          "indexed": true,
          "internalType": "address",
          "name": "operator",
          "type": "address"
        },
        {
          "indexed": false,
          "internalType": "bool",
          "name": "approved",
          "type": "bool"
        }
      ],
      "name": "ApprovalForAll",
      "type": "event"
    },
    {
      "anonymous": false,
      "inputs": [
        {
          "indexed": false,
          "internalType": "address",
          "name": "sender",
          "type": "address"
        },
        {
          "indexed": false,
          "internalType": "uint256",
          "name": "value",
          "type": "uint256"
        },
        {
          "indexed": false,
          "internalType": "uint256",
          "name": "transformationId",
          "type": "uint256"
        },
        {
          "indexed": false,
          "internalType": "uint256",
          "name": "transformationNumber",
          "type": "uint256"
        },
        {
          "indexed": false,
          "internalType": "bytes",
          "name": "params",
          "type": "bytes"
        }
      ],
      "name": "ImageGenerationPaid",
      "type": "event"
    },
    {
      "anonymous": false,
      "inputs": [
        {
          "indexed": true,
          "internalType": "address",
          "name": "previousOwner",
          "type": "address"
        },
        {
          "indexed": true,
          "internalType": "address",
          "name": "newOwner",
          "type": "address"
        }
      ],
      "name": "OwnershipTransferred",
      "type": "event"
    },
    {
      "anonymous": false,
      "inputs": [
        {
          "indexed": false,
          "internalType": "address",
          "name": "payer",
          "type": "address"
        },
        {
          "indexed": false,
          "internalType": "uint256",
          "name": "tokenId",
          "type": "uint256"
        },
        {
          "indexed": false,
          "internalType": "string",
          "name": "tokenURI",
          "type": "string"
        }
      ],
      "name": "TokenMinted",
      "type": "event"
    },
    {
      "anonymous": false,
      "inputs": [
        {
          "indexed": true,
          "internalType": "address",
          "name": "from",
          "type": "address"
        },
        {
          "indexed": true,
          "internalType": "address",
          "name": "to",
          "type": "address"
        },
        {
          "indexed": true,
          "internalType": "uint256",
          "name": "tokenId",
          "type": "uint256"
        }
      ],
      "name": "Transfer",
      "type": "event"
    },
    {
      "inputs": [
        {
          "internalType": "string",
          "name": "name",
          "type": "string"
        },
        {
          "internalType": "string",
          "name": "description",
          "type": "string"
        },
        {
          "internalType": "uint256",
          "name": "price",
          "type": "uint256"
        },
        {
          "internalType": "uint256",
          "name": "supply",
          "type": "uint256"
        }
      ],
      "name": "addTransformation",
      "outputs": [
        {
          "internalType": "uint256",
          "name": "",
          "type": "uint256"
        }
      ],
      "stateMutability": "nonpayable",
      "type": "function"
    },
    {
      "inputs": [
        {
          "internalType": "address",
          "name": "to",
          "type": "address"
        },
        {
          "internalType": "uint256",
          "name": "tokenId",
          "type": "uint256"
        }
      ],
      "name": "approve",
      "outputs": [],
      "stateMutability": "nonpayable",
      "type": "function"
    },
    {
      "inputs": [
        {
          "internalType": "address",
          "name": "owner",
          "type": "address"
        }
      ],
      "name": "balanceOf",
      "outputs": [
        {
          "internalType": "uint256",
          "name": "",
          "type": "uint256"
        }
      ],
      "stateMutability": "view",
      "type": "function"
    },
    {
      "inputs": [],
      "name": "baseURI",
      "outputs": [
        {
          "internalType": "string",
          "name": "",
          "type": "string"
        }
      ],
      "stateMutability": "view",
      "type": "function"
    },
    {
      "inputs": [
        {
          "internalType": "uint256",
          "name": "tokenId",
          "type": "uint256"
        }
      ],
      "name": "getApproved",
      "outputs": [
        {
          "internalType": "address",
          "name": "",
          "type": "address"
        }
      ],
      "stateMutability": "view",
      "type": "function"
    },
    {
      "inputs": [
        {
          "internalType": "address",
          "name": "owner",
          "type": "address"
        },
        {
          "internalType": "address",
          "name": "operator",
          "type": "address"
        }
      ],
      "name": "isApprovedForAll",
      "outputs": [
        {
          "internalType": "bool",
          "name": "",
          "type": "bool"
        }
      ],
      "stateMutability": "view",
      "type": "function"
    },
    {
      "inputs": [],
      "name": "listTransformations",
      "outputs": [
        {
          "components": [
            {
              "internalType": "uint256",
              "name": "id",
              "type": "uint256"
            },
            {
              "internalType": "uint256",
              "name": "price",
              "type": "uint256"
            },
            {
              "internalType": "uint256",
              "name": "supply",
              "type": "uint256"
            },
            {
              "internalType": "uint256",
              "name": "nTokens",
              "type": "uint256"
            },
            {
              "internalType": "string",
              "name": "name",
              "type": "string"
            },
            {
              "internalType": "string",
              "name": "description",
              "type": "string"
            },
            {
              "internalType": "bool",
              "name": "exists",
              "type": "bool"
            }
          ],
          "internalType": "struct StyleArt.Transformation[]",
          "name": "",
          "type": "tuple[]"
        }
      ],
      "stateMutability": "view",
      "type": "function"
    },
    {
      "inputs": [
        {
          "internalType": "address",
          "name": "payer",
          "type": "address"
        },
        {
          "internalType": "string",
          "name": "tokenURI",
          "type": "string"
        }
      ],
      "name": "mintNFT",
      "outputs": [
        {
          "internalType": "uint256",
          "name": "",
          "type": "uint256"
        }
      ],
      "stateMutability": "nonpayable",
      "type": "function"
    },
    {
      "inputs": [],
      "name": "name",
      "outputs": [
        {
          "internalType": "string",
          "name": "",
          "type": "string"
        }
      ],
      "stateMutability": "view",
      "type": "function"
    },
    {
      "inputs": [],
      "name": "owner",
      "outputs": [
        {
          "internalType": "address",
          "name": "",
          "type": "address"
        }
      ],
      "stateMutability": "view",
      "type": "function"
    },
    {
      "inputs": [
        {
          "internalType": "uint256",
          "name": "tokenId",
          "type": "uint256"
        }
      ],
      "name": "ownerOf",
      "outputs": [
        {
          "internalType": "address",
          "name": "",
          "type": "address"
        }
      ],
      "stateMutability": "view",
      "type": "function"
    },
    {
      "inputs": [
        {
          "internalType": "uint256",
          "name": "transformationId",
          "type": "uint256"
        },
        {
          "internalType": "bytes",
          "name": "params",
          "type": "bytes"
        }
      ],
      "name": "payGenerating",
      "outputs": [],
      "stateMutability": "payable",
      "type": "function"
    },
    {
      "inputs": [],
      "name": "renounceOwnership",
      "outputs": [],
      "stateMutability": "nonpayable",
      "type": "function"
    },
    {
      "inputs": [
        {
          "internalType": "address",
          "name": "from",
          "type": "address"
        },
        {
          "internalType": "address",
          "name": "to",
          "type": "address"
        },
        {
          "internalType": "uint256",
          "name": "tokenId",
          "type": "uint256"
        }
      ],
      "name": "safeTransferFrom",
      "outputs": [],
      "stateMutability": "nonpayable",
      "type": "function"
    },
    {
      "inputs": [
        {
          "internalType": "address",
          "name": "from",
          "type": "address"
        },
        {
          "internalType": "address",
          "name": "to",
          "type": "address"
        },
        {
          "internalType": "uint256",
          "name": "tokenId",
          "type": "uint256"
        },
        {
          "internalType": "bytes",
          "name": "_data",
          "type": "bytes"
        }
      ],
      "name": "safeTransferFrom",
      "outputs": [],
      "stateMutability": "nonpayable",
      "type": "function"
    },
    {
      "inputs": [
        {
          "internalType": "address",
          "name": "operator",
          "type": "address"
        },
        {
          "internalType": "bool",
          "name": "approved",
          "type": "bool"
        }
      ],
      "name": "setApprovalForAll",
      "outputs": [],
      "stateMutability": "nonpayable",
      "type": "function"
    },
    {
      "inputs": [
        {
          "internalType": "bytes4",
          "name": "interfaceId",
          "type": "bytes4"
        }
      ],
      "name": "supportsInterface",
      "outputs": [
        {
          "internalType": "bool",
          "name": "",
          "type": "bool"
        }
      ],
      "stateMutability": "view",
      "type": "function"
    },
    {
      "inputs": [],
      "name": "symbol",
      "outputs": [
        {
          "internalType": "string",
          "name": "",
          "type": "string"
        }
      ],
      "stateMutability": "view",
      "type": "function"
    },
    {
      "inputs": [
        {
          "internalType": "uint256",
          "name": "index",
          "type": "uint256"
        }
      ],
      "name": "tokenByIndex",
      "outputs": [
        {
          "internalType": "uint256",
          "name": "",
          "type": "uint256"
        }
      ],
      "stateMutability": "view",
      "type": "function"
    },
    {
      "inputs": [
        {
          "internalType": "address",
          "name": "owner",
          "type": "address"
        },
        {
          "internalType": "uint256",
          "name": "index",
          "type": "uint256"
        }
      ],
      "name": "tokenOfOwnerByIndex",
      "outputs": [
        {
          "internalType": "uint256",
          "name": "",
          "type": "uint256"
        }
      ],
      "stateMutability": "view",
      "type": "function"
    },
    {
      "inputs": [
        {
          "internalType": "uint256",
          "name": "tokenId",
          "type": "uint256"
        }
      ],
      "name": "tokenURI",
      "outputs": [
        {
          "internalType": "string",
          "name": "",
          "type": "string"
        }
      ],
      "stateMutability": "view",
      "type": "function"
    },
    {
      "inputs": [],
      "name": "totalSupply",
      "outputs": [
        {
          "internalType": "uint256",
          "name": "",
          "type": "uint256"
        }
      ],
      "stateMutability": "view",
      "type": "function"
    },
    {
      "inputs": [
        {
          "internalType": "address",
          "name": "from",
          "type": "address"
        },
        {
          "internalType": "address",
          "name": "to",
          "type": "address"
        },
        {
          "internalType": "uint256",
          "name": "tokenId",
          "type": "uint256"
        }
      ],
      "name": "transferFrom",
      "outputs": [],
      "stateMutability": "nonpayable",
      "type": "function"
    },
    {
      "inputs": [
        {
          "internalType": "address",
          "name": "newOwner",
          "type": "address"
        }
      ],
      "name": "transferOwnership",
      "outputs": [],
      "stateMutability": "nonpayable",
      "type": "function"
    },
    {
      "inputs": [
        {
          "internalType": "uint256",
          "name": "id",
          "type": "uint256"
        },
        {
          "internalType": "uint256",
          "name": "price",
          "type": "uint256"
        }
      ],
      "name": "updateTransformationPrice",
      "outputs": [
        {
          "internalType": "bool",
          "name": "",
          "type": "bool"
        }
      ],
      "stateMutability": "nonpayable",
      "type": "function"
    },
    {
      "inputs": [
        {
          "internalType": "address",
          "name": "user",
          "type": "address"
        }
      ],
      "name": "userGeneratedTokens",
      "outputs": [
        {
          "internalType": "uint256[]",
          "name": "",
          "type": "uint256[]"
        }
      ],
      "stateMutability": "view",
      "type": "function"
    }
  ],
  "bytecode": "0x60806040523480156200001157600080fd5b506040518060400160405280600881526020017f7374796c656172740000000000000000000000000000000000000000000000008152506040518060400160405280600481526020017f7361727400000000000000000000000000000000000000000000000000000000815250620000966301ffc9a760e01b6200020a60201b60201c565b8160069080519060200190620000ae929190620002ea565b508060079080519060200190620000c7929190620002ea565b50620000e06380ac58cd60e01b6200020a60201b60201c565b620000f8635b5e139f60e01b6200020a60201b60201c565b6200011063780e9d6360e01b6200020a60201b60201c565b5050600062000124620002e260201b60201c565b905080600a60006101000a81548173ffffffffffffffffffffffffffffffffffffffff021916908373ffffffffffffffffffffffffffffffffffffffff1602179055508073ffffffffffffffffffffffffffffffffffffffff16600073ffffffffffffffffffffffffffffffffffffffff167f8be0079c531659141344cd1fd0a4f28419497f9722a3daafe3b4186f6b6457e060405160405180910390a35033600d60006101000a81548173ffffffffffffffffffffffffffffffffffffffff021916908373ffffffffffffffffffffffffffffffffffffffff16021790555062000405565b63ffffffff60e01b817bffffffffffffffffffffffffffffffffffffffffffffffffffffffff1916141562000276576040517f08c379a00000000000000000000000000000000000000000000000000000000081526004016200026d90620003d2565b60405180910390fd5b6001600080837bffffffffffffffffffffffffffffffffffffffffffffffffffffffff19167bffffffffffffffffffffffffffffffffffffffffffffffffffffffff1916815260200190815260200160002060006101000a81548160ff02191690831515021790555050565b600033905090565b828054600181600116156101000203166002900490600052602060002090601f016020900481019282601f106200032d57805160ff19168380011785556200035e565b828001600101855582156200035e579182015b828111156200035d57825182559160200191906001019062000340565b5b5090506200036d919062000371565b5090565b5b808211156200038c57600081600090555060010162000372565b5090565b60006200039f601c83620003f4565b91507f4552433136353a20696e76616c696420696e74657266616365206964000000006000830152602082019050919050565b60006020820190508181036000830152620003ed8162000390565b9050919050565b600082825260208201905092915050565b61454a80620004156000396000f3fe6080604052600436106101815760003560e01c806367388566116100d1578063a22cb4651161008a578063e985e9c511610064578063e985e9c5146105ad578063e9c7723d146105ea578063eacabe1414610627578063f2fde38b1461066457610181565b8063a22cb4651461051e578063b88d4fde14610547578063c87b56dd1461057057610181565b8063673885661461042d5780636c0360eb1461044957806370a0823114610474578063715018a6146104b15780638da5cb5b146104c857806395d89b41146104f357610181565b80631ec166761161013e5780632f745c59116101185780632f745c591461034d57806342842e0e1461038a5780634f6ccce7146103b35780636352211e146103f057610181565b80631ec16676146102aa5780632362382d146102e757806323b872dd1461032457610181565b806301ffc9a71461018657806306fdde03146101c3578063081812fc146101ee578063095ea7b31461022b57806318160ddd146102545780631935ec9f1461027f575b600080fd5b34801561019257600080fd5b506101ad60048036038101906101a89190613012565b61068d565b6040516101ba9190613eb2565b60405180910390f35b3480156101cf57600080fd5b506101d86106f4565b6040516101e59190613ecd565b60405180910390f35b3480156101fa57600080fd5b50610215600480360381019061021091906130f7565b610796565b6040516102229190613d6f565b60405180910390f35b34801561023757600080fd5b50610252600480360381019061024d9190612fd6565b61081b565b005b34801561026057600080fd5b50610269610933565b60405161027691906141cf565b60405180910390f35b34801561028b57600080fd5b50610294610944565b6040516102a19190613e6e565b60405180910390f35b3480156102b657600080fd5b506102d160048036038101906102cc9190613064565b610b98565b6040516102de91906141cf565b60405180910390f35b3480156102f357600080fd5b5061030e60048036038101906103099190613174565b610d32565b60405161031b9190613eb2565b60405180910390f35b34801561033057600080fd5b5061034b60048036038101906103469190612e7c565b610dd5565b005b34801561035957600080fd5b50610374600480360381019061036f9190612fd6565b610e35565b60405161038191906141cf565b60405180910390f35b34801561039657600080fd5b506103b160048036038101906103ac9190612e7c565b610e90565b005b3480156103bf57600080fd5b506103da60048036038101906103d591906130f7565b610eb0565b6040516103e791906141cf565b60405180910390f35b3480156103fc57600080fd5b50610417600480360381019061041291906130f7565b610ed3565b6040516104249190613d6f565b60405180910390f35b61044760048036038101906104429190613120565b610f0a565b005b34801561045557600080fd5b5061045e611153565b60405161046b9190613ecd565b60405180910390f35b34801561048057600080fd5b5061049b60048036038101906104969190612e17565b6111f5565b6040516104a891906141cf565b60405180910390f35b3480156104bd57600080fd5b506104c66112b4565b005b3480156104d457600080fd5b506104dd6113f1565b6040516104ea9190613d6f565b60405180910390f35b3480156104ff57600080fd5b5061050861141b565b6040516105159190613ecd565b60405180910390f35b34801561052a57600080fd5b5061054560048036038101906105409190612f46565b6114bd565b005b34801561055357600080fd5b5061056e60048036038101906105699190612ecb565b61163e565b005b34801561057c57600080fd5b50610597600480360381019061059291906130f7565b6116a0565b6040516105a49190613ecd565b60405180910390f35b3480156105b957600080fd5b506105d460048036038101906105cf9190612e40565b611823565b6040516105e19190613eb2565b60405180910390f35b3480156105f657600080fd5b50610611600480360381019061060c9190612e17565b6118b7565b60405161061e9190613e90565b60405180910390f35b34801561063357600080fd5b5061064e60048036038101906106499190612f82565b61194e565b60405161065b91906141cf565b60405180910390f35b34801561067057600080fd5b5061068b60048036038101906106869190612e17565b611aa3565b005b6000806000837bffffffffffffffffffffffffffffffffffffffffffffffffffffffff19167bffffffffffffffffffffffffffffffffffffffffffffffffffffffff1916815260200190815260200160002060009054906101000a900460ff169050919050565b606060068054600181600116156101000203166002900480601f01602080910402602001604051908101604052809291908181526020018280546001816001161561010002031660029004801561078c5780601f106107615761010080835404028352916020019161078c565b820191906000526020600020905b81548152906001019060200180831161076f57829003601f168201915b5050505050905090565b60006107a182611c4f565b6107e0576040517f08c379a00000000000000000000000000000000000000000000000000000000081526004016107d79061408f565b60405180910390fd5b6004600083815260200190815260200160002060009054906101000a900473ffffffffffffffffffffffffffffffffffffffff169050919050565b600061082682610ed3565b90508073ffffffffffffffffffffffffffffffffffffffff168373ffffffffffffffffffffffffffffffffffffffff161415610897576040517f08c379a000000000000000000000000000000000000000000000000000000000815260040161088e9061412f565b60405180910390fd5b8073ffffffffffffffffffffffffffffffffffffffff166108b6611c6c565b73ffffffffffffffffffffffffffffffffffffffff1614806108e557506108e4816108df611c6c565b611823565b5b610924576040517f08c379a000000000000000000000000000000000000000000000000000000000815260040161091b9061400f565b60405180910390fd5b61092e8383611c74565b505050565b600061093f6002611d2d565b905090565b606080600f8054905067ffffffffffffffff8111801561096357600080fd5b5060405190808252806020026020018201604052801561099d57816020015b61098a612c2a565b8152602001906001900390816109825790505b50905060005b600f80549050811015610b905760106000600f83815481106109c157fe5b906000526020600020015481526020019081526020016000206040518060e001604052908160008201548152602001600182015481526020016002820154815260200160038201548152602001600482018054600181600116156101000203166002900480601f016020809104026020016040519081016040528092919081815260200182805460018160011615610100020316600290048015610aa65780601f10610a7b57610100808354040283529160200191610aa6565b820191906000526020600020905b815481529060010190602001808311610a8957829003601f168201915b50505050508152602001600582018054600181600116156101000203166002900480601f016020809104026020016040519081016040528092919081815260200182805460018160011615610100020316600290048015610b485780601f10610b1d57610100808354040283529160200191610b48565b820191906000526020600020905b815481529060010190602001808311610b2b57829003601f168201915b505050505081526020016006820160009054906101000a900460ff161515151581525050828281518110610b7857fe5b602002602001018190525080806001019150506109a3565b508091505090565b6000610ba2611c6c565b73ffffffffffffffffffffffffffffffffffffffff16610bc06113f1565b73ffffffffffffffffffffffffffffffffffffffff1614610c16576040517f08c379a0000000000000000000000000000000000000000000000000000000008152600401610c0d906140cf565b60405180910390fd5b610c20600c611d42565b6000610c2c600c611d58565b9050600f8190806001815401808255809150506001900390600052602060002001600090919091909150556040518060e00160405280828152602001858152602001848152602001600081526020018781526020018681526020016001151581525060106000838152602001908152602001600020600082015181600001556020820151816001015560408201518160020155606082015181600301556080820151816004019080519060200190610ce5929190612c69565b5060a0820151816005019080519060200190610d02929190612c69565b5060c08201518160060160006101000a81548160ff02191690831515021790555090505080915050949350505050565b6000610d3c611c6c565b73ffffffffffffffffffffffffffffffffffffffff16610d5a6113f1565b73ffffffffffffffffffffffffffffffffffffffff1614610db0576040517f08c379a0000000000000000000000000000000000000000000000000000000008152600401610da7906140cf565b60405180910390fd5b8160106000858152602001908152602001600020600101819055506001905092915050565b610de6610de0611c6c565b82611d66565b610e25576040517f08c379a0000000000000000000000000000000000000000000000000000000008152600401610e1c9061416f565b60405180910390fd5b610e30838383611e44565b505050565b6000610e8882600160008673ffffffffffffffffffffffffffffffffffffffff1673ffffffffffffffffffffffffffffffffffffffff16815260200190815260200160002061205b90919063ffffffff16565b905092915050565b610eab8383836040518060200160405280600081525061163e565b505050565b600080610ec783600261207590919063ffffffff16565b50905080915050919050565b6000610f03826040518060600160405280602981526020016144ec6029913960026120a19092919063ffffffff16565b9050919050565b81346010600083815260200190815260200160002060060160009054906101000a900460ff16156110005780601060008481526020019081526020016000206001015414610f8d576040517f08c379a0000000000000000000000000000000000000000000000000000000008152600401610f84906141af565b60405180910390fd5b6010600083815260200190815260200160002060020154601060008481526020019081526020016000206003015410610ffb576040517f08c379a0000000000000000000000000000000000000000000000000000000008152600401610ff29061414f565b60405180910390fd5b611064565b6010600083815260200190815260200160002060060160009054906101000a900460ff16611063576040517f08c379a000000000000000000000000000000000000000000000000000000000815260040161105a90613faf565b60405180910390fd5b5b60006001601060008781526020019081526020016000206003016000828254019250508190555060106000868152602001908152602001600020600301549050600d60009054906101000a900473ffffffffffffffffffffffffffffffffffffffff1673ffffffffffffffffffffffffffffffffffffffff166108fc349081150290604051600060405180830381858888f1935050505015801561110c573d6000803e3d6000fd5b507fd8e40976882f1a257a5dfa438d0b49ed3bba40181ff40ec72129a8338394a7143334878488604051611144959493929190613dd6565b60405180910390a15050505050565b606060098054600181600116156101000203166002900480601f0160208091040260200160405190810160405280929190818152602001828054600181600116156101000203166002900480156111eb5780601f106111c0576101008083540402835291602001916111eb565b820191906000526020600020905b8154815290600101906020018083116111ce57829003601f168201915b5050505050905090565b60008073ffffffffffffffffffffffffffffffffffffffff168273ffffffffffffffffffffffffffffffffffffffff161415611266576040517f08c379a000000000000000000000000000000000000000000000000000000000815260040161125d9061402f565b60405180910390fd5b6112ad600160008473ffffffffffffffffffffffffffffffffffffffff1673ffffffffffffffffffffffffffffffffffffffff1681526020019081526020016000206120c0565b9050919050565b6112bc611c6c565b73ffffffffffffffffffffffffffffffffffffffff166112da6113f1565b73ffffffffffffffffffffffffffffffffffffffff1614611330576040517f08c379a0000000000000000000000000000000000000000000000000000000008152600401611327906140cf565b60405180910390fd5b600073ffffffffffffffffffffffffffffffffffffffff16600a60009054906101000a900473ffffffffffffffffffffffffffffffffffffffff1673ffffffffffffffffffffffffffffffffffffffff167f8be0079c531659141344cd1fd0a4f28419497f9722a3daafe3b4186f6b6457e060405160405180910390a36000600a60006101000a81548173ffffffffffffffffffffffffffffffffffffffff021916908373ffffffffffffffffffffffffffffffffffffffff160217905550565b6000600a60009054906101000a900473ffffffffffffffffffffffffffffffffffffffff16905090565b606060078054600181600116156101000203166002900480601f0160208091040260200160405190810160405280929190818152602001828054600181600116156101000203166002900480156114b35780601f10611488576101008083540402835291602001916114b3565b820191906000526020600020905b81548152906001019060200180831161149657829003601f168201915b5050505050905090565b6114c5611c6c565b73ffffffffffffffffffffffffffffffffffffffff168273ffffffffffffffffffffffffffffffffffffffff161415611533576040517f08c379a000000000000000000000000000000000000000000000000000000000815260040161152a90613f8f565b60405180910390fd5b8060056000611540611c6c565b73ffffffffffffffffffffffffffffffffffffffff1673ffffffffffffffffffffffffffffffffffffffff16815260200190815260200160002060008473ffffffffffffffffffffffffffffffffffffffff1673ffffffffffffffffffffffffffffffffffffffff16815260200190815260200160002060006101000a81548160ff0219169083151502179055508173ffffffffffffffffffffffffffffffffffffffff166115ed611c6c565b73ffffffffffffffffffffffffffffffffffffffff167f17307eab39ab6107e8899845ad3d59bd9653f200f220920489ca2b5937696c31836040516116329190613eb2565b60405180910390a35050565b61164f611649611c6c565b83611d66565b61168e576040517f08c379a00000000000000000000000000000000000000000000000000000000081526004016116859061416f565b60405180910390fd5b61169a848484846120d5565b50505050565b60606116ab82611c4f565b6116ea576040517f08c379a00000000000000000000000000000000000000000000000000000000081526004016116e19061410f565b60405180910390fd5b6060600860008481526020019081526020016000208054600181600116156101000203166002900480601f0160208091040260200160405190810160405280929190818152602001828054600181600116156101000203166002900480156117935780601f1061176857610100808354040283529160200191611793565b820191906000526020600020905b81548152906001019060200180831161177657829003601f168201915b5050505050905060606117a4611153565b90506000815114156117ba57819250505061181e565b6000825111156117ef5780826040516020016117d7929190613d4b565b6040516020818303038152906040529250505061181e565b806117f985612131565b60405160200161180a929190613d4b565b604051602081830303815290604052925050505b919050565b6000600560008473ffffffffffffffffffffffffffffffffffffffff1673ffffffffffffffffffffffffffffffffffffffff16815260200190815260200160002060008373ffffffffffffffffffffffffffffffffffffffff1673ffffffffffffffffffffffffffffffffffffffff16815260200190815260200160002060009054906101000a900460ff16905092915050565b6060600e60008373ffffffffffffffffffffffffffffffffffffffff1673ffffffffffffffffffffffffffffffffffffffff16815260200190815260200160002080548060200260200160405190810160405280929190818152602001828054801561194257602002820191906000526020600020905b81548152602001906001019080831161192e575b50505050509050919050565b6000611958611c6c565b73ffffffffffffffffffffffffffffffffffffffff166119766113f1565b73ffffffffffffffffffffffffffffffffffffffff16146119cc576040517f08c379a00000000000000000000000000000000000000000000000000000000081526004016119c3906140cf565b60405180910390fd5b6119d6600b611d42565b60006119e2600b611d58565b90506119ee8482612278565b6119f88184612406565b600e60008573ffffffffffffffffffffffffffffffffffffffff1673ffffffffffffffffffffffffffffffffffffffff1681526020019081526020016000208190806001815401808255809150506001900390600052602060002001600090919091909150557fdf92894dc4675a7333caa5903b69cf5d8e8ec0d3f361c88207b6688e525703bb848285604051611a9193929190613e30565b60405180910390a18091505092915050565b611aab611c6c565b73ffffffffffffffffffffffffffffffffffffffff16611ac96113f1565b73ffffffffffffffffffffffffffffffffffffffff1614611b1f576040517f08c379a0000000000000000000000000000000000000000000000000000000008152600401611b16906140cf565b60405180910390fd5b600073ffffffffffffffffffffffffffffffffffffffff168173ffffffffffffffffffffffffffffffffffffffff161415611b8f576040517f08c379a0000000000000000000000000000000000000000000000000000000008152600401611b8690613f2f565b60405180910390fd5b8073ffffffffffffffffffffffffffffffffffffffff16600a60009054906101000a900473ffffffffffffffffffffffffffffffffffffffff1673ffffffffffffffffffffffffffffffffffffffff167f8be0079c531659141344cd1fd0a4f28419497f9722a3daafe3b4186f6b6457e060405160405180910390a380600a60006101000a81548173ffffffffffffffffffffffffffffffffffffffff021916908373ffffffffffffffffffffffffffffffffffffffff16021790555050565b6000611c6582600261247a90919063ffffffff16565b9050919050565b600033905090565b816004600083815260200190815260200160002060006101000a81548173ffffffffffffffffffffffffffffffffffffffff021916908373ffffffffffffffffffffffffffffffffffffffff160217905550808273ffffffffffffffffffffffffffffffffffffffff16611ce783610ed3565b73ffffffffffffffffffffffffffffffffffffffff167f8c5be1e5ebec7d5bd14f71427d1e84f3dd0314c0f7b2291e5b200ac8c7c3b92560405160405180910390a45050565b6000611d3b82600001612494565b9050919050565b6001816000016000828254019250508190555050565b600081600001549050919050565b6000611d7182611c4f565b611db0576040517f08c379a0000000000000000000000000000000000000000000000000000000008152600401611da790613fef565b60405180910390fd5b6000611dbb83610ed3565b90508073ffffffffffffffffffffffffffffffffffffffff168473ffffffffffffffffffffffffffffffffffffffff161480611e2a57508373ffffffffffffffffffffffffffffffffffffffff16611e1284610796565b73ffffffffffffffffffffffffffffffffffffffff16145b80611e3b5750611e3a8185611823565b5b91505092915050565b8273ffffffffffffffffffffffffffffffffffffffff16611e6482610ed3565b73ffffffffffffffffffffffffffffffffffffffff1614611eba576040517f08c379a0000000000000000000000000000000000000000000000000000000008152600401611eb1906140ef565b60405180910390fd5b600073ffffffffffffffffffffffffffffffffffffffff168273ffffffffffffffffffffffffffffffffffffffff161415611f2a576040517f08c379a0000000000000000000000000000000000000000000000000000000008152600401611f2190613f6f565b60405180910390fd5b611f358383836124a5565b611f40600082611c74565b611f9181600160008673ffffffffffffffffffffffffffffffffffffffff1673ffffffffffffffffffffffffffffffffffffffff1681526020019081526020016000206124aa90919063ffffffff16565b50611fe381600160008573ffffffffffffffffffffffffffffffffffffffff1673ffffffffffffffffffffffffffffffffffffffff1681526020019081526020016000206124c490919063ffffffff16565b50611ffa818360026124de9092919063ffffffff16565b50808273ffffffffffffffffffffffffffffffffffffffff168473ffffffffffffffffffffffffffffffffffffffff167fddf252ad1be2c89b69c2b068fc378daa952ba7f163c4a11628f55a4df523b3ef60405160405180910390a4505050565b600061206a8360000183612513565b60001c905092915050565b6000806000806120888660000186612580565b915091508160001c8160001c9350935050509250929050565b60006120b4846000018460001b84612603565b60001c90509392505050565b60006120ce82600001612694565b9050919050565b6120e0848484611e44565b6120ec848484846126a5565b61212b576040517f08c379a000000000000000000000000000000000000000000000000000000000815260040161212290613f0f565b60405180910390fd5b50505050565b60606000821415612179576040518060400160405280600181526020017f30000000000000000000000000000000000000000000000000000000000000008152509050612273565b600082905060005b600082146121a3578080600101915050600a828161219b57fe5b049150612181565b60608167ffffffffffffffff811180156121bc57600080fd5b506040519080825280601f01601f1916602001820160405280156121ef5781602001600182028036833780820191505090505b50905060006001830390508593505b6000841461226b57600a848161221057fe5b0660300160f81b8282806001900393508151811061222a57fe5b60200101907effffffffffffffffffffffffffffffffffffffffffffffffffffffffffffff1916908160001a905350600a848161226357fe5b0493506121fe565b819450505050505b919050565b600073ffffffffffffffffffffffffffffffffffffffff168273ffffffffffffffffffffffffffffffffffffffff1614156122e8576040517f08c379a00000000000000000000000000000000000000000000000000000000081526004016122df9061406f565b60405180910390fd5b6122f181611c4f565b15612331576040517f08c379a000000000000000000000000000000000000000000000000000000000815260040161232890613f4f565b60405180910390fd5b61233d600083836124a5565b61238e81600160008573ffffffffffffffffffffffffffffffffffffffff1673ffffffffffffffffffffffffffffffffffffffff1681526020019081526020016000206124c490919063ffffffff16565b506123a5818360026124de9092919063ffffffff16565b50808273ffffffffffffffffffffffffffffffffffffffff16600073ffffffffffffffffffffffffffffffffffffffff167fddf252ad1be2c89b69c2b068fc378daa952ba7f163c4a11628f55a4df523b3ef60405160405180910390a45050565b61240f82611c4f565b61244e576040517f08c379a0000000000000000000000000000000000000000000000000000000008152600401612445906140af565b60405180910390fd5b80600860008481526020019081526020016000209080519060200190612475929190612c69565b505050565b600061248c836000018360001b612809565b905092915050565b600081600001805490509050919050565b505050565b60006124bc836000018360001b61282c565b905092915050565b60006124d6836000018360001b612914565b905092915050565b600061250a846000018460001b8473ffffffffffffffffffffffffffffffffffffffff1660001b612984565b90509392505050565b60008183600001805490501161255e576040517f08c379a000000000000000000000000000000000000000000000000000000000815260040161255590613eef565b60405180910390fd5b82600001828154811061256d57fe5b9060005260206000200154905092915050565b600080828460000180549050116125cc576040517f08c379a00000000000000000000000000000000000000000000000000000000081526004016125c39061404f565b60405180910390fd5b60008460000184815481106125dd57fe5b906000526020600020906002020190508060000154816001015492509250509250929050565b60008084600101600085815260200190815260200160002054905060008114158390612665576040517f08c379a000000000000000000000000000000000000000000000000000000000815260040161265c9190613ecd565b60405180910390fd5b5084600001600182038154811061267857fe5b9060005260206000209060020201600101549150509392505050565b600081600001805490509050919050565b60006126c68473ffffffffffffffffffffffffffffffffffffffff16612a60565b6126d35760019050612801565b606061279a63150b7a0260e01b6126e8611c6c565b8887876040516024016126fe9493929190613d8a565b604051602081830303815290604052907bffffffffffffffffffffffffffffffffffffffffffffffffffffffff19166020820180517bffffffffffffffffffffffffffffffffffffffffffffffffffffffff83818316178352505050506040518060600160405280603281526020016144ba603291398773ffffffffffffffffffffffffffffffffffffffff16612a739092919063ffffffff16565b90506000818060200190518101906127b2919061303b565b905063150b7a0260e01b7bffffffffffffffffffffffffffffffffffffffffffffffffffffffff1916817bffffffffffffffffffffffffffffffffffffffffffffffffffffffff191614925050505b949350505050565b600080836001016000848152602001908152602001600020541415905092915050565b60008083600101600084815260200190815260200160002054905060008114612908576000600182039050600060018660000180549050039050600086600001828154811061287757fe5b906000526020600020015490508087600001848154811061289457fe5b90600052602060002001819055506001830187600101600083815260200190815260200160002081905550866000018054806128cc57fe5b6001900381819060005260206000200160009055905586600101600087815260200190815260200160002060009055600194505050505061290e565b60009150505b92915050565b60006129208383612a8b565b61297957826000018290806001815401808255809150506001900390600052602060002001600090919091909150558260000180549050836001016000848152602001908152602001600020819055506001905061297e565b600090505b92915050565b6000808460010160008581526020019081526020016000205490506000811415612a2b57846000016040518060400160405280868152602001858152509080600181540180825580915050600190039060005260206000209060020201600090919091909150600082015181600001556020820151816001015550508460000180549050856001016000868152602001908152602001600020819055506001915050612a59565b82856000016001830381548110612a3e57fe5b90600052602060002090600202016001018190555060009150505b9392505050565b600080823b905060008111915050919050565b6060612a828484600085612aae565b90509392505050565b600080836001016000848152602001908152602001600020541415905092915050565b606082471015612af3576040517f08c379a0000000000000000000000000000000000000000000000000000000008152600401612aea90613fcf565b60405180910390fd5b612afc85612a60565b612b3b576040517f08c379a0000000000000000000000000000000000000000000000000000000008152600401612b329061418f565b60405180910390fd5b600060608673ffffffffffffffffffffffffffffffffffffffff168587604051612b659190613d34565b60006040518083038185875af1925050503d8060008114612ba2576040519150601f19603f3d011682016040523d82523d6000602084013e612ba7565b606091505b5091509150612bb7828286612bc3565b92505050949350505050565b60608315612bd357829050612c23565b600083511115612be65782518084602001fd5b816040517f08c379a0000000000000000000000000000000000000000000000000000000008152600401612c1a9190613ecd565b60405180910390fd5b9392505050565b6040518060e001604052806000815260200160008152602001600081526020016000815260200160608152602001606081526020016000151581525090565b828054600181600116156101000203166002900490600052602060002090601f016020900481019282601f10612caa57805160ff1916838001178555612cd8565b82800160010185558215612cd8579182015b82811115612cd7578251825591602001919060010190612cbc565b5b509050612ce59190612ce9565b5090565b5b80821115612d02576000816000905550600101612cea565b5090565b600081359050612d158161445d565b92915050565b600081359050612d2a81614474565b92915050565b600081359050612d3f8161448b565b92915050565b600081519050612d548161448b565b92915050565b600082601f830112612d6b57600080fd5b8135612d7e612d798261421b565b6141ea565b91508082526020830160208301858383011115612d9a57600080fd5b612da5838284614408565b50505092915050565b600082601f830112612dbf57600080fd5b8135612dd2612dcd8261424b565b6141ea565b91508082526020830160208301858383011115612dee57600080fd5b612df9838284614408565b50505092915050565b600081359050612e11816144a2565b92915050565b600060208284031215612e2957600080fd5b6000612e3784828501612d06565b91505092915050565b60008060408385031215612e5357600080fd5b6000612e6185828601612d06565b9250506020612e7285828601612d06565b9150509250929050565b600080600060608486031215612e9157600080fd5b6000612e9f86828701612d06565b9350506020612eb086828701612d06565b9250506040612ec186828701612e02565b9150509250925092565b60008060008060808587031215612ee157600080fd5b6000612eef87828801612d06565b9450506020612f0087828801612d06565b9350506040612f1187828801612e02565b925050606085013567ffffffffffffffff811115612f2e57600080fd5b612f3a87828801612d5a565b91505092959194509250565b60008060408385031215612f5957600080fd5b6000612f6785828601612d06565b9250506020612f7885828601612d1b565b9150509250929050565b60008060408385031215612f9557600080fd5b6000612fa385828601612d06565b925050602083013567ffffffffffffffff811115612fc057600080fd5b612fcc85828601612dae565b9150509250929050565b60008060408385031215612fe957600080fd5b6000612ff785828601612d06565b925050602061300885828601612e02565b9150509250929050565b60006020828403121561302457600080fd5b600061303284828501612d30565b91505092915050565b60006020828403121561304d57600080fd5b600061305b84828501612d45565b91505092915050565b6000806000806080858703121561307a57600080fd5b600085013567ffffffffffffffff81111561309457600080fd5b6130a087828801612dae565b945050602085013567ffffffffffffffff8111156130bd57600080fd5b6130c987828801612dae565b93505060406130da87828801612e02565b92505060606130eb87828801612e02565b91505092959194509250565b60006020828403121561310957600080fd5b600061311784828501612e02565b91505092915050565b6000806040838503121561313357600080fd5b600061314185828601612e02565b925050602083013567ffffffffffffffff81111561315e57600080fd5b61316a85828601612d5a565b9150509250929050565b6000806040838503121561318757600080fd5b600061319585828601612e02565b92505060206131a685828601612e02565b9150509250929050565b60006131bc8383613c73565b905092915050565b60006131d08383613d16565b60208301905092915050565b6131e5816143d2565b82525050565b6131f48161435e565b82525050565b6132038161434c565b82525050565b60006132148261429b565b61321e81856142e1565b9350836020820285016132308561427b565b8060005b8581101561326c578484038952815161324d85826131b0565b9450613258836142c7565b925060208a01995050600181019050613234565b50829750879550505050505092915050565b6000613289826142a6565b61329381856142f2565b935061329e8361428b565b8060005b838110156132cf5781516132b688826131c4565b97506132c1836142d4565b9250506001810190506132a2565b5085935050505092915050565b6132e581614370565b82525050565b6132f481614370565b82525050565b6000613305826142b1565b61330f8185614303565b935061331f818560208601614417565b6133288161444c565b840191505092915050565b600061333e826142b1565b6133488185614314565b9350613358818560208601614417565b80840191505092915050565b600061336f826142bc565b613379818561431f565b9350613389818560208601614417565b6133928161444c565b840191505092915050565b60006133a8826142bc565b6133b28185614330565b93506133c2818560208601614417565b6133cb8161444c565b840191505092915050565b60006133e1826142bc565b6133eb8185614341565b93506133fb818560208601614417565b80840191505092915050565b6000613414602283614330565b91507f456e756d657261626c655365743a20696e646578206f7574206f6620626f756e60008301527f64730000000000000000000000000000000000000000000000000000000000006020830152604082019050919050565b600061347a603283614330565b91507f4552433732313a207472616e7366657220746f206e6f6e20455243373231526560008301527f63656976657220696d706c656d656e74657200000000000000000000000000006020830152604082019050919050565b60006134e0602683614330565b91507f4f776e61626c653a206e6577206f776e657220697320746865207a65726f206160008301527f64647265737300000000000000000000000000000000000000000000000000006020830152604082019050919050565b6000613546601c83614330565b91507f4552433732313a20746f6b656e20616c7265616479206d696e746564000000006000830152602082019050919050565b6000613586602483614330565b91507f4552433732313a207472616e7366657220746f20746865207a65726f2061646460008301527f72657373000000000000000000000000000000000000000000000000000000006020830152604082019050919050565b60006135ec601983614330565b91507f4552433732313a20617070726f766520746f2063616c6c6572000000000000006000830152602082019050919050565b600061362c602683614330565b91507f526571756573746564207472616e73666f726d6174696f6e20646f65736e277460008301527f20657869737400000000000000000000000000000000000000000000000000006020830152604082019050919050565b6000613692602683614330565b91507f416464726573733a20696e73756666696369656e742062616c616e636520666f60008301527f722063616c6c00000000000000000000000000000000000000000000000000006020830152604082019050919050565b60006136f8602c83614330565b91507f4552433732313a206f70657261746f7220717565727920666f72206e6f6e657860008301527f697374656e7420746f6b656e00000000000000000000000000000000000000006020830152604082019050919050565b600061375e603883614330565b91507f4552433732313a20617070726f76652063616c6c6572206973206e6f74206f7760008301527f6e6572206e6f7220617070726f76656420666f7220616c6c00000000000000006020830152604082019050919050565b60006137c4602a83614330565b91507f4552433732313a2062616c616e636520717565727920666f7220746865207a6560008301527f726f2061646472657373000000000000000000000000000000000000000000006020830152604082019050919050565b600061382a602283614330565b91507f456e756d657261626c654d61703a20696e646578206f7574206f6620626f756e60008301527f64730000000000000000000000000000000000000000000000000000000000006020830152604082019050919050565b6000613890602083614330565b91507f4552433732313a206d696e7420746f20746865207a65726f20616464726573736000830152602082019050919050565b60006138d0602c83614330565b91507f4552433732313a20617070726f76656420717565727920666f72206e6f6e657860008301527f697374656e7420746f6b656e00000000000000000000000000000000000000006020830152604082019050919050565b6000613936602c83614330565b91507f4552433732314d657461646174613a2055524920736574206f66206e6f6e657860008301527f697374656e7420746f6b656e00000000000000000000000000000000000000006020830152604082019050919050565b600061399c602083614330565b91507f4f776e61626c653a2063616c6c6572206973206e6f7420746865206f776e65726000830152602082019050919050565b60006139dc602983614330565b91507f4552433732313a207472616e73666572206f6620746f6b656e2074686174206960008301527f73206e6f74206f776e00000000000000000000000000000000000000000000006020830152604082019050919050565b6000613a42602f83614330565b91507f4552433732314d657461646174613a2055524920717565727920666f72206e6f60008301527f6e6578697374656e7420746f6b656e00000000000000000000000000000000006020830152604082019050919050565b6000613aa8602183614330565b91507f4552433732313a20617070726f76616c20746f2063757272656e74206f776e6560008301527f72000000000000000000000000000000000000000000000000000000000000006020830152604082019050919050565b6000613b0e602283614330565b91507f5472616e73666f726d6174696f6e20737570706c79206973206578686175737460008301527f65640000000000000000000000000000000000000000000000000000000000006020830152604082019050919050565b6000613b74603183614330565b91507f4552433732313a207472616e736665722063616c6c6572206973206e6f74206f60008301527f776e6572206e6f7220617070726f7665640000000000000000000000000000006020830152604082019050919050565b6000613bda601d83614330565b91507f416464726573733a2063616c6c20746f206e6f6e2d636f6e74726163740000006000830152602082019050919050565b6000613c1a603183614330565b91507f5472616e73616374696f6e2076616c7565206d757374206d617463682074726160008301527f6e73666f726d6174696f6e2070726963650000000000000000000000000000006020830152604082019050919050565b600060e083016000830151613c8b6000860182613d16565b506020830151613c9e6020860182613d16565b506040830151613cb16040860182613d16565b506060830151613cc46060860182613d16565b5060808301518482036080860152613cdc8282613364565b91505060a083015184820360a0860152613cf68282613364565b91505060c0830151613d0b60c08601826132dc565b508091505092915050565b613d1f816143c8565b82525050565b613d2e816143c8565b82525050565b6000613d408284613333565b915081905092915050565b6000613d5782856133d6565b9150613d6382846133d6565b91508190509392505050565b6000602082019050613d8460008301846131fa565b92915050565b6000608082019050613d9f60008301876131eb565b613dac60208301866131fa565b613db96040830185613d25565b8181036060830152613dcb81846132fa565b905095945050505050565b600060a082019050613deb60008301886131dc565b613df86020830187613d25565b613e056040830186613d25565b613e126060830185613d25565b8181036080830152613e2481846132fa565b90509695505050505050565b6000606082019050613e4560008301866131fa565b613e526020830185613d25565b8181036040830152613e64818461339d565b9050949350505050565b60006020820190508181036000830152613e888184613209565b905092915050565b60006020820190508181036000830152613eaa818461327e565b905092915050565b6000602082019050613ec760008301846132eb565b92915050565b60006020820190508181036000830152613ee7818461339d565b905092915050565b60006020820190508181036000830152613f0881613407565b9050919050565b60006020820190508181036000830152613f288161346d565b9050919050565b60006020820190508181036000830152613f48816134d3565b9050919050565b60006020820190508181036000830152613f6881613539565b9050919050565b60006020820190508181036000830152613f8881613579565b9050919050565b60006020820190508181036000830152613fa8816135df565b9050919050565b60006020820190508181036000830152613fc88161361f565b9050919050565b60006020820190508181036000830152613fe881613685565b9050919050565b60006020820190508181036000830152614008816136eb565b9050919050565b6000602082019050818103600083015261402881613751565b9050919050565b60006020820190508181036000830152614048816137b7565b9050919050565b600060208201905081810360008301526140688161381d565b9050919050565b6000602082019050818103600083015261408881613883565b9050919050565b600060208201905081810360008301526140a8816138c3565b9050919050565b600060208201905081810360008301526140c881613929565b9050919050565b600060208201905081810360008301526140e88161398f565b9050919050565b60006020820190508181036000830152614108816139cf565b9050919050565b6000602082019050818103600083015261412881613a35565b9050919050565b6000602082019050818103600083015261414881613a9b565b9050919050565b6000602082019050818103600083015261416881613b01565b9050919050565b6000602082019050818103600083015261418881613b67565b9050919050565b600060208201905081810360008301526141a881613bcd565b9050919050565b600060208201905081810360008301526141c881613c0d565b9050919050565b60006020820190506141e46000830184613d25565b92915050565b6000604051905081810181811067ffffffffffffffff821117156142115761421061444a565b5b8060405250919050565b600067ffffffffffffffff8211156142365761423561444a565b5b601f19601f8301169050602081019050919050565b600067ffffffffffffffff8211156142665761426561444a565b5b601f19601f8301169050602081019050919050565b6000819050602082019050919050565b6000819050602082019050919050565b600081519050919050565b600081519050919050565b600081519050919050565b600081519050919050565b6000602082019050919050565b6000602082019050919050565b600082825260208201905092915050565b600082825260208201905092915050565b600082825260208201905092915050565b600081905092915050565b600082825260208201905092915050565b600082825260208201905092915050565b600081905092915050565b6000614357826143a8565b9050919050565b6000614369826143a8565b9050919050565b60008115159050919050565b60007fffffffff0000000000000000000000000000000000000000000000000000000082169050919050565b600073ffffffffffffffffffffffffffffffffffffffff82169050919050565b6000819050919050565b60006143dd826143e4565b9050919050565b60006143ef826143f6565b9050919050565b6000614401826143a8565b9050919050565b82818337600083830152505050565b60005b8381101561443557808201518184015260208101905061441a565b83811115614444576000848401525b50505050565bfe5b6000601f19601f8301169050919050565b6144668161434c565b811461447157600080fd5b50565b61447d81614370565b811461448857600080fd5b50565b6144948161437c565b811461449f57600080fd5b50565b6144ab816143c8565b81146144b657600080fd5b5056fe4552433732313a207472616e7366657220746f206e6f6e20455243373231526563656976657220696d706c656d656e7465724552433732313a206f776e657220717565727920666f72206e6f6e6578697374656e7420746f6b656ea26469706673582212204021b9221693b56a69fc1a723938e121839cab328c093faded2deee1ea179ebc64736f6c63430007030033",
  "linkReferences": {},
  "deployedLinkReferences": {}
}