{
  "_format": "hh-sol-artifact-1",
  "contractName": "StyleArt",
  "sourceName": "contracts/StyleArt.sol",
  "abi": [
    {
      "inputs": [],
      "stateMutability": "nonpayable",
      "type": "constructor"
    },
    {
      "anonymous": false,
      "inputs": [
        {
          "indexed": true,
          "internalType": "address",
          "name": "owner",
          "type": "address"
        },
        {
          "indexed": true,
          "internalType": "address",
          "name": "approved",
          "type": "address"
        },
        {
          "indexed": true,
          "internalType": "uint256",
          "name": "tokenId",
          "type": "uint256"
        }
      ],
      "name": "Approval",
      "type": "event"
    },
    {
      "anonymous": false,
      "inputs": [
        {
          "indexed": true,
          "internalType": "address",
          "name": "owner",
          "type": "address"
        },
        {
          "indexed": true,
          "internalType": "address",
          "name": "operator",
          "type": "address"
        },
        {
          "indexed": false,
          "internalType": "bool",
          "name": "approved",
          "type": "bool"
        }
      ],
      "name": "ApprovalForAll",
      "type": "event"
    },
    {
      "anonymous": false,
      "inputs": [
        {
          "indexed": false,
          "internalType": "address",
          "name": "sender",
          "type": "address"
        },
        {
          "indexed": false,
          "internalType": "uint256",
          "name": "value",
          "type": "uint256"
        },
        {
          "indexed": false,
          "internalType": "uint256",
          "name": "transformationId",
          "type": "uint256"
        },
        {
          "indexed": false,
          "internalType": "uint256",
          "name": "transformationNumber",
          "type": "uint256"
        },
        {
          "indexed": false,
          "internalType": "bytes",
          "name": "params",
          "type": "bytes"
        }
      ],
      "name": "ImageGenerationPaid",
      "type": "event"
    },
    {
      "anonymous": false,
      "inputs": [
        {
          "indexed": true,
          "internalType": "address",
          "name": "previousOwner",
          "type": "address"
        },
        {
          "indexed": true,
          "internalType": "address",
          "name": "newOwner",
          "type": "address"
        }
      ],
      "name": "OwnershipTransferred",
      "type": "event"
    },
    {
      "anonymous": false,
      "inputs": [
        {
          "indexed": false,
          "internalType": "address",
          "name": "payer",
          "type": "address"
        },
        {
          "indexed": false,
          "internalType": "uint256",
          "name": "tokenId",
          "type": "uint256"
        },
        {
          "indexed": false,
          "internalType": "string",
          "name": "tokenURI",
          "type": "string"
        }
      ],
      "name": "TokenMinted",
      "type": "event"
    },
    {
      "anonymous": false,
      "inputs": [
        {
          "indexed": true,
          "internalType": "address",
          "name": "from",
          "type": "address"
        },
        {
          "indexed": true,
          "internalType": "address",
          "name": "to",
          "type": "address"
        },
        {
          "indexed": true,
          "internalType": "uint256",
          "name": "tokenId",
          "type": "uint256"
        }
      ],
      "name": "Transfer",
      "type": "event"
    },
    {
      "inputs": [
        {
          "internalType": "string",
          "name": "name",
          "type": "string"
        },
        {
          "internalType": "uint256",
          "name": "price",
          "type": "uint256"
        },
        {
          "internalType": "uint256",
          "name": "supply",
          "type": "uint256"
        }
      ],
      "name": "addTransformation",
      "outputs": [
        {
          "internalType": "uint256",
          "name": "",
          "type": "uint256"
        }
      ],
      "stateMutability": "nonpayable",
      "type": "function"
    },
    {
      "inputs": [
        {
          "internalType": "address",
          "name": "to",
          "type": "address"
        },
        {
          "internalType": "uint256",
          "name": "tokenId",
          "type": "uint256"
        }
      ],
      "name": "approve",
      "outputs": [],
      "stateMutability": "nonpayable",
      "type": "function"
    },
    {
      "inputs": [
        {
          "internalType": "address",
          "name": "owner",
          "type": "address"
        }
      ],
      "name": "balanceOf",
      "outputs": [
        {
          "internalType": "uint256",
          "name": "",
          "type": "uint256"
        }
      ],
      "stateMutability": "view",
      "type": "function"
    },
    {
      "inputs": [],
      "name": "baseURI",
      "outputs": [
        {
          "internalType": "string",
          "name": "",
          "type": "string"
        }
      ],
      "stateMutability": "view",
      "type": "function"
    },
    {
      "inputs": [
        {
          "internalType": "uint256",
          "name": "tokenId",
          "type": "uint256"
        }
      ],
      "name": "getApproved",
      "outputs": [
        {
          "internalType": "address",
          "name": "",
          "type": "address"
        }
      ],
      "stateMutability": "view",
      "type": "function"
    },
    {
      "inputs": [
        {
          "internalType": "address",
          "name": "owner",
          "type": "address"
        },
        {
          "internalType": "address",
          "name": "operator",
          "type": "address"
        }
      ],
      "name": "isApprovedForAll",
      "outputs": [
        {
          "internalType": "bool",
          "name": "",
          "type": "bool"
        }
      ],
      "stateMutability": "view",
      "type": "function"
    },
    {
      "inputs": [],
      "name": "listTransformations",
      "outputs": [
        {
          "components": [
            {
              "internalType": "uint256",
              "name": "id",
              "type": "uint256"
            },
            {
              "internalType": "uint256",
              "name": "price",
              "type": "uint256"
            },
            {
              "internalType": "uint256",
              "name": "supply",
              "type": "uint256"
            },
            {
              "internalType": "uint256",
              "name": "nTokens",
              "type": "uint256"
            },
            {
              "internalType": "string",
              "name": "name",
              "type": "string"
            },
            {
              "internalType": "bool",
              "name": "exists",
              "type": "bool"
            }
          ],
          "internalType": "struct StyleArt.Transformation[]",
          "name": "",
          "type": "tuple[]"
        }
      ],
      "stateMutability": "view",
      "type": "function"
    },
    {
      "inputs": [
        {
          "internalType": "address",
          "name": "payer",
          "type": "address"
        },
        {
          "internalType": "string",
          "name": "tokenURI",
          "type": "string"
        }
      ],
      "name": "mintNFT",
      "outputs": [
        {
          "internalType": "uint256",
          "name": "",
          "type": "uint256"
        }
      ],
      "stateMutability": "nonpayable",
      "type": "function"
    },
    {
      "inputs": [],
      "name": "name",
      "outputs": [
        {
          "internalType": "string",
          "name": "",
          "type": "string"
        }
      ],
      "stateMutability": "view",
      "type": "function"
    },
    {
      "inputs": [],
      "name": "owner",
      "outputs": [
        {
          "internalType": "address",
          "name": "",
          "type": "address"
        }
      ],
      "stateMutability": "view",
      "type": "function"
    },
    {
      "inputs": [
        {
          "internalType": "uint256",
          "name": "tokenId",
          "type": "uint256"
        }
      ],
      "name": "ownerOf",
      "outputs": [
        {
          "internalType": "address",
          "name": "",
          "type": "address"
        }
      ],
      "stateMutability": "view",
      "type": "function"
    },
    {
      "inputs": [
        {
          "internalType": "uint256",
          "name": "transformationId",
          "type": "uint256"
        },
        {
          "internalType": "bytes",
          "name": "params",
          "type": "bytes"
        }
      ],
      "name": "payGenerating",
      "outputs": [],
      "stateMutability": "payable",
      "type": "function"
    },
    {
      "inputs": [],
      "name": "renounceOwnership",
      "outputs": [],
      "stateMutability": "nonpayable",
      "type": "function"
    },
    {
      "inputs": [
        {
          "internalType": "address",
          "name": "from",
          "type": "address"
        },
        {
          "internalType": "address",
          "name": "to",
          "type": "address"
        },
        {
          "internalType": "uint256",
          "name": "tokenId",
          "type": "uint256"
        }
      ],
      "name": "safeTransferFrom",
      "outputs": [],
      "stateMutability": "nonpayable",
      "type": "function"
    },
    {
      "inputs": [
        {
          "internalType": "address",
          "name": "from",
          "type": "address"
        },
        {
          "internalType": "address",
          "name": "to",
          "type": "address"
        },
        {
          "internalType": "uint256",
          "name": "tokenId",
          "type": "uint256"
        },
        {
          "internalType": "bytes",
          "name": "_data",
          "type": "bytes"
        }
      ],
      "name": "safeTransferFrom",
      "outputs": [],
      "stateMutability": "nonpayable",
      "type": "function"
    },
    {
      "inputs": [
        {
          "internalType": "address",
          "name": "operator",
          "type": "address"
        },
        {
          "internalType": "bool",
          "name": "approved",
          "type": "bool"
        }
      ],
      "name": "setApprovalForAll",
      "outputs": [],
      "stateMutability": "nonpayable",
      "type": "function"
    },
    {
      "inputs": [
        {
          "internalType": "bytes4",
          "name": "interfaceId",
          "type": "bytes4"
        }
      ],
      "name": "supportsInterface",
      "outputs": [
        {
          "internalType": "bool",
          "name": "",
          "type": "bool"
        }
      ],
      "stateMutability": "view",
      "type": "function"
    },
    {
      "inputs": [],
      "name": "symbol",
      "outputs": [
        {
          "internalType": "string",
          "name": "",
          "type": "string"
        }
      ],
      "stateMutability": "view",
      "type": "function"
    },
    {
      "inputs": [
        {
          "internalType": "uint256",
          "name": "index",
          "type": "uint256"
        }
      ],
      "name": "tokenByIndex",
      "outputs": [
        {
          "internalType": "uint256",
          "name": "",
          "type": "uint256"
        }
      ],
      "stateMutability": "view",
      "type": "function"
    },
    {
      "inputs": [
        {
          "internalType": "address",
          "name": "owner",
          "type": "address"
        },
        {
          "internalType": "uint256",
          "name": "index",
          "type": "uint256"
        }
      ],
      "name": "tokenOfOwnerByIndex",
      "outputs": [
        {
          "internalType": "uint256",
          "name": "",
          "type": "uint256"
        }
      ],
      "stateMutability": "view",
      "type": "function"
    },
    {
      "inputs": [
        {
          "internalType": "uint256",
          "name": "tokenId",
          "type": "uint256"
        }
      ],
      "name": "tokenURI",
      "outputs": [
        {
          "internalType": "string",
          "name": "",
          "type": "string"
        }
      ],
      "stateMutability": "view",
      "type": "function"
    },
    {
      "inputs": [],
      "name": "totalSupply",
      "outputs": [
        {
          "internalType": "uint256",
          "name": "",
          "type": "uint256"
        }
      ],
      "stateMutability": "view",
      "type": "function"
    },
    {
      "inputs": [
        {
          "internalType": "address",
          "name": "from",
          "type": "address"
        },
        {
          "internalType": "address",
          "name": "to",
          "type": "address"
        },
        {
          "internalType": "uint256",
          "name": "tokenId",
          "type": "uint256"
        }
      ],
      "name": "transferFrom",
      "outputs": [],
      "stateMutability": "nonpayable",
      "type": "function"
    },
    {
      "inputs": [
        {
          "internalType": "address",
          "name": "newOwner",
          "type": "address"
        }
      ],
      "name": "transferOwnership",
      "outputs": [],
      "stateMutability": "nonpayable",
      "type": "function"
    },
    {
      "inputs": [
        {
          "internalType": "uint256",
          "name": "id",
          "type": "uint256"
        },
        {
          "internalType": "uint256",
          "name": "price",
          "type": "uint256"
        }
      ],
      "name": "updateTransformationPrice",
      "outputs": [
        {
          "internalType": "bool",
          "name": "",
          "type": "bool"
        }
      ],
      "stateMutability": "nonpayable",
      "type": "function"
    },
    {
      "inputs": [
        {
          "internalType": "address",
          "name": "user",
          "type": "address"
        }
      ],
      "name": "userGeneratedTokens",
      "outputs": [
        {
          "internalType": "uint256[]",
          "name": "",
          "type": "uint256[]"
        }
      ],
      "stateMutability": "view",
      "type": "function"
    }
  ],
  "bytecode": "0x60806040523480156200001157600080fd5b506040518060400160405280600881526020017f7374796c656172740000000000000000000000000000000000000000000000008152506040518060400160405280600481526020017f7361727400000000000000000000000000000000000000000000000000000000815250620000966301ffc9a760e01b6200020a60201b60201c565b8160069080519060200190620000ae929190620002ea565b508060079080519060200190620000c7929190620002ea565b50620000e06380ac58cd60e01b6200020a60201b60201c565b620000f8635b5e139f60e01b6200020a60201b60201c565b6200011063780e9d6360e01b6200020a60201b60201c565b5050600062000124620002e260201b60201c565b905080600a60006101000a81548173ffffffffffffffffffffffffffffffffffffffff021916908373ffffffffffffffffffffffffffffffffffffffff1602179055508073ffffffffffffffffffffffffffffffffffffffff16600073ffffffffffffffffffffffffffffffffffffffff167f8be0079c531659141344cd1fd0a4f28419497f9722a3daafe3b4186f6b6457e060405160405180910390a35033600d60006101000a81548173ffffffffffffffffffffffffffffffffffffffff021916908373ffffffffffffffffffffffffffffffffffffffff16021790555062000405565b63ffffffff60e01b817bffffffffffffffffffffffffffffffffffffffffffffffffffffffff1916141562000276576040517f08c379a00000000000000000000000000000000000000000000000000000000081526004016200026d90620003d2565b60405180910390fd5b6001600080837bffffffffffffffffffffffffffffffffffffffffffffffffffffffff19167bffffffffffffffffffffffffffffffffffffffffffffffffffffffff1916815260200190815260200160002060006101000a81548160ff02191690831515021790555050565b600033905090565b828054600181600116156101000203166002900490600052602060002090601f016020900481019282601f106200032d57805160ff19168380011785556200035e565b828001600101855582156200035e579182015b828111156200035d57825182559160200191906001019062000340565b5b5090506200036d919062000371565b5090565b5b808211156200038c57600081600090555060010162000372565b5090565b60006200039f601c83620003f4565b91507f4552433136353a20696e76616c696420696e74657266616365206964000000006000830152602082019050919050565b60006020820190508181036000830152620003ed8162000390565b9050919050565b600082825260208201905092915050565b61443780620004156000396000f3fe6080604052600436106101815760003560e01c80636c0360eb116100d1578063b88d4fde1161008a578063e985e9c511610064578063e985e9c5146105ad578063e9c7723d146105ea578063eacabe1414610627578063f2fde38b1461066457610181565b8063b88d4fde1461050a578063c87b56dd14610533578063e3a6f8fc1461057057610181565b80636c0360eb1461040c57806370a0823114610437578063715018a6146104745780638da5cb5b1461048b57806395d89b41146104b6578063a22cb465146104e157610181565b80632362382d1161013e57806342842e0e1161011857806342842e0e1461034d5780634f6ccce7146103765780636352211e146103b357806367388566146103f057610181565b80632362382d146102aa57806323b872dd146102e75780632f745c591461031057610181565b806301ffc9a71461018657806306fdde03146101c3578063081812fc146101ee578063095ea7b31461022b57806318160ddd146102545780631935ec9f1461027f575b600080fd5b34801561019257600080fd5b506101ad60048036038101906101a89190612f45565b61068d565b6040516101ba9190613d9f565b60405180910390f35b3480156101cf57600080fd5b506101d86106f4565b6040516101e59190613dba565b60405180910390f35b3480156101fa57600080fd5b5061021560048036038101906102109190612ffe565b610796565b6040516102229190613c5c565b60405180910390f35b34801561023757600080fd5b50610252600480360381019061024d9190612f09565b61081b565b005b34801561026057600080fd5b50610269610933565b60405161027691906140bc565b60405180910390f35b34801561028b57600080fd5b50610294610944565b6040516102a19190613d5b565b60405180910390f35b3480156102b657600080fd5b506102d160048036038101906102cc919061307b565b610af6565b6040516102de9190613d9f565b60405180910390f35b3480156102f357600080fd5b5061030e60048036038101906103099190612daf565b610b99565b005b34801561031c57600080fd5b5061033760048036038101906103329190612f09565b610bf9565b60405161034491906140bc565b60405180910390f35b34801561035957600080fd5b50610374600480360381019061036f9190612daf565b610c54565b005b34801561038257600080fd5b5061039d60048036038101906103989190612ffe565b610c74565b6040516103aa91906140bc565b60405180910390f35b3480156103bf57600080fd5b506103da60048036038101906103d59190612ffe565b610c97565b6040516103e79190613c5c565b60405180910390f35b61040a60048036038101906104059190613027565b610cce565b005b34801561041857600080fd5b50610421610f17565b60405161042e9190613dba565b60405180910390f35b34801561044357600080fd5b5061045e60048036038101906104599190612d4a565b610fb9565b60405161046b91906140bc565b60405180910390f35b34801561048057600080fd5b50610489611078565b005b34801561049757600080fd5b506104a06111b5565b6040516104ad9190613c5c565b60405180910390f35b3480156104c257600080fd5b506104cb6111df565b6040516104d89190613dba565b60405180910390f35b3480156104ed57600080fd5b5061050860048036038101906105039190612e79565b611281565b005b34801561051657600080fd5b50610531600480360381019061052c9190612dfe565b611402565b005b34801561053f57600080fd5b5061055a60048036038101906105559190612ffe565b611464565b6040516105679190613dba565b60405180910390f35b34801561057c57600080fd5b5061059760048036038101906105929190612f97565b6115e7565b6040516105a491906140bc565b60405180910390f35b3480156105b957600080fd5b506105d460048036038101906105cf9190612d73565b61175d565b6040516105e19190613d9f565b60405180910390f35b3480156105f657600080fd5b50610611600480360381019061060c9190612d4a565b6117f1565b60405161061e9190613d7d565b60405180910390f35b34801561063357600080fd5b5061064e60048036038101906106499190612eb5565b611888565b60405161065b91906140bc565b60405180910390f35b34801561067057600080fd5b5061068b60048036038101906106869190612d4a565b6119dd565b005b6000806000837bffffffffffffffffffffffffffffffffffffffffffffffffffffffff19167bffffffffffffffffffffffffffffffffffffffffffffffffffffffff1916815260200190815260200160002060009054906101000a900460ff169050919050565b606060068054600181600116156101000203166002900480601f01602080910402602001604051908101604052809291908181526020018280546001816001161561010002031660029004801561078c5780601f106107615761010080835404028352916020019161078c565b820191906000526020600020905b81548152906001019060200180831161076f57829003601f168201915b5050505050905090565b60006107a182611b89565b6107e0576040517f08c379a00000000000000000000000000000000000000000000000000000000081526004016107d790613f7c565b60405180910390fd5b6004600083815260200190815260200160002060009054906101000a900473ffffffffffffffffffffffffffffffffffffffff169050919050565b600061082682610c97565b90508073ffffffffffffffffffffffffffffffffffffffff168373ffffffffffffffffffffffffffffffffffffffff161415610897576040517f08c379a000000000000000000000000000000000000000000000000000000000815260040161088e9061401c565b60405180910390fd5b8073ffffffffffffffffffffffffffffffffffffffff166108b6611ba6565b73ffffffffffffffffffffffffffffffffffffffff1614806108e557506108e4816108df611ba6565b61175d565b5b610924576040517f08c379a000000000000000000000000000000000000000000000000000000000815260040161091b90613efc565b60405180910390fd5b61092e8383611bae565b505050565b600061093f6002611c67565b905090565b606080600f8054905067ffffffffffffffff8111801561096357600080fd5b5060405190808252806020026020018201604052801561099d57816020015b61098a612b64565b8152602001906001900390816109825790505b50905060005b600f80549050811015610aee5760106000600f83815481106109c157fe5b906000526020600020015481526020019081526020016000206040518060c001604052908160008201548152602001600182015481526020016002820154815260200160038201548152602001600482018054600181600116156101000203166002900480601f016020809104026020016040519081016040528092919081815260200182805460018160011615610100020316600290048015610aa65780601f10610a7b57610100808354040283529160200191610aa6565b820191906000526020600020905b815481529060010190602001808311610a8957829003601f168201915b505050505081526020016005820160009054906101000a900460ff161515151581525050828281518110610ad657fe5b602002602001018190525080806001019150506109a3565b508091505090565b6000610b00611ba6565b73ffffffffffffffffffffffffffffffffffffffff16610b1e6111b5565b73ffffffffffffffffffffffffffffffffffffffff1614610b74576040517f08c379a0000000000000000000000000000000000000000000000000000000008152600401610b6b90613fbc565b60405180910390fd5b8160106000858152602001908152602001600020600101819055506001905092915050565b610baa610ba4611ba6565b82611c7c565b610be9576040517f08c379a0000000000000000000000000000000000000000000000000000000008152600401610be09061405c565b60405180910390fd5b610bf4838383611d5a565b505050565b6000610c4c82600160008673ffffffffffffffffffffffffffffffffffffffff1673ffffffffffffffffffffffffffffffffffffffff168152602001908152602001600020611f7190919063ffffffff16565b905092915050565b610c6f83838360405180602001604052806000815250611402565b505050565b600080610c8b836002611f8b90919063ffffffff16565b50905080915050919050565b6000610cc7826040518060600160405280602981526020016143d9602991396002611fb79092919063ffffffff16565b9050919050565b81346010600083815260200190815260200160002060050160009054906101000a900460ff1615610dc45780601060008481526020019081526020016000206001015414610d51576040517f08c379a0000000000000000000000000000000000000000000000000000000008152600401610d489061409c565b60405180910390fd5b6010600083815260200190815260200160002060020154601060008481526020019081526020016000206003015410610dbf576040517f08c379a0000000000000000000000000000000000000000000000000000000008152600401610db69061403c565b60405180910390fd5b610e28565b6010600083815260200190815260200160002060050160009054906101000a900460ff16610e27576040517f08c379a0000000000000000000000000000000000000000000000000000000008152600401610e1e90613e9c565b60405180910390fd5b5b60006001601060008781526020019081526020016000206003016000828254019250508190555060106000868152602001908152602001600020600301549050600d60009054906101000a900473ffffffffffffffffffffffffffffffffffffffff1673ffffffffffffffffffffffffffffffffffffffff166108fc349081150290604051600060405180830381858888f19350505050158015610ed0573d6000803e3d6000fd5b507fd8e40976882f1a257a5dfa438d0b49ed3bba40181ff40ec72129a8338394a7143334878488604051610f08959493929190613cc3565b60405180910390a15050505050565b606060098054600181600116156101000203166002900480601f016020809104026020016040519081016040528092919081815260200182805460018160011615610100020316600290048015610faf5780601f10610f8457610100808354040283529160200191610faf565b820191906000526020600020905b815481529060010190602001808311610f9257829003601f168201915b5050505050905090565b60008073ffffffffffffffffffffffffffffffffffffffff168273ffffffffffffffffffffffffffffffffffffffff16141561102a576040517f08c379a000000000000000000000000000000000000000000000000000000000815260040161102190613f1c565b60405180910390fd5b611071600160008473ffffffffffffffffffffffffffffffffffffffff1673ffffffffffffffffffffffffffffffffffffffff168152602001908152602001600020611fd6565b9050919050565b611080611ba6565b73ffffffffffffffffffffffffffffffffffffffff1661109e6111b5565b73ffffffffffffffffffffffffffffffffffffffff16146110f4576040517f08c379a00000000000000000000000000000000000000000000000000000000081526004016110eb90613fbc565b60405180910390fd5b600073ffffffffffffffffffffffffffffffffffffffff16600a60009054906101000a900473ffffffffffffffffffffffffffffffffffffffff1673ffffffffffffffffffffffffffffffffffffffff167f8be0079c531659141344cd1fd0a4f28419497f9722a3daafe3b4186f6b6457e060405160405180910390a36000600a60006101000a81548173ffffffffffffffffffffffffffffffffffffffff021916908373ffffffffffffffffffffffffffffffffffffffff160217905550565b6000600a60009054906101000a900473ffffffffffffffffffffffffffffffffffffffff16905090565b606060078054600181600116156101000203166002900480601f0160208091040260200160405190810160405280929190818152602001828054600181600116156101000203166002900480156112775780601f1061124c57610100808354040283529160200191611277565b820191906000526020600020905b81548152906001019060200180831161125a57829003601f168201915b5050505050905090565b611289611ba6565b73ffffffffffffffffffffffffffffffffffffffff168273ffffffffffffffffffffffffffffffffffffffff1614156112f7576040517f08c379a00000000000000000000000000000000000000000000000000000000081526004016112ee90613e7c565b60405180910390fd5b8060056000611304611ba6565b73ffffffffffffffffffffffffffffffffffffffff1673ffffffffffffffffffffffffffffffffffffffff16815260200190815260200160002060008473ffffffffffffffffffffffffffffffffffffffff1673ffffffffffffffffffffffffffffffffffffffff16815260200190815260200160002060006101000a81548160ff0219169083151502179055508173ffffffffffffffffffffffffffffffffffffffff166113b1611ba6565b73ffffffffffffffffffffffffffffffffffffffff167f17307eab39ab6107e8899845ad3d59bd9653f200f220920489ca2b5937696c31836040516113f69190613d9f565b60405180910390a35050565b61141361140d611ba6565b83611c7c565b611452576040517f08c379a00000000000000000000000000000000000000000000000000000000081526004016114499061405c565b60405180910390fd5b61145e84848484611feb565b50505050565b606061146f82611b89565b6114ae576040517f08c379a00000000000000000000000000000000000000000000000000000000081526004016114a590613ffc565b60405180910390fd5b6060600860008481526020019081526020016000208054600181600116156101000203166002900480601f0160208091040260200160405190810160405280929190818152602001828054600181600116156101000203166002900480156115575780601f1061152c57610100808354040283529160200191611557565b820191906000526020600020905b81548152906001019060200180831161153a57829003601f168201915b505050505090506060611568610f17565b905060008151141561157e5781925050506115e2565b6000825111156115b357808260405160200161159b929190613c38565b604051602081830303815290604052925050506115e2565b806115bd85612047565b6040516020016115ce929190613c38565b604051602081830303815290604052925050505b919050565b60006115f1611ba6565b73ffffffffffffffffffffffffffffffffffffffff1661160f6111b5565b73ffffffffffffffffffffffffffffffffffffffff1614611665576040517f08c379a000000000000000000000000000000000000000000000000000000000815260040161165c90613fbc565b60405180910390fd5b61166f600c61218e565b600061167b600c6121a4565b9050600f8190806001815401808255809150506001900390600052602060002001600090919091909150556040518060c0016040528082815260200185815260200184815260200160008152602001868152602001600115158152506010600083815260200190815260200160002060008201518160000155602082015181600101556040820151816002015560608201518160030155608082015181600401908051906020019061172e929190612b9c565b5060a08201518160050160006101000a81548160ff021916908315150217905550905050809150509392505050565b6000600560008473ffffffffffffffffffffffffffffffffffffffff1673ffffffffffffffffffffffffffffffffffffffff16815260200190815260200160002060008373ffffffffffffffffffffffffffffffffffffffff1673ffffffffffffffffffffffffffffffffffffffff16815260200190815260200160002060009054906101000a900460ff16905092915050565b6060600e60008373ffffffffffffffffffffffffffffffffffffffff1673ffffffffffffffffffffffffffffffffffffffff16815260200190815260200160002080548060200260200160405190810160405280929190818152602001828054801561187c57602002820191906000526020600020905b815481526020019060010190808311611868575b50505050509050919050565b6000611892611ba6565b73ffffffffffffffffffffffffffffffffffffffff166118b06111b5565b73ffffffffffffffffffffffffffffffffffffffff1614611906576040517f08c379a00000000000000000000000000000000000000000000000000000000081526004016118fd90613fbc565b60405180910390fd5b611910600b61218e565b600061191c600b6121a4565b905061192884826121b2565b6119328184612340565b600e60008573ffffffffffffffffffffffffffffffffffffffff1673ffffffffffffffffffffffffffffffffffffffff1681526020019081526020016000208190806001815401808255809150506001900390600052602060002001600090919091909150557fdf92894dc4675a7333caa5903b69cf5d8e8ec0d3f361c88207b6688e525703bb8482856040516119cb93929190613d1d565b60405180910390a18091505092915050565b6119e5611ba6565b73ffffffffffffffffffffffffffffffffffffffff16611a036111b5565b73ffffffffffffffffffffffffffffffffffffffff1614611a59576040517f08c379a0000000000000000000000000000000000000000000000000000000008152600401611a5090613fbc565b60405180910390fd5b600073ffffffffffffffffffffffffffffffffffffffff168173ffffffffffffffffffffffffffffffffffffffff161415611ac9576040517f08c379a0000000000000000000000000000000000000000000000000000000008152600401611ac090613e1c565b60405180910390fd5b8073ffffffffffffffffffffffffffffffffffffffff16600a60009054906101000a900473ffffffffffffffffffffffffffffffffffffffff1673ffffffffffffffffffffffffffffffffffffffff167f8be0079c531659141344cd1fd0a4f28419497f9722a3daafe3b4186f6b6457e060405160405180910390a380600a60006101000a81548173ffffffffffffffffffffffffffffffffffffffff021916908373ffffffffffffffffffffffffffffffffffffffff16021790555050565b6000611b9f8260026123b490919063ffffffff16565b9050919050565b600033905090565b816004600083815260200190815260200160002060006101000a81548173ffffffffffffffffffffffffffffffffffffffff021916908373ffffffffffffffffffffffffffffffffffffffff160217905550808273ffffffffffffffffffffffffffffffffffffffff16611c2183610c97565b73ffffffffffffffffffffffffffffffffffffffff167f8c5be1e5ebec7d5bd14f71427d1e84f3dd0314c0f7b2291e5b200ac8c7c3b92560405160405180910390a45050565b6000611c75826000016123ce565b9050919050565b6000611c8782611b89565b611cc6576040517f08c379a0000000000000000000000000000000000000000000000000000000008152600401611cbd90613edc565b60405180910390fd5b6000611cd183610c97565b90508073ffffffffffffffffffffffffffffffffffffffff168473ffffffffffffffffffffffffffffffffffffffff161480611d4057508373ffffffffffffffffffffffffffffffffffffffff16611d2884610796565b73ffffffffffffffffffffffffffffffffffffffff16145b80611d515750611d50818561175d565b5b91505092915050565b8273ffffffffffffffffffffffffffffffffffffffff16611d7a82610c97565b73ffffffffffffffffffffffffffffffffffffffff1614611dd0576040517f08c379a0000000000000000000000000000000000000000000000000000000008152600401611dc790613fdc565b60405180910390fd5b600073ffffffffffffffffffffffffffffffffffffffff168273ffffffffffffffffffffffffffffffffffffffff161415611e40576040517f08c379a0000000000000000000000000000000000000000000000000000000008152600401611e3790613e5c565b60405180910390fd5b611e4b8383836123df565b611e56600082611bae565b611ea781600160008673ffffffffffffffffffffffffffffffffffffffff1673ffffffffffffffffffffffffffffffffffffffff1681526020019081526020016000206123e490919063ffffffff16565b50611ef981600160008573ffffffffffffffffffffffffffffffffffffffff1673ffffffffffffffffffffffffffffffffffffffff1681526020019081526020016000206123fe90919063ffffffff16565b50611f10818360026124189092919063ffffffff16565b50808273ffffffffffffffffffffffffffffffffffffffff168473ffffffffffffffffffffffffffffffffffffffff167fddf252ad1be2c89b69c2b068fc378daa952ba7f163c4a11628f55a4df523b3ef60405160405180910390a4505050565b6000611f80836000018361244d565b60001c905092915050565b600080600080611f9e86600001866124ba565b915091508160001c8160001c9350935050509250929050565b6000611fca846000018460001b8461253d565b60001c90509392505050565b6000611fe4826000016125ce565b9050919050565b611ff6848484611d5a565b612002848484846125df565b612041576040517f08c379a000000000000000000000000000000000000000000000000000000000815260040161203890613dfc565b60405180910390fd5b50505050565b6060600082141561208f576040518060400160405280600181526020017f30000000000000000000000000000000000000000000000000000000000000008152509050612189565b600082905060005b600082146120b9578080600101915050600a82816120b157fe5b049150612097565b60608167ffffffffffffffff811180156120d257600080fd5b506040519080825280601f01601f1916602001820160405280156121055781602001600182028036833780820191505090505b50905060006001830390508593505b6000841461218157600a848161212657fe5b0660300160f81b8282806001900393508151811061214057fe5b60200101907effffffffffffffffffffffffffffffffffffffffffffffffffffffffffffff1916908160001a905350600a848161217957fe5b049350612114565b819450505050505b919050565b6001816000016000828254019250508190555050565b600081600001549050919050565b600073ffffffffffffffffffffffffffffffffffffffff168273ffffffffffffffffffffffffffffffffffffffff161415612222576040517f08c379a000000000000000000000000000000000000000000000000000000000815260040161221990613f5c565b60405180910390fd5b61222b81611b89565b1561226b576040517f08c379a000000000000000000000000000000000000000000000000000000000815260040161226290613e3c565b60405180910390fd5b612277600083836123df565b6122c881600160008573ffffffffffffffffffffffffffffffffffffffff1673ffffffffffffffffffffffffffffffffffffffff1681526020019081526020016000206123fe90919063ffffffff16565b506122df818360026124189092919063ffffffff16565b50808273ffffffffffffffffffffffffffffffffffffffff16600073ffffffffffffffffffffffffffffffffffffffff167fddf252ad1be2c89b69c2b068fc378daa952ba7f163c4a11628f55a4df523b3ef60405160405180910390a45050565b61234982611b89565b612388576040517f08c379a000000000000000000000000000000000000000000000000000000000815260040161237f90613f9c565b60405180910390fd5b806008600084815260200190815260200160002090805190602001906123af929190612b9c565b505050565b60006123c6836000018360001b612743565b905092915050565b600081600001805490509050919050565b505050565b60006123f6836000018360001b612766565b905092915050565b6000612410836000018360001b61284e565b905092915050565b6000612444846000018460001b8473ffffffffffffffffffffffffffffffffffffffff1660001b6128be565b90509392505050565b600081836000018054905011612498576040517f08c379a000000000000000000000000000000000000000000000000000000000815260040161248f90613ddc565b60405180910390fd5b8260000182815481106124a757fe5b9060005260206000200154905092915050565b60008082846000018054905011612506576040517f08c379a00000000000000000000000000000000000000000000000000000000081526004016124fd90613f3c565b60405180910390fd5b600084600001848154811061251757fe5b906000526020600020906002020190508060000154816001015492509250509250929050565b6000808460010160008581526020019081526020016000205490506000811415839061259f576040517f08c379a00000000000000000000000000000000000000000000000000000000081526004016125969190613dba565b60405180910390fd5b508460000160018203815481106125b257fe5b9060005260206000209060020201600101549150509392505050565b600081600001805490509050919050565b60006126008473ffffffffffffffffffffffffffffffffffffffff1661299a565b61260d576001905061273b565b60606126d463150b7a0260e01b612622611ba6565b8887876040516024016126389493929190613c77565b604051602081830303815290604052907bffffffffffffffffffffffffffffffffffffffffffffffffffffffff19166020820180517bffffffffffffffffffffffffffffffffffffffffffffffffffffffff83818316178352505050506040518060600160405280603281526020016143a7603291398773ffffffffffffffffffffffffffffffffffffffff166129ad9092919063ffffffff16565b90506000818060200190518101906126ec9190612f6e565b905063150b7a0260e01b7bffffffffffffffffffffffffffffffffffffffffffffffffffffffff1916817bffffffffffffffffffffffffffffffffffffffffffffffffffffffff191614925050505b949350505050565b600080836001016000848152602001908152602001600020541415905092915050565b6000808360010160008481526020019081526020016000205490506000811461284257600060018203905060006001866000018054905003905060008660000182815481106127b157fe5b90600052602060002001549050808760000184815481106127ce57fe5b906000526020600020018190555060018301876001016000838152602001908152602001600020819055508660000180548061280657fe5b60019003818190600052602060002001600090559055866001016000878152602001908152602001600020600090556001945050505050612848565b60009150505b92915050565b600061285a83836129c5565b6128b35782600001829080600181540180825580915050600190039060005260206000200160009091909190915055826000018054905083600101600084815260200190815260200160002081905550600190506128b8565b600090505b92915050565b600080846001016000858152602001908152602001600020549050600081141561296557846000016040518060400160405280868152602001858152509080600181540180825580915050600190039060005260206000209060020201600090919091909150600082015181600001556020820151816001015550508460000180549050856001016000868152602001908152602001600020819055506001915050612993565b8285600001600183038154811061297857fe5b90600052602060002090600202016001018190555060009150505b9392505050565b600080823b905060008111915050919050565b60606129bc84846000856129e8565b90509392505050565b600080836001016000848152602001908152602001600020541415905092915050565b606082471015612a2d576040517f08c379a0000000000000000000000000000000000000000000000000000000008152600401612a2490613ebc565b60405180910390fd5b612a368561299a565b612a75576040517f08c379a0000000000000000000000000000000000000000000000000000000008152600401612a6c9061407c565b60405180910390fd5b600060608673ffffffffffffffffffffffffffffffffffffffff168587604051612a9f9190613c21565b60006040518083038185875af1925050503d8060008114612adc576040519150601f19603f3d011682016040523d82523d6000602084013e612ae1565b606091505b5091509150612af1828286612afd565b92505050949350505050565b60608315612b0d57829050612b5d565b600083511115612b205782518084602001fd5b816040517f08c379a0000000000000000000000000000000000000000000000000000000008152600401612b549190613dba565b60405180910390fd5b9392505050565b6040518060c0016040528060008152602001600081526020016000815260200160008152602001606081526020016000151581525090565b828054600181600116156101000203166002900490600052602060002090601f016020900481019282601f10612bdd57805160ff1916838001178555612c0b565b82800160010185558215612c0b579182015b82811115612c0a578251825591602001919060010190612bef565b5b509050612c189190612c1c565b5090565b5b80821115612c35576000816000905550600101612c1d565b5090565b600081359050612c488161434a565b92915050565b600081359050612c5d81614361565b92915050565b600081359050612c7281614378565b92915050565b600081519050612c8781614378565b92915050565b600082601f830112612c9e57600080fd5b8135612cb1612cac82614108565b6140d7565b91508082526020830160208301858383011115612ccd57600080fd5b612cd88382846142f5565b50505092915050565b600082601f830112612cf257600080fd5b8135612d05612d0082614138565b6140d7565b91508082526020830160208301858383011115612d2157600080fd5b612d2c8382846142f5565b50505092915050565b600081359050612d448161438f565b92915050565b600060208284031215612d5c57600080fd5b6000612d6a84828501612c39565b91505092915050565b60008060408385031215612d8657600080fd5b6000612d9485828601612c39565b9250506020612da585828601612c39565b9150509250929050565b600080600060608486031215612dc457600080fd5b6000612dd286828701612c39565b9350506020612de386828701612c39565b9250506040612df486828701612d35565b9150509250925092565b60008060008060808587031215612e1457600080fd5b6000612e2287828801612c39565b9450506020612e3387828801612c39565b9350506040612e4487828801612d35565b925050606085013567ffffffffffffffff811115612e6157600080fd5b612e6d87828801612c8d565b91505092959194509250565b60008060408385031215612e8c57600080fd5b6000612e9a85828601612c39565b9250506020612eab85828601612c4e565b9150509250929050565b60008060408385031215612ec857600080fd5b6000612ed685828601612c39565b925050602083013567ffffffffffffffff811115612ef357600080fd5b612eff85828601612ce1565b9150509250929050565b60008060408385031215612f1c57600080fd5b6000612f2a85828601612c39565b9250506020612f3b85828601612d35565b9150509250929050565b600060208284031215612f5757600080fd5b6000612f6584828501612c63565b91505092915050565b600060208284031215612f8057600080fd5b6000612f8e84828501612c78565b91505092915050565b600080600060608486031215612fac57600080fd5b600084013567ffffffffffffffff811115612fc657600080fd5b612fd286828701612ce1565b9350506020612fe386828701612d35565b9250506040612ff486828701612d35565b9150509250925092565b60006020828403121561301057600080fd5b600061301e84828501612d35565b91505092915050565b6000806040838503121561303a57600080fd5b600061304885828601612d35565b925050602083013567ffffffffffffffff81111561306557600080fd5b61307185828601612c8d565b9150509250929050565b6000806040838503121561308e57600080fd5b600061309c85828601612d35565b92505060206130ad85828601612d35565b9150509250929050565b60006130c38383613b7a565b905092915050565b60006130d78383613c03565b60208301905092915050565b6130ec816142bf565b82525050565b6130fb8161424b565b82525050565b61310a81614239565b82525050565b600061311b82614188565b61312581856141ce565b93508360208202850161313785614168565b8060005b85811015613173578484038952815161315485826130b7565b945061315f836141b4565b925060208a0199505060018101905061313b565b50829750879550505050505092915050565b600061319082614193565b61319a81856141df565b93506131a583614178565b8060005b838110156131d65781516131bd88826130cb565b97506131c8836141c1565b9250506001810190506131a9565b5085935050505092915050565b6131ec8161425d565b82525050565b6131fb8161425d565b82525050565b600061320c8261419e565b61321681856141f0565b9350613226818560208601614304565b61322f81614339565b840191505092915050565b60006132458261419e565b61324f8185614201565b935061325f818560208601614304565b80840191505092915050565b6000613276826141a9565b613280818561420c565b9350613290818560208601614304565b61329981614339565b840191505092915050565b60006132af826141a9565b6132b9818561421d565b93506132c9818560208601614304565b6132d281614339565b840191505092915050565b60006132e8826141a9565b6132f2818561422e565b9350613302818560208601614304565b80840191505092915050565b600061331b60228361421d565b91507f456e756d657261626c655365743a20696e646578206f7574206f6620626f756e60008301527f64730000000000000000000000000000000000000000000000000000000000006020830152604082019050919050565b600061338160328361421d565b91507f4552433732313a207472616e7366657220746f206e6f6e20455243373231526560008301527f63656976657220696d706c656d656e74657200000000000000000000000000006020830152604082019050919050565b60006133e760268361421d565b91507f4f776e61626c653a206e6577206f776e657220697320746865207a65726f206160008301527f64647265737300000000000000000000000000000000000000000000000000006020830152604082019050919050565b600061344d601c8361421d565b91507f4552433732313a20746f6b656e20616c7265616479206d696e746564000000006000830152602082019050919050565b600061348d60248361421d565b91507f4552433732313a207472616e7366657220746f20746865207a65726f2061646460008301527f72657373000000000000000000000000000000000000000000000000000000006020830152604082019050919050565b60006134f360198361421d565b91507f4552433732313a20617070726f766520746f2063616c6c6572000000000000006000830152602082019050919050565b600061353360268361421d565b91507f526571756573746564207472616e73666f726d6174696f6e20646f65736e277460008301527f20657869737400000000000000000000000000000000000000000000000000006020830152604082019050919050565b600061359960268361421d565b91507f416464726573733a20696e73756666696369656e742062616c616e636520666f60008301527f722063616c6c00000000000000000000000000000000000000000000000000006020830152604082019050919050565b60006135ff602c8361421d565b91507f4552433732313a206f70657261746f7220717565727920666f72206e6f6e657860008301527f697374656e7420746f6b656e00000000000000000000000000000000000000006020830152604082019050919050565b600061366560388361421d565b91507f4552433732313a20617070726f76652063616c6c6572206973206e6f74206f7760008301527f6e6572206e6f7220617070726f76656420666f7220616c6c00000000000000006020830152604082019050919050565b60006136cb602a8361421d565b91507f4552433732313a2062616c616e636520717565727920666f7220746865207a6560008301527f726f2061646472657373000000000000000000000000000000000000000000006020830152604082019050919050565b600061373160228361421d565b91507f456e756d657261626c654d61703a20696e646578206f7574206f6620626f756e60008301527f64730000000000000000000000000000000000000000000000000000000000006020830152604082019050919050565b600061379760208361421d565b91507f4552433732313a206d696e7420746f20746865207a65726f20616464726573736000830152602082019050919050565b60006137d7602c8361421d565b91507f4552433732313a20617070726f76656420717565727920666f72206e6f6e657860008301527f697374656e7420746f6b656e00000000000000000000000000000000000000006020830152604082019050919050565b600061383d602c8361421d565b91507f4552433732314d657461646174613a2055524920736574206f66206e6f6e657860008301527f697374656e7420746f6b656e00000000000000000000000000000000000000006020830152604082019050919050565b60006138a360208361421d565b91507f4f776e61626c653a2063616c6c6572206973206e6f7420746865206f776e65726000830152602082019050919050565b60006138e360298361421d565b91507f4552433732313a207472616e73666572206f6620746f6b656e2074686174206960008301527f73206e6f74206f776e00000000000000000000000000000000000000000000006020830152604082019050919050565b6000613949602f8361421d565b91507f4552433732314d657461646174613a2055524920717565727920666f72206e6f60008301527f6e6578697374656e7420746f6b656e00000000000000000000000000000000006020830152604082019050919050565b60006139af60218361421d565b91507f4552433732313a20617070726f76616c20746f2063757272656e74206f776e6560008301527f72000000000000000000000000000000000000000000000000000000000000006020830152604082019050919050565b6000613a1560228361421d565b91507f5472616e73666f726d6174696f6e20737570706c79206973206578686175737460008301527f65640000000000000000000000000000000000000000000000000000000000006020830152604082019050919050565b6000613a7b60318361421d565b91507f4552433732313a207472616e736665722063616c6c6572206973206e6f74206f60008301527f776e6572206e6f7220617070726f7665640000000000000000000000000000006020830152604082019050919050565b6000613ae1601d8361421d565b91507f416464726573733a2063616c6c20746f206e6f6e2d636f6e74726163740000006000830152602082019050919050565b6000613b2160318361421d565b91507f5472616e73616374696f6e2076616c7565206d757374206d617463682074726160008301527f6e73666f726d6174696f6e2070726963650000000000000000000000000000006020830152604082019050919050565b600060c083016000830151613b926000860182613c03565b506020830151613ba56020860182613c03565b506040830151613bb86040860182613c03565b506060830151613bcb6060860182613c03565b5060808301518482036080860152613be3828261326b565b91505060a0830151613bf860a08601826131e3565b508091505092915050565b613c0c816142b5565b82525050565b613c1b816142b5565b82525050565b6000613c2d828461323a565b915081905092915050565b6000613c4482856132dd565b9150613c5082846132dd565b91508190509392505050565b6000602082019050613c716000830184613101565b92915050565b6000608082019050613c8c60008301876130f2565b613c996020830186613101565b613ca66040830185613c12565b8181036060830152613cb88184613201565b905095945050505050565b600060a082019050613cd860008301886130e3565b613ce56020830187613c12565b613cf26040830186613c12565b613cff6060830185613c12565b8181036080830152613d118184613201565b90509695505050505050565b6000606082019050613d326000830186613101565b613d3f6020830185613c12565b8181036040830152613d5181846132a4565b9050949350505050565b60006020820190508181036000830152613d758184613110565b905092915050565b60006020820190508181036000830152613d978184613185565b905092915050565b6000602082019050613db460008301846131f2565b92915050565b60006020820190508181036000830152613dd481846132a4565b905092915050565b60006020820190508181036000830152613df58161330e565b9050919050565b60006020820190508181036000830152613e1581613374565b9050919050565b60006020820190508181036000830152613e35816133da565b9050919050565b60006020820190508181036000830152613e5581613440565b9050919050565b60006020820190508181036000830152613e7581613480565b9050919050565b60006020820190508181036000830152613e95816134e6565b9050919050565b60006020820190508181036000830152613eb581613526565b9050919050565b60006020820190508181036000830152613ed58161358c565b9050919050565b60006020820190508181036000830152613ef5816135f2565b9050919050565b60006020820190508181036000830152613f1581613658565b9050919050565b60006020820190508181036000830152613f35816136be565b9050919050565b60006020820190508181036000830152613f5581613724565b9050919050565b60006020820190508181036000830152613f758161378a565b9050919050565b60006020820190508181036000830152613f95816137ca565b9050919050565b60006020820190508181036000830152613fb581613830565b9050919050565b60006020820190508181036000830152613fd581613896565b9050919050565b60006020820190508181036000830152613ff5816138d6565b9050919050565b600060208201905081810360008301526140158161393c565b9050919050565b60006020820190508181036000830152614035816139a2565b9050919050565b6000602082019050818103600083015261405581613a08565b9050919050565b6000602082019050818103600083015261407581613a6e565b9050919050565b6000602082019050818103600083015261409581613ad4565b9050919050565b600060208201905081810360008301526140b581613b14565b9050919050565b60006020820190506140d16000830184613c12565b92915050565b6000604051905081810181811067ffffffffffffffff821117156140fe576140fd614337565b5b8060405250919050565b600067ffffffffffffffff82111561412357614122614337565b5b601f19601f8301169050602081019050919050565b600067ffffffffffffffff82111561415357614152614337565b5b601f19601f8301169050602081019050919050565b6000819050602082019050919050565b6000819050602082019050919050565b600081519050919050565b600081519050919050565b600081519050919050565b600081519050919050565b6000602082019050919050565b6000602082019050919050565b600082825260208201905092915050565b600082825260208201905092915050565b600082825260208201905092915050565b600081905092915050565b600082825260208201905092915050565b600082825260208201905092915050565b600081905092915050565b600061424482614295565b9050919050565b600061425682614295565b9050919050565b60008115159050919050565b60007fffffffff0000000000000000000000000000000000000000000000000000000082169050919050565b600073ffffffffffffffffffffffffffffffffffffffff82169050919050565b6000819050919050565b60006142ca826142d1565b9050919050565b60006142dc826142e3565b9050919050565b60006142ee82614295565b9050919050565b82818337600083830152505050565b60005b83811015614322578082015181840152602081019050614307565b83811115614331576000848401525b50505050565bfe5b6000601f19601f8301169050919050565b61435381614239565b811461435e57600080fd5b50565b61436a8161425d565b811461437557600080fd5b50565b61438181614269565b811461438c57600080fd5b50565b614398816142b5565b81146143a357600080fd5b5056fe4552433732313a207472616e7366657220746f206e6f6e20455243373231526563656976657220696d706c656d656e7465724552433732313a206f776e657220717565727920666f72206e6f6e6578697374656e7420746f6b656ea26469706673582212205b157734d832a782680445530dfb1408f44c63ab01771538f62d6fefd4e49c8d64736f6c63430007030033",
  "linkReferences": {},
  "deployedLinkReferences": {}
}