{
  "_format": "hh-sol-artifact-1",
  "contractName": "StyleNFT",
  "sourceName": "contracts/StyleNFT.sol",
  "abi": [
    {
      "inputs": [],
      "stateMutability": "nonpayable",
      "type": "constructor"
    },
    {
      "anonymous": false,
      "inputs": [
        {
          "indexed": true,
          "internalType": "address",
          "name": "owner",
          "type": "address"
        },
        {
          "indexed": true,
          "internalType": "address",
          "name": "approved",
          "type": "address"
        },
        {
          "indexed": true,
          "internalType": "uint256",
          "name": "tokenId",
          "type": "uint256"
        }
      ],
      "name": "Approval",
      "type": "event"
    },
    {
      "anonymous": false,
      "inputs": [
        {
          "indexed": true,
          "internalType": "address",
          "name": "owner",
          "type": "address"
        },
        {
          "indexed": true,
          "internalType": "address",
          "name": "operator",
          "type": "address"
        },
        {
          "indexed": false,
          "internalType": "bool",
          "name": "approved",
          "type": "bool"
        }
      ],
      "name": "ApprovalForAll",
      "type": "event"
    },
    {
      "anonymous": false,
      "inputs": [
        {
          "indexed": false,
          "internalType": "address",
          "name": "sender",
          "type": "address"
        },
        {
          "indexed": false,
          "internalType": "uint256",
          "name": "value",
          "type": "uint256"
        },
        {
          "indexed": false,
          "internalType": "uint256",
          "name": "transformationId",
          "type": "uint256"
        },
        {
          "indexed": false,
          "internalType": "string",
          "name": "imageURL",
          "type": "string"
        }
      ],
      "name": "ImageGenerationPaid",
      "type": "event"
    },
    {
      "anonymous": false,
      "inputs": [
        {
          "indexed": false,
          "internalType": "address",
          "name": "sender",
          "type": "address"
        },
        {
          "indexed": false,
          "internalType": "uint256",
          "name": "value",
          "type": "uint256"
        },
        {
          "indexed": false,
          "internalType": "uint256",
          "name": "tokenId",
          "type": "uint256"
        }
      ],
      "name": "ImagePaid",
      "type": "event"
    },
    {
      "anonymous": false,
      "inputs": [
        {
          "indexed": true,
          "internalType": "address",
          "name": "previousOwner",
          "type": "address"
        },
        {
          "indexed": true,
          "internalType": "address",
          "name": "newOwner",
          "type": "address"
        }
      ],
      "name": "OwnershipTransferred",
      "type": "event"
    },
    {
      "anonymous": false,
      "inputs": [
        {
          "indexed": false,
          "internalType": "address",
          "name": "recipient",
          "type": "address"
        },
        {
          "indexed": false,
          "internalType": "address",
          "name": "payer",
          "type": "address"
        },
        {
          "indexed": false,
          "internalType": "uint256",
          "name": "tokenId",
          "type": "uint256"
        },
        {
          "indexed": false,
          "internalType": "string",
          "name": "tokenURI",
          "type": "string"
        },
        {
          "indexed": false,
          "internalType": "uint256",
          "name": "price",
          "type": "uint256"
        }
      ],
      "name": "TokenMinted",
      "type": "event"
    },
    {
      "anonymous": false,
      "inputs": [
        {
          "indexed": true,
          "internalType": "address",
          "name": "from",
          "type": "address"
        },
        {
          "indexed": true,
          "internalType": "address",
          "name": "to",
          "type": "address"
        },
        {
          "indexed": true,
          "internalType": "uint256",
          "name": "tokenId",
          "type": "uint256"
        }
      ],
      "name": "Transfer",
      "type": "event"
    },
    {
      "inputs": [
        {
          "internalType": "string",
          "name": "name",
          "type": "string"
        },
        {
          "internalType": "uint256",
          "name": "price",
          "type": "uint256"
        },
        {
          "internalType": "uint256",
          "name": "supply",
          "type": "uint256"
        }
      ],
      "name": "addTransformation",
      "outputs": [
        {
          "internalType": "uint256",
          "name": "",
          "type": "uint256"
        }
      ],
      "stateMutability": "nonpayable",
      "type": "function"
    },
    {
      "inputs": [
        {
          "internalType": "address",
          "name": "to",
          "type": "address"
        },
        {
          "internalType": "uint256",
          "name": "tokenId",
          "type": "uint256"
        }
      ],
      "name": "approve",
      "outputs": [],
      "stateMutability": "nonpayable",
      "type": "function"
    },
    {
      "inputs": [
        {
          "internalType": "address",
          "name": "owner",
          "type": "address"
        }
      ],
      "name": "balanceOf",
      "outputs": [
        {
          "internalType": "uint256",
          "name": "",
          "type": "uint256"
        }
      ],
      "stateMutability": "view",
      "type": "function"
    },
    {
      "inputs": [],
      "name": "baseURI",
      "outputs": [
        {
          "internalType": "string",
          "name": "",
          "type": "string"
        }
      ],
      "stateMutability": "view",
      "type": "function"
    },
    {
      "inputs": [
        {
          "internalType": "uint256",
          "name": "tokenId",
          "type": "uint256"
        }
      ],
      "name": "getApproved",
      "outputs": [
        {
          "internalType": "address",
          "name": "",
          "type": "address"
        }
      ],
      "stateMutability": "view",
      "type": "function"
    },
    {
      "inputs": [
        {
          "internalType": "address",
          "name": "owner",
          "type": "address"
        },
        {
          "internalType": "address",
          "name": "operator",
          "type": "address"
        }
      ],
      "name": "isApprovedForAll",
      "outputs": [
        {
          "internalType": "bool",
          "name": "",
          "type": "bool"
        }
      ],
      "stateMutability": "view",
      "type": "function"
    },
    {
      "inputs": [],
      "name": "listTransformations",
      "outputs": [
        {
          "components": [
            {
              "internalType": "uint256",
              "name": "id",
              "type": "uint256"
            },
            {
              "internalType": "uint256",
              "name": "price",
              "type": "uint256"
            },
            {
              "internalType": "uint256",
              "name": "supply",
              "type": "uint256"
            },
            {
              "internalType": "string",
              "name": "name",
              "type": "string"
            }
          ],
          "internalType": "struct StyleNFT.Transformation[]",
          "name": "",
          "type": "tuple[]"
        }
      ],
      "stateMutability": "view",
      "type": "function"
    },
    {
      "inputs": [
        {
          "internalType": "address",
          "name": "recipient",
          "type": "address"
        },
        {
          "internalType": "address",
          "name": "payer",
          "type": "address"
        },
        {
          "internalType": "string",
          "name": "tokenURI",
          "type": "string"
        },
        {
          "internalType": "uint256",
          "name": "price",
          "type": "uint256"
        }
      ],
      "name": "mintNFT",
      "outputs": [
        {
          "internalType": "uint256",
          "name": "",
          "type": "uint256"
        }
      ],
      "stateMutability": "nonpayable",
      "type": "function"
    },
    {
      "inputs": [],
      "name": "name",
      "outputs": [
        {
          "internalType": "string",
          "name": "",
          "type": "string"
        }
      ],
      "stateMutability": "view",
      "type": "function"
    },
    {
      "inputs": [],
      "name": "owner",
      "outputs": [
        {
          "internalType": "address",
          "name": "",
          "type": "address"
        }
      ],
      "stateMutability": "view",
      "type": "function"
    },
    {
      "inputs": [
        {
          "internalType": "uint256",
          "name": "tokenId",
          "type": "uint256"
        }
      ],
      "name": "ownerOf",
      "outputs": [
        {
          "internalType": "address",
          "name": "",
          "type": "address"
        }
      ],
      "stateMutability": "view",
      "type": "function"
    },
    {
      "inputs": [
        {
          "internalType": "uint256",
          "name": "transformationId",
          "type": "uint256"
        },
        {
          "internalType": "string",
          "name": "imageUrl",
          "type": "string"
        }
      ],
      "name": "payGenerating",
      "outputs": [],
      "stateMutability": "payable",
      "type": "function"
    },
    {
      "inputs": [
        {
          "internalType": "uint256",
          "name": "tokenId",
          "type": "uint256"
        }
      ],
      "name": "payImage",
      "outputs": [],
      "stateMutability": "payable",
      "type": "function"
    },
    {
      "inputs": [
        {
          "internalType": "uint256",
          "name": "tokenId",
          "type": "uint256"
        }
      ],
      "name": "payerOf",
      "outputs": [
        {
          "internalType": "address",
          "name": "",
          "type": "address"
        }
      ],
      "stateMutability": "view",
      "type": "function"
    },
    {
      "inputs": [],
      "name": "renounceOwnership",
      "outputs": [],
      "stateMutability": "nonpayable",
      "type": "function"
    },
    {
      "inputs": [
        {
          "internalType": "address",
          "name": "from",
          "type": "address"
        },
        {
          "internalType": "address",
          "name": "to",
          "type": "address"
        },
        {
          "internalType": "uint256",
          "name": "tokenId",
          "type": "uint256"
        }
      ],
      "name": "safeTransferFrom",
      "outputs": [],
      "stateMutability": "nonpayable",
      "type": "function"
    },
    {
      "inputs": [
        {
          "internalType": "address",
          "name": "from",
          "type": "address"
        },
        {
          "internalType": "address",
          "name": "to",
          "type": "address"
        },
        {
          "internalType": "uint256",
          "name": "tokenId",
          "type": "uint256"
        },
        {
          "internalType": "bytes",
          "name": "_data",
          "type": "bytes"
        }
      ],
      "name": "safeTransferFrom",
      "outputs": [],
      "stateMutability": "nonpayable",
      "type": "function"
    },
    {
      "inputs": [
        {
          "internalType": "address",
          "name": "operator",
          "type": "address"
        },
        {
          "internalType": "bool",
          "name": "approved",
          "type": "bool"
        }
      ],
      "name": "setApprovalForAll",
      "outputs": [],
      "stateMutability": "nonpayable",
      "type": "function"
    },
    {
      "inputs": [
        {
          "internalType": "bytes4",
          "name": "interfaceId",
          "type": "bytes4"
        }
      ],
      "name": "supportsInterface",
      "outputs": [
        {
          "internalType": "bool",
          "name": "",
          "type": "bool"
        }
      ],
      "stateMutability": "view",
      "type": "function"
    },
    {
      "inputs": [],
      "name": "symbol",
      "outputs": [
        {
          "internalType": "string",
          "name": "",
          "type": "string"
        }
      ],
      "stateMutability": "view",
      "type": "function"
    },
    {
      "inputs": [
        {
          "internalType": "uint256",
          "name": "index",
          "type": "uint256"
        }
      ],
      "name": "tokenByIndex",
      "outputs": [
        {
          "internalType": "uint256",
          "name": "",
          "type": "uint256"
        }
      ],
      "stateMutability": "view",
      "type": "function"
    },
    {
      "inputs": [
        {
          "internalType": "address",
          "name": "owner",
          "type": "address"
        },
        {
          "internalType": "uint256",
          "name": "index",
          "type": "uint256"
        }
      ],
      "name": "tokenOfOwnerByIndex",
      "outputs": [
        {
          "internalType": "uint256",
          "name": "",
          "type": "uint256"
        }
      ],
      "stateMutability": "view",
      "type": "function"
    },
    {
      "inputs": [
        {
          "internalType": "uint256",
          "name": "tokenId",
          "type": "uint256"
        }
      ],
      "name": "tokenURI",
      "outputs": [
        {
          "internalType": "string",
          "name": "",
          "type": "string"
        }
      ],
      "stateMutability": "view",
      "type": "function"
    },
    {
      "inputs": [],
      "name": "totalSupply",
      "outputs": [
        {
          "internalType": "uint256",
          "name": "",
          "type": "uint256"
        }
      ],
      "stateMutability": "view",
      "type": "function"
    },
    {
      "inputs": [
        {
          "internalType": "address",
          "name": "from",
          "type": "address"
        },
        {
          "internalType": "address",
          "name": "to",
          "type": "address"
        },
        {
          "internalType": "uint256",
          "name": "tokenId",
          "type": "uint256"
        }
      ],
      "name": "transferFrom",
      "outputs": [],
      "stateMutability": "nonpayable",
      "type": "function"
    },
    {
      "inputs": [
        {
          "internalType": "address",
          "name": "newOwner",
          "type": "address"
        }
      ],
      "name": "transferOwnership",
      "outputs": [],
      "stateMutability": "nonpayable",
      "type": "function"
    },
    {
      "inputs": [
        {
          "internalType": "uint256",
          "name": "tokenId",
          "type": "uint256"
        },
        {
          "internalType": "uint256",
          "name": "price",
          "type": "uint256"
        }
      ],
      "name": "updateTokenPrice",
      "outputs": [
        {
          "internalType": "bool",
          "name": "",
          "type": "bool"
        }
      ],
      "stateMutability": "nonpayable",
      "type": "function"
    },
    {
      "inputs": [
        {
          "internalType": "uint256",
          "name": "id",
          "type": "uint256"
        },
        {
          "internalType": "uint256",
          "name": "price",
          "type": "uint256"
        }
      ],
      "name": "updateTransformationPrice",
      "outputs": [
        {
          "internalType": "bool",
          "name": "",
          "type": "bool"
        }
      ],
      "stateMutability": "nonpayable",
      "type": "function"
    },
    {
      "inputs": [
        {
          "internalType": "address",
          "name": "user",
          "type": "address"
        }
      ],
      "name": "userGeneratedTokens",
      "outputs": [
        {
          "internalType": "uint256[]",
          "name": "",
          "type": "uint256[]"
        }
      ],
      "stateMutability": "view",
      "type": "function"
    }
  ],
  "bytecode": "0x60806040523480156200001157600080fd5b506040518060400160405280600881526020017f7374796c656172740000000000000000000000000000000000000000000000008152506040518060400160405280600481526020017f736e667400000000000000000000000000000000000000000000000000000000815250620000966301ffc9a760e01b6200020a60201b60201c565b8160069080519060200190620000ae929190620002ea565b508060079080519060200190620000c7929190620002ea565b50620000e06380ac58cd60e01b6200020a60201b60201c565b620000f8635b5e139f60e01b6200020a60201b60201c565b6200011063780e9d6360e01b6200020a60201b60201c565b5050600062000124620002e260201b60201c565b905080600a60006101000a81548173ffffffffffffffffffffffffffffffffffffffff021916908373ffffffffffffffffffffffffffffffffffffffff1602179055508073ffffffffffffffffffffffffffffffffffffffff16600073ffffffffffffffffffffffffffffffffffffffff167f8be0079c531659141344cd1fd0a4f28419497f9722a3daafe3b4186f6b6457e060405160405180910390a35033600d60006101000a81548173ffffffffffffffffffffffffffffffffffffffff021916908373ffffffffffffffffffffffffffffffffffffffff16021790555062000405565b63ffffffff60e01b817bffffffffffffffffffffffffffffffffffffffffffffffffffffffff1916141562000276576040517f08c379a00000000000000000000000000000000000000000000000000000000081526004016200026d90620003d2565b60405180910390fd5b6001600080837bffffffffffffffffffffffffffffffffffffffffffffffffffffffff19167bffffffffffffffffffffffffffffffffffffffffffffffffffffffff1916815260200190815260200160002060006101000a81548160ff02191690831515021790555050565b600033905090565b828054600181600116156101000203166002900490600052602060002090601f016020900481019282601f106200032d57805160ff19168380011785556200035e565b828001600101855582156200035e579182015b828111156200035d57825182559160200191906001019062000340565b5b5090506200036d919062000371565b5090565b5b808211156200038c57600081600090555060010162000372565b5090565b60006200039f601c83620003f4565b91507f4552433136353a20696e76616c696420696e74657266616365206964000000006000830152602082019050919050565b60006020820190508181036000830152620003ed8162000390565b9050919050565b600082825260208201905092915050565b614d7d80620004156000396000f3fe6080604052600436106101c25760003560e01c80636352211e116100f757806395d89b4111610095578063e3a6f8fc11610064578063e3a6f8fc14610684578063e985e9c5146106c1578063e9c7723d146106fe578063f2fde38b1461073b576101c2565b806395d89b41146105ca578063a22cb465146105f5578063b88d4fde1461061e578063c87b56dd14610647576101c2565b8063715018a6116100d1578063715018a61461050e5780637edcf18f14610525578063897925f5146105625780638da5cb5b1461059f576101c2565b80636352211e146104695780636c0360eb146104a657806370a08231146104d1576101c2565b806323b872dd116101645780634f6ccce71161013e5780634f6ccce7146103b757806358a1388f146103f45780635e45d17e146104105780636031dd951461042c576101c2565b806323b872dd146103285780632f745c591461035157806342842e0e1461038e576101c2565b8063095ea7b3116101a0578063095ea7b31461026c57806318160ddd146102955780631935ec9f146102c05780632362382d146102eb576101c2565b806301ffc9a7146101c757806306fdde0314610204578063081812fc1461022f575b600080fd5b3480156101d357600080fd5b506101ee60048036038101906101e99190613632565b610764565b6040516101fb9190614650565b60405180910390f35b34801561021057600080fd5b506102196107cb565b604051610226919061466b565b60405180910390f35b34801561023b57600080fd5b50610256600480360381019061025191906136eb565b61086d565b60405161026391906144c8565b60405180910390f35b34801561027857600080fd5b50610293600480360381019061028e91906135f6565b6108f2565b005b3480156102a157600080fd5b506102aa610a0a565b6040516102b791906149ed565b60405180910390f35b3480156102cc57600080fd5b506102d5610a1b565b6040516102e2919061460c565b60405180910390f35b3480156102f757600080fd5b50610312600480360381019061030d9190613768565b610b3a565b60405161031f9190614650565b60405180910390f35b34801561033457600080fd5b5061034f600480360381019061034a91906134f0565b610c4f565b005b34801561035d57600080fd5b50610378600480360381019061037391906135f6565b610caf565b60405161038591906149ed565b60405180910390f35b34801561039a57600080fd5b506103b560048036038101906103b091906134f0565b610d0a565b005b3480156103c357600080fd5b506103de60048036038101906103d991906136eb565b610d2a565b6040516103eb91906149ed565b60405180910390f35b61040e60048036038101906104099190613714565b610d4d565b005b61042a600480360381019061042591906136eb565b610f58565b005b34801561043857600080fd5b50610453600480360381019061044e9190613475565b61121f565b60405161046091906149ed565b60405180910390f35b34801561047557600080fd5b50610490600480360381019061048b91906136eb565b61148c565b60405161049d91906144c8565b60405180910390f35b3480156104b257600080fd5b506104bb6114c3565b6040516104c8919061466b565b60405180910390f35b3480156104dd57600080fd5b506104f860048036038101906104f39190613410565b611565565b60405161050591906149ed565b60405180910390f35b34801561051a57600080fd5b50610523611624565b005b34801561053157600080fd5b5061054c600480360381019061054791906136eb565b61177c565b60405161055991906144c8565b60405180910390f35b34801561056e57600080fd5b5061058960048036038101906105849190613768565b61181f565b6040516105969190614650565b60405180910390f35b3480156105ab57600080fd5b506105b46119ac565b6040516105c191906144c8565b60405180910390f35b3480156105d657600080fd5b506105df6119d6565b6040516105ec919061466b565b60405180910390f35b34801561060157600080fd5b5061061c600480360381019061061791906135ba565b611a78565b005b34801561062a57600080fd5b506106456004803603810190610640919061353f565b611bf9565b005b34801561065357600080fd5b5061066e600480360381019061066991906136eb565b611c5b565b60405161067b919061466b565b60405180910390f35b34801561069057600080fd5b506106ab60048036038101906106a69190613684565b611de6565b6040516106b891906149ed565b60405180910390f35b3480156106cd57600080fd5b506106e860048036038101906106e39190613439565b611f2b565b6040516106f59190614650565b60405180910390f35b34801561070a57600080fd5b5061072560048036038101906107209190613410565b611fbf565b604051610732919061462e565b60405180910390f35b34801561074757600080fd5b50610762600480360381019061075d9190613410565b6120e1565b005b6000806000837bffffffffffffffffffffffffffffffffffffffffffffffffffffffff19167bffffffffffffffffffffffffffffffffffffffffffffffffffffffff1916815260200190815260200160002060009054906101000a900460ff169050919050565b606060068054600181600116156101000203166002900480601f0160208091040260200160405190810160405280929190818152602001828054600181600116156101000203166002900480156108635780601f1061083857610100808354040283529160200191610863565b820191906000526020600020905b81548152906001019060200180831161084657829003601f168201915b5050505050905090565b6000610878826122a8565b6108b7576040517f08c379a00000000000000000000000000000000000000000000000000000000081526004016108ae9061488d565b60405180910390fd5b6004600083815260200190815260200160002060009054906101000a900473ffffffffffffffffffffffffffffffffffffffff169050919050565b60006108fd8261148c565b90508073ffffffffffffffffffffffffffffffffffffffff168373ffffffffffffffffffffffffffffffffffffffff16141561096e576040517f08c379a00000000000000000000000000000000000000000000000000000000081526004016109659061492d565b60405180910390fd5b8073ffffffffffffffffffffffffffffffffffffffff1661098d6122c5565b73ffffffffffffffffffffffffffffffffffffffff1614806109bc57506109bb816109b66122c5565b611f2b565b5b6109fb576040517f08c379a00000000000000000000000000000000000000000000000000000000081526004016109f2906147cd565b60405180910390fd5b610a0583836122cd565b505050565b6000610a166002612386565b905090565b60606010805480602002602001604051908101604052809291908181526020016000905b82821015610b315783829060005260206000209060040201604051806080016040529081600082015481526020016001820154815260200160028201548152602001600382018054600181600116156101000203166002900480601f016020809104026020016040519081016040528092919081815260200182805460018160011615610100020316600290048015610b195780601f10610aee57610100808354040283529160200191610b19565b820191906000526020600020905b815481529060010190602001808311610afc57829003601f168201915b50505050508152505081526020019060010190610a3f565b50505050905090565b6000610b446122c5565b73ffffffffffffffffffffffffffffffffffffffff16600a60009054906101000a900473ffffffffffffffffffffffffffffffffffffffff1673ffffffffffffffffffffffffffffffffffffffff1614610bd3576040517f08c379a0000000000000000000000000000000000000000000000000000000008152600401610bca906148cd565b60405180910390fd5b60005b601080549050811015610c43578360108281548110610bf157fe5b9060005260206000209060040201600001541415610c36578260108281548110610c1757fe5b9060005260206000209060040201600101819055506001915050610c49565b8080600101915050610bd6565b50600090505b92915050565b610c60610c5a6122c5565b8261239b565b610c9f576040517f08c379a0000000000000000000000000000000000000000000000000000000008152600401610c969061496d565b60405180910390fd5b610caa838383612479565b505050565b6000610d0282600160008673ffffffffffffffffffffffffffffffffffffffff1673ffffffffffffffffffffffffffffffffffffffff16815260200190815260200160002061269090919063ffffffff16565b905092915050565b610d2583838360405180602001604052806000815250611bf9565b505050565b600080610d418360026126aa90919063ffffffff16565b50905080915050919050565b81346000805b601080549050811015610df8578360108281548110610d6e57fe5b9060005260206000209060040201600001541415610deb57600191508260108281548110610d9857fe5b90600052602060002090600402016001015414610dea576040517f08c379a0000000000000000000000000000000000000000000000000000000008152600401610de1906149ad565b60405180910390fd5b5b8080600101915050610d53565b5080610e39576040517f08c379a0000000000000000000000000000000000000000000000000000000008152600401610e309061478d565b60405180910390fd5b60005b601080549050811015610eaa578560108281548110610e5757fe5b9060005260206000209060040201600001541415610e9d57600160108281548110610e7e57fe5b9060005260206000209060040201600201600082825403925050819055505b8080600101915050610e3c565b50600d60009054906101000a900473ffffffffffffffffffffffffffffffffffffffff1673ffffffffffffffffffffffffffffffffffffffff166108fc349081150290604051600060405180830381858888f19350505050158015610f13573d6000803e3d6000fd5b507fb4b3eea958fd79328ea998403a758ad1a0d9db9c72633bbf4b014b934939ae9033348787604051610f499493929190614566565b60405180910390a15050505050565b80600e600082815260200190815260200160002060030160009054906101000a900460ff16610fbc576040517f08c379a0000000000000000000000000000000000000000000000000000000008152600401610fb39061476d565b60405180910390fd5b60001515600e600083815260200190815260200160002060030160019054906101000a900460ff16151514611026576040517f08c379a000000000000000000000000000000000000000000000000000000000815260040161101d9061486d565b60405180910390fd5b33826014600e600083815260200190815260200160002060010154014210156110ee578173ffffffffffffffffffffffffffffffffffffffff16600e600083815260200190815260200160002060000160009054906101000a900473ffffffffffffffffffffffffffffffffffffffff1673ffffffffffffffffffffffffffffffffffffffff16146110ed576040517f08c379a00000000000000000000000000000000000000000000000000000000081526004016110e49061480d565b60405180910390fd5b5b600e6000858152602001908152602001600020600201543414611146576040517f08c379a000000000000000000000000000000000000000000000000000000000815260040161113d906149cd565b60405180910390fd5b600d60009054906101000a900473ffffffffffffffffffffffffffffffffffffffff1673ffffffffffffffffffffffffffffffffffffffff166108fc349081150290604051600060405180830381858888f193505050501580156111ae573d6000803e3d6000fd5b506001600e600086815260200190815260200160002060030160016101000a81548160ff0219169083151502179055507fe73afeaacaf168c89f8eca1d95b1e592a2a43d550dd0e3de98218e418a198f453334866040516112119392919061452f565b60405180910390a150505050565b60006112296122c5565b73ffffffffffffffffffffffffffffffffffffffff16600a60009054906101000a900473ffffffffffffffffffffffffffffffffffffffff1673ffffffffffffffffffffffffffffffffffffffff16146112b8576040517f08c379a00000000000000000000000000000000000000000000000000000000081526004016112af906148cd565b60405180910390fd5b6112c2600b6126d6565b60006112ce600b6126ec565b90506112da86826126fa565b6112e48185612888565b6040518060a001604052808673ffffffffffffffffffffffffffffffffffffffff16815260200142815260200184815260200160011515815260200160001515815250600e600083815260200190815260200160002060008201518160000160006101000a81548173ffffffffffffffffffffffffffffffffffffffff021916908373ffffffffffffffffffffffffffffffffffffffff160217905550602082015181600101556040820151816002015560608201518160030160006101000a81548160ff02191690831515021790555060808201518160030160016101000a81548160ff021916908315150217905550905050600f60008673ffffffffffffffffffffffffffffffffffffffff1673ffffffffffffffffffffffffffffffffffffffff1681526020019081526020016000206000018190806001815401808255809150506001900390600052602060002001600090919091909150557f9bc29a7be16d04de3c353003faca2ab9ecae65d0443b11bcc70d01948a78a3d886868387876040516114789594939291906145b2565b60405180910390a180915050949350505050565b60006114bc82604051806060016040528060298152602001614d1f6029913960026128fc9092919063ffffffff16565b9050919050565b606060098054600181600116156101000203166002900480601f01602080910402602001604051908101604052809291908181526020018280546001816001161561010002031660029004801561155b5780601f106115305761010080835404028352916020019161155b565b820191906000526020600020905b81548152906001019060200180831161153e57829003601f168201915b5050505050905090565b60008073ffffffffffffffffffffffffffffffffffffffff168273ffffffffffffffffffffffffffffffffffffffff1614156115d6576040517f08c379a00000000000000000000000000000000000000000000000000000000081526004016115cd906147ed565b60405180910390fd5b61161d600160008473ffffffffffffffffffffffffffffffffffffffff1673ffffffffffffffffffffffffffffffffffffffff16815260200190815260200160002061291b565b9050919050565b61162c6122c5565b73ffffffffffffffffffffffffffffffffffffffff16600a60009054906101000a900473ffffffffffffffffffffffffffffffffffffffff1673ffffffffffffffffffffffffffffffffffffffff16146116bb576040517f08c379a00000000000000000000000000000000000000000000000000000000081526004016116b2906148cd565b60405180910390fd5b600073ffffffffffffffffffffffffffffffffffffffff16600a60009054906101000a900473ffffffffffffffffffffffffffffffffffffffff1673ffffffffffffffffffffffffffffffffffffffff167f8be0079c531659141344cd1fd0a4f28419497f9722a3daafe3b4186f6b6457e060405160405180910390a36000600a60006101000a81548173ffffffffffffffffffffffffffffffffffffffff021916908373ffffffffffffffffffffffffffffffffffffffff160217905550565b6000600e600083815260200190815260200160002060030160009054906101000a900460ff166117e1576040517f08c379a00000000000000000000000000000000000000000000000000000000081526004016117d89061468d565b60405180910390fd5b600e600083815260200190815260200160002060000160009054906101000a900473ffffffffffffffffffffffffffffffffffffffff169050919050565b60006118296122c5565b73ffffffffffffffffffffffffffffffffffffffff16600a60009054906101000a900473ffffffffffffffffffffffffffffffffffffffff1673ffffffffffffffffffffffffffffffffffffffff16146118b8576040517f08c379a00000000000000000000000000000000000000000000000000000000081526004016118af906148cd565b60405180910390fd5b82600e600082815260200190815260200160002060030160009054906101000a900460ff1661191c576040517f08c379a00000000000000000000000000000000000000000000000000000000081526004016119139061476d565b60405180910390fd5b60001515600e600083815260200190815260200160002060030160019054906101000a900460ff16151514611986576040517f08c379a000000000000000000000000000000000000000000000000000000000815260040161197d9061486d565b60405180910390fd5b82600e600086815260200190815260200160002060020181905550600191505092915050565b6000600a60009054906101000a900473ffffffffffffffffffffffffffffffffffffffff16905090565b606060078054600181600116156101000203166002900480601f016020809104026020016040519081016040528092919081815260200182805460018160011615610100020316600290048015611a6e5780601f10611a4357610100808354040283529160200191611a6e565b820191906000526020600020905b815481529060010190602001808311611a5157829003601f168201915b5050505050905090565b611a806122c5565b73ffffffffffffffffffffffffffffffffffffffff168273ffffffffffffffffffffffffffffffffffffffff161415611aee576040517f08c379a0000000000000000000000000000000000000000000000000000000008152600401611ae59061474d565b60405180910390fd5b8060056000611afb6122c5565b73ffffffffffffffffffffffffffffffffffffffff1673ffffffffffffffffffffffffffffffffffffffff16815260200190815260200160002060008473ffffffffffffffffffffffffffffffffffffffff1673ffffffffffffffffffffffffffffffffffffffff16815260200190815260200160002060006101000a81548160ff0219169083151502179055508173ffffffffffffffffffffffffffffffffffffffff16611ba86122c5565b73ffffffffffffffffffffffffffffffffffffffff167f17307eab39ab6107e8899845ad3d59bd9653f200f220920489ca2b5937696c3183604051611bed9190614650565b60405180910390a35050565b611c0a611c046122c5565b8361239b565b611c49576040517f08c379a0000000000000000000000000000000000000000000000000000000008152600401611c409061496d565b60405180910390fd5b611c5584848484612930565b50505050565b6060611c66826122a8565b611ca5576040517f08c379a0000000000000000000000000000000000000000000000000000000008152600401611c9c9061490d565b60405180910390fd5b6060600860008481526020019081526020016000208054600181600116156101000203166002900480601f016020809104026020016040519081016040528092919081815260200182805460018160011615610100020316600290048015611d4e5780601f10611d2357610100808354040283529160200191611d4e565b820191906000526020600020905b815481529060010190602001808311611d3157829003601f168201915b50505050509050600060098054600181600116156101000203166002900490501415611d7d5780915050611de1565b600081511115611db257600981604051602001611d9b9291906144a4565b604051602081830303815290604052915050611de1565b6009611dbd8461298c565b604051602001611dce9291906144a4565b6040516020818303038152906040529150505b919050565b6000611df06122c5565b73ffffffffffffffffffffffffffffffffffffffff16600a60009054906101000a900473ffffffffffffffffffffffffffffffffffffffff1673ffffffffffffffffffffffffffffffffffffffff1614611e7f576040517f08c379a0000000000000000000000000000000000000000000000000000000008152600401611e76906148cd565b60405180910390fd5b611e89600c6126d6565b6000611e95600c6126ec565b9050601060405180608001604052808381526020018681526020018581526020018781525090806001815401808255809150506001900390600052602060002090600402016000909190919091506000820151816000015560208201518160010155604082015181600201556060820151816003019080519060200190611f1d929190613262565b505050809150509392505050565b6000600560008473ffffffffffffffffffffffffffffffffffffffff1673ffffffffffffffffffffffffffffffffffffffff16815260200190815260200160002060008373ffffffffffffffffffffffffffffffffffffffff1673ffffffffffffffffffffffffffffffffffffffff16815260200190815260200160002060009054906101000a900460ff16905092915050565b60606000600f60008473ffffffffffffffffffffffffffffffffffffffff1673ffffffffffffffffffffffffffffffffffffffff1681526020019081526020016000206000018054905011612049576040517f08c379a00000000000000000000000000000000000000000000000000000000081526004016120409061494d565b60405180910390fd5b600f60008373ffffffffffffffffffffffffffffffffffffffff1673ffffffffffffffffffffffffffffffffffffffff1681526020019081526020016000206000018054806020026020016040519081016040528092919081815260200182805480156120d557602002820191906000526020600020905b8154815260200190600101908083116120c1575b50505050509050919050565b6120e96122c5565b73ffffffffffffffffffffffffffffffffffffffff16600a60009054906101000a900473ffffffffffffffffffffffffffffffffffffffff1673ffffffffffffffffffffffffffffffffffffffff1614612178576040517f08c379a000000000000000000000000000000000000000000000000000000000815260040161216f906148cd565b60405180910390fd5b600073ffffffffffffffffffffffffffffffffffffffff168173ffffffffffffffffffffffffffffffffffffffff1614156121e8576040517f08c379a00000000000000000000000000000000000000000000000000000000081526004016121df906146ed565b60405180910390fd5b8073ffffffffffffffffffffffffffffffffffffffff16600a60009054906101000a900473ffffffffffffffffffffffffffffffffffffffff1673ffffffffffffffffffffffffffffffffffffffff167f8be0079c531659141344cd1fd0a4f28419497f9722a3daafe3b4186f6b6457e060405160405180910390a380600a60006101000a81548173ffffffffffffffffffffffffffffffffffffffff021916908373ffffffffffffffffffffffffffffffffffffffff16021790555050565b60006122be826002612ad390919063ffffffff16565b9050919050565b600033905090565b816004600083815260200190815260200160002060006101000a81548173ffffffffffffffffffffffffffffffffffffffff021916908373ffffffffffffffffffffffffffffffffffffffff160217905550808273ffffffffffffffffffffffffffffffffffffffff166123408361148c565b73ffffffffffffffffffffffffffffffffffffffff167f8c5be1e5ebec7d5bd14f71427d1e84f3dd0314c0f7b2291e5b200ac8c7c3b92560405160405180910390a45050565b600061239482600001612aed565b9050919050565b60006123a6826122a8565b6123e5576040517f08c379a00000000000000000000000000000000000000000000000000000000081526004016123dc906147ad565b60405180910390fd5b60006123f08361148c565b90508073ffffffffffffffffffffffffffffffffffffffff168473ffffffffffffffffffffffffffffffffffffffff16148061245f57508373ffffffffffffffffffffffffffffffffffffffff166124478461086d565b73ffffffffffffffffffffffffffffffffffffffff16145b80612470575061246f8185611f2b565b5b91505092915050565b8273ffffffffffffffffffffffffffffffffffffffff166124998261148c565b73ffffffffffffffffffffffffffffffffffffffff16146124ef576040517f08c379a00000000000000000000000000000000000000000000000000000000081526004016124e6906148ed565b60405180910390fd5b600073ffffffffffffffffffffffffffffffffffffffff168273ffffffffffffffffffffffffffffffffffffffff16141561255f576040517f08c379a00000000000000000000000000000000000000000000000000000000081526004016125569061472d565b60405180910390fd5b61256a838383612afe565b6125756000826122cd565b6125c681600160008673ffffffffffffffffffffffffffffffffffffffff1673ffffffffffffffffffffffffffffffffffffffff168152602001908152602001600020612b0390919063ffffffff16565b5061261881600160008573ffffffffffffffffffffffffffffffffffffffff1673ffffffffffffffffffffffffffffffffffffffff168152602001908152602001600020612b1d90919063ffffffff16565b5061262f81836002612b379092919063ffffffff16565b50808273ffffffffffffffffffffffffffffffffffffffff168473ffffffffffffffffffffffffffffffffffffffff167fddf252ad1be2c89b69c2b068fc378daa952ba7f163c4a11628f55a4df523b3ef60405160405180910390a4505050565b600061269f8360000183612b6c565b60001c905092915050565b6000806000806126bd8660000186612bd9565b915091508160001c8160001c9350935050509250929050565b6001816000016000828254019250508190555050565b600081600001549050919050565b600073ffffffffffffffffffffffffffffffffffffffff168273ffffffffffffffffffffffffffffffffffffffff16141561276a576040517f08c379a00000000000000000000000000000000000000000000000000000000081526004016127619061484d565b60405180910390fd5b612773816122a8565b156127b3576040517f08c379a00000000000000000000000000000000000000000000000000000000081526004016127aa9061470d565b60405180910390fd5b6127bf60008383612afe565b61281081600160008573ffffffffffffffffffffffffffffffffffffffff1673ffffffffffffffffffffffffffffffffffffffff168152602001908152602001600020612b1d90919063ffffffff16565b5061282781836002612b379092919063ffffffff16565b50808273ffffffffffffffffffffffffffffffffffffffff16600073ffffffffffffffffffffffffffffffffffffffff167fddf252ad1be2c89b69c2b068fc378daa952ba7f163c4a11628f55a4df523b3ef60405160405180910390a45050565b612891826122a8565b6128d0576040517f08c379a00000000000000000000000000000000000000000000000000000000081526004016128c7906148ad565b60405180910390fd5b806008600084815260200190815260200160002090805190602001906128f7929190613262565b505050565b600061290f846000018460001b84612c5c565b60001c90509392505050565b600061292982600001612ced565b9050919050565b61293b848484612479565b61294784848484612cfe565b612986576040517f08c379a000000000000000000000000000000000000000000000000000000000815260040161297d906146cd565b60405180910390fd5b50505050565b606060008214156129d4576040518060400160405280600181526020017f30000000000000000000000000000000000000000000000000000000000000008152509050612ace565b600082905060005b600082146129fe578080600101915050600a82816129f657fe5b0491506129dc565b60608167ffffffffffffffff81118015612a1757600080fd5b506040519080825280601f01601f191660200182016040528015612a4a5781602001600182028036833780820191505090505b50905060006001830390508593505b60008414612ac657600a8481612a6b57fe5b0660300160f81b82828060019003935081518110612a8557fe5b60200101907effffffffffffffffffffffffffffffffffffffffffffffffffffffffffffff1916908160001a905350600a8481612abe57fe5b049350612a59565b819450505050505b919050565b6000612ae5836000018360001b612e62565b905092915050565b600081600001805490509050919050565b505050565b6000612b15836000018360001b612e85565b905092915050565b6000612b2f836000018360001b612f6d565b905092915050565b6000612b63846000018460001b8473ffffffffffffffffffffffffffffffffffffffff1660001b612fdd565b90509392505050565b600081836000018054905011612bb7576040517f08c379a0000000000000000000000000000000000000000000000000000000008152600401612bae906146ad565b60405180910390fd5b826000018281548110612bc657fe5b9060005260206000200154905092915050565b60008082846000018054905011612c25576040517f08c379a0000000000000000000000000000000000000000000000000000000008152600401612c1c9061482d565b60405180910390fd5b6000846000018481548110612c3657fe5b906000526020600020906002020190508060000154816001015492509250509250929050565b60008084600101600085815260200190815260200160002054905060008114158390612cbe576040517f08c379a0000000000000000000000000000000000000000000000000000000008152600401612cb5919061466b565b60405180910390fd5b50846000016001820381548110612cd157fe5b9060005260206000209060020201600101549150509392505050565b600081600001805490509050919050565b6000612d1f8473ffffffffffffffffffffffffffffffffffffffff166130b9565b612d2c5760019050612e5a565b6060612df363150b7a0260e01b612d416122c5565b888787604051602401612d5794939291906144e3565b604051602081830303815290604052907bffffffffffffffffffffffffffffffffffffffffffffffffffffffff19166020820180517bffffffffffffffffffffffffffffffffffffffffffffffffffffffff8381831617835250505050604051806060016040528060328152602001614ced603291398773ffffffffffffffffffffffffffffffffffffffff166131049092919063ffffffff16565b9050600081806020019051810190612e0b919061365b565b905063150b7a0260e01b7bffffffffffffffffffffffffffffffffffffffffffffffffffffffff1916817bffffffffffffffffffffffffffffffffffffffffffffffffffffffff191614925050505b949350505050565b600080836001016000848152602001908152602001600020541415905092915050565b60008083600101600084815260200190815260200160002054905060008114612f615760006001820390506000600186600001805490500390506000866000018281548110612ed057fe5b9060005260206000200154905080876000018481548110612eed57fe5b9060005260206000200181905550600183018760010160008381526020019081526020016000208190555086600001805480612f2557fe5b60019003818190600052602060002001600090559055866001016000878152602001908152602001600020600090556001945050505050612f67565b60009150505b92915050565b6000612f79838361311c565b612fd2578260000182908060018154018082558091505060019003906000526020600020016000909190919091505582600001805490508360010160008481526020019081526020016000208190555060019050612fd7565b600090505b92915050565b6000808460010160008581526020019081526020016000205490506000811415613084578460000160405180604001604052808681526020018581525090806001815401808255809150506001900390600052602060002090600202016000909190919091506000820151816000015560208201518160010155505084600001805490508560010160008681526020019081526020016000208190555060019150506130b2565b8285600001600183038154811061309757fe5b90600052602060002090600202016001018190555060009150505b9392505050565b60008060007fc5d2460186f7233c927e7db2dcc703c0e500b653ca82273b7bfad8045d85a47060001b9050833f91508082141580156130fb57506000801b8214155b92505050919050565b6060613113848460008561313f565b90509392505050565b600080836001016000848152602001908152602001600020541415905092915050565b606061314a856130b9565b613189576040517f08c379a00000000000000000000000000000000000000000000000000000000081526004016131809061498d565b60405180910390fd5b600060608673ffffffffffffffffffffffffffffffffffffffff1685876040516131b3919061448d565b60006040518083038185875af1925050503d80600081146131f0576040519150601f19603f3d011682016040523d82523d6000602084013e6131f5565b606091505b5091509150811561320a57809250505061325a565b60008151111561321d5780518082602001fd5b836040517f08c379a0000000000000000000000000000000000000000000000000000000008152600401613251919061466b565b60405180910390fd5b949350505050565b828054600181600116156101000203166002900490600052602060002090601f016020900481019282601f106132a357805160ff19168380011785556132d1565b828001600101855582156132d1579182015b828111156132d05782518255916020019190600101906132b5565b5b5090506132de91906132e2565b5090565b5b808211156132fb5760008160009055506001016132e3565b5090565b60008135905061330e81614c90565b92915050565b60008135905061332381614ca7565b92915050565b60008135905061333881614cbe565b92915050565b60008151905061334d81614cbe565b92915050565b600082601f83011261336457600080fd5b813561337761337282614a39565b614a08565b9150808252602083016020830185838301111561339357600080fd5b61339e838284614c3b565b50505092915050565b600082601f8301126133b857600080fd5b81356133cb6133c682614a69565b614a08565b915080825260208301602083018583830111156133e757600080fd5b6133f2838284614c3b565b50505092915050565b60008135905061340a81614cd5565b92915050565b60006020828403121561342257600080fd5b6000613430848285016132ff565b91505092915050565b6000806040838503121561344c57600080fd5b600061345a858286016132ff565b925050602061346b858286016132ff565b9150509250929050565b6000806000806080858703121561348b57600080fd5b6000613499878288016132ff565b94505060206134aa878288016132ff565b935050604085013567ffffffffffffffff8111156134c757600080fd5b6134d3878288016133a7565b92505060606134e4878288016133fb565b91505092959194509250565b60008060006060848603121561350557600080fd5b6000613513868287016132ff565b9350506020613524868287016132ff565b9250506040613535868287016133fb565b9150509250925092565b6000806000806080858703121561355557600080fd5b6000613563878288016132ff565b9450506020613574878288016132ff565b9350506040613585878288016133fb565b925050606085013567ffffffffffffffff8111156135a257600080fd5b6135ae87828801613353565b91505092959194509250565b600080604083850312156135cd57600080fd5b60006135db858286016132ff565b92505060206135ec85828601613314565b9150509250929050565b6000806040838503121561360957600080fd5b6000613617858286016132ff565b9250506020613628858286016133fb565b9150509250929050565b60006020828403121561364457600080fd5b600061365284828501613329565b91505092915050565b60006020828403121561366d57600080fd5b600061367b8482850161333e565b91505092915050565b60008060006060848603121561369957600080fd5b600084013567ffffffffffffffff8111156136b357600080fd5b6136bf868287016133a7565b93505060206136d0868287016133fb565b92505060406136e1868287016133fb565b9150509250925092565b6000602082840312156136fd57600080fd5b600061370b848285016133fb565b91505092915050565b6000806040838503121561372757600080fd5b6000613735858286016133fb565b925050602083013567ffffffffffffffff81111561375257600080fd5b61375e858286016133a7565b9150509250929050565b6000806040838503121561377b57600080fd5b6000613789858286016133fb565b925050602061379a858286016133fb565b9150509250929050565b60006137b0838361440c565b905092915050565b60006137c4838361446f565b60208301905092915050565b6137d981614c05565b82525050565b6137e881614b91565b82525050565b6137f781614b7f565b82525050565b600061380882614ace565b6138128185614b14565b93508360208202850161382485614a99565b8060005b85811015613860578484038952815161384185826137a4565b945061384c83614afa565b925060208a01995050600181019050613828565b50829750879550505050505092915050565b600061387d82614ad9565b6138878185614b25565b935061389283614aa9565b8060005b838110156138c35781516138aa88826137b8565b97506138b583614b07565b925050600181019050613896565b5085935050505092915050565b6138d981614ba3565b82525050565b60006138ea82614ae4565b6138f48185614b36565b9350613904818560208601614c4a565b61390d81614c7f565b840191505092915050565b600061392382614ae4565b61392d8185614b47565b935061393d818560208601614c4a565b80840191505092915050565b600061395482614aef565b61395e8185614b52565b935061396e818560208601614c4a565b61397781614c7f565b840191505092915050565b600061398d82614aef565b6139978185614b63565b93506139a7818560208601614c4a565b6139b081614c7f565b840191505092915050565b60006139c682614aef565b6139d08185614b74565b93506139e0818560208601614c4a565b80840191505092915050565b600081546001811660008114613a095760018114613a2e57613a72565b607f6002830416613a1a8187614b74565b955060ff1983168652808601935050613a72565b60028204613a3c8187614b74565b9550613a4785614ab9565b60005b82811015613a6957815481890152600182019150602081019050613a4a565b82880195505050505b505092915050565b6000613a87601383614b63565b91507f546f6b656e20646f65736e2774206578697374000000000000000000000000006000830152602082019050919050565b6000613ac7602283614b63565b91507f456e756d657261626c655365743a20696e646578206f7574206f6620626f756e60008301527f64730000000000000000000000000000000000000000000000000000000000006020830152604082019050919050565b6000613b2d603283614b63565b91507f4552433732313a207472616e7366657220746f206e6f6e20455243373231526560008301527f63656976657220696d706c656d656e74657200000000000000000000000000006020830152604082019050919050565b6000613b93602683614b63565b91507f4f776e61626c653a206e6577206f776e657220697320746865207a65726f206160008301527f64647265737300000000000000000000000000000000000000000000000000006020830152604082019050919050565b6000613bf9601c83614b63565b91507f4552433732313a20746f6b656e20616c7265616479206d696e746564000000006000830152602082019050919050565b6000613c39602483614b63565b91507f4552433732313a207472616e7366657220746f20746865207a65726f2061646460008301527f72657373000000000000000000000000000000000000000000000000000000006020830152604082019050919050565b6000613c9f601983614b63565b91507f4552433732313a20617070726f766520746f2063616c6c6572000000000000006000830152602082019050919050565b6000613cdf601483614b63565b91507f546f6b656e20646f6573206e6f742065786973740000000000000000000000006000830152602082019050919050565b6000613d1f602683614b63565b91507f526571756573746564207472616e73666f726d6174696f6e20646f65736e277460008301527f20657869737400000000000000000000000000000000000000000000000000006020830152604082019050919050565b6000613d85602c83614b63565b91507f4552433732313a206f70657261746f7220717565727920666f72206e6f6e657860008301527f697374656e7420746f6b656e00000000000000000000000000000000000000006020830152604082019050919050565b6000613deb603883614b63565b91507f4552433732313a20617070726f76652063616c6c6572206973206e6f74206f7760008301527f6e6572206e6f7220617070726f76656420666f7220616c6c00000000000000006020830152604082019050919050565b6000613e51602a83614b63565b91507f4552433732313a2062616c616e636520717565727920666f7220746865207a6560008301527f726f2061646472657373000000000000000000000000000000000000000000006020830152604082019050919050565b6000613eb7604483614b63565b91507f4f6e6c792074686520706572736f6e2077686f2067656e65726174656420746860008301527f6520696d6167652063616e2062757920697420696e207468652066697273742060208301527f686f7572000000000000000000000000000000000000000000000000000000006040830152606082019050919050565b6000613f43602283614b63565b91507f456e756d657261626c654d61703a20696e646578206f7574206f6620626f756e60008301527f64730000000000000000000000000000000000000000000000000000000000006020830152604082019050919050565b6000613fa9602083614b63565b91507f4552433732313a206d696e7420746f20746865207a65726f20616464726573736000830152602082019050919050565b6000613fe9601483614b63565b91507f546f6b656e20616c726561647920626f756768740000000000000000000000006000830152602082019050919050565b6000614029602c83614b63565b91507f4552433732313a20617070726f76656420717565727920666f72206e6f6e657860008301527f697374656e7420746f6b656e00000000000000000000000000000000000000006020830152604082019050919050565b600061408f602c83614b63565b91507f4552433732314d657461646174613a2055524920736574206f66206e6f6e657860008301527f697374656e7420746f6b656e00000000000000000000000000000000000000006020830152604082019050919050565b60006140f5602083614b63565b91507f4f776e61626c653a2063616c6c6572206973206e6f7420746865206f776e65726000830152602082019050919050565b6000614135602983614b63565b91507f4552433732313a207472616e73666572206f6620746f6b656e2074686174206960008301527f73206e6f74206f776e00000000000000000000000000000000000000000000006020830152604082019050919050565b600061419b602f83614b63565b91507f4552433732314d657461646174613a2055524920717565727920666f72206e6f60008301527f6e6578697374656e7420746f6b656e00000000000000000000000000000000006020830152604082019050919050565b6000614201602183614b63565b91507f4552433732313a20617070726f76616c20746f2063757272656e74206f776e6560008301527f72000000000000000000000000000000000000000000000000000000000000006020830152604082019050919050565b6000614267601c83614b63565b91507f5573657220686173206e6f2067656e65726174656420746f6b656e73000000006000830152602082019050919050565b60006142a7603183614b63565b91507f4552433732313a207472616e736665722063616c6c6572206973206e6f74206f60008301527f776e6572206e6f7220617070726f7665640000000000000000000000000000006020830152604082019050919050565b600061430d601d83614b63565b91507f416464726573733a2063616c6c20746f206e6f6e2d636f6e74726163740000006000830152602082019050919050565b600061434d603183614b63565b91507f5472616e73616374696f6e2076616c7565206d757374206d617463682074726160008301527f6e73666f726d6174696f6e2070726963650000000000000000000000000000006020830152604082019050919050565b60006143b3602683614b63565b91507f5472616e73616374696f6e2076616c7565206d757374206d61746368206e667460008301527f20707269636500000000000000000000000000000000000000000000000000006020830152604082019050919050565b6000608083016000830151614424600086018261446f565b506020830151614437602086018261446f565b50604083015161444a604086018261446f565b50606083015184820360608601526144628282613949565b9150508091505092915050565b61447881614bfb565b82525050565b61448781614bfb565b82525050565b60006144998284613918565b915081905092915050565b60006144b082856139ec565b91506144bc82846139bb565b91508190509392505050565b60006020820190506144dd60008301846137ee565b92915050565b60006080820190506144f860008301876137df565b61450560208301866137ee565b614512604083018561447e565b818103606083015261452481846138df565b905095945050505050565b600060608201905061454460008301866137d0565b614551602083018561447e565b61455e604083018461447e565b949350505050565b600060808201905061457b60008301876137d0565b614588602083018661447e565b614595604083018561447e565b81810360608301526145a78184613982565b905095945050505050565b600060a0820190506145c760008301886137ee565b6145d460208301876137ee565b6145e1604083018661447e565b81810360608301526145f38185613982565b9050614602608083018461447e565b9695505050505050565b6000602082019050818103600083015261462681846137fd565b905092915050565b600060208201905081810360008301526146488184613872565b905092915050565b600060208201905061466560008301846138d0565b92915050565b600060208201905081810360008301526146858184613982565b905092915050565b600060208201905081810360008301526146a681613a7a565b9050919050565b600060208201905081810360008301526146c681613aba565b9050919050565b600060208201905081810360008301526146e681613b20565b9050919050565b6000602082019050818103600083015261470681613b86565b9050919050565b6000602082019050818103600083015261472681613bec565b9050919050565b6000602082019050818103600083015261474681613c2c565b9050919050565b6000602082019050818103600083015261476681613c92565b9050919050565b6000602082019050818103600083015261478681613cd2565b9050919050565b600060208201905081810360008301526147a681613d12565b9050919050565b600060208201905081810360008301526147c681613d78565b9050919050565b600060208201905081810360008301526147e681613dde565b9050919050565b6000602082019050818103600083015261480681613e44565b9050919050565b6000602082019050818103600083015261482681613eaa565b9050919050565b6000602082019050818103600083015261484681613f36565b9050919050565b6000602082019050818103600083015261486681613f9c565b9050919050565b6000602082019050818103600083015261488681613fdc565b9050919050565b600060208201905081810360008301526148a68161401c565b9050919050565b600060208201905081810360008301526148c681614082565b9050919050565b600060208201905081810360008301526148e6816140e8565b9050919050565b6000602082019050818103600083015261490681614128565b9050919050565b600060208201905081810360008301526149268161418e565b9050919050565b60006020820190508181036000830152614946816141f4565b9050919050565b600060208201905081810360008301526149668161425a565b9050919050565b600060208201905081810360008301526149868161429a565b9050919050565b600060208201905081810360008301526149a681614300565b9050919050565b600060208201905081810360008301526149c681614340565b9050919050565b600060208201905081810360008301526149e6816143a6565b9050919050565b6000602082019050614a02600083018461447e565b92915050565b6000604051905081810181811067ffffffffffffffff82111715614a2f57614a2e614c7d565b5b8060405250919050565b600067ffffffffffffffff821115614a5457614a53614c7d565b5b601f19601f8301169050602081019050919050565b600067ffffffffffffffff821115614a8457614a83614c7d565b5b601f19601f8301169050602081019050919050565b6000819050602082019050919050565b6000819050602082019050919050565b60008190508160005260206000209050919050565b600081519050919050565b600081519050919050565b600081519050919050565b600081519050919050565b6000602082019050919050565b6000602082019050919050565b600082825260208201905092915050565b600082825260208201905092915050565b600082825260208201905092915050565b600081905092915050565b600082825260208201905092915050565b600082825260208201905092915050565b600081905092915050565b6000614b8a82614bdb565b9050919050565b6000614b9c82614bdb565b9050919050565b60008115159050919050565b60007fffffffff0000000000000000000000000000000000000000000000000000000082169050919050565b600073ffffffffffffffffffffffffffffffffffffffff82169050919050565b6000819050919050565b6000614c1082614c17565b9050919050565b6000614c2282614c29565b9050919050565b6000614c3482614bdb565b9050919050565b82818337600083830152505050565b60005b83811015614c68578082015181840152602081019050614c4d565b83811115614c77576000848401525b50505050565bfe5b6000601f19601f8301169050919050565b614c9981614b7f565b8114614ca457600080fd5b50565b614cb081614ba3565b8114614cbb57600080fd5b50565b614cc781614baf565b8114614cd257600080fd5b50565b614cde81614bfb565b8114614ce957600080fd5b5056fe4552433732313a207472616e7366657220746f206e6f6e20455243373231526563656976657220696d706c656d656e7465724552433732313a206f776e657220717565727920666f72206e6f6e6578697374656e7420746f6b656ea2646970667358221220d8a98f301eddd854ae5fa31071e922751a04d31ae7c98534057ff21d22bd0bd364736f6c63430007030033",
  "linkReferences": {},
  "deployedLinkReferences": {}
}