{
  "_format": "hh-sol-artifact-1",
  "contractName": "StyleArt",
  "sourceName": "contracts/StyleArt.sol",
  "abi": [
    {
      "inputs": [],
      "stateMutability": "nonpayable",
      "type": "constructor"
    },
    {
      "anonymous": false,
      "inputs": [
        {
          "indexed": true,
          "internalType": "address",
          "name": "owner",
          "type": "address"
        },
        {
          "indexed": true,
          "internalType": "address",
          "name": "approved",
          "type": "address"
        },
        {
          "indexed": true,
          "internalType": "uint256",
          "name": "tokenId",
          "type": "uint256"
        }
      ],
      "name": "Approval",
      "type": "event"
    },
    {
      "anonymous": false,
      "inputs": [
        {
          "indexed": true,
          "internalType": "address",
          "name": "owner",
          "type": "address"
        },
        {
          "indexed": true,
          "internalType": "address",
          "name": "operator",
          "type": "address"
        },
        {
          "indexed": false,
          "internalType": "bool",
          "name": "approved",
          "type": "bool"
        }
      ],
      "name": "ApprovalForAll",
      "type": "event"
    },
    {
      "anonymous": false,
      "inputs": [
        {
          "indexed": false,
          "internalType": "address",
          "name": "sender",
          "type": "address"
        },
        {
          "indexed": false,
          "internalType": "uint256",
          "name": "value",
          "type": "uint256"
        },
        {
          "indexed": false,
          "internalType": "uint256",
          "name": "transformationId",
          "type": "uint256"
        },
        {
          "indexed": false,
          "internalType": "uint256",
          "name": "transformationNumber",
          "type": "uint256"
        },
        {
          "indexed": false,
          "internalType": "string",
          "name": "imageURL",
          "type": "string"
        }
      ],
      "name": "ImageGenerationPaid",
      "type": "event"
    },
    {
      "anonymous": false,
      "inputs": [
        {
          "indexed": true,
          "internalType": "address",
          "name": "previousOwner",
          "type": "address"
        },
        {
          "indexed": true,
          "internalType": "address",
          "name": "newOwner",
          "type": "address"
        }
      ],
      "name": "OwnershipTransferred",
      "type": "event"
    },
    {
      "anonymous": false,
      "inputs": [
        {
          "indexed": false,
          "internalType": "address",
          "name": "payer",
          "type": "address"
        },
        {
          "indexed": false,
          "internalType": "uint256",
          "name": "tokenId",
          "type": "uint256"
        },
        {
          "indexed": false,
          "internalType": "string",
          "name": "tokenURI",
          "type": "string"
        }
      ],
      "name": "TokenMinted",
      "type": "event"
    },
    {
      "anonymous": false,
      "inputs": [
        {
          "indexed": true,
          "internalType": "address",
          "name": "from",
          "type": "address"
        },
        {
          "indexed": true,
          "internalType": "address",
          "name": "to",
          "type": "address"
        },
        {
          "indexed": true,
          "internalType": "uint256",
          "name": "tokenId",
          "type": "uint256"
        }
      ],
      "name": "Transfer",
      "type": "event"
    },
    {
      "inputs": [
        {
          "internalType": "string",
          "name": "name",
          "type": "string"
        },
        {
          "internalType": "string",
          "name": "description",
          "type": "string"
        },
        {
          "internalType": "uint256",
          "name": "price",
          "type": "uint256"
        },
        {
          "internalType": "uint256",
          "name": "supply",
          "type": "uint256"
        }
      ],
      "name": "addTransformation",
      "outputs": [
        {
          "internalType": "uint256",
          "name": "",
          "type": "uint256"
        }
      ],
      "stateMutability": "nonpayable",
      "type": "function"
    },
    {
      "inputs": [
        {
          "internalType": "address",
          "name": "to",
          "type": "address"
        },
        {
          "internalType": "uint256",
          "name": "tokenId",
          "type": "uint256"
        }
      ],
      "name": "approve",
      "outputs": [],
      "stateMutability": "nonpayable",
      "type": "function"
    },
    {
      "inputs": [
        {
          "internalType": "address",
          "name": "owner",
          "type": "address"
        }
      ],
      "name": "balanceOf",
      "outputs": [
        {
          "internalType": "uint256",
          "name": "",
          "type": "uint256"
        }
      ],
      "stateMutability": "view",
      "type": "function"
    },
    {
      "inputs": [],
      "name": "baseURI",
      "outputs": [
        {
          "internalType": "string",
          "name": "",
          "type": "string"
        }
      ],
      "stateMutability": "view",
      "type": "function"
    },
    {
      "inputs": [
        {
          "internalType": "uint256",
          "name": "tokenId",
          "type": "uint256"
        }
      ],
      "name": "getApproved",
      "outputs": [
        {
          "internalType": "address",
          "name": "",
          "type": "address"
        }
      ],
      "stateMutability": "view",
      "type": "function"
    },
    {
      "inputs": [
        {
          "internalType": "address",
          "name": "owner",
          "type": "address"
        },
        {
          "internalType": "address",
          "name": "operator",
          "type": "address"
        }
      ],
      "name": "isApprovedForAll",
      "outputs": [
        {
          "internalType": "bool",
          "name": "",
          "type": "bool"
        }
      ],
      "stateMutability": "view",
      "type": "function"
    },
    {
      "inputs": [],
      "name": "listTransformations",
      "outputs": [
        {
          "components": [
            {
              "internalType": "uint256",
              "name": "id",
              "type": "uint256"
            },
            {
              "internalType": "uint256",
              "name": "price",
              "type": "uint256"
            },
            {
              "internalType": "uint256",
              "name": "supply",
              "type": "uint256"
            },
            {
              "internalType": "uint256",
              "name": "nTokens",
              "type": "uint256"
            },
            {
              "internalType": "string",
              "name": "name",
              "type": "string"
            },
            {
              "internalType": "string",
              "name": "description",
              "type": "string"
            },
            {
              "internalType": "bool",
              "name": "exists",
              "type": "bool"
            }
          ],
          "internalType": "struct StyleArt.Transformation[]",
          "name": "",
          "type": "tuple[]"
        }
      ],
      "stateMutability": "view",
      "type": "function"
    },
    {
      "inputs": [
        {
          "internalType": "address",
          "name": "payer",
          "type": "address"
        },
        {
          "internalType": "string",
          "name": "tokenURI",
          "type": "string"
        }
      ],
      "name": "mintNFT",
      "outputs": [
        {
          "internalType": "uint256",
          "name": "",
          "type": "uint256"
        }
      ],
      "stateMutability": "nonpayable",
      "type": "function"
    },
    {
      "inputs": [],
      "name": "name",
      "outputs": [
        {
          "internalType": "string",
          "name": "",
          "type": "string"
        }
      ],
      "stateMutability": "view",
      "type": "function"
    },
    {
      "inputs": [],
      "name": "owner",
      "outputs": [
        {
          "internalType": "address",
          "name": "",
          "type": "address"
        }
      ],
      "stateMutability": "view",
      "type": "function"
    },
    {
      "inputs": [
        {
          "internalType": "uint256",
          "name": "tokenId",
          "type": "uint256"
        }
      ],
      "name": "ownerOf",
      "outputs": [
        {
          "internalType": "address",
          "name": "",
          "type": "address"
        }
      ],
      "stateMutability": "view",
      "type": "function"
    },
    {
      "inputs": [
        {
          "internalType": "uint256",
          "name": "transformationId",
          "type": "uint256"
        },
        {
          "internalType": "string",
          "name": "imageUrl",
          "type": "string"
        }
      ],
      "name": "payGenerating",
      "outputs": [],
      "stateMutability": "payable",
      "type": "function"
    },
    {
      "inputs": [],
      "name": "renounceOwnership",
      "outputs": [],
      "stateMutability": "nonpayable",
      "type": "function"
    },
    {
      "inputs": [
        {
          "internalType": "address",
          "name": "from",
          "type": "address"
        },
        {
          "internalType": "address",
          "name": "to",
          "type": "address"
        },
        {
          "internalType": "uint256",
          "name": "tokenId",
          "type": "uint256"
        }
      ],
      "name": "safeTransferFrom",
      "outputs": [],
      "stateMutability": "nonpayable",
      "type": "function"
    },
    {
      "inputs": [
        {
          "internalType": "address",
          "name": "from",
          "type": "address"
        },
        {
          "internalType": "address",
          "name": "to",
          "type": "address"
        },
        {
          "internalType": "uint256",
          "name": "tokenId",
          "type": "uint256"
        },
        {
          "internalType": "bytes",
          "name": "_data",
          "type": "bytes"
        }
      ],
      "name": "safeTransferFrom",
      "outputs": [],
      "stateMutability": "nonpayable",
      "type": "function"
    },
    {
      "inputs": [
        {
          "internalType": "address",
          "name": "operator",
          "type": "address"
        },
        {
          "internalType": "bool",
          "name": "approved",
          "type": "bool"
        }
      ],
      "name": "setApprovalForAll",
      "outputs": [],
      "stateMutability": "nonpayable",
      "type": "function"
    },
    {
      "inputs": [
        {
          "internalType": "bytes4",
          "name": "interfaceId",
          "type": "bytes4"
        }
      ],
      "name": "supportsInterface",
      "outputs": [
        {
          "internalType": "bool",
          "name": "",
          "type": "bool"
        }
      ],
      "stateMutability": "view",
      "type": "function"
    },
    {
      "inputs": [],
      "name": "symbol",
      "outputs": [
        {
          "internalType": "string",
          "name": "",
          "type": "string"
        }
      ],
      "stateMutability": "view",
      "type": "function"
    },
    {
      "inputs": [
        {
          "internalType": "uint256",
          "name": "index",
          "type": "uint256"
        }
      ],
      "name": "tokenByIndex",
      "outputs": [
        {
          "internalType": "uint256",
          "name": "",
          "type": "uint256"
        }
      ],
      "stateMutability": "view",
      "type": "function"
    },
    {
      "inputs": [
        {
          "internalType": "address",
          "name": "owner",
          "type": "address"
        },
        {
          "internalType": "uint256",
          "name": "index",
          "type": "uint256"
        }
      ],
      "name": "tokenOfOwnerByIndex",
      "outputs": [
        {
          "internalType": "uint256",
          "name": "",
          "type": "uint256"
        }
      ],
      "stateMutability": "view",
      "type": "function"
    },
    {
      "inputs": [
        {
          "internalType": "uint256",
          "name": "tokenId",
          "type": "uint256"
        }
      ],
      "name": "tokenURI",
      "outputs": [
        {
          "internalType": "string",
          "name": "",
          "type": "string"
        }
      ],
      "stateMutability": "view",
      "type": "function"
    },
    {
      "inputs": [],
      "name": "totalSupply",
      "outputs": [
        {
          "internalType": "uint256",
          "name": "",
          "type": "uint256"
        }
      ],
      "stateMutability": "view",
      "type": "function"
    },
    {
      "inputs": [
        {
          "internalType": "address",
          "name": "from",
          "type": "address"
        },
        {
          "internalType": "address",
          "name": "to",
          "type": "address"
        },
        {
          "internalType": "uint256",
          "name": "tokenId",
          "type": "uint256"
        }
      ],
      "name": "transferFrom",
      "outputs": [],
      "stateMutability": "nonpayable",
      "type": "function"
    },
    {
      "inputs": [
        {
          "internalType": "address",
          "name": "newOwner",
          "type": "address"
        }
      ],
      "name": "transferOwnership",
      "outputs": [],
      "stateMutability": "nonpayable",
      "type": "function"
    },
    {
      "inputs": [
        {
          "internalType": "uint256",
          "name": "id",
          "type": "uint256"
        },
        {
          "internalType": "uint256",
          "name": "price",
          "type": "uint256"
        }
      ],
      "name": "updateTransformationPrice",
      "outputs": [
        {
          "internalType": "bool",
          "name": "",
          "type": "bool"
        }
      ],
      "stateMutability": "nonpayable",
      "type": "function"
    },
    {
      "inputs": [
        {
          "internalType": "address",
          "name": "user",
          "type": "address"
        }
      ],
      "name": "userGeneratedTokens",
      "outputs": [
        {
          "internalType": "uint256[]",
          "name": "",
          "type": "uint256[]"
        }
      ],
      "stateMutability": "view",
      "type": "function"
    }
  ],
  "bytecode": "0x60806040523480156200001157600080fd5b506040518060400160405280600881526020017f7374796c656172740000000000000000000000000000000000000000000000008152506040518060400160405280600481526020017f7361727400000000000000000000000000000000000000000000000000000000815250620000966301ffc9a760e01b6200020a60201b60201c565b8160069080519060200190620000ae929190620002ea565b508060079080519060200190620000c7929190620002ea565b50620000e06380ac58cd60e01b6200020a60201b60201c565b620000f8635b5e139f60e01b6200020a60201b60201c565b6200011063780e9d6360e01b6200020a60201b60201c565b5050600062000124620002e260201b60201c565b905080600a60006101000a81548173ffffffffffffffffffffffffffffffffffffffff021916908373ffffffffffffffffffffffffffffffffffffffff1602179055508073ffffffffffffffffffffffffffffffffffffffff16600073ffffffffffffffffffffffffffffffffffffffff167f8be0079c531659141344cd1fd0a4f28419497f9722a3daafe3b4186f6b6457e060405160405180910390a35033600d60006101000a81548173ffffffffffffffffffffffffffffffffffffffff021916908373ffffffffffffffffffffffffffffffffffffffff16021790555062000405565b63ffffffff60e01b817bffffffffffffffffffffffffffffffffffffffffffffffffffffffff1916141562000276576040517f08c379a00000000000000000000000000000000000000000000000000000000081526004016200026d90620003d2565b60405180910390fd5b6001600080837bffffffffffffffffffffffffffffffffffffffffffffffffffffffff19167bffffffffffffffffffffffffffffffffffffffffffffffffffffffff1916815260200190815260200160002060006101000a81548160ff02191690831515021790555050565b600033905090565b828054600181600116156101000203166002900490600052602060002090601f016020900481019282601f106200032d57805160ff19168380011785556200035e565b828001600101855582156200035e579182015b828111156200035d57825182559160200191906001019062000340565b5b5090506200036d919062000371565b5090565b5b808211156200038c57600081600090555060010162000372565b5090565b60006200039f601c83620003f4565b91507f4552433136353a20696e76616c696420696e74657266616365206964000000006000830152602082019050919050565b60006020820190508181036000830152620003ed8162000390565b9050919050565b600082825260208201905092915050565b61462f80620004156000396000f3fe6080604052600436106101815760003560e01c80636352211e116100d1578063a22cb4651161008a578063e985e9c511610064578063e985e9c5146105ad578063e9c7723d146105ea578063eacabe1414610627578063f2fde38b1461066457610181565b8063a22cb4651461051e578063b88d4fde14610547578063c87b56dd1461057057610181565b80636352211e1461040c5780636c0360eb1461044957806370a0823114610474578063715018a6146104b15780638da5cb5b146104c857806395d89b41146104f357610181565b80631ec166761161013e5780632f745c59116101185780632f745c591461034d57806342842e0e1461038a5780634f6ccce7146103b357806358a1388f146103f057610181565b80631ec16676146102aa5780632362382d146102e757806323b872dd1461032457610181565b806301ffc9a71461018657806306fdde03146101c3578063081812fc146101ee578063095ea7b31461022b57806318160ddd146102545780631935ec9f1461027f575b600080fd5b34801561019257600080fd5b506101ad60048036038101906101a89190613097565b61068d565b6040516101ba9190613f77565b60405180910390f35b3480156101cf57600080fd5b506101d86106f4565b6040516101e59190613f92565b60405180910390f35b3480156101fa57600080fd5b506102156004803603810190610210919061317c565b610796565b6040516102229190613e34565b60405180910390f35b34801561023757600080fd5b50610252600480360381019061024d919061305b565b61081b565b005b34801561026057600080fd5b50610269610933565b60405161027691906142b4565b60405180910390f35b34801561028b57600080fd5b50610294610944565b6040516102a19190613f33565b60405180910390f35b3480156102b657600080fd5b506102d160048036038101906102cc91906130e9565b610b98565b6040516102de91906142b4565b60405180910390f35b3480156102f357600080fd5b5061030e600480360381019061030991906131f9565b610d32565b60405161031b9190613f77565b60405180910390f35b34801561033057600080fd5b5061034b60048036038101906103469190612f01565b610dd5565b005b34801561035957600080fd5b50610374600480360381019061036f919061305b565b610e35565b60405161038191906142b4565b60405180910390f35b34801561039657600080fd5b506103b160048036038101906103ac9190612f01565b610e90565b005b3480156103bf57600080fd5b506103da60048036038101906103d5919061317c565b610eb0565b6040516103e791906142b4565b60405180910390f35b61040a600480360381019061040591906131a5565b610ed3565b005b34801561041857600080fd5b50610433600480360381019061042e919061317c565b61111c565b6040516104409190613e34565b60405180910390f35b34801561045557600080fd5b5061045e611153565b60405161046b9190613f92565b60405180910390f35b34801561048057600080fd5b5061049b60048036038101906104969190612e9c565b6111f5565b6040516104a891906142b4565b60405180910390f35b3480156104bd57600080fd5b506104c66112b4565b005b3480156104d457600080fd5b506104dd6113f1565b6040516104ea9190613e34565b60405180910390f35b3480156104ff57600080fd5b5061050861141b565b6040516105159190613f92565b60405180910390f35b34801561052a57600080fd5b5061054560048036038101906105409190612fcb565b6114bd565b005b34801561055357600080fd5b5061056e60048036038101906105699190612f50565b61163e565b005b34801561057c57600080fd5b506105976004803603810190610592919061317c565b6116a0565b6040516105a49190613f92565b60405180910390f35b3480156105b957600080fd5b506105d460048036038101906105cf9190612ec5565b611823565b6040516105e19190613f77565b60405180910390f35b3480156105f657600080fd5b50610611600480360381019061060c9190612e9c565b6118b7565b60405161061e9190613f55565b60405180910390f35b34801561063357600080fd5b5061064e60048036038101906106499190613007565b6119d3565b60405161065b91906142b4565b60405180910390f35b34801561067057600080fd5b5061068b60048036038101906106869190612e9c565b611b28565b005b6000806000837bffffffffffffffffffffffffffffffffffffffffffffffffffffffff19167bffffffffffffffffffffffffffffffffffffffffffffffffffffffff1916815260200190815260200160002060009054906101000a900460ff169050919050565b606060068054600181600116156101000203166002900480601f01602080910402602001604051908101604052809291908181526020018280546001816001161561010002031660029004801561078c5780601f106107615761010080835404028352916020019161078c565b820191906000526020600020905b81548152906001019060200180831161076f57829003601f168201915b5050505050905090565b60006107a182611cd4565b6107e0576040517f08c379a00000000000000000000000000000000000000000000000000000000081526004016107d790614154565b60405180910390fd5b6004600083815260200190815260200160002060009054906101000a900473ffffffffffffffffffffffffffffffffffffffff169050919050565b60006108268261111c565b90508073ffffffffffffffffffffffffffffffffffffffff168373ffffffffffffffffffffffffffffffffffffffff161415610897576040517f08c379a000000000000000000000000000000000000000000000000000000000815260040161088e906141f4565b60405180910390fd5b8073ffffffffffffffffffffffffffffffffffffffff166108b6611cf1565b73ffffffffffffffffffffffffffffffffffffffff1614806108e557506108e4816108df611cf1565b611823565b5b610924576040517f08c379a000000000000000000000000000000000000000000000000000000000815260040161091b906140d4565b60405180910390fd5b61092e8383611cf9565b505050565b600061093f6002611db2565b905090565b606080600f8054905067ffffffffffffffff8111801561096357600080fd5b5060405190808252806020026020018201604052801561099d57816020015b61098a612caf565b8152602001906001900390816109825790505b50905060005b600f80549050811015610b905760106000600f83815481106109c157fe5b906000526020600020015481526020019081526020016000206040518060e001604052908160008201548152602001600182015481526020016002820154815260200160038201548152602001600482018054600181600116156101000203166002900480601f016020809104026020016040519081016040528092919081815260200182805460018160011615610100020316600290048015610aa65780601f10610a7b57610100808354040283529160200191610aa6565b820191906000526020600020905b815481529060010190602001808311610a8957829003601f168201915b50505050508152602001600582018054600181600116156101000203166002900480601f016020809104026020016040519081016040528092919081815260200182805460018160011615610100020316600290048015610b485780601f10610b1d57610100808354040283529160200191610b48565b820191906000526020600020905b815481529060010190602001808311610b2b57829003601f168201915b505050505081526020016006820160009054906101000a900460ff161515151581525050828281518110610b7857fe5b602002602001018190525080806001019150506109a3565b508091505090565b6000610ba2611cf1565b73ffffffffffffffffffffffffffffffffffffffff16610bc06113f1565b73ffffffffffffffffffffffffffffffffffffffff1614610c16576040517f08c379a0000000000000000000000000000000000000000000000000000000008152600401610c0d90614194565b60405180910390fd5b610c20600c611dc7565b6000610c2c600c611ddd565b9050600f8190806001815401808255809150506001900390600052602060002001600090919091909150556040518060e00160405280828152602001858152602001848152602001600081526020018781526020018681526020016001151581525060106000838152602001908152602001600020600082015181600001556020820151816001015560408201518160020155606082015181600301556080820151816004019080519060200190610ce5929190612cee565b5060a0820151816005019080519060200190610d02929190612cee565b5060c08201518160060160006101000a81548160ff02191690831515021790555090505080915050949350505050565b6000610d3c611cf1565b73ffffffffffffffffffffffffffffffffffffffff16610d5a6113f1565b73ffffffffffffffffffffffffffffffffffffffff1614610db0576040517f08c379a0000000000000000000000000000000000000000000000000000000008152600401610da790614194565b60405180910390fd5b8160106000858152602001908152602001600020600101819055506001905092915050565b610de6610de0611cf1565b82611deb565b610e25576040517f08c379a0000000000000000000000000000000000000000000000000000000008152600401610e1c90614254565b60405180910390fd5b610e30838383611ec9565b505050565b6000610e8882600160008673ffffffffffffffffffffffffffffffffffffffff1673ffffffffffffffffffffffffffffffffffffffff1681526020019081526020016000206120e090919063ffffffff16565b905092915050565b610eab8383836040518060200160405280600081525061163e565b505050565b600080610ec78360026120fa90919063ffffffff16565b50905080915050919050565b81346010600083815260200190815260200160002060060160009054906101000a900460ff1615610fc95780601060008481526020019081526020016000206001015414610f56576040517f08c379a0000000000000000000000000000000000000000000000000000000008152600401610f4d90614294565b60405180910390fd5b6010600083815260200190815260200160002060020154601060008481526020019081526020016000206003015410610fc4576040517f08c379a0000000000000000000000000000000000000000000000000000000008152600401610fbb90614234565b60405180910390fd5b61102d565b6010600083815260200190815260200160002060060160009054906101000a900460ff1661102c576040517f08c379a000000000000000000000000000000000000000000000000000000000815260040161102390614074565b60405180910390fd5b5b60006001601060008781526020019081526020016000206003016000828254019250508190555060106000868152602001908152602001600020600301549050600d60009054906101000a900473ffffffffffffffffffffffffffffffffffffffff1673ffffffffffffffffffffffffffffffffffffffff166108fc349081150290604051600060405180830381858888f193505050501580156110d5573d6000803e3d6000fd5b507f81d4cad9cb4f927b4ee31e3bd4535f9bdb3426d1b822eb1cb91059ddfa3b42b0333487848860405161110d959493929190613e9b565b60405180910390a15050505050565b600061114c826040518060600160405280602981526020016145d16029913960026121269092919063ffffffff16565b9050919050565b606060098054600181600116156101000203166002900480601f0160208091040260200160405190810160405280929190818152602001828054600181600116156101000203166002900480156111eb5780601f106111c0576101008083540402835291602001916111eb565b820191906000526020600020905b8154815290600101906020018083116111ce57829003601f168201915b5050505050905090565b60008073ffffffffffffffffffffffffffffffffffffffff168273ffffffffffffffffffffffffffffffffffffffff161415611266576040517f08c379a000000000000000000000000000000000000000000000000000000000815260040161125d906140f4565b60405180910390fd5b6112ad600160008473ffffffffffffffffffffffffffffffffffffffff1673ffffffffffffffffffffffffffffffffffffffff168152602001908152602001600020612145565b9050919050565b6112bc611cf1565b73ffffffffffffffffffffffffffffffffffffffff166112da6113f1565b73ffffffffffffffffffffffffffffffffffffffff1614611330576040517f08c379a000000000000000000000000000000000000000000000000000000000815260040161132790614194565b60405180910390fd5b600073ffffffffffffffffffffffffffffffffffffffff16600a60009054906101000a900473ffffffffffffffffffffffffffffffffffffffff1673ffffffffffffffffffffffffffffffffffffffff167f8be0079c531659141344cd1fd0a4f28419497f9722a3daafe3b4186f6b6457e060405160405180910390a36000600a60006101000a81548173ffffffffffffffffffffffffffffffffffffffff021916908373ffffffffffffffffffffffffffffffffffffffff160217905550565b6000600a60009054906101000a900473ffffffffffffffffffffffffffffffffffffffff16905090565b606060078054600181600116156101000203166002900480601f0160208091040260200160405190810160405280929190818152602001828054600181600116156101000203166002900480156114b35780601f10611488576101008083540402835291602001916114b3565b820191906000526020600020905b81548152906001019060200180831161149657829003601f168201915b5050505050905090565b6114c5611cf1565b73ffffffffffffffffffffffffffffffffffffffff168273ffffffffffffffffffffffffffffffffffffffff161415611533576040517f08c379a000000000000000000000000000000000000000000000000000000000815260040161152a90614054565b60405180910390fd5b8060056000611540611cf1565b73ffffffffffffffffffffffffffffffffffffffff1673ffffffffffffffffffffffffffffffffffffffff16815260200190815260200160002060008473ffffffffffffffffffffffffffffffffffffffff1673ffffffffffffffffffffffffffffffffffffffff16815260200190815260200160002060006101000a81548160ff0219169083151502179055508173ffffffffffffffffffffffffffffffffffffffff166115ed611cf1565b73ffffffffffffffffffffffffffffffffffffffff167f17307eab39ab6107e8899845ad3d59bd9653f200f220920489ca2b5937696c31836040516116329190613f77565b60405180910390a35050565b61164f611649611cf1565b83611deb565b61168e576040517f08c379a000000000000000000000000000000000000000000000000000000000815260040161168590614254565b60405180910390fd5b61169a8484848461215a565b50505050565b60606116ab82611cd4565b6116ea576040517f08c379a00000000000000000000000000000000000000000000000000000000081526004016116e1906141d4565b60405180910390fd5b6060600860008481526020019081526020016000208054600181600116156101000203166002900480601f0160208091040260200160405190810160405280929190818152602001828054600181600116156101000203166002900480156117935780601f1061176857610100808354040283529160200191611793565b820191906000526020600020905b81548152906001019060200180831161177657829003601f168201915b5050505050905060606117a4611153565b90506000815114156117ba57819250505061181e565b6000825111156117ef5780826040516020016117d7929190613e10565b6040516020818303038152906040529250505061181e565b806117f9856121b6565b60405160200161180a929190613e10565b604051602081830303815290604052925050505b919050565b6000600560008473ffffffffffffffffffffffffffffffffffffffff1673ffffffffffffffffffffffffffffffffffffffff16815260200190815260200160002060008373ffffffffffffffffffffffffffffffffffffffff1673ffffffffffffffffffffffffffffffffffffffff16815260200190815260200160002060009054906101000a900460ff16905092915050565b60606000600e60008473ffffffffffffffffffffffffffffffffffffffff1673ffffffffffffffffffffffffffffffffffffffff168152602001908152602001600020805490501161193e576040517f08c379a000000000000000000000000000000000000000000000000000000000815260040161193590614214565b60405180910390fd5b600e60008373ffffffffffffffffffffffffffffffffffffffff1673ffffffffffffffffffffffffffffffffffffffff1681526020019081526020016000208054806020026020016040519081016040528092919081815260200182805480156119c757602002820191906000526020600020905b8154815260200190600101908083116119b3575b50505050509050919050565b60006119dd611cf1565b73ffffffffffffffffffffffffffffffffffffffff166119fb6113f1565b73ffffffffffffffffffffffffffffffffffffffff1614611a51576040517f08c379a0000000000000000000000000000000000000000000000000000000008152600401611a4890614194565b60405180910390fd5b611a5b600b611dc7565b6000611a67600b611ddd565b9050611a7384826122fd565b611a7d818461248b565b600e60008573ffffffffffffffffffffffffffffffffffffffff1673ffffffffffffffffffffffffffffffffffffffff1681526020019081526020016000208190806001815401808255809150506001900390600052602060002001600090919091909150557fdf92894dc4675a7333caa5903b69cf5d8e8ec0d3f361c88207b6688e525703bb848285604051611b1693929190613ef5565b60405180910390a18091505092915050565b611b30611cf1565b73ffffffffffffffffffffffffffffffffffffffff16611b4e6113f1565b73ffffffffffffffffffffffffffffffffffffffff1614611ba4576040517f08c379a0000000000000000000000000000000000000000000000000000000008152600401611b9b90614194565b60405180910390fd5b600073ffffffffffffffffffffffffffffffffffffffff168173ffffffffffffffffffffffffffffffffffffffff161415611c14576040517f08c379a0000000000000000000000000000000000000000000000000000000008152600401611c0b90613ff4565b60405180910390fd5b8073ffffffffffffffffffffffffffffffffffffffff16600a60009054906101000a900473ffffffffffffffffffffffffffffffffffffffff1673ffffffffffffffffffffffffffffffffffffffff167f8be0079c531659141344cd1fd0a4f28419497f9722a3daafe3b4186f6b6457e060405160405180910390a380600a60006101000a81548173ffffffffffffffffffffffffffffffffffffffff021916908373ffffffffffffffffffffffffffffffffffffffff16021790555050565b6000611cea8260026124ff90919063ffffffff16565b9050919050565b600033905090565b816004600083815260200190815260200160002060006101000a81548173ffffffffffffffffffffffffffffffffffffffff021916908373ffffffffffffffffffffffffffffffffffffffff160217905550808273ffffffffffffffffffffffffffffffffffffffff16611d6c8361111c565b73ffffffffffffffffffffffffffffffffffffffff167f8c5be1e5ebec7d5bd14f71427d1e84f3dd0314c0f7b2291e5b200ac8c7c3b92560405160405180910390a45050565b6000611dc082600001612519565b9050919050565b6001816000016000828254019250508190555050565b600081600001549050919050565b6000611df682611cd4565b611e35576040517f08c379a0000000000000000000000000000000000000000000000000000000008152600401611e2c906140b4565b60405180910390fd5b6000611e408361111c565b90508073ffffffffffffffffffffffffffffffffffffffff168473ffffffffffffffffffffffffffffffffffffffff161480611eaf57508373ffffffffffffffffffffffffffffffffffffffff16611e9784610796565b73ffffffffffffffffffffffffffffffffffffffff16145b80611ec05750611ebf8185611823565b5b91505092915050565b8273ffffffffffffffffffffffffffffffffffffffff16611ee98261111c565b73ffffffffffffffffffffffffffffffffffffffff1614611f3f576040517f08c379a0000000000000000000000000000000000000000000000000000000008152600401611f36906141b4565b60405180910390fd5b600073ffffffffffffffffffffffffffffffffffffffff168273ffffffffffffffffffffffffffffffffffffffff161415611faf576040517f08c379a0000000000000000000000000000000000000000000000000000000008152600401611fa690614034565b60405180910390fd5b611fba83838361252a565b611fc5600082611cf9565b61201681600160008673ffffffffffffffffffffffffffffffffffffffff1673ffffffffffffffffffffffffffffffffffffffff16815260200190815260200160002061252f90919063ffffffff16565b5061206881600160008573ffffffffffffffffffffffffffffffffffffffff1673ffffffffffffffffffffffffffffffffffffffff16815260200190815260200160002061254990919063ffffffff16565b5061207f818360026125639092919063ffffffff16565b50808273ffffffffffffffffffffffffffffffffffffffff168473ffffffffffffffffffffffffffffffffffffffff167fddf252ad1be2c89b69c2b068fc378daa952ba7f163c4a11628f55a4df523b3ef60405160405180910390a4505050565b60006120ef8360000183612598565b60001c905092915050565b60008060008061210d8660000186612605565b915091508160001c8160001c9350935050509250929050565b6000612139846000018460001b84612688565b60001c90509392505050565b600061215382600001612719565b9050919050565b612165848484611ec9565b6121718484848461272a565b6121b0576040517f08c379a00000000000000000000000000000000000000000000000000000000081526004016121a790613fd4565b60405180910390fd5b50505050565b606060008214156121fe576040518060400160405280600181526020017f300000000000000000000000000000000000000000000000000000000000000081525090506122f8565b600082905060005b60008214612228578080600101915050600a828161222057fe5b049150612206565b60608167ffffffffffffffff8111801561224157600080fd5b506040519080825280601f01601f1916602001820160405280156122745781602001600182028036833780820191505090505b50905060006001830390508593505b600084146122f057600a848161229557fe5b0660300160f81b828280600190039350815181106122af57fe5b60200101907effffffffffffffffffffffffffffffffffffffffffffffffffffffffffffff1916908160001a905350600a84816122e857fe5b049350612283565b819450505050505b919050565b600073ffffffffffffffffffffffffffffffffffffffff168273ffffffffffffffffffffffffffffffffffffffff16141561236d576040517f08c379a000000000000000000000000000000000000000000000000000000000815260040161236490614134565b60405180910390fd5b61237681611cd4565b156123b6576040517f08c379a00000000000000000000000000000000000000000000000000000000081526004016123ad90614014565b60405180910390fd5b6123c26000838361252a565b61241381600160008573ffffffffffffffffffffffffffffffffffffffff1673ffffffffffffffffffffffffffffffffffffffff16815260200190815260200160002061254990919063ffffffff16565b5061242a818360026125639092919063ffffffff16565b50808273ffffffffffffffffffffffffffffffffffffffff16600073ffffffffffffffffffffffffffffffffffffffff167fddf252ad1be2c89b69c2b068fc378daa952ba7f163c4a11628f55a4df523b3ef60405160405180910390a45050565b61249482611cd4565b6124d3576040517f08c379a00000000000000000000000000000000000000000000000000000000081526004016124ca90614174565b60405180910390fd5b806008600084815260200190815260200160002090805190602001906124fa929190612cee565b505050565b6000612511836000018360001b61288e565b905092915050565b600081600001805490509050919050565b505050565b6000612541836000018360001b6128b1565b905092915050565b600061255b836000018360001b612999565b905092915050565b600061258f846000018460001b8473ffffffffffffffffffffffffffffffffffffffff1660001b612a09565b90509392505050565b6000818360000180549050116125e3576040517f08c379a00000000000000000000000000000000000000000000000000000000081526004016125da90613fb4565b60405180910390fd5b8260000182815481106125f257fe5b9060005260206000200154905092915050565b60008082846000018054905011612651576040517f08c379a000000000000000000000000000000000000000000000000000000000815260040161264890614114565b60405180910390fd5b600084600001848154811061266257fe5b906000526020600020906002020190508060000154816001015492509250509250929050565b600080846001016000858152602001908152602001600020549050600081141583906126ea576040517f08c379a00000000000000000000000000000000000000000000000000000000081526004016126e19190613f92565b60405180910390fd5b508460000160018203815481106126fd57fe5b9060005260206000209060020201600101549150509392505050565b600081600001805490509050919050565b600061274b8473ffffffffffffffffffffffffffffffffffffffff16612ae5565b6127585760019050612886565b606061281f63150b7a0260e01b61276d611cf1565b8887876040516024016127839493929190613e4f565b604051602081830303815290604052907bffffffffffffffffffffffffffffffffffffffffffffffffffffffff19166020820180517bffffffffffffffffffffffffffffffffffffffffffffffffffffffff838183161783525050505060405180606001604052806032815260200161459f603291398773ffffffffffffffffffffffffffffffffffffffff16612af89092919063ffffffff16565b905060008180602001905181019061283791906130c0565b905063150b7a0260e01b7bffffffffffffffffffffffffffffffffffffffffffffffffffffffff1916817bffffffffffffffffffffffffffffffffffffffffffffffffffffffff191614925050505b949350505050565b600080836001016000848152602001908152602001600020541415905092915050565b6000808360010160008481526020019081526020016000205490506000811461298d57600060018203905060006001866000018054905003905060008660000182815481106128fc57fe5b906000526020600020015490508087600001848154811061291957fe5b906000526020600020018190555060018301876001016000838152602001908152602001600020819055508660000180548061295157fe5b60019003818190600052602060002001600090559055866001016000878152602001908152602001600020600090556001945050505050612993565b60009150505b92915050565b60006129a58383612b10565b6129fe578260000182908060018154018082558091505060019003906000526020600020016000909190919091505582600001805490508360010160008481526020019081526020016000208190555060019050612a03565b600090505b92915050565b6000808460010160008581526020019081526020016000205490506000811415612ab057846000016040518060400160405280868152602001858152509080600181540180825580915050600190039060005260206000209060020201600090919091909150600082015181600001556020820151816001015550508460000180549050856001016000868152602001908152602001600020819055506001915050612ade565b82856000016001830381548110612ac357fe5b90600052602060002090600202016001018190555060009150505b9392505050565b600080823b905060008111915050919050565b6060612b078484600085612b33565b90509392505050565b600080836001016000848152602001908152602001600020541415905092915050565b606082471015612b78576040517f08c379a0000000000000000000000000000000000000000000000000000000008152600401612b6f90614094565b60405180910390fd5b612b8185612ae5565b612bc0576040517f08c379a0000000000000000000000000000000000000000000000000000000008152600401612bb790614274565b60405180910390fd5b600060608673ffffffffffffffffffffffffffffffffffffffff168587604051612bea9190613df9565b60006040518083038185875af1925050503d8060008114612c27576040519150601f19603f3d011682016040523d82523d6000602084013e612c2c565b606091505b5091509150612c3c828286612c48565b92505050949350505050565b60608315612c5857829050612ca8565b600083511115612c6b5782518084602001fd5b816040517f08c379a0000000000000000000000000000000000000000000000000000000008152600401612c9f9190613f92565b60405180910390fd5b9392505050565b6040518060e001604052806000815260200160008152602001600081526020016000815260200160608152602001606081526020016000151581525090565b828054600181600116156101000203166002900490600052602060002090601f016020900481019282601f10612d2f57805160ff1916838001178555612d5d565b82800160010185558215612d5d579182015b82811115612d5c578251825591602001919060010190612d41565b5b509050612d6a9190612d6e565b5090565b5b80821115612d87576000816000905550600101612d6f565b5090565b600081359050612d9a81614542565b92915050565b600081359050612daf81614559565b92915050565b600081359050612dc481614570565b92915050565b600081519050612dd981614570565b92915050565b600082601f830112612df057600080fd5b8135612e03612dfe82614300565b6142cf565b91508082526020830160208301858383011115612e1f57600080fd5b612e2a8382846144ed565b50505092915050565b600082601f830112612e4457600080fd5b8135612e57612e5282614330565b6142cf565b91508082526020830160208301858383011115612e7357600080fd5b612e7e8382846144ed565b50505092915050565b600081359050612e9681614587565b92915050565b600060208284031215612eae57600080fd5b6000612ebc84828501612d8b565b91505092915050565b60008060408385031215612ed857600080fd5b6000612ee685828601612d8b565b9250506020612ef785828601612d8b565b9150509250929050565b600080600060608486031215612f1657600080fd5b6000612f2486828701612d8b565b9350506020612f3586828701612d8b565b9250506040612f4686828701612e87565b9150509250925092565b60008060008060808587031215612f6657600080fd5b6000612f7487828801612d8b565b9450506020612f8587828801612d8b565b9350506040612f9687828801612e87565b925050606085013567ffffffffffffffff811115612fb357600080fd5b612fbf87828801612ddf565b91505092959194509250565b60008060408385031215612fde57600080fd5b6000612fec85828601612d8b565b9250506020612ffd85828601612da0565b9150509250929050565b6000806040838503121561301a57600080fd5b600061302885828601612d8b565b925050602083013567ffffffffffffffff81111561304557600080fd5b61305185828601612e33565b9150509250929050565b6000806040838503121561306e57600080fd5b600061307c85828601612d8b565b925050602061308d85828601612e87565b9150509250929050565b6000602082840312156130a957600080fd5b60006130b784828501612db5565b91505092915050565b6000602082840312156130d257600080fd5b60006130e084828501612dca565b91505092915050565b600080600080608085870312156130ff57600080fd5b600085013567ffffffffffffffff81111561311957600080fd5b61312587828801612e33565b945050602085013567ffffffffffffffff81111561314257600080fd5b61314e87828801612e33565b935050604061315f87828801612e87565b925050606061317087828801612e87565b91505092959194509250565b60006020828403121561318e57600080fd5b600061319c84828501612e87565b91505092915050565b600080604083850312156131b857600080fd5b60006131c685828601612e87565b925050602083013567ffffffffffffffff8111156131e357600080fd5b6131ef85828601612e33565b9150509250929050565b6000806040838503121561320c57600080fd5b600061321a85828601612e87565b925050602061322b85828601612e87565b9150509250929050565b60006132418383613d38565b905092915050565b60006132558383613ddb565b60208301905092915050565b61326a816144b7565b82525050565b61327981614443565b82525050565b61328881614431565b82525050565b600061329982614380565b6132a381856143c6565b9350836020820285016132b585614360565b8060005b858110156132f157848403895281516132d28582613235565b94506132dd836143ac565b925060208a019950506001810190506132b9565b50829750879550505050505092915050565b600061330e8261438b565b61331881856143d7565b935061332383614370565b8060005b8381101561335457815161333b8882613249565b9750613346836143b9565b925050600181019050613327565b5085935050505092915050565b61336a81614455565b82525050565b61337981614455565b82525050565b600061338a82614396565b61339481856143e8565b93506133a48185602086016144fc565b6133ad81614531565b840191505092915050565b60006133c382614396565b6133cd81856143f9565b93506133dd8185602086016144fc565b80840191505092915050565b60006133f4826143a1565b6133fe8185614404565b935061340e8185602086016144fc565b61341781614531565b840191505092915050565b600061342d826143a1565b6134378185614415565b93506134478185602086016144fc565b61345081614531565b840191505092915050565b6000613466826143a1565b6134708185614426565b93506134808185602086016144fc565b80840191505092915050565b6000613499602283614415565b91507f456e756d657261626c655365743a20696e646578206f7574206f6620626f756e60008301527f64730000000000000000000000000000000000000000000000000000000000006020830152604082019050919050565b60006134ff603283614415565b91507f4552433732313a207472616e7366657220746f206e6f6e20455243373231526560008301527f63656976657220696d706c656d656e74657200000000000000000000000000006020830152604082019050919050565b6000613565602683614415565b91507f4f776e61626c653a206e6577206f776e657220697320746865207a65726f206160008301527f64647265737300000000000000000000000000000000000000000000000000006020830152604082019050919050565b60006135cb601c83614415565b91507f4552433732313a20746f6b656e20616c7265616479206d696e746564000000006000830152602082019050919050565b600061360b602483614415565b91507f4552433732313a207472616e7366657220746f20746865207a65726f2061646460008301527f72657373000000000000000000000000000000000000000000000000000000006020830152604082019050919050565b6000613671601983614415565b91507f4552433732313a20617070726f766520746f2063616c6c6572000000000000006000830152602082019050919050565b60006136b1602683614415565b91507f526571756573746564207472616e73666f726d6174696f6e20646f65736e277460008301527f20657869737400000000000000000000000000000000000000000000000000006020830152604082019050919050565b6000613717602683614415565b91507f416464726573733a20696e73756666696369656e742062616c616e636520666f60008301527f722063616c6c00000000000000000000000000000000000000000000000000006020830152604082019050919050565b600061377d602c83614415565b91507f4552433732313a206f70657261746f7220717565727920666f72206e6f6e657860008301527f697374656e7420746f6b656e00000000000000000000000000000000000000006020830152604082019050919050565b60006137e3603883614415565b91507f4552433732313a20617070726f76652063616c6c6572206973206e6f74206f7760008301527f6e6572206e6f7220617070726f76656420666f7220616c6c00000000000000006020830152604082019050919050565b6000613849602a83614415565b91507f4552433732313a2062616c616e636520717565727920666f7220746865207a6560008301527f726f2061646472657373000000000000000000000000000000000000000000006020830152604082019050919050565b60006138af602283614415565b91507f456e756d657261626c654d61703a20696e646578206f7574206f6620626f756e60008301527f64730000000000000000000000000000000000000000000000000000000000006020830152604082019050919050565b6000613915602083614415565b91507f4552433732313a206d696e7420746f20746865207a65726f20616464726573736000830152602082019050919050565b6000613955602c83614415565b91507f4552433732313a20617070726f76656420717565727920666f72206e6f6e657860008301527f697374656e7420746f6b656e00000000000000000000000000000000000000006020830152604082019050919050565b60006139bb602c83614415565b91507f4552433732314d657461646174613a2055524920736574206f66206e6f6e657860008301527f697374656e7420746f6b656e00000000000000000000000000000000000000006020830152604082019050919050565b6000613a21602083614415565b91507f4f776e61626c653a2063616c6c6572206973206e6f7420746865206f776e65726000830152602082019050919050565b6000613a61602983614415565b91507f4552433732313a207472616e73666572206f6620746f6b656e2074686174206960008301527f73206e6f74206f776e00000000000000000000000000000000000000000000006020830152604082019050919050565b6000613ac7602f83614415565b91507f4552433732314d657461646174613a2055524920717565727920666f72206e6f60008301527f6e6578697374656e7420746f6b656e00000000000000000000000000000000006020830152604082019050919050565b6000613b2d602183614415565b91507f4552433732313a20617070726f76616c20746f2063757272656e74206f776e6560008301527f72000000000000000000000000000000000000000000000000000000000000006020830152604082019050919050565b6000613b93601c83614415565b91507f5573657220686173206e6f2067656e65726174656420746f6b656e73000000006000830152602082019050919050565b6000613bd3602283614415565b91507f5472616e73666f726d6174696f6e20737570706c79206973206578686175737460008301527f65640000000000000000000000000000000000000000000000000000000000006020830152604082019050919050565b6000613c39603183614415565b91507f4552433732313a207472616e736665722063616c6c6572206973206e6f74206f60008301527f776e6572206e6f7220617070726f7665640000000000000000000000000000006020830152604082019050919050565b6000613c9f601d83614415565b91507f416464726573733a2063616c6c20746f206e6f6e2d636f6e74726163740000006000830152602082019050919050565b6000613cdf603183614415565b91507f5472616e73616374696f6e2076616c7565206d757374206d617463682074726160008301527f6e73666f726d6174696f6e2070726963650000000000000000000000000000006020830152604082019050919050565b600060e083016000830151613d506000860182613ddb565b506020830151613d636020860182613ddb565b506040830151613d766040860182613ddb565b506060830151613d896060860182613ddb565b5060808301518482036080860152613da182826133e9565b91505060a083015184820360a0860152613dbb82826133e9565b91505060c0830151613dd060c0860182613361565b508091505092915050565b613de4816144ad565b82525050565b613df3816144ad565b82525050565b6000613e0582846133b8565b915081905092915050565b6000613e1c828561345b565b9150613e28828461345b565b91508190509392505050565b6000602082019050613e49600083018461327f565b92915050565b6000608082019050613e646000830187613270565b613e71602083018661327f565b613e7e6040830185613dea565b8181036060830152613e90818461337f565b905095945050505050565b600060a082019050613eb06000830188613261565b613ebd6020830187613dea565b613eca6040830186613dea565b613ed76060830185613dea565b8181036080830152613ee98184613422565b90509695505050505050565b6000606082019050613f0a600083018661327f565b613f176020830185613dea565b8181036040830152613f298184613422565b9050949350505050565b60006020820190508181036000830152613f4d818461328e565b905092915050565b60006020820190508181036000830152613f6f8184613303565b905092915050565b6000602082019050613f8c6000830184613370565b92915050565b60006020820190508181036000830152613fac8184613422565b905092915050565b60006020820190508181036000830152613fcd8161348c565b9050919050565b60006020820190508181036000830152613fed816134f2565b9050919050565b6000602082019050818103600083015261400d81613558565b9050919050565b6000602082019050818103600083015261402d816135be565b9050919050565b6000602082019050818103600083015261404d816135fe565b9050919050565b6000602082019050818103600083015261406d81613664565b9050919050565b6000602082019050818103600083015261408d816136a4565b9050919050565b600060208201905081810360008301526140ad8161370a565b9050919050565b600060208201905081810360008301526140cd81613770565b9050919050565b600060208201905081810360008301526140ed816137d6565b9050919050565b6000602082019050818103600083015261410d8161383c565b9050919050565b6000602082019050818103600083015261412d816138a2565b9050919050565b6000602082019050818103600083015261414d81613908565b9050919050565b6000602082019050818103600083015261416d81613948565b9050919050565b6000602082019050818103600083015261418d816139ae565b9050919050565b600060208201905081810360008301526141ad81613a14565b9050919050565b600060208201905081810360008301526141cd81613a54565b9050919050565b600060208201905081810360008301526141ed81613aba565b9050919050565b6000602082019050818103600083015261420d81613b20565b9050919050565b6000602082019050818103600083015261422d81613b86565b9050919050565b6000602082019050818103600083015261424d81613bc6565b9050919050565b6000602082019050818103600083015261426d81613c2c565b9050919050565b6000602082019050818103600083015261428d81613c92565b9050919050565b600060208201905081810360008301526142ad81613cd2565b9050919050565b60006020820190506142c96000830184613dea565b92915050565b6000604051905081810181811067ffffffffffffffff821117156142f6576142f561452f565b5b8060405250919050565b600067ffffffffffffffff82111561431b5761431a61452f565b5b601f19601f8301169050602081019050919050565b600067ffffffffffffffff82111561434b5761434a61452f565b5b601f19601f8301169050602081019050919050565b6000819050602082019050919050565b6000819050602082019050919050565b600081519050919050565b600081519050919050565b600081519050919050565b600081519050919050565b6000602082019050919050565b6000602082019050919050565b600082825260208201905092915050565b600082825260208201905092915050565b600082825260208201905092915050565b600081905092915050565b600082825260208201905092915050565b600082825260208201905092915050565b600081905092915050565b600061443c8261448d565b9050919050565b600061444e8261448d565b9050919050565b60008115159050919050565b60007fffffffff0000000000000000000000000000000000000000000000000000000082169050919050565b600073ffffffffffffffffffffffffffffffffffffffff82169050919050565b6000819050919050565b60006144c2826144c9565b9050919050565b60006144d4826144db565b9050919050565b60006144e68261448d565b9050919050565b82818337600083830152505050565b60005b8381101561451a5780820151818401526020810190506144ff565b83811115614529576000848401525b50505050565bfe5b6000601f19601f8301169050919050565b61454b81614431565b811461455657600080fd5b50565b61456281614455565b811461456d57600080fd5b50565b61457981614461565b811461458457600080fd5b50565b614590816144ad565b811461459b57600080fd5b5056fe4552433732313a207472616e7366657220746f206e6f6e20455243373231526563656976657220696d706c656d656e7465724552433732313a206f776e657220717565727920666f72206e6f6e6578697374656e7420746f6b656ea2646970667358221220fcdff2eaa9a87403a515353c781b370f8f0969eca301522310436972f22238b664736f6c63430007030033",
  "linkReferences": {},
  "deployedLinkReferences": {}
}