{
  "_format": "hh-sol-artifact-1",
  "contractName": "StyleNFT",
  "sourceName": "contracts/StyleNFT.sol",
  "abi": [
    {
      "inputs": [],
      "stateMutability": "nonpayable",
      "type": "constructor"
    },
    {
      "anonymous": false,
      "inputs": [
        {
          "indexed": true,
          "internalType": "address",
          "name": "owner",
          "type": "address"
        },
        {
          "indexed": true,
          "internalType": "address",
          "name": "approved",
          "type": "address"
        },
        {
          "indexed": true,
          "internalType": "uint256",
          "name": "tokenId",
          "type": "uint256"
        }
      ],
      "name": "Approval",
      "type": "event"
    },
    {
      "anonymous": false,
      "inputs": [
        {
          "indexed": true,
          "internalType": "address",
          "name": "owner",
          "type": "address"
        },
        {
          "indexed": true,
          "internalType": "address",
          "name": "operator",
          "type": "address"
        },
        {
          "indexed": false,
          "internalType": "bool",
          "name": "approved",
          "type": "bool"
        }
      ],
      "name": "ApprovalForAll",
      "type": "event"
    },
    {
      "anonymous": false,
      "inputs": [
        {
          "indexed": false,
          "internalType": "address",
          "name": "sender",
          "type": "address"
        },
        {
          "indexed": false,
          "internalType": "uint256",
          "name": "value",
          "type": "uint256"
        },
        {
          "indexed": false,
          "internalType": "uint256",
          "name": "transformationId",
          "type": "uint256"
        },
        {
          "indexed": false,
          "internalType": "string",
          "name": "imageURL",
          "type": "string"
        }
      ],
      "name": "ImageGenerationPaid",
      "type": "event"
    },
    {
      "anonymous": false,
      "inputs": [
        {
          "indexed": false,
          "internalType": "address",
          "name": "sender",
          "type": "address"
        },
        {
          "indexed": false,
          "internalType": "uint256",
          "name": "value",
          "type": "uint256"
        },
        {
          "indexed": false,
          "internalType": "uint256",
          "name": "tokenId",
          "type": "uint256"
        }
      ],
      "name": "ImagePaid",
      "type": "event"
    },
    {
      "anonymous": false,
      "inputs": [
        {
          "indexed": true,
          "internalType": "address",
          "name": "previousOwner",
          "type": "address"
        },
        {
          "indexed": true,
          "internalType": "address",
          "name": "newOwner",
          "type": "address"
        }
      ],
      "name": "OwnershipTransferred",
      "type": "event"
    },
    {
      "anonymous": false,
      "inputs": [
        {
          "indexed": false,
          "internalType": "address",
          "name": "recipient",
          "type": "address"
        },
        {
          "indexed": false,
          "internalType": "address",
          "name": "payer",
          "type": "address"
        },
        {
          "indexed": false,
          "internalType": "uint256",
          "name": "tokenId",
          "type": "uint256"
        },
        {
          "indexed": false,
          "internalType": "string",
          "name": "tokenURI",
          "type": "string"
        },
        {
          "indexed": false,
          "internalType": "uint256",
          "name": "price",
          "type": "uint256"
        }
      ],
      "name": "TokenMinted",
      "type": "event"
    },
    {
      "anonymous": false,
      "inputs": [
        {
          "indexed": true,
          "internalType": "address",
          "name": "from",
          "type": "address"
        },
        {
          "indexed": true,
          "internalType": "address",
          "name": "to",
          "type": "address"
        },
        {
          "indexed": true,
          "internalType": "uint256",
          "name": "tokenId",
          "type": "uint256"
        }
      ],
      "name": "Transfer",
      "type": "event"
    },
    {
      "inputs": [
        {
          "internalType": "string",
          "name": "name",
          "type": "string"
        },
        {
          "internalType": "uint256",
          "name": "price",
          "type": "uint256"
        }
      ],
      "name": "addTransformation",
      "outputs": [
        {
          "internalType": "uint256",
          "name": "",
          "type": "uint256"
        }
      ],
      "stateMutability": "nonpayable",
      "type": "function"
    },
    {
      "inputs": [
        {
          "internalType": "address",
          "name": "to",
          "type": "address"
        },
        {
          "internalType": "uint256",
          "name": "tokenId",
          "type": "uint256"
        }
      ],
      "name": "approve",
      "outputs": [],
      "stateMutability": "nonpayable",
      "type": "function"
    },
    {
      "inputs": [
        {
          "internalType": "address",
          "name": "owner",
          "type": "address"
        }
      ],
      "name": "balanceOf",
      "outputs": [
        {
          "internalType": "uint256",
          "name": "",
          "type": "uint256"
        }
      ],
      "stateMutability": "view",
      "type": "function"
    },
    {
      "inputs": [],
      "name": "baseURI",
      "outputs": [
        {
          "internalType": "string",
          "name": "",
          "type": "string"
        }
      ],
      "stateMutability": "view",
      "type": "function"
    },
    {
      "inputs": [
        {
          "internalType": "uint256",
          "name": "tokenId",
          "type": "uint256"
        }
      ],
      "name": "getApproved",
      "outputs": [
        {
          "internalType": "address",
          "name": "",
          "type": "address"
        }
      ],
      "stateMutability": "view",
      "type": "function"
    },
    {
      "inputs": [
        {
          "internalType": "address",
          "name": "owner",
          "type": "address"
        },
        {
          "internalType": "address",
          "name": "operator",
          "type": "address"
        }
      ],
      "name": "isApprovedForAll",
      "outputs": [
        {
          "internalType": "bool",
          "name": "",
          "type": "bool"
        }
      ],
      "stateMutability": "view",
      "type": "function"
    },
    {
      "inputs": [],
      "name": "listTransformations",
      "outputs": [
        {
          "components": [
            {
              "internalType": "uint256",
              "name": "id",
              "type": "uint256"
            },
            {
              "internalType": "uint256",
              "name": "price",
              "type": "uint256"
            },
            {
              "internalType": "string",
              "name": "name",
              "type": "string"
            }
          ],
          "internalType": "struct StyleNFT.Transformation[]",
          "name": "",
          "type": "tuple[]"
        }
      ],
      "stateMutability": "view",
      "type": "function"
    },
    {
      "inputs": [
        {
          "internalType": "address",
          "name": "recipient",
          "type": "address"
        },
        {
          "internalType": "address",
          "name": "payer",
          "type": "address"
        },
        {
          "internalType": "string",
          "name": "tokenURI",
          "type": "string"
        },
        {
          "internalType": "uint256",
          "name": "price",
          "type": "uint256"
        }
      ],
      "name": "mintNFT",
      "outputs": [
        {
          "internalType": "uint256",
          "name": "",
          "type": "uint256"
        }
      ],
      "stateMutability": "nonpayable",
      "type": "function"
    },
    {
      "inputs": [],
      "name": "name",
      "outputs": [
        {
          "internalType": "string",
          "name": "",
          "type": "string"
        }
      ],
      "stateMutability": "view",
      "type": "function"
    },
    {
      "inputs": [],
      "name": "owner",
      "outputs": [
        {
          "internalType": "address",
          "name": "",
          "type": "address"
        }
      ],
      "stateMutability": "view",
      "type": "function"
    },
    {
      "inputs": [
        {
          "internalType": "uint256",
          "name": "tokenId",
          "type": "uint256"
        }
      ],
      "name": "ownerOf",
      "outputs": [
        {
          "internalType": "address",
          "name": "",
          "type": "address"
        }
      ],
      "stateMutability": "view",
      "type": "function"
    },
    {
      "inputs": [
        {
          "internalType": "uint256",
          "name": "transformationId",
          "type": "uint256"
        },
        {
          "internalType": "string",
          "name": "imageUrl",
          "type": "string"
        }
      ],
      "name": "payGenerating",
      "outputs": [],
      "stateMutability": "payable",
      "type": "function"
    },
    {
      "inputs": [
        {
          "internalType": "uint256",
          "name": "tokenId",
          "type": "uint256"
        }
      ],
      "name": "payImage",
      "outputs": [],
      "stateMutability": "payable",
      "type": "function"
    },
    {
      "inputs": [
        {
          "internalType": "uint256",
          "name": "tokenId",
          "type": "uint256"
        }
      ],
      "name": "payerOf",
      "outputs": [
        {
          "internalType": "address",
          "name": "",
          "type": "address"
        }
      ],
      "stateMutability": "view",
      "type": "function"
    },
    {
      "inputs": [],
      "name": "renounceOwnership",
      "outputs": [],
      "stateMutability": "nonpayable",
      "type": "function"
    },
    {
      "inputs": [
        {
          "internalType": "address",
          "name": "from",
          "type": "address"
        },
        {
          "internalType": "address",
          "name": "to",
          "type": "address"
        },
        {
          "internalType": "uint256",
          "name": "tokenId",
          "type": "uint256"
        }
      ],
      "name": "safeTransferFrom",
      "outputs": [],
      "stateMutability": "nonpayable",
      "type": "function"
    },
    {
      "inputs": [
        {
          "internalType": "address",
          "name": "from",
          "type": "address"
        },
        {
          "internalType": "address",
          "name": "to",
          "type": "address"
        },
        {
          "internalType": "uint256",
          "name": "tokenId",
          "type": "uint256"
        },
        {
          "internalType": "bytes",
          "name": "_data",
          "type": "bytes"
        }
      ],
      "name": "safeTransferFrom",
      "outputs": [],
      "stateMutability": "nonpayable",
      "type": "function"
    },
    {
      "inputs": [
        {
          "internalType": "address",
          "name": "operator",
          "type": "address"
        },
        {
          "internalType": "bool",
          "name": "approved",
          "type": "bool"
        }
      ],
      "name": "setApprovalForAll",
      "outputs": [],
      "stateMutability": "nonpayable",
      "type": "function"
    },
    {
      "inputs": [
        {
          "internalType": "bytes4",
          "name": "interfaceId",
          "type": "bytes4"
        }
      ],
      "name": "supportsInterface",
      "outputs": [
        {
          "internalType": "bool",
          "name": "",
          "type": "bool"
        }
      ],
      "stateMutability": "view",
      "type": "function"
    },
    {
      "inputs": [],
      "name": "symbol",
      "outputs": [
        {
          "internalType": "string",
          "name": "",
          "type": "string"
        }
      ],
      "stateMutability": "view",
      "type": "function"
    },
    {
      "inputs": [
        {
          "internalType": "uint256",
          "name": "index",
          "type": "uint256"
        }
      ],
      "name": "tokenByIndex",
      "outputs": [
        {
          "internalType": "uint256",
          "name": "",
          "type": "uint256"
        }
      ],
      "stateMutability": "view",
      "type": "function"
    },
    {
      "inputs": [
        {
          "internalType": "address",
          "name": "owner",
          "type": "address"
        },
        {
          "internalType": "uint256",
          "name": "index",
          "type": "uint256"
        }
      ],
      "name": "tokenOfOwnerByIndex",
      "outputs": [
        {
          "internalType": "uint256",
          "name": "",
          "type": "uint256"
        }
      ],
      "stateMutability": "view",
      "type": "function"
    },
    {
      "inputs": [
        {
          "internalType": "uint256",
          "name": "tokenId",
          "type": "uint256"
        }
      ],
      "name": "tokenURI",
      "outputs": [
        {
          "internalType": "string",
          "name": "",
          "type": "string"
        }
      ],
      "stateMutability": "view",
      "type": "function"
    },
    {
      "inputs": [],
      "name": "totalSupply",
      "outputs": [
        {
          "internalType": "uint256",
          "name": "",
          "type": "uint256"
        }
      ],
      "stateMutability": "view",
      "type": "function"
    },
    {
      "inputs": [
        {
          "internalType": "address",
          "name": "from",
          "type": "address"
        },
        {
          "internalType": "address",
          "name": "to",
          "type": "address"
        },
        {
          "internalType": "uint256",
          "name": "tokenId",
          "type": "uint256"
        }
      ],
      "name": "transferFrom",
      "outputs": [],
      "stateMutability": "nonpayable",
      "type": "function"
    },
    {
      "inputs": [
        {
          "internalType": "address",
          "name": "newOwner",
          "type": "address"
        }
      ],
      "name": "transferOwnership",
      "outputs": [],
      "stateMutability": "nonpayable",
      "type": "function"
    },
    {
      "inputs": [
        {
          "internalType": "uint256",
          "name": "tokenId",
          "type": "uint256"
        },
        {
          "internalType": "uint256",
          "name": "price",
          "type": "uint256"
        }
      ],
      "name": "updateTokenPrice",
      "outputs": [
        {
          "internalType": "bool",
          "name": "",
          "type": "bool"
        }
      ],
      "stateMutability": "nonpayable",
      "type": "function"
    },
    {
      "inputs": [
        {
          "internalType": "uint256",
          "name": "id",
          "type": "uint256"
        },
        {
          "internalType": "uint256",
          "name": "price",
          "type": "uint256"
        }
      ],
      "name": "updateTransformationPrice",
      "outputs": [
        {
          "internalType": "bool",
          "name": "",
          "type": "bool"
        }
      ],
      "stateMutability": "nonpayable",
      "type": "function"
    },
    {
      "inputs": [
        {
          "internalType": "address",
          "name": "user",
          "type": "address"
        }
      ],
      "name": "userBoughtTokens",
      "outputs": [
        {
          "internalType": "uint256[]",
          "name": "",
          "type": "uint256[]"
        }
      ],
      "stateMutability": "view",
      "type": "function"
    },
    {
      "inputs": [
        {
          "internalType": "address",
          "name": "user",
          "type": "address"
        }
      ],
      "name": "userGeneratedTokens",
      "outputs": [
        {
          "internalType": "uint256[]",
          "name": "",
          "type": "uint256[]"
        }
      ],
      "stateMutability": "view",
      "type": "function"
    }
  ],
  "bytecode": "0x60806040523480156200001157600080fd5b506040518060400160405280600881526020017f7374796c656172740000000000000000000000000000000000000000000000008152506040518060400160405280600481526020017f736e667400000000000000000000000000000000000000000000000000000000815250620000966301ffc9a760e01b6200020a60201b60201c565b8160069080519060200190620000ae929190620002ea565b508060079080519060200190620000c7929190620002ea565b50620000e06380ac58cd60e01b6200020a60201b60201c565b620000f8635b5e139f60e01b6200020a60201b60201c565b6200011063780e9d6360e01b6200020a60201b60201c565b5050600062000124620002e260201b60201c565b905080600a60006101000a81548173ffffffffffffffffffffffffffffffffffffffff021916908373ffffffffffffffffffffffffffffffffffffffff1602179055508073ffffffffffffffffffffffffffffffffffffffff16600073ffffffffffffffffffffffffffffffffffffffff167f8be0079c531659141344cd1fd0a4f28419497f9722a3daafe3b4186f6b6457e060405160405180910390a35033600d60006101000a81548173ffffffffffffffffffffffffffffffffffffffff021916908373ffffffffffffffffffffffffffffffffffffffff16021790555062000405565b63ffffffff60e01b817bffffffffffffffffffffffffffffffffffffffffffffffffffffffff1916141562000276576040517f08c379a00000000000000000000000000000000000000000000000000000000081526004016200026d90620003d2565b60405180910390fd5b6001600080837bffffffffffffffffffffffffffffffffffffffffffffffffffffffff19167bffffffffffffffffffffffffffffffffffffffffffffffffffffffff1916815260200190815260200160002060006101000a81548160ff02191690831515021790555050565b600033905090565b828054600181600116156101000203166002900490600052602060002090601f016020900481019282601f106200032d57805160ff19168380011785556200035e565b828001600101855582156200035e579182015b828111156200035d57825182559160200191906001019062000340565b5b5090506200036d919062000371565b5090565b5b808211156200038c57600081600090555060010162000372565b5090565b60006200039f601c83620003f4565b91507f4552433136353a20696e76616c696420696e74657266616365206964000000006000830152602082019050919050565b60006020820190508181036000830152620003ed8162000390565b9050919050565b600082825260208201905092915050565b614efd80620004156000396000f3fe6080604052600436106101cd5760003560e01c80636c0360eb116100f757806395d89b4111610095578063db64426411610064578063db644264146106cc578063e985e9c514610709578063e9c7723d14610746578063f2fde38b14610783576101cd565b806395d89b4114610612578063a22cb4651461063d578063b88d4fde14610666578063c87b56dd1461068f576101cd565b80637edcf18f116100d15780637edcf18f14610530578063897925f51461056d5780638da5cb5b146105aa5780639210e508146105d5576101cd565b80636c0360eb146104b157806370a08231146104dc578063715018a614610519576101cd565b806323b872dd1161016f57806358a1388f1161013e57806358a1388f146103ff5780635e45d17e1461041b5780636031dd95146104375780636352211e14610474576101cd565b806323b872dd146103335780632f745c591461035c57806342842e0e146103995780634f6ccce7146103c2576101cd565b8063095ea7b3116101ab578063095ea7b31461027757806318160ddd146102a05780631935ec9f146102cb5780632362382d146102f6576101cd565b806301ffc9a7146101d257806306fdde031461020f578063081812fc1461023a575b600080fd5b3480156101de57600080fd5b506101f960048036038101906101f49190613778565b6107ac565b60405161020691906147b0565b60405180910390f35b34801561021b57600080fd5b50610224610813565b60405161023191906147cb565b60405180910390f35b34801561024657600080fd5b50610261600480360381019061025c919061381e565b6108b5565b60405161026e9190614628565b60405180910390f35b34801561028357600080fd5b5061029e6004803603810190610299919061373c565b61093a565b005b3480156102ac57600080fd5b506102b5610a52565b6040516102c29190614b6d565b60405180910390f35b3480156102d757600080fd5b506102e0610a63565b6040516102ed919061476c565b60405180910390f35b34801561030257600080fd5b5061031d6004803603810190610318919061389b565b610b78565b60405161032a91906147b0565b60405180910390f35b34801561033f57600080fd5b5061035a60048036038101906103559190613636565b610c8d565b005b34801561036857600080fd5b50610383600480360381019061037e919061373c565b610ced565b6040516103909190614b6d565b60405180910390f35b3480156103a557600080fd5b506103c060048036038101906103bb9190613636565b610d48565b005b3480156103ce57600080fd5b506103e960048036038101906103e4919061381e565b610d68565b6040516103f69190614b6d565b60405180910390f35b61041960048036038101906104149190613847565b610d8b565b005b6104356004803603810190610430919061381e565b610f24565b005b34801561044357600080fd5b5061045e600480360381019061045991906135bb565b611254565b60405161046b9190614b6d565b60405180910390f35b34801561048057600080fd5b5061049b6004803603810190610496919061381e565b6114c1565b6040516104a89190614628565b60405180910390f35b3480156104bd57600080fd5b506104c66114f8565b6040516104d391906147cb565b60405180910390f35b3480156104e857600080fd5b5061050360048036038101906104fe9190613556565b61159a565b6040516105109190614b6d565b60405180910390f35b34801561052557600080fd5b5061052e611659565b005b34801561053c57600080fd5b506105576004803603810190610552919061381e565b6117b1565b6040516105649190614628565b60405180910390f35b34801561057957600080fd5b50610594600480360381019061058f919061389b565b611854565b6040516105a191906147b0565b60405180910390f35b3480156105b657600080fd5b506105bf6119e1565b6040516105cc9190614628565b60405180910390f35b3480156105e157600080fd5b506105fc60048036038101906105f79190613556565b611a0b565b604051610609919061478e565b60405180910390f35b34801561061e57600080fd5b50610627611b2d565b60405161063491906147cb565b60405180910390f35b34801561064957600080fd5b50610664600480360381019061065f9190613700565b611bcf565b005b34801561067257600080fd5b5061068d60048036038101906106889190613685565b611d50565b005b34801561069b57600080fd5b506106b660048036038101906106b1919061381e565b611db2565b6040516106c391906147cb565b60405180910390f35b3480156106d857600080fd5b506106f360048036038101906106ee91906137ca565b611f3d565b6040516107009190614b6d565b60405180910390f35b34801561071557600080fd5b50610730600480360381019061072b919061357f565b612071565b60405161073d91906147b0565b60405180910390f35b34801561075257600080fd5b5061076d60048036038101906107689190613556565b612105565b60405161077a919061478e565b60405180910390f35b34801561078f57600080fd5b506107aa60048036038101906107a59190613556565b612227565b005b6000806000837bffffffffffffffffffffffffffffffffffffffffffffffffffffffff19167bffffffffffffffffffffffffffffffffffffffffffffffffffffffff1916815260200190815260200160002060009054906101000a900460ff169050919050565b606060068054600181600116156101000203166002900480601f0160208091040260200160405190810160405280929190818152602001828054600181600116156101000203166002900480156108ab5780601f10610880576101008083540402835291602001916108ab565b820191906000526020600020905b81548152906001019060200180831161088e57829003601f168201915b5050505050905090565b60006108c0826123ee565b6108ff576040517f08c379a00000000000000000000000000000000000000000000000000000000081526004016108f690614a0d565b60405180910390fd5b6004600083815260200190815260200160002060009054906101000a900473ffffffffffffffffffffffffffffffffffffffff169050919050565b6000610945826114c1565b90508073ffffffffffffffffffffffffffffffffffffffff168373ffffffffffffffffffffffffffffffffffffffff1614156109b6576040517f08c379a00000000000000000000000000000000000000000000000000000000081526004016109ad90614aad565b60405180910390fd5b8073ffffffffffffffffffffffffffffffffffffffff166109d561240b565b73ffffffffffffffffffffffffffffffffffffffff161480610a045750610a03816109fe61240b565b612071565b5b610a43576040517f08c379a0000000000000000000000000000000000000000000000000000000008152600401610a3a9061494d565b60405180910390fd5b610a4d8383612413565b505050565b6000610a5e60026124cc565b905090565b60606010805480602002602001604051908101604052809291908181526020016000905b82821015610b6f57838290600052602060002090600302016040518060600160405290816000820154815260200160018201548152602001600282018054600181600116156101000203166002900480601f016020809104026020016040519081016040528092919081815260200182805460018160011615610100020316600290048015610b575780601f10610b2c57610100808354040283529160200191610b57565b820191906000526020600020905b815481529060010190602001808311610b3a57829003601f168201915b50505050508152505081526020019060010190610a87565b50505050905090565b6000610b8261240b565b73ffffffffffffffffffffffffffffffffffffffff16600a60009054906101000a900473ffffffffffffffffffffffffffffffffffffffff1673ffffffffffffffffffffffffffffffffffffffff1614610c11576040517f08c379a0000000000000000000000000000000000000000000000000000000008152600401610c0890614a4d565b60405180910390fd5b60005b601080549050811015610c81578360108281548110610c2f57fe5b9060005260206000209060030201600001541415610c74578260108281548110610c5557fe5b9060005260206000209060030201600101819055506001915050610c87565b8080600101915050610c14565b50600090505b92915050565b610c9e610c9861240b565b826124e1565b610cdd576040517f08c379a0000000000000000000000000000000000000000000000000000000008152600401610cd490614aed565b60405180910390fd5b610ce88383836125bf565b505050565b6000610d4082600160008673ffffffffffffffffffffffffffffffffffffffff1673ffffffffffffffffffffffffffffffffffffffff1681526020019081526020016000206127d690919063ffffffff16565b905092915050565b610d6383838360405180602001604052806000815250611d50565b505050565b600080610d7f8360026127f090919063ffffffff16565b50905080915050919050565b81346000805b601080549050811015610e36578360108281548110610dac57fe5b9060005260206000209060030201600001541415610e2957600191508260108281548110610dd657fe5b90600052602060002090600302016001015414610e28576040517f08c379a0000000000000000000000000000000000000000000000000000000008152600401610e1f90614b2d565b60405180910390fd5b5b8080600101915050610d91565b5080610e77576040517f08c379a0000000000000000000000000000000000000000000000000000000008152600401610e6e906148ed565b60405180910390fd5b600d60009054906101000a900473ffffffffffffffffffffffffffffffffffffffff1673ffffffffffffffffffffffffffffffffffffffff166108fc349081150290604051600060405180830381858888f19350505050158015610edf573d6000803e3d6000fd5b507fb4b3eea958fd79328ea998403a758ad1a0d9db9c72633bbf4b014b934939ae9033348787604051610f1594939291906146c6565b60405180910390a15050505050565b80600e600082815260200190815260200160002060030160009054906101000a900460ff16610f88576040517f08c379a0000000000000000000000000000000000000000000000000000000008152600401610f7f906148cd565b60405180910390fd5b60001515600e600083815260200190815260200160002060030160019054906101000a900460ff16151514610ff2576040517f08c379a0000000000000000000000000000000000000000000000000000000008152600401610fe9906149ed565b60405180910390fd5b33826014600e600083815260200190815260200160002060010154014210156110ba578173ffffffffffffffffffffffffffffffffffffffff16600e600083815260200190815260200160002060000160009054906101000a900473ffffffffffffffffffffffffffffffffffffffff1673ffffffffffffffffffffffffffffffffffffffff16146110b9576040517f08c379a00000000000000000000000000000000000000000000000000000000081526004016110b09061498d565b60405180910390fd5b5b600e6000858152602001908152602001600020600201543414611112576040517f08c379a000000000000000000000000000000000000000000000000000000000815260040161110990614b4d565b60405180910390fd5b600d60009054906101000a900473ffffffffffffffffffffffffffffffffffffffff1673ffffffffffffffffffffffffffffffffffffffff166108fc349081150290604051600060405180830381858888f1935050505015801561117a573d6000803e3d6000fd5b506001600e600086815260200190815260200160002060030160016101000a81548160ff021916908315150217905550600f60003373ffffffffffffffffffffffffffffffffffffffff1673ffffffffffffffffffffffffffffffffffffffff1681526020019081526020016000206001018490806001815401808255809150506001900390600052602060002001600090919091909150557fe73afeaacaf168c89f8eca1d95b1e592a2a43d550dd0e3de98218e418a198f453334866040516112469392919061468f565b60405180910390a150505050565b600061125e61240b565b73ffffffffffffffffffffffffffffffffffffffff16600a60009054906101000a900473ffffffffffffffffffffffffffffffffffffffff1673ffffffffffffffffffffffffffffffffffffffff16146112ed576040517f08c379a00000000000000000000000000000000000000000000000000000000081526004016112e490614a4d565b60405180910390fd5b6112f7600b61281c565b6000611303600b612832565b905061130f8682612840565b61131981856129ce565b6040518060a001604052808673ffffffffffffffffffffffffffffffffffffffff16815260200142815260200184815260200160011515815260200160001515815250600e600083815260200190815260200160002060008201518160000160006101000a81548173ffffffffffffffffffffffffffffffffffffffff021916908373ffffffffffffffffffffffffffffffffffffffff160217905550602082015181600101556040820151816002015560608201518160030160006101000a81548160ff02191690831515021790555060808201518160030160016101000a81548160ff021916908315150217905550905050600f60008673ffffffffffffffffffffffffffffffffffffffff1673ffffffffffffffffffffffffffffffffffffffff1681526020019081526020016000206000018190806001815401808255809150506001900390600052602060002001600090919091909150557f9bc29a7be16d04de3c353003faca2ab9ecae65d0443b11bcc70d01948a78a3d886868387876040516114ad959493929190614712565b60405180910390a180915050949350505050565b60006114f182604051806060016040528060298152602001614e9f602991396002612a429092919063ffffffff16565b9050919050565b606060098054600181600116156101000203166002900480601f0160208091040260200160405190810160405280929190818152602001828054600181600116156101000203166002900480156115905780601f1061156557610100808354040283529160200191611590565b820191906000526020600020905b81548152906001019060200180831161157357829003601f168201915b5050505050905090565b60008073ffffffffffffffffffffffffffffffffffffffff168273ffffffffffffffffffffffffffffffffffffffff16141561160b576040517f08c379a00000000000000000000000000000000000000000000000000000000081526004016116029061496d565b60405180910390fd5b611652600160008473ffffffffffffffffffffffffffffffffffffffff1673ffffffffffffffffffffffffffffffffffffffff168152602001908152602001600020612a61565b9050919050565b61166161240b565b73ffffffffffffffffffffffffffffffffffffffff16600a60009054906101000a900473ffffffffffffffffffffffffffffffffffffffff1673ffffffffffffffffffffffffffffffffffffffff16146116f0576040517f08c379a00000000000000000000000000000000000000000000000000000000081526004016116e790614a4d565b60405180910390fd5b600073ffffffffffffffffffffffffffffffffffffffff16600a60009054906101000a900473ffffffffffffffffffffffffffffffffffffffff1673ffffffffffffffffffffffffffffffffffffffff167f8be0079c531659141344cd1fd0a4f28419497f9722a3daafe3b4186f6b6457e060405160405180910390a36000600a60006101000a81548173ffffffffffffffffffffffffffffffffffffffff021916908373ffffffffffffffffffffffffffffffffffffffff160217905550565b6000600e600083815260200190815260200160002060030160009054906101000a900460ff16611816576040517f08c379a000000000000000000000000000000000000000000000000000000000815260040161180d906147ed565b60405180910390fd5b600e600083815260200190815260200160002060000160009054906101000a900473ffffffffffffffffffffffffffffffffffffffff169050919050565b600061185e61240b565b73ffffffffffffffffffffffffffffffffffffffff16600a60009054906101000a900473ffffffffffffffffffffffffffffffffffffffff1673ffffffffffffffffffffffffffffffffffffffff16146118ed576040517f08c379a00000000000000000000000000000000000000000000000000000000081526004016118e490614a4d565b60405180910390fd5b82600e600082815260200190815260200160002060030160009054906101000a900460ff16611951576040517f08c379a0000000000000000000000000000000000000000000000000000000008152600401611948906148cd565b60405180910390fd5b60001515600e600083815260200190815260200160002060030160019054906101000a900460ff161515146119bb576040517f08c379a00000000000000000000000000000000000000000000000000000000081526004016119b2906149ed565b60405180910390fd5b82600e600086815260200190815260200160002060020181905550600191505092915050565b6000600a60009054906101000a900473ffffffffffffffffffffffffffffffffffffffff16905090565b60606000600f60008473ffffffffffffffffffffffffffffffffffffffff1673ffffffffffffffffffffffffffffffffffffffff1681526020019081526020016000206001018054905011611a95576040517f08c379a0000000000000000000000000000000000000000000000000000000008152600401611a8c9061492d565b60405180910390fd5b600f60008373ffffffffffffffffffffffffffffffffffffffff1673ffffffffffffffffffffffffffffffffffffffff168152602001908152602001600020600101805480602002602001604051908101604052809291908181526020018280548015611b2157602002820191906000526020600020905b815481526020019060010190808311611b0d575b50505050509050919050565b606060078054600181600116156101000203166002900480601f016020809104026020016040519081016040528092919081815260200182805460018160011615610100020316600290048015611bc55780601f10611b9a57610100808354040283529160200191611bc5565b820191906000526020600020905b815481529060010190602001808311611ba857829003601f168201915b5050505050905090565b611bd761240b565b73ffffffffffffffffffffffffffffffffffffffff168273ffffffffffffffffffffffffffffffffffffffff161415611c45576040517f08c379a0000000000000000000000000000000000000000000000000000000008152600401611c3c906148ad565b60405180910390fd5b8060056000611c5261240b565b73ffffffffffffffffffffffffffffffffffffffff1673ffffffffffffffffffffffffffffffffffffffff16815260200190815260200160002060008473ffffffffffffffffffffffffffffffffffffffff1673ffffffffffffffffffffffffffffffffffffffff16815260200190815260200160002060006101000a81548160ff0219169083151502179055508173ffffffffffffffffffffffffffffffffffffffff16611cff61240b565b73ffffffffffffffffffffffffffffffffffffffff167f17307eab39ab6107e8899845ad3d59bd9653f200f220920489ca2b5937696c3183604051611d4491906147b0565b60405180910390a35050565b611d61611d5b61240b565b836124e1565b611da0576040517f08c379a0000000000000000000000000000000000000000000000000000000008152600401611d9790614aed565b60405180910390fd5b611dac84848484612a76565b50505050565b6060611dbd826123ee565b611dfc576040517f08c379a0000000000000000000000000000000000000000000000000000000008152600401611df390614a8d565b60405180910390fd5b6060600860008481526020019081526020016000208054600181600116156101000203166002900480601f016020809104026020016040519081016040528092919081815260200182805460018160011615610100020316600290048015611ea55780601f10611e7a57610100808354040283529160200191611ea5565b820191906000526020600020905b815481529060010190602001808311611e8857829003601f168201915b50505050509050600060098054600181600116156101000203166002900490501415611ed45780915050611f38565b600081511115611f0957600981604051602001611ef2929190614604565b604051602081830303815290604052915050611f38565b6009611f1484612ad2565b604051602001611f25929190614604565b6040516020818303038152906040529150505b919050565b6000611f4761240b565b73ffffffffffffffffffffffffffffffffffffffff16600a60009054906101000a900473ffffffffffffffffffffffffffffffffffffffff1673ffffffffffffffffffffffffffffffffffffffff1614611fd6576040517f08c379a0000000000000000000000000000000000000000000000000000000008152600401611fcd90614a4d565b60405180910390fd5b611fe0600c61281c565b6000611fec600c612832565b905060106040518060600160405280838152602001858152602001868152509080600181540180825580915050600190039060005260206000209060030201600090919091909150600082015181600001556020820151816001015560408201518160020190805190602001906120649291906133a8565b5050508091505092915050565b6000600560008473ffffffffffffffffffffffffffffffffffffffff1673ffffffffffffffffffffffffffffffffffffffff16815260200190815260200160002060008373ffffffffffffffffffffffffffffffffffffffff1673ffffffffffffffffffffffffffffffffffffffff16815260200190815260200160002060009054906101000a900460ff16905092915050565b60606000600f60008473ffffffffffffffffffffffffffffffffffffffff1673ffffffffffffffffffffffffffffffffffffffff168152602001908152602001600020600001805490501161218f576040517f08c379a000000000000000000000000000000000000000000000000000000000815260040161218690614acd565b60405180910390fd5b600f60008373ffffffffffffffffffffffffffffffffffffffff1673ffffffffffffffffffffffffffffffffffffffff16815260200190815260200160002060000180548060200260200160405190810160405280929190818152602001828054801561221b57602002820191906000526020600020905b815481526020019060010190808311612207575b50505050509050919050565b61222f61240b565b73ffffffffffffffffffffffffffffffffffffffff16600a60009054906101000a900473ffffffffffffffffffffffffffffffffffffffff1673ffffffffffffffffffffffffffffffffffffffff16146122be576040517f08c379a00000000000000000000000000000000000000000000000000000000081526004016122b590614a4d565b60405180910390fd5b600073ffffffffffffffffffffffffffffffffffffffff168173ffffffffffffffffffffffffffffffffffffffff16141561232e576040517f08c379a00000000000000000000000000000000000000000000000000000000081526004016123259061484d565b60405180910390fd5b8073ffffffffffffffffffffffffffffffffffffffff16600a60009054906101000a900473ffffffffffffffffffffffffffffffffffffffff1673ffffffffffffffffffffffffffffffffffffffff167f8be0079c531659141344cd1fd0a4f28419497f9722a3daafe3b4186f6b6457e060405160405180910390a380600a60006101000a81548173ffffffffffffffffffffffffffffffffffffffff021916908373ffffffffffffffffffffffffffffffffffffffff16021790555050565b6000612404826002612c1990919063ffffffff16565b9050919050565b600033905090565b816004600083815260200190815260200160002060006101000a81548173ffffffffffffffffffffffffffffffffffffffff021916908373ffffffffffffffffffffffffffffffffffffffff160217905550808273ffffffffffffffffffffffffffffffffffffffff16612486836114c1565b73ffffffffffffffffffffffffffffffffffffffff167f8c5be1e5ebec7d5bd14f71427d1e84f3dd0314c0f7b2291e5b200ac8c7c3b92560405160405180910390a45050565b60006124da82600001612c33565b9050919050565b60006124ec826123ee565b61252b576040517f08c379a00000000000000000000000000000000000000000000000000000000081526004016125229061490d565b60405180910390fd5b6000612536836114c1565b90508073ffffffffffffffffffffffffffffffffffffffff168473ffffffffffffffffffffffffffffffffffffffff1614806125a557508373ffffffffffffffffffffffffffffffffffffffff1661258d846108b5565b73ffffffffffffffffffffffffffffffffffffffff16145b806125b657506125b58185612071565b5b91505092915050565b8273ffffffffffffffffffffffffffffffffffffffff166125df826114c1565b73ffffffffffffffffffffffffffffffffffffffff1614612635576040517f08c379a000000000000000000000000000000000000000000000000000000000815260040161262c90614a6d565b60405180910390fd5b600073ffffffffffffffffffffffffffffffffffffffff168273ffffffffffffffffffffffffffffffffffffffff1614156126a5576040517f08c379a000000000000000000000000000000000000000000000000000000000815260040161269c9061488d565b60405180910390fd5b6126b0838383612c44565b6126bb600082612413565b61270c81600160008673ffffffffffffffffffffffffffffffffffffffff1673ffffffffffffffffffffffffffffffffffffffff168152602001908152602001600020612c4990919063ffffffff16565b5061275e81600160008573ffffffffffffffffffffffffffffffffffffffff1673ffffffffffffffffffffffffffffffffffffffff168152602001908152602001600020612c6390919063ffffffff16565b5061277581836002612c7d9092919063ffffffff16565b50808273ffffffffffffffffffffffffffffffffffffffff168473ffffffffffffffffffffffffffffffffffffffff167fddf252ad1be2c89b69c2b068fc378daa952ba7f163c4a11628f55a4df523b3ef60405160405180910390a4505050565b60006127e58360000183612cb2565b60001c905092915050565b6000806000806128038660000186612d1f565b915091508160001c8160001c9350935050509250929050565b6001816000016000828254019250508190555050565b600081600001549050919050565b600073ffffffffffffffffffffffffffffffffffffffff168273ffffffffffffffffffffffffffffffffffffffff1614156128b0576040517f08c379a00000000000000000000000000000000000000000000000000000000081526004016128a7906149cd565b60405180910390fd5b6128b9816123ee565b156128f9576040517f08c379a00000000000000000000000000000000000000000000000000000000081526004016128f09061486d565b60405180910390fd5b61290560008383612c44565b61295681600160008573ffffffffffffffffffffffffffffffffffffffff1673ffffffffffffffffffffffffffffffffffffffff168152602001908152602001600020612c6390919063ffffffff16565b5061296d81836002612c7d9092919063ffffffff16565b50808273ffffffffffffffffffffffffffffffffffffffff16600073ffffffffffffffffffffffffffffffffffffffff167fddf252ad1be2c89b69c2b068fc378daa952ba7f163c4a11628f55a4df523b3ef60405160405180910390a45050565b6129d7826123ee565b612a16576040517f08c379a0000000000000000000000000000000000000000000000000000000008152600401612a0d90614a2d565b60405180910390fd5b80600860008481526020019081526020016000209080519060200190612a3d9291906133a8565b505050565b6000612a55846000018460001b84612da2565b60001c90509392505050565b6000612a6f82600001612e33565b9050919050565b612a818484846125bf565b612a8d84848484612e44565b612acc576040517f08c379a0000000000000000000000000000000000000000000000000000000008152600401612ac39061482d565b60405180910390fd5b50505050565b60606000821415612b1a576040518060400160405280600181526020017f30000000000000000000000000000000000000000000000000000000000000008152509050612c14565b600082905060005b60008214612b44578080600101915050600a8281612b3c57fe5b049150612b22565b60608167ffffffffffffffff81118015612b5d57600080fd5b506040519080825280601f01601f191660200182016040528015612b905781602001600182028036833780820191505090505b50905060006001830390508593505b60008414612c0c57600a8481612bb157fe5b0660300160f81b82828060019003935081518110612bcb57fe5b60200101907effffffffffffffffffffffffffffffffffffffffffffffffffffffffffffff1916908160001a905350600a8481612c0457fe5b049350612b9f565b819450505050505b919050565b6000612c2b836000018360001b612fa8565b905092915050565b600081600001805490509050919050565b505050565b6000612c5b836000018360001b612fcb565b905092915050565b6000612c75836000018360001b6130b3565b905092915050565b6000612ca9846000018460001b8473ffffffffffffffffffffffffffffffffffffffff1660001b613123565b90509392505050565b600081836000018054905011612cfd576040517f08c379a0000000000000000000000000000000000000000000000000000000008152600401612cf49061480d565b60405180910390fd5b826000018281548110612d0c57fe5b9060005260206000200154905092915050565b60008082846000018054905011612d6b576040517f08c379a0000000000000000000000000000000000000000000000000000000008152600401612d62906149ad565b60405180910390fd5b6000846000018481548110612d7c57fe5b906000526020600020906002020190508060000154816001015492509250509250929050565b60008084600101600085815260200190815260200160002054905060008114158390612e04576040517f08c379a0000000000000000000000000000000000000000000000000000000008152600401612dfb91906147cb565b60405180910390fd5b50846000016001820381548110612e1757fe5b9060005260206000209060020201600101549150509392505050565b600081600001805490509050919050565b6000612e658473ffffffffffffffffffffffffffffffffffffffff166131ff565b612e725760019050612fa0565b6060612f3963150b7a0260e01b612e8761240b565b888787604051602401612e9d9493929190614643565b604051602081830303815290604052907bffffffffffffffffffffffffffffffffffffffffffffffffffffffff19166020820180517bffffffffffffffffffffffffffffffffffffffffffffffffffffffff8381831617835250505050604051806060016040528060328152602001614e6d603291398773ffffffffffffffffffffffffffffffffffffffff1661324a9092919063ffffffff16565b9050600081806020019051810190612f5191906137a1565b905063150b7a0260e01b7bffffffffffffffffffffffffffffffffffffffffffffffffffffffff1916817bffffffffffffffffffffffffffffffffffffffffffffffffffffffff191614925050505b949350505050565b600080836001016000848152602001908152602001600020541415905092915050565b600080836001016000848152602001908152602001600020549050600081146130a7576000600182039050600060018660000180549050039050600086600001828154811061301657fe5b906000526020600020015490508087600001848154811061303357fe5b906000526020600020018190555060018301876001016000838152602001908152602001600020819055508660000180548061306b57fe5b600190038181906000526020600020016000905590558660010160008781526020019081526020016000206000905560019450505050506130ad565b60009150505b92915050565b60006130bf8383613262565b61311857826000018290806001815401808255809150506001900390600052602060002001600090919091909150558260000180549050836001016000848152602001908152602001600020819055506001905061311d565b600090505b92915050565b60008084600101600085815260200190815260200160002054905060008114156131ca578460000160405180604001604052808681526020018581525090806001815401808255809150506001900390600052602060002090600202016000909190919091506000820151816000015560208201518160010155505084600001805490508560010160008681526020019081526020016000208190555060019150506131f8565b828560000160018303815481106131dd57fe5b90600052602060002090600202016001018190555060009150505b9392505050565b60008060007fc5d2460186f7233c927e7db2dcc703c0e500b653ca82273b7bfad8045d85a47060001b9050833f915080821415801561324157506000801b8214155b92505050919050565b60606132598484600085613285565b90509392505050565b600080836001016000848152602001908152602001600020541415905092915050565b6060613290856131ff565b6132cf576040517f08c379a00000000000000000000000000000000000000000000000000000000081526004016132c690614b0d565b60405180910390fd5b600060608673ffffffffffffffffffffffffffffffffffffffff1685876040516132f991906145ed565b60006040518083038185875af1925050503d8060008114613336576040519150601f19603f3d011682016040523d82523d6000602084013e61333b565b606091505b509150915081156133505780925050506133a0565b6000815111156133635780518082602001fd5b836040517f08c379a000000000000000000000000000000000000000000000000000000000815260040161339791906147cb565b60405180910390fd5b949350505050565b828054600181600116156101000203166002900490600052602060002090601f016020900481019282601f106133e957805160ff1916838001178555613417565b82800160010185558215613417579182015b828111156134165782518255916020019190600101906133fb565b5b5090506134249190613428565b5090565b5b80821115613441576000816000905550600101613429565b5090565b60008135905061345481614e10565b92915050565b60008135905061346981614e27565b92915050565b60008135905061347e81614e3e565b92915050565b60008151905061349381614e3e565b92915050565b600082601f8301126134aa57600080fd5b81356134bd6134b882614bb9565b614b88565b915080825260208301602083018583830111156134d957600080fd5b6134e4838284614dbb565b50505092915050565b600082601f8301126134fe57600080fd5b813561351161350c82614be9565b614b88565b9150808252602083016020830185838301111561352d57600080fd5b613538838284614dbb565b50505092915050565b60008135905061355081614e55565b92915050565b60006020828403121561356857600080fd5b600061357684828501613445565b91505092915050565b6000806040838503121561359257600080fd5b60006135a085828601613445565b92505060206135b185828601613445565b9150509250929050565b600080600080608085870312156135d157600080fd5b60006135df87828801613445565b94505060206135f087828801613445565b935050604085013567ffffffffffffffff81111561360d57600080fd5b613619878288016134ed565b925050606061362a87828801613541565b91505092959194509250565b60008060006060848603121561364b57600080fd5b600061365986828701613445565b935050602061366a86828701613445565b925050604061367b86828701613541565b9150509250925092565b6000806000806080858703121561369b57600080fd5b60006136a987828801613445565b94505060206136ba87828801613445565b93505060406136cb87828801613541565b925050606085013567ffffffffffffffff8111156136e857600080fd5b6136f487828801613499565b91505092959194509250565b6000806040838503121561371357600080fd5b600061372185828601613445565b92505060206137328582860161345a565b9150509250929050565b6000806040838503121561374f57600080fd5b600061375d85828601613445565b925050602061376e85828601613541565b9150509250929050565b60006020828403121561378a57600080fd5b60006137988482850161346f565b91505092915050565b6000602082840312156137b357600080fd5b60006137c184828501613484565b91505092915050565b600080604083850312156137dd57600080fd5b600083013567ffffffffffffffff8111156137f757600080fd5b613803858286016134ed565b925050602061381485828601613541565b9150509250929050565b60006020828403121561383057600080fd5b600061383e84828501613541565b91505092915050565b6000806040838503121561385a57600080fd5b600061386885828601613541565b925050602083013567ffffffffffffffff81111561388557600080fd5b613891858286016134ed565b9150509250929050565b600080604083850312156138ae57600080fd5b60006138bc85828601613541565b92505060206138cd85828601613541565b9150509250929050565b60006138e3838361457f565b905092915050565b60006138f783836145cf565b60208301905092915050565b61390c81614d85565b82525050565b61391b81614d11565b82525050565b61392a81614cff565b82525050565b600061393b82614c4e565b6139458185614c94565b93508360208202850161395785614c19565b8060005b85811015613993578484038952815161397485826138d7565b945061397f83614c7a565b925060208a0199505060018101905061395b565b50829750879550505050505092915050565b60006139b082614c59565b6139ba8185614ca5565b93506139c583614c29565b8060005b838110156139f65781516139dd88826138eb565b97506139e883614c87565b9250506001810190506139c9565b5085935050505092915050565b613a0c81614d23565b82525050565b6000613a1d82614c64565b613a278185614cb6565b9350613a37818560208601614dca565b613a4081614dff565b840191505092915050565b6000613a5682614c64565b613a608185614cc7565b9350613a70818560208601614dca565b80840191505092915050565b6000613a8782614c6f565b613a918185614cd2565b9350613aa1818560208601614dca565b613aaa81614dff565b840191505092915050565b6000613ac082614c6f565b613aca8185614ce3565b9350613ada818560208601614dca565b613ae381614dff565b840191505092915050565b6000613af982614c6f565b613b038185614cf4565b9350613b13818560208601614dca565b80840191505092915050565b600081546001811660008114613b3c5760018114613b6157613ba5565b607f6002830416613b4d8187614cf4565b955060ff1983168652808601935050613ba5565b60028204613b6f8187614cf4565b9550613b7a85614c39565b60005b82811015613b9c57815481890152600182019150602081019050613b7d565b82880195505050505b505092915050565b6000613bba601383614ce3565b91507f546f6b656e20646f65736e2774206578697374000000000000000000000000006000830152602082019050919050565b6000613bfa602283614ce3565b91507f456e756d657261626c655365743a20696e646578206f7574206f6620626f756e60008301527f64730000000000000000000000000000000000000000000000000000000000006020830152604082019050919050565b6000613c60603283614ce3565b91507f4552433732313a207472616e7366657220746f206e6f6e20455243373231526560008301527f63656976657220696d706c656d656e74657200000000000000000000000000006020830152604082019050919050565b6000613cc6602683614ce3565b91507f4f776e61626c653a206e6577206f776e657220697320746865207a65726f206160008301527f64647265737300000000000000000000000000000000000000000000000000006020830152604082019050919050565b6000613d2c601c83614ce3565b91507f4552433732313a20746f6b656e20616c7265616479206d696e746564000000006000830152602082019050919050565b6000613d6c602483614ce3565b91507f4552433732313a207472616e7366657220746f20746865207a65726f2061646460008301527f72657373000000000000000000000000000000000000000000000000000000006020830152604082019050919050565b6000613dd2601983614ce3565b91507f4552433732313a20617070726f766520746f2063616c6c6572000000000000006000830152602082019050919050565b6000613e12601483614ce3565b91507f546f6b656e20646f6573206e6f742065786973740000000000000000000000006000830152602082019050919050565b6000613e52602683614ce3565b91507f526571756573746564207472616e73666f726d6174696f6e20646f65736e277460008301527f20657869737400000000000000000000000000000000000000000000000000006020830152604082019050919050565b6000613eb8602c83614ce3565b91507f4552433732313a206f70657261746f7220717565727920666f72206e6f6e657860008301527f697374656e7420746f6b656e00000000000000000000000000000000000000006020830152604082019050919050565b6000613f1e601983614ce3565b91507f5573657220686173206e6f20626f7567687420746f6b656e73000000000000006000830152602082019050919050565b6000613f5e603883614ce3565b91507f4552433732313a20617070726f76652063616c6c6572206973206e6f74206f7760008301527f6e6572206e6f7220617070726f76656420666f7220616c6c00000000000000006020830152604082019050919050565b6000613fc4602a83614ce3565b91507f4552433732313a2062616c616e636520717565727920666f7220746865207a6560008301527f726f2061646472657373000000000000000000000000000000000000000000006020830152604082019050919050565b600061402a604483614ce3565b91507f4f6e6c792074686520706572736f6e2077686f2067656e65726174656420746860008301527f6520696d6167652063616e2062757920697420696e207468652066697273742060208301527f686f7572000000000000000000000000000000000000000000000000000000006040830152606082019050919050565b60006140b6602283614ce3565b91507f456e756d657261626c654d61703a20696e646578206f7574206f6620626f756e60008301527f64730000000000000000000000000000000000000000000000000000000000006020830152604082019050919050565b600061411c602083614ce3565b91507f4552433732313a206d696e7420746f20746865207a65726f20616464726573736000830152602082019050919050565b600061415c601483614ce3565b91507f546f6b656e20616c726561647920626f756768740000000000000000000000006000830152602082019050919050565b600061419c602c83614ce3565b91507f4552433732313a20617070726f76656420717565727920666f72206e6f6e657860008301527f697374656e7420746f6b656e00000000000000000000000000000000000000006020830152604082019050919050565b6000614202602c83614ce3565b91507f4552433732314d657461646174613a2055524920736574206f66206e6f6e657860008301527f697374656e7420746f6b656e00000000000000000000000000000000000000006020830152604082019050919050565b6000614268602083614ce3565b91507f4f776e61626c653a2063616c6c6572206973206e6f7420746865206f776e65726000830152602082019050919050565b60006142a8602983614ce3565b91507f4552433732313a207472616e73666572206f6620746f6b656e2074686174206960008301527f73206e6f74206f776e00000000000000000000000000000000000000000000006020830152604082019050919050565b600061430e602f83614ce3565b91507f4552433732314d657461646174613a2055524920717565727920666f72206e6f60008301527f6e6578697374656e7420746f6b656e00000000000000000000000000000000006020830152604082019050919050565b6000614374602183614ce3565b91507f4552433732313a20617070726f76616c20746f2063757272656e74206f776e6560008301527f72000000000000000000000000000000000000000000000000000000000000006020830152604082019050919050565b60006143da601c83614ce3565b91507f5573657220686173206e6f2067656e65726174656420746f6b656e73000000006000830152602082019050919050565b600061441a603183614ce3565b91507f4552433732313a207472616e736665722063616c6c6572206973206e6f74206f60008301527f776e6572206e6f7220617070726f7665640000000000000000000000000000006020830152604082019050919050565b6000614480601d83614ce3565b91507f416464726573733a2063616c6c20746f206e6f6e2d636f6e74726163740000006000830152602082019050919050565b60006144c0603183614ce3565b91507f5472616e73616374696f6e2076616c7565206d757374206d617463682074726160008301527f6e73666f726d6174696f6e2070726963650000000000000000000000000000006020830152604082019050919050565b6000614526602683614ce3565b91507f5472616e73616374696f6e2076616c7565206d757374206d61746368206e667460008301527f20707269636500000000000000000000000000000000000000000000000000006020830152604082019050919050565b600060608301600083015161459760008601826145cf565b5060208301516145aa60208601826145cf565b50604083015184820360408601526145c28282613a7c565b9150508091505092915050565b6145d881614d7b565b82525050565b6145e781614d7b565b82525050565b60006145f98284613a4b565b915081905092915050565b60006146108285613b1f565b915061461c8284613aee565b91508190509392505050565b600060208201905061463d6000830184613921565b92915050565b60006080820190506146586000830187613912565b6146656020830186613921565b61467260408301856145de565b81810360608301526146848184613a12565b905095945050505050565b60006060820190506146a46000830186613903565b6146b160208301856145de565b6146be60408301846145de565b949350505050565b60006080820190506146db6000830187613903565b6146e860208301866145de565b6146f560408301856145de565b81810360608301526147078184613ab5565b905095945050505050565b600060a0820190506147276000830188613921565b6147346020830187613921565b61474160408301866145de565b81810360608301526147538185613ab5565b905061476260808301846145de565b9695505050505050565b600060208201905081810360008301526147868184613930565b905092915050565b600060208201905081810360008301526147a881846139a5565b905092915050565b60006020820190506147c56000830184613a03565b92915050565b600060208201905081810360008301526147e58184613ab5565b905092915050565b6000602082019050818103600083015261480681613bad565b9050919050565b6000602082019050818103600083015261482681613bed565b9050919050565b6000602082019050818103600083015261484681613c53565b9050919050565b6000602082019050818103600083015261486681613cb9565b9050919050565b6000602082019050818103600083015261488681613d1f565b9050919050565b600060208201905081810360008301526148a681613d5f565b9050919050565b600060208201905081810360008301526148c681613dc5565b9050919050565b600060208201905081810360008301526148e681613e05565b9050919050565b6000602082019050818103600083015261490681613e45565b9050919050565b6000602082019050818103600083015261492681613eab565b9050919050565b6000602082019050818103600083015261494681613f11565b9050919050565b6000602082019050818103600083015261496681613f51565b9050919050565b6000602082019050818103600083015261498681613fb7565b9050919050565b600060208201905081810360008301526149a68161401d565b9050919050565b600060208201905081810360008301526149c6816140a9565b9050919050565b600060208201905081810360008301526149e68161410f565b9050919050565b60006020820190508181036000830152614a068161414f565b9050919050565b60006020820190508181036000830152614a268161418f565b9050919050565b60006020820190508181036000830152614a46816141f5565b9050919050565b60006020820190508181036000830152614a668161425b565b9050919050565b60006020820190508181036000830152614a868161429b565b9050919050565b60006020820190508181036000830152614aa681614301565b9050919050565b60006020820190508181036000830152614ac681614367565b9050919050565b60006020820190508181036000830152614ae6816143cd565b9050919050565b60006020820190508181036000830152614b068161440d565b9050919050565b60006020820190508181036000830152614b2681614473565b9050919050565b60006020820190508181036000830152614b46816144b3565b9050919050565b60006020820190508181036000830152614b6681614519565b9050919050565b6000602082019050614b8260008301846145de565b92915050565b6000604051905081810181811067ffffffffffffffff82111715614baf57614bae614dfd565b5b8060405250919050565b600067ffffffffffffffff821115614bd457614bd3614dfd565b5b601f19601f8301169050602081019050919050565b600067ffffffffffffffff821115614c0457614c03614dfd565b5b601f19601f8301169050602081019050919050565b6000819050602082019050919050565b6000819050602082019050919050565b60008190508160005260206000209050919050565b600081519050919050565b600081519050919050565b600081519050919050565b600081519050919050565b6000602082019050919050565b6000602082019050919050565b600082825260208201905092915050565b600082825260208201905092915050565b600082825260208201905092915050565b600081905092915050565b600082825260208201905092915050565b600082825260208201905092915050565b600081905092915050565b6000614d0a82614d5b565b9050919050565b6000614d1c82614d5b565b9050919050565b60008115159050919050565b60007fffffffff0000000000000000000000000000000000000000000000000000000082169050919050565b600073ffffffffffffffffffffffffffffffffffffffff82169050919050565b6000819050919050565b6000614d9082614d97565b9050919050565b6000614da282614da9565b9050919050565b6000614db482614d5b565b9050919050565b82818337600083830152505050565b60005b83811015614de8578082015181840152602081019050614dcd565b83811115614df7576000848401525b50505050565bfe5b6000601f19601f8301169050919050565b614e1981614cff565b8114614e2457600080fd5b50565b614e3081614d23565b8114614e3b57600080fd5b50565b614e4781614d2f565b8114614e5257600080fd5b50565b614e5e81614d7b565b8114614e6957600080fd5b5056fe4552433732313a207472616e7366657220746f206e6f6e20455243373231526563656976657220696d706c656d656e7465724552433732313a206f776e657220717565727920666f72206e6f6e6578697374656e7420746f6b656ea2646970667358221220cc0877511508ea6d376c11ed7c357c26156a2027a61036532de55839ed2ab87064736f6c63430007030033",
  "linkReferences": {},
  "deployedLinkReferences": {}
}