{
  "_format": "hh-sol-artifact-1",
  "contractName": "StyleNFT",
  "sourceName": "contracts/StyleNFT.sol",
  "abi": [
    {
      "inputs": [],
      "stateMutability": "nonpayable",
      "type": "constructor"
    },
    {
      "anonymous": false,
      "inputs": [
        {
          "indexed": true,
          "internalType": "address",
          "name": "owner",
          "type": "address"
        },
        {
          "indexed": true,
          "internalType": "address",
          "name": "approved",
          "type": "address"
        },
        {
          "indexed": true,
          "internalType": "uint256",
          "name": "tokenId",
          "type": "uint256"
        }
      ],
      "name": "Approval",
      "type": "event"
    },
    {
      "anonymous": false,
      "inputs": [
        {
          "indexed": true,
          "internalType": "address",
          "name": "owner",
          "type": "address"
        },
        {
          "indexed": true,
          "internalType": "address",
          "name": "operator",
          "type": "address"
        },
        {
          "indexed": false,
          "internalType": "bool",
          "name": "approved",
          "type": "bool"
        }
      ],
      "name": "ApprovalForAll",
      "type": "event"
    },
    {
      "anonymous": false,
      "inputs": [
        {
          "indexed": false,
          "internalType": "address",
          "name": "sender",
          "type": "address"
        },
        {
          "indexed": false,
          "internalType": "uint256",
          "name": "value",
          "type": "uint256"
        },
        {
          "indexed": false,
          "internalType": "uint256",
          "name": "transformationId",
          "type": "uint256"
        },
        {
          "indexed": false,
          "internalType": "string",
          "name": "imageURL",
          "type": "string"
        }
      ],
      "name": "ImageGenerationPaid",
      "type": "event"
    },
    {
      "anonymous": false,
      "inputs": [
        {
          "indexed": false,
          "internalType": "address",
          "name": "sender",
          "type": "address"
        },
        {
          "indexed": false,
          "internalType": "uint256",
          "name": "value",
          "type": "uint256"
        },
        {
          "indexed": false,
          "internalType": "uint256",
          "name": "tokenId",
          "type": "uint256"
        }
      ],
      "name": "ImagePaid",
      "type": "event"
    },
    {
      "anonymous": false,
      "inputs": [
        {
          "indexed": true,
          "internalType": "address",
          "name": "previousOwner",
          "type": "address"
        },
        {
          "indexed": true,
          "internalType": "address",
          "name": "newOwner",
          "type": "address"
        }
      ],
      "name": "OwnershipTransferred",
      "type": "event"
    },
    {
      "anonymous": false,
      "inputs": [
        {
          "indexed": false,
          "internalType": "address",
          "name": "recipient",
          "type": "address"
        },
        {
          "indexed": false,
          "internalType": "address",
          "name": "payer",
          "type": "address"
        },
        {
          "indexed": false,
          "internalType": "uint256",
          "name": "tokenId",
          "type": "uint256"
        },
        {
          "indexed": false,
          "internalType": "string",
          "name": "tokenURI",
          "type": "string"
        },
        {
          "indexed": false,
          "internalType": "uint256",
          "name": "price",
          "type": "uint256"
        }
      ],
      "name": "TokenMinted",
      "type": "event"
    },
    {
      "anonymous": false,
      "inputs": [
        {
          "indexed": false,
          "internalType": "address",
          "name": "sender",
          "type": "address"
        },
        {
          "indexed": false,
          "internalType": "address",
          "name": "recipient",
          "type": "address"
        },
        {
          "indexed": false,
          "internalType": "uint256",
          "name": "tokenId",
          "type": "uint256"
        }
      ],
      "name": "TokenTransfered",
      "type": "event"
    },
    {
      "anonymous": false,
      "inputs": [
        {
          "indexed": true,
          "internalType": "address",
          "name": "from",
          "type": "address"
        },
        {
          "indexed": true,
          "internalType": "address",
          "name": "to",
          "type": "address"
        },
        {
          "indexed": true,
          "internalType": "uint256",
          "name": "tokenId",
          "type": "uint256"
        }
      ],
      "name": "Transfer",
      "type": "event"
    },
    {
      "inputs": [
        {
          "internalType": "string",
          "name": "name",
          "type": "string"
        },
        {
          "internalType": "uint256",
          "name": "price",
          "type": "uint256"
        }
      ],
      "name": "addTransformation",
      "outputs": [
        {
          "internalType": "uint256",
          "name": "",
          "type": "uint256"
        }
      ],
      "stateMutability": "nonpayable",
      "type": "function"
    },
    {
      "inputs": [
        {
          "internalType": "address",
          "name": "to",
          "type": "address"
        },
        {
          "internalType": "uint256",
          "name": "tokenId",
          "type": "uint256"
        }
      ],
      "name": "approve",
      "outputs": [],
      "stateMutability": "nonpayable",
      "type": "function"
    },
    {
      "inputs": [
        {
          "internalType": "address",
          "name": "owner",
          "type": "address"
        }
      ],
      "name": "balanceOf",
      "outputs": [
        {
          "internalType": "uint256",
          "name": "",
          "type": "uint256"
        }
      ],
      "stateMutability": "view",
      "type": "function"
    },
    {
      "inputs": [],
      "name": "baseURI",
      "outputs": [
        {
          "internalType": "string",
          "name": "",
          "type": "string"
        }
      ],
      "stateMutability": "view",
      "type": "function"
    },
    {
      "inputs": [
        {
          "internalType": "uint256",
          "name": "tokenId",
          "type": "uint256"
        }
      ],
      "name": "getApproved",
      "outputs": [
        {
          "internalType": "address",
          "name": "",
          "type": "address"
        }
      ],
      "stateMutability": "view",
      "type": "function"
    },
    {
      "inputs": [
        {
          "internalType": "address",
          "name": "owner",
          "type": "address"
        },
        {
          "internalType": "address",
          "name": "operator",
          "type": "address"
        }
      ],
      "name": "isApprovedForAll",
      "outputs": [
        {
          "internalType": "bool",
          "name": "",
          "type": "bool"
        }
      ],
      "stateMutability": "view",
      "type": "function"
    },
    {
      "inputs": [],
      "name": "listTransformations",
      "outputs": [
        {
          "components": [
            {
              "internalType": "uint256",
              "name": "id",
              "type": "uint256"
            },
            {
              "internalType": "string",
              "name": "name",
              "type": "string"
            },
            {
              "internalType": "uint256",
              "name": "price",
              "type": "uint256"
            }
          ],
          "internalType": "struct StyleNFT.Transformation[]",
          "name": "",
          "type": "tuple[]"
        }
      ],
      "stateMutability": "view",
      "type": "function"
    },
    {
      "inputs": [
        {
          "internalType": "address",
          "name": "recipient",
          "type": "address"
        },
        {
          "internalType": "address",
          "name": "payer",
          "type": "address"
        },
        {
          "internalType": "string",
          "name": "tokenURI",
          "type": "string"
        },
        {
          "internalType": "uint256",
          "name": "price",
          "type": "uint256"
        }
      ],
      "name": "mintNFT",
      "outputs": [
        {
          "internalType": "uint256",
          "name": "",
          "type": "uint256"
        }
      ],
      "stateMutability": "nonpayable",
      "type": "function"
    },
    {
      "inputs": [],
      "name": "name",
      "outputs": [
        {
          "internalType": "string",
          "name": "",
          "type": "string"
        }
      ],
      "stateMutability": "view",
      "type": "function"
    },
    {
      "inputs": [],
      "name": "owner",
      "outputs": [
        {
          "internalType": "address",
          "name": "",
          "type": "address"
        }
      ],
      "stateMutability": "view",
      "type": "function"
    },
    {
      "inputs": [
        {
          "internalType": "uint256",
          "name": "tokenId",
          "type": "uint256"
        }
      ],
      "name": "ownerOf",
      "outputs": [
        {
          "internalType": "address",
          "name": "",
          "type": "address"
        }
      ],
      "stateMutability": "view",
      "type": "function"
    },
    {
      "inputs": [
        {
          "internalType": "uint256",
          "name": "transformationId",
          "type": "uint256"
        },
        {
          "internalType": "string",
          "name": "imageUrl",
          "type": "string"
        }
      ],
      "name": "payGenerating",
      "outputs": [],
      "stateMutability": "payable",
      "type": "function"
    },
    {
      "inputs": [
        {
          "internalType": "uint256",
          "name": "tokenId",
          "type": "uint256"
        }
      ],
      "name": "payImage",
      "outputs": [],
      "stateMutability": "payable",
      "type": "function"
    },
    {
      "inputs": [
        {
          "internalType": "uint256",
          "name": "tokenId",
          "type": "uint256"
        }
      ],
      "name": "payerOf",
      "outputs": [
        {
          "internalType": "address",
          "name": "",
          "type": "address"
        }
      ],
      "stateMutability": "view",
      "type": "function"
    },
    {
      "inputs": [],
      "name": "renounceOwnership",
      "outputs": [],
      "stateMutability": "nonpayable",
      "type": "function"
    },
    {
      "inputs": [
        {
          "internalType": "address",
          "name": "from",
          "type": "address"
        },
        {
          "internalType": "address",
          "name": "to",
          "type": "address"
        },
        {
          "internalType": "uint256",
          "name": "tokenId",
          "type": "uint256"
        }
      ],
      "name": "safeTransferFrom",
      "outputs": [],
      "stateMutability": "nonpayable",
      "type": "function"
    },
    {
      "inputs": [
        {
          "internalType": "address",
          "name": "from",
          "type": "address"
        },
        {
          "internalType": "address",
          "name": "to",
          "type": "address"
        },
        {
          "internalType": "uint256",
          "name": "tokenId",
          "type": "uint256"
        },
        {
          "internalType": "bytes",
          "name": "_data",
          "type": "bytes"
        }
      ],
      "name": "safeTransferFrom",
      "outputs": [],
      "stateMutability": "nonpayable",
      "type": "function"
    },
    {
      "inputs": [
        {
          "internalType": "address",
          "name": "operator",
          "type": "address"
        },
        {
          "internalType": "bool",
          "name": "approved",
          "type": "bool"
        }
      ],
      "name": "setApprovalForAll",
      "outputs": [],
      "stateMutability": "nonpayable",
      "type": "function"
    },
    {
      "inputs": [
        {
          "internalType": "bytes4",
          "name": "interfaceId",
          "type": "bytes4"
        }
      ],
      "name": "supportsInterface",
      "outputs": [
        {
          "internalType": "bool",
          "name": "",
          "type": "bool"
        }
      ],
      "stateMutability": "view",
      "type": "function"
    },
    {
      "inputs": [],
      "name": "symbol",
      "outputs": [
        {
          "internalType": "string",
          "name": "",
          "type": "string"
        }
      ],
      "stateMutability": "view",
      "type": "function"
    },
    {
      "inputs": [
        {
          "internalType": "uint256",
          "name": "index",
          "type": "uint256"
        }
      ],
      "name": "tokenByIndex",
      "outputs": [
        {
          "internalType": "uint256",
          "name": "",
          "type": "uint256"
        }
      ],
      "stateMutability": "view",
      "type": "function"
    },
    {
      "inputs": [
        {
          "internalType": "address",
          "name": "owner",
          "type": "address"
        },
        {
          "internalType": "uint256",
          "name": "index",
          "type": "uint256"
        }
      ],
      "name": "tokenOfOwnerByIndex",
      "outputs": [
        {
          "internalType": "uint256",
          "name": "",
          "type": "uint256"
        }
      ],
      "stateMutability": "view",
      "type": "function"
    },
    {
      "inputs": [
        {
          "internalType": "uint256",
          "name": "tokenId",
          "type": "uint256"
        }
      ],
      "name": "tokenURI",
      "outputs": [
        {
          "internalType": "string",
          "name": "",
          "type": "string"
        }
      ],
      "stateMutability": "view",
      "type": "function"
    },
    {
      "inputs": [],
      "name": "totalSupply",
      "outputs": [
        {
          "internalType": "uint256",
          "name": "",
          "type": "uint256"
        }
      ],
      "stateMutability": "view",
      "type": "function"
    },
    {
      "inputs": [
        {
          "internalType": "address",
          "name": "from",
          "type": "address"
        },
        {
          "internalType": "address",
          "name": "to",
          "type": "address"
        },
        {
          "internalType": "uint256",
          "name": "tokenId",
          "type": "uint256"
        }
      ],
      "name": "transferFrom",
      "outputs": [],
      "stateMutability": "nonpayable",
      "type": "function"
    },
    {
      "inputs": [
        {
          "internalType": "address",
          "name": "newOwner",
          "type": "address"
        }
      ],
      "name": "transferOwnership",
      "outputs": [],
      "stateMutability": "nonpayable",
      "type": "function"
    },
    {
      "inputs": [
        {
          "internalType": "uint256",
          "name": "id",
          "type": "uint256"
        },
        {
          "internalType": "uint256",
          "name": "price",
          "type": "uint256"
        }
      ],
      "name": "updateTransformationPrice",
      "outputs": [
        {
          "internalType": "bool",
          "name": "",
          "type": "bool"
        }
      ],
      "stateMutability": "nonpayable",
      "type": "function"
    },
    {
      "inputs": [
        {
          "internalType": "address",
          "name": "user",
          "type": "address"
        }
      ],
      "name": "userBoughtTokens",
      "outputs": [
        {
          "internalType": "uint256[]",
          "name": "",
          "type": "uint256[]"
        }
      ],
      "stateMutability": "view",
      "type": "function"
    },
    {
      "inputs": [
        {
          "internalType": "address",
          "name": "user",
          "type": "address"
        }
      ],
      "name": "userGeneratedTokens",
      "outputs": [
        {
          "internalType": "uint256[]",
          "name": "",
          "type": "uint256[]"
        }
      ],
      "stateMutability": "view",
      "type": "function"
    }
  ],
  "bytecode": "0x60806040523480156200001157600080fd5b506040518060400160405280600881526020017f7374796c656172740000000000000000000000000000000000000000000000008152506040518060400160405280600481526020017f736e667400000000000000000000000000000000000000000000000000000000815250620000966301ffc9a760e01b6200020a60201b60201c565b8160069080519060200190620000ae929190620002ea565b508060079080519060200190620000c7929190620002ea565b50620000e06380ac58cd60e01b6200020a60201b60201c565b620000f8635b5e139f60e01b6200020a60201b60201c565b6200011063780e9d6360e01b6200020a60201b60201c565b5050600062000124620002e260201b60201c565b905080600a60006101000a81548173ffffffffffffffffffffffffffffffffffffffff021916908373ffffffffffffffffffffffffffffffffffffffff1602179055508073ffffffffffffffffffffffffffffffffffffffff16600073ffffffffffffffffffffffffffffffffffffffff167f8be0079c531659141344cd1fd0a4f28419497f9722a3daafe3b4186f6b6457e060405160405180910390a35033600d60006101000a81548173ffffffffffffffffffffffffffffffffffffffff021916908373ffffffffffffffffffffffffffffffffffffffff16021790555062000405565b63ffffffff60e01b817bffffffffffffffffffffffffffffffffffffffffffffffffffffffff1916141562000276576040517f08c379a00000000000000000000000000000000000000000000000000000000081526004016200026d90620003d2565b60405180910390fd5b6001600080837bffffffffffffffffffffffffffffffffffffffffffffffffffffffff19167bffffffffffffffffffffffffffffffffffffffffffffffffffffffff1916815260200190815260200160002060006101000a81548160ff02191690831515021790555050565b600033905090565b828054600181600116156101000203166002900490600052602060002090601f016020900481019282601f106200032d57805160ff19168380011785556200035e565b828001600101855582156200035e579182015b828111156200035d57825182559160200191906001019062000340565b5b5090506200036d919062000371565b5090565b5b808211156200038c57600081600090555060010162000372565b5090565b60006200039f601c83620003f4565b91507f4552433136353a20696e76616c696420696e74657266616365206964000000006000830152602082019050919050565b60006020820190508181036000830152620003ed8162000390565b9050919050565b600082825260208201905092915050565b614b2480620004156000396000f3fe6080604052600436106101c25760003560e01c80636352211e116100f757806395d89b4111610095578063db64426411610064578063db64426414610684578063e985e9c5146106c1578063e9c7723d146106fe578063f2fde38b1461073b576101c2565b806395d89b41146105ca578063a22cb465146105f5578063b88d4fde1461061e578063c87b56dd14610647576101c2565b8063715018a6116100d1578063715018a61461050e5780637edcf18f146105255780638da5cb5b146105625780639210e5081461058d576101c2565b80636352211e146104695780636c0360eb146104a657806370a08231146104d1576101c2565b806323b872dd116101645780634f6ccce71161013e5780634f6ccce7146103b757806358a1388f146103f45780635e45d17e146104105780636031dd951461042c576101c2565b806323b872dd146103285780632f745c591461035157806342842e0e1461038e576101c2565b8063095ea7b3116101a0578063095ea7b31461026c57806318160ddd146102955780631935ec9f146102c05780632362382d146102eb576101c2565b806301ffc9a7146101c757806306fdde0314610204578063081812fc1461022f575b600080fd5b3480156101d357600080fd5b506101ee60048036038101906101e99190613485565b610764565b6040516101fb9190614417565b60405180910390f35b34801561021057600080fd5b506102196107cb565b6040516102269190614432565b60405180910390f35b34801561023b57600080fd5b506102566004803603810190610251919061352b565b61086d565b604051610263919061428f565b60405180910390f35b34801561027857600080fd5b50610293600480360381019061028e9190613449565b6108f2565b005b3480156102a157600080fd5b506102aa610a0a565b6040516102b79190614794565b60405180910390f35b3480156102cc57600080fd5b506102d5610a1b565b6040516102e291906143d3565b60405180910390f35b3480156102f757600080fd5b50610312600480360381019061030d91906135a8565b610b30565b60405161031f9190614417565b60405180910390f35b34801561033457600080fd5b5061034f600480360381019061034a9190613343565b610c45565b005b34801561035d57600080fd5b5061037860048036038101906103739190613449565b610ca5565b6040516103859190614794565b60405180910390f35b34801561039a57600080fd5b506103b560048036038101906103b09190613343565b610d00565b005b3480156103c357600080fd5b506103de60048036038101906103d9919061352b565b610d20565b6040516103eb9190614794565b60405180910390f35b61040e60048036038101906104099190613554565b610d43565b005b61042a6004803603810190610425919061352b565b610edc565b005b34801561043857600080fd5b50610453600480360381019061044e91906132c8565b611117565b6040516104609190614794565b60405180910390f35b34801561047557600080fd5b50610490600480360381019061048b919061352b565b61135b565b60405161049d919061428f565b60405180910390f35b3480156104b257600080fd5b506104bb611392565b6040516104c89190614432565b60405180910390f35b3480156104dd57600080fd5b506104f860048036038101906104f39190613263565b611434565b6040516105059190614794565b60405180910390f35b34801561051a57600080fd5b506105236114f3565b005b34801561053157600080fd5b5061054c6004803603810190610547919061352b565b61164b565b604051610559919061428f565b60405180910390f35b34801561056e57600080fd5b506105776116ee565b604051610584919061428f565b60405180910390f35b34801561059957600080fd5b506105b460048036038101906105af9190613263565b611718565b6040516105c191906143f5565b60405180910390f35b3480156105d657600080fd5b506105df61183a565b6040516105ec9190614432565b60405180910390f35b34801561060157600080fd5b5061061c6004803603810190610617919061340d565b6118dc565b005b34801561062a57600080fd5b5061064560048036038101906106409190613392565b611a5d565b005b34801561065357600080fd5b5061066e6004803603810190610669919061352b565b611abf565b60405161067b9190614432565b60405180910390f35b34801561069057600080fd5b506106ab60048036038101906106a691906134d7565b611c4a565b6040516106b89190614794565b60405180910390f35b3480156106cd57600080fd5b506106e860048036038101906106e3919061328c565b611d7e565b6040516106f59190614417565b60405180910390f35b34801561070a57600080fd5b5061072560048036038101906107209190613263565b611e12565b60405161073291906143f5565b60405180910390f35b34801561074757600080fd5b50610762600480360381019061075d9190613263565b611f34565b005b6000806000837bffffffffffffffffffffffffffffffffffffffffffffffffffffffff19167bffffffffffffffffffffffffffffffffffffffffffffffffffffffff1916815260200190815260200160002060009054906101000a900460ff169050919050565b606060068054600181600116156101000203166002900480601f0160208091040260200160405190810160405280929190818152602001828054600181600116156101000203166002900480156108635780601f1061083857610100808354040283529160200191610863565b820191906000526020600020905b81548152906001019060200180831161084657829003601f168201915b5050505050905090565b6000610878826120fb565b6108b7576040517f08c379a00000000000000000000000000000000000000000000000000000000081526004016108ae90614654565b60405180910390fd5b6004600083815260200190815260200160002060009054906101000a900473ffffffffffffffffffffffffffffffffffffffff169050919050565b60006108fd8261135b565b90508073ffffffffffffffffffffffffffffffffffffffff168373ffffffffffffffffffffffffffffffffffffffff16141561096e576040517f08c379a0000000000000000000000000000000000000000000000000000000008152600401610965906146f4565b60405180910390fd5b8073ffffffffffffffffffffffffffffffffffffffff1661098d612118565b73ffffffffffffffffffffffffffffffffffffffff1614806109bc57506109bb816109b6612118565b611d7e565b5b6109fb576040517f08c379a00000000000000000000000000000000000000000000000000000000081526004016109f2906145b4565b60405180910390fd5b610a058383612120565b505050565b6000610a1660026121d9565b905090565b60606010805480602002602001604051908101604052809291908181526020016000905b82821015610b27578382906000526020600020906003020160405180606001604052908160008201548152602001600182018054600181600116156101000203166002900480601f016020809104026020016040519081016040528092919081815260200182805460018160011615610100020316600290048015610b055780601f10610ada57610100808354040283529160200191610b05565b820191906000526020600020905b815481529060010190602001808311610ae857829003601f168201915b5050505050815260200160028201548152505081526020019060010190610a3f565b50505050905090565b6000610b3a612118565b73ffffffffffffffffffffffffffffffffffffffff16600a60009054906101000a900473ffffffffffffffffffffffffffffffffffffffff1673ffffffffffffffffffffffffffffffffffffffff1614610bc9576040517f08c379a0000000000000000000000000000000000000000000000000000000008152600401610bc090614694565b60405180910390fd5b60005b601080549050811015610c39578360108281548110610be757fe5b9060005260206000209060030201600001541415610c2c578260108281548110610c0d57fe5b9060005260206000209060030201600201819055506001915050610c3f565b8080600101915050610bcc565b50600090505b92915050565b610c56610c50612118565b826121ee565b610c95576040517f08c379a0000000000000000000000000000000000000000000000000000000008152600401610c8c90614734565b60405180910390fd5b610ca08383836122cc565b505050565b6000610cf882600160008673ffffffffffffffffffffffffffffffffffffffff1673ffffffffffffffffffffffffffffffffffffffff1681526020019081526020016000206124e390919063ffffffff16565b905092915050565b610d1b83838360405180602001604052806000815250611a5d565b505050565b600080610d378360026124fd90919063ffffffff16565b50905080915050919050565b81346000805b601080549050811015610dee578360108281548110610d6457fe5b9060005260206000209060030201600001541415610de157600191508260108281548110610d8e57fe5b90600052602060002090600302016002015414610de0576040517f08c379a0000000000000000000000000000000000000000000000000000000008152600401610dd790614774565b60405180910390fd5b5b8080600101915050610d49565b5080610e2f576040517f08c379a0000000000000000000000000000000000000000000000000000000008152600401610e2690614554565b60405180910390fd5b600d60009054906101000a900473ffffffffffffffffffffffffffffffffffffffff1673ffffffffffffffffffffffffffffffffffffffff166108fc349081150290604051600060405180830381858888f19350505050158015610e97573d6000803e3d6000fd5b507fb4b3eea958fd79328ea998403a758ad1a0d9db9c72633bbf4b014b934939ae9033348787604051610ecd949392919061432d565b60405180910390a15050505050565b33816014600e60008381526020019081526020016000206001015401421015610fa4578173ffffffffffffffffffffffffffffffffffffffff16600e600083815260200190815260200160002060000160009054906101000a900473ffffffffffffffffffffffffffffffffffffffff1673ffffffffffffffffffffffffffffffffffffffff1614610fa3576040517f08c379a0000000000000000000000000000000000000000000000000000000008152600401610f9a906145f4565b60405180910390fd5b5b6000600e6000858152602001908152602001600020600301546001029050803414611004576040517f08c379a0000000000000000000000000000000000000000000000000000000008152600401610ffb906144f4565b60405180910390fd5b600d60009054906101000a900473ffffffffffffffffffffffffffffffffffffffff1673ffffffffffffffffffffffffffffffffffffffff166108fc349081150290604051600060405180830381858888f1935050505015801561106c573d6000803e3d6000fd5b50600f60003373ffffffffffffffffffffffffffffffffffffffff1673ffffffffffffffffffffffffffffffffffffffff1681526020019081526020016000206001018490806001815401808255809150506001900390600052602060002001600090919091909150557fe73afeaacaf168c89f8eca1d95b1e592a2a43d550dd0e3de98218e418a198f45333486604051611109939291906142f6565b60405180910390a150505050565b6000611121612118565b73ffffffffffffffffffffffffffffffffffffffff16600a60009054906101000a900473ffffffffffffffffffffffffffffffffffffffff1673ffffffffffffffffffffffffffffffffffffffff16146111b0576040517f08c379a00000000000000000000000000000000000000000000000000000000081526004016111a790614694565b60405180910390fd5b6111ba600b612529565b60006111c6600b61253f565b90506111d2868261254d565b6111dc81856126db565b60405180608001604052808673ffffffffffffffffffffffffffffffffffffffff16815260200142815260200160011515815260200184815250600e600083815260200190815260200160002060008201518160000160006101000a81548173ffffffffffffffffffffffffffffffffffffffff021916908373ffffffffffffffffffffffffffffffffffffffff1602179055506020820151816001015560408201518160020160006101000a81548160ff02191690831515021790555060608201518160030155905050600f60008673ffffffffffffffffffffffffffffffffffffffff1673ffffffffffffffffffffffffffffffffffffffff1681526020019081526020016000206000018190806001815401808255809150506001900390600052602060002001600090919091909150557f9bc29a7be16d04de3c353003faca2ab9ecae65d0443b11bcc70d01948a78a3d88686838787604051611347959493929190614379565b60405180910390a180915050949350505050565b600061138b82604051806060016040528060298152602001614ac660299139600261274f9092919063ffffffff16565b9050919050565b606060098054600181600116156101000203166002900480601f01602080910402602001604051908101604052809291908181526020018280546001816001161561010002031660029004801561142a5780601f106113ff5761010080835404028352916020019161142a565b820191906000526020600020905b81548152906001019060200180831161140d57829003601f168201915b5050505050905090565b60008073ffffffffffffffffffffffffffffffffffffffff168273ffffffffffffffffffffffffffffffffffffffff1614156114a5576040517f08c379a000000000000000000000000000000000000000000000000000000000815260040161149c906145d4565b60405180910390fd5b6114ec600160008473ffffffffffffffffffffffffffffffffffffffff1673ffffffffffffffffffffffffffffffffffffffff16815260200190815260200160002061276e565b9050919050565b6114fb612118565b73ffffffffffffffffffffffffffffffffffffffff16600a60009054906101000a900473ffffffffffffffffffffffffffffffffffffffff1673ffffffffffffffffffffffffffffffffffffffff161461158a576040517f08c379a000000000000000000000000000000000000000000000000000000000815260040161158190614694565b60405180910390fd5b600073ffffffffffffffffffffffffffffffffffffffff16600a60009054906101000a900473ffffffffffffffffffffffffffffffffffffffff1673ffffffffffffffffffffffffffffffffffffffff167f8be0079c531659141344cd1fd0a4f28419497f9722a3daafe3b4186f6b6457e060405160405180910390a36000600a60006101000a81548173ffffffffffffffffffffffffffffffffffffffff021916908373ffffffffffffffffffffffffffffffffffffffff160217905550565b6000600e600083815260200190815260200160002060020160009054906101000a900460ff166116b0576040517f08c379a00000000000000000000000000000000000000000000000000000000081526004016116a790614454565b60405180910390fd5b600e600083815260200190815260200160002060000160009054906101000a900473ffffffffffffffffffffffffffffffffffffffff169050919050565b6000600a60009054906101000a900473ffffffffffffffffffffffffffffffffffffffff16905090565b60606000600f60008473ffffffffffffffffffffffffffffffffffffffff1673ffffffffffffffffffffffffffffffffffffffff16815260200190815260200160002060010180549050116117a2576040517f08c379a000000000000000000000000000000000000000000000000000000000815260040161179990614594565b60405180910390fd5b600f60008373ffffffffffffffffffffffffffffffffffffffff1673ffffffffffffffffffffffffffffffffffffffff16815260200190815260200160002060010180548060200260200160405190810160405280929190818152602001828054801561182e57602002820191906000526020600020905b81548152602001906001019080831161181a575b50505050509050919050565b606060078054600181600116156101000203166002900480601f0160208091040260200160405190810160405280929190818152602001828054600181600116156101000203166002900480156118d25780601f106118a7576101008083540402835291602001916118d2565b820191906000526020600020905b8154815290600101906020018083116118b557829003601f168201915b5050505050905090565b6118e4612118565b73ffffffffffffffffffffffffffffffffffffffff168273ffffffffffffffffffffffffffffffffffffffff161415611952576040517f08c379a000000000000000000000000000000000000000000000000000000000815260040161194990614534565b60405180910390fd5b806005600061195f612118565b73ffffffffffffffffffffffffffffffffffffffff1673ffffffffffffffffffffffffffffffffffffffff16815260200190815260200160002060008473ffffffffffffffffffffffffffffffffffffffff1673ffffffffffffffffffffffffffffffffffffffff16815260200190815260200160002060006101000a81548160ff0219169083151502179055508173ffffffffffffffffffffffffffffffffffffffff16611a0c612118565b73ffffffffffffffffffffffffffffffffffffffff167f17307eab39ab6107e8899845ad3d59bd9653f200f220920489ca2b5937696c3183604051611a519190614417565b60405180910390a35050565b611a6e611a68612118565b836121ee565b611aad576040517f08c379a0000000000000000000000000000000000000000000000000000000008152600401611aa490614734565b60405180910390fd5b611ab984848484612783565b50505050565b6060611aca826120fb565b611b09576040517f08c379a0000000000000000000000000000000000000000000000000000000008152600401611b00906146d4565b60405180910390fd5b6060600860008481526020019081526020016000208054600181600116156101000203166002900480601f016020809104026020016040519081016040528092919081815260200182805460018160011615610100020316600290048015611bb25780601f10611b8757610100808354040283529160200191611bb2565b820191906000526020600020905b815481529060010190602001808311611b9557829003601f168201915b50505050509050600060098054600181600116156101000203166002900490501415611be15780915050611c45565b600081511115611c1657600981604051602001611bff92919061426b565b604051602081830303815290604052915050611c45565b6009611c21846127df565b604051602001611c3292919061426b565b6040516020818303038152906040529150505b919050565b6000611c54612118565b73ffffffffffffffffffffffffffffffffffffffff16600a60009054906101000a900473ffffffffffffffffffffffffffffffffffffffff1673ffffffffffffffffffffffffffffffffffffffff1614611ce3576040517f08c379a0000000000000000000000000000000000000000000000000000000008152600401611cda90614694565b60405180910390fd5b611ced600c612529565b6000611cf9600c61253f565b905060106040518060600160405280838152602001868152602001858152509080600181540180825580915050600190039060005260206000209060030201600090919091909150600082015181600001556020820151816001019080519060200190611d679291906130b5565b506040820151816002015550508091505092915050565b6000600560008473ffffffffffffffffffffffffffffffffffffffff1673ffffffffffffffffffffffffffffffffffffffff16815260200190815260200160002060008373ffffffffffffffffffffffffffffffffffffffff1673ffffffffffffffffffffffffffffffffffffffff16815260200190815260200160002060009054906101000a900460ff16905092915050565b60606000600f60008473ffffffffffffffffffffffffffffffffffffffff1673ffffffffffffffffffffffffffffffffffffffff1681526020019081526020016000206000018054905011611e9c576040517f08c379a0000000000000000000000000000000000000000000000000000000008152600401611e9390614714565b60405180910390fd5b600f60008373ffffffffffffffffffffffffffffffffffffffff1673ffffffffffffffffffffffffffffffffffffffff168152602001908152602001600020600001805480602002602001604051908101604052809291908181526020018280548015611f2857602002820191906000526020600020905b815481526020019060010190808311611f14575b50505050509050919050565b611f3c612118565b73ffffffffffffffffffffffffffffffffffffffff16600a60009054906101000a900473ffffffffffffffffffffffffffffffffffffffff1673ffffffffffffffffffffffffffffffffffffffff1614611fcb576040517f08c379a0000000000000000000000000000000000000000000000000000000008152600401611fc290614694565b60405180910390fd5b600073ffffffffffffffffffffffffffffffffffffffff168173ffffffffffffffffffffffffffffffffffffffff16141561203b576040517f08c379a0000000000000000000000000000000000000000000000000000000008152600401612032906144b4565b60405180910390fd5b8073ffffffffffffffffffffffffffffffffffffffff16600a60009054906101000a900473ffffffffffffffffffffffffffffffffffffffff1673ffffffffffffffffffffffffffffffffffffffff167f8be0079c531659141344cd1fd0a4f28419497f9722a3daafe3b4186f6b6457e060405160405180910390a380600a60006101000a81548173ffffffffffffffffffffffffffffffffffffffff021916908373ffffffffffffffffffffffffffffffffffffffff16021790555050565b600061211182600261292690919063ffffffff16565b9050919050565b600033905090565b816004600083815260200190815260200160002060006101000a81548173ffffffffffffffffffffffffffffffffffffffff021916908373ffffffffffffffffffffffffffffffffffffffff160217905550808273ffffffffffffffffffffffffffffffffffffffff166121938361135b565b73ffffffffffffffffffffffffffffffffffffffff167f8c5be1e5ebec7d5bd14f71427d1e84f3dd0314c0f7b2291e5b200ac8c7c3b92560405160405180910390a45050565b60006121e782600001612940565b9050919050565b60006121f9826120fb565b612238576040517f08c379a000000000000000000000000000000000000000000000000000000000815260040161222f90614574565b60405180910390fd5b60006122438361135b565b90508073ffffffffffffffffffffffffffffffffffffffff168473ffffffffffffffffffffffffffffffffffffffff1614806122b257508373ffffffffffffffffffffffffffffffffffffffff1661229a8461086d565b73ffffffffffffffffffffffffffffffffffffffff16145b806122c357506122c28185611d7e565b5b91505092915050565b8273ffffffffffffffffffffffffffffffffffffffff166122ec8261135b565b73ffffffffffffffffffffffffffffffffffffffff1614612342576040517f08c379a0000000000000000000000000000000000000000000000000000000008152600401612339906146b4565b60405180910390fd5b600073ffffffffffffffffffffffffffffffffffffffff168273ffffffffffffffffffffffffffffffffffffffff1614156123b2576040517f08c379a00000000000000000000000000000000000000000000000000000000081526004016123a990614514565b60405180910390fd5b6123bd838383612951565b6123c8600082612120565b61241981600160008673ffffffffffffffffffffffffffffffffffffffff1673ffffffffffffffffffffffffffffffffffffffff16815260200190815260200160002061295690919063ffffffff16565b5061246b81600160008573ffffffffffffffffffffffffffffffffffffffff1673ffffffffffffffffffffffffffffffffffffffff16815260200190815260200160002061297090919063ffffffff16565b506124828183600261298a9092919063ffffffff16565b50808273ffffffffffffffffffffffffffffffffffffffff168473ffffffffffffffffffffffffffffffffffffffff167fddf252ad1be2c89b69c2b068fc378daa952ba7f163c4a11628f55a4df523b3ef60405160405180910390a4505050565b60006124f283600001836129bf565b60001c905092915050565b6000806000806125108660000186612a2c565b915091508160001c8160001c9350935050509250929050565b6001816000016000828254019250508190555050565b600081600001549050919050565b600073ffffffffffffffffffffffffffffffffffffffff168273ffffffffffffffffffffffffffffffffffffffff1614156125bd576040517f08c379a00000000000000000000000000000000000000000000000000000000081526004016125b490614634565b60405180910390fd5b6125c6816120fb565b15612606576040517f08c379a00000000000000000000000000000000000000000000000000000000081526004016125fd906144d4565b60405180910390fd5b61261260008383612951565b61266381600160008573ffffffffffffffffffffffffffffffffffffffff1673ffffffffffffffffffffffffffffffffffffffff16815260200190815260200160002061297090919063ffffffff16565b5061267a8183600261298a9092919063ffffffff16565b50808273ffffffffffffffffffffffffffffffffffffffff16600073ffffffffffffffffffffffffffffffffffffffff167fddf252ad1be2c89b69c2b068fc378daa952ba7f163c4a11628f55a4df523b3ef60405160405180910390a45050565b6126e4826120fb565b612723576040517f08c379a000000000000000000000000000000000000000000000000000000000815260040161271a90614674565b60405180910390fd5b8060086000848152602001908152602001600020908051906020019061274a9291906130b5565b505050565b6000612762846000018460001b84612aaf565b60001c90509392505050565b600061277c82600001612b40565b9050919050565b61278e8484846122cc565b61279a84848484612b51565b6127d9576040517f08c379a00000000000000000000000000000000000000000000000000000000081526004016127d090614494565b60405180910390fd5b50505050565b60606000821415612827576040518060400160405280600181526020017f30000000000000000000000000000000000000000000000000000000000000008152509050612921565b600082905060005b60008214612851578080600101915050600a828161284957fe5b04915061282f565b60608167ffffffffffffffff8111801561286a57600080fd5b506040519080825280601f01601f19166020018201604052801561289d5781602001600182028036833780820191505090505b50905060006001830390508593505b6000841461291957600a84816128be57fe5b0660300160f81b828280600190039350815181106128d857fe5b60200101907effffffffffffffffffffffffffffffffffffffffffffffffffffffffffffff1916908160001a905350600a848161291157fe5b0493506128ac565b819450505050505b919050565b6000612938836000018360001b612cb5565b905092915050565b600081600001805490509050919050565b505050565b6000612968836000018360001b612cd8565b905092915050565b6000612982836000018360001b612dc0565b905092915050565b60006129b6846000018460001b8473ffffffffffffffffffffffffffffffffffffffff1660001b612e30565b90509392505050565b600081836000018054905011612a0a576040517f08c379a0000000000000000000000000000000000000000000000000000000008152600401612a0190614474565b60405180910390fd5b826000018281548110612a1957fe5b9060005260206000200154905092915050565b60008082846000018054905011612a78576040517f08c379a0000000000000000000000000000000000000000000000000000000008152600401612a6f90614614565b60405180910390fd5b6000846000018481548110612a8957fe5b906000526020600020906002020190508060000154816001015492509250509250929050565b60008084600101600085815260200190815260200160002054905060008114158390612b11576040517f08c379a0000000000000000000000000000000000000000000000000000000008152600401612b089190614432565b60405180910390fd5b50846000016001820381548110612b2457fe5b9060005260206000209060020201600101549150509392505050565b600081600001805490509050919050565b6000612b728473ffffffffffffffffffffffffffffffffffffffff16612f0c565b612b7f5760019050612cad565b6060612c4663150b7a0260e01b612b94612118565b888787604051602401612baa94939291906142aa565b604051602081830303815290604052907bffffffffffffffffffffffffffffffffffffffffffffffffffffffff19166020820180517bffffffffffffffffffffffffffffffffffffffffffffffffffffffff8381831617835250505050604051806060016040528060328152602001614a94603291398773ffffffffffffffffffffffffffffffffffffffff16612f579092919063ffffffff16565b9050600081806020019051810190612c5e91906134ae565b905063150b7a0260e01b7bffffffffffffffffffffffffffffffffffffffffffffffffffffffff1916817bffffffffffffffffffffffffffffffffffffffffffffffffffffffff191614925050505b949350505050565b600080836001016000848152602001908152602001600020541415905092915050565b60008083600101600084815260200190815260200160002054905060008114612db45760006001820390506000600186600001805490500390506000866000018281548110612d2357fe5b9060005260206000200154905080876000018481548110612d4057fe5b9060005260206000200181905550600183018760010160008381526020019081526020016000208190555086600001805480612d7857fe5b60019003818190600052602060002001600090559055866001016000878152602001908152602001600020600090556001945050505050612dba565b60009150505b92915050565b6000612dcc8383612f6f565b612e25578260000182908060018154018082558091505060019003906000526020600020016000909190919091505582600001805490508360010160008481526020019081526020016000208190555060019050612e2a565b600090505b92915050565b6000808460010160008581526020019081526020016000205490506000811415612ed757846000016040518060400160405280868152602001858152509080600181540180825580915050600190039060005260206000209060020201600090919091909150600082015181600001556020820151816001015550508460000180549050856001016000868152602001908152602001600020819055506001915050612f05565b82856000016001830381548110612eea57fe5b90600052602060002090600202016001018190555060009150505b9392505050565b60008060007fc5d2460186f7233c927e7db2dcc703c0e500b653ca82273b7bfad8045d85a47060001b9050833f9150808214158015612f4e57506000801b8214155b92505050919050565b6060612f668484600085612f92565b90509392505050565b600080836001016000848152602001908152602001600020541415905092915050565b6060612f9d85612f0c565b612fdc576040517f08c379a0000000000000000000000000000000000000000000000000000000008152600401612fd390614754565b60405180910390fd5b600060608673ffffffffffffffffffffffffffffffffffffffff1685876040516130069190614254565b60006040518083038185875af1925050503d8060008114613043576040519150601f19603f3d011682016040523d82523d6000602084013e613048565b606091505b5091509150811561305d5780925050506130ad565b6000815111156130705780518082602001fd5b836040517f08c379a00000000000000000000000000000000000000000000000000000000081526004016130a49190614432565b60405180910390fd5b949350505050565b828054600181600116156101000203166002900490600052602060002090601f016020900481019282601f106130f657805160ff1916838001178555613124565b82800160010185558215613124579182015b82811115613123578251825591602001919060010190613108565b5b5090506131319190613135565b5090565b5b8082111561314e576000816000905550600101613136565b5090565b60008135905061316181614a37565b92915050565b60008135905061317681614a4e565b92915050565b60008135905061318b81614a65565b92915050565b6000815190506131a081614a65565b92915050565b600082601f8301126131b757600080fd5b81356131ca6131c5826147e0565b6147af565b915080825260208301602083018583830111156131e657600080fd5b6131f18382846149e2565b50505092915050565b600082601f83011261320b57600080fd5b813561321e61321982614810565b6147af565b9150808252602083016020830185838301111561323a57600080fd5b6132458382846149e2565b50505092915050565b60008135905061325d81614a7c565b92915050565b60006020828403121561327557600080fd5b600061328384828501613152565b91505092915050565b6000806040838503121561329f57600080fd5b60006132ad85828601613152565b92505060206132be85828601613152565b9150509250929050565b600080600080608085870312156132de57600080fd5b60006132ec87828801613152565b94505060206132fd87828801613152565b935050604085013567ffffffffffffffff81111561331a57600080fd5b613326878288016131fa565b92505060606133378782880161324e565b91505092959194509250565b60008060006060848603121561335857600080fd5b600061336686828701613152565b935050602061337786828701613152565b92505060406133888682870161324e565b9150509250925092565b600080600080608085870312156133a857600080fd5b60006133b687828801613152565b94505060206133c787828801613152565b93505060406133d88782880161324e565b925050606085013567ffffffffffffffff8111156133f557600080fd5b613401878288016131a6565b91505092959194509250565b6000806040838503121561342057600080fd5b600061342e85828601613152565b925050602061343f85828601613167565b9150509250929050565b6000806040838503121561345c57600080fd5b600061346a85828601613152565b925050602061347b8582860161324e565b9150509250929050565b60006020828403121561349757600080fd5b60006134a58482850161317c565b91505092915050565b6000602082840312156134c057600080fd5b60006134ce84828501613191565b91505092915050565b600080604083850312156134ea57600080fd5b600083013567ffffffffffffffff81111561350457600080fd5b613510858286016131fa565b92505060206135218582860161324e565b9150509250929050565b60006020828403121561353d57600080fd5b600061354b8482850161324e565b91505092915050565b6000806040838503121561356757600080fd5b60006135758582860161324e565b925050602083013567ffffffffffffffff81111561359257600080fd5b61359e858286016131fa565b9150509250929050565b600080604083850312156135bb57600080fd5b60006135c98582860161324e565b92505060206135da8582860161324e565b9150509250929050565b60006135f083836141e6565b905092915050565b60006136048383614236565b60208301905092915050565b613619816149ac565b82525050565b61362881614938565b82525050565b61363781614926565b82525050565b600061364882614875565b61365281856148bb565b93508360208202850161366485614840565b8060005b858110156136a0578484038952815161368185826135e4565b945061368c836148a1565b925060208a01995050600181019050613668565b50829750879550505050505092915050565b60006136bd82614880565b6136c781856148cc565b93506136d283614850565b8060005b838110156137035781516136ea88826135f8565b97506136f5836148ae565b9250506001810190506136d6565b5085935050505092915050565b6137198161494a565b82525050565b600061372a8261488b565b61373481856148dd565b93506137448185602086016149f1565b61374d81614a26565b840191505092915050565b60006137638261488b565b61376d81856148ee565b935061377d8185602086016149f1565b80840191505092915050565b600061379482614896565b61379e81856148f9565b93506137ae8185602086016149f1565b6137b781614a26565b840191505092915050565b60006137cd82614896565b6137d7818561490a565b93506137e78185602086016149f1565b6137f081614a26565b840191505092915050565b600061380682614896565b613810818561491b565b93506138208185602086016149f1565b80840191505092915050565b600081546001811660008114613849576001811461386e576138b2565b607f600283041661385a818761491b565b955060ff19831686528086019350506138b2565b6002820461387c818761491b565b955061388785614860565b60005b828110156138a95781548189015260018201915060208101905061388a565b82880195505050505b505092915050565b60006138c760138361490a565b91507f546f6b656e20646f65736e2774206578697374000000000000000000000000006000830152602082019050919050565b600061390760228361490a565b91507f456e756d657261626c655365743a20696e646578206f7574206f6620626f756e60008301527f64730000000000000000000000000000000000000000000000000000000000006020830152604082019050919050565b600061396d60328361490a565b91507f4552433732313a207472616e7366657220746f206e6f6e20455243373231526560008301527f63656976657220696d706c656d656e74657200000000000000000000000000006020830152604082019050919050565b60006139d360268361490a565b91507f4f776e61626c653a206e6577206f776e657220697320746865207a65726f206160008301527f64647265737300000000000000000000000000000000000000000000000000006020830152604082019050919050565b6000613a39601c8361490a565b91507f4552433732313a20746f6b656e20616c7265616479206d696e746564000000006000830152602082019050919050565b6000613a7960208361490a565b91507f4e6f7420656e6f75676820636f696e7320746f207472616e73666572206e66746000830152602082019050919050565b6000613ab960248361490a565b91507f4552433732313a207472616e7366657220746f20746865207a65726f2061646460008301527f72657373000000000000000000000000000000000000000000000000000000006020830152604082019050919050565b6000613b1f60198361490a565b91507f4552433732313a20617070726f766520746f2063616c6c6572000000000000006000830152602082019050919050565b6000613b5f60268361490a565b91507f526571756573746564207472616e73666f726d6174696f6e20646f65736e277460008301527f20657869737400000000000000000000000000000000000000000000000000006020830152604082019050919050565b6000613bc5602c8361490a565b91507f4552433732313a206f70657261746f7220717565727920666f72206e6f6e657860008301527f697374656e7420746f6b656e00000000000000000000000000000000000000006020830152604082019050919050565b6000613c2b60198361490a565b91507f5573657220686173206e6f20626f7567687420746f6b656e73000000000000006000830152602082019050919050565b6000613c6b60388361490a565b91507f4552433732313a20617070726f76652063616c6c6572206973206e6f74206f7760008301527f6e6572206e6f7220617070726f76656420666f7220616c6c00000000000000006020830152604082019050919050565b6000613cd1602a8361490a565b91507f4552433732313a2062616c616e636520717565727920666f7220746865207a6560008301527f726f2061646472657373000000000000000000000000000000000000000000006020830152604082019050919050565b6000613d3760448361490a565b91507f4f6e6c792074686520706572736f6e2077686f2067656e65726174656420746860008301527f6520696d6167652063616e2062757920697420696e207468652066697273742060208301527f686f7572000000000000000000000000000000000000000000000000000000006040830152606082019050919050565b6000613dc360228361490a565b91507f456e756d657261626c654d61703a20696e646578206f7574206f6620626f756e60008301527f64730000000000000000000000000000000000000000000000000000000000006020830152604082019050919050565b6000613e2960208361490a565b91507f4552433732313a206d696e7420746f20746865207a65726f20616464726573736000830152602082019050919050565b6000613e69602c8361490a565b91507f4552433732313a20617070726f76656420717565727920666f72206e6f6e657860008301527f697374656e7420746f6b656e00000000000000000000000000000000000000006020830152604082019050919050565b6000613ecf602c8361490a565b91507f4552433732314d657461646174613a2055524920736574206f66206e6f6e657860008301527f697374656e7420746f6b656e00000000000000000000000000000000000000006020830152604082019050919050565b6000613f3560208361490a565b91507f4f776e61626c653a2063616c6c6572206973206e6f7420746865206f776e65726000830152602082019050919050565b6000613f7560298361490a565b91507f4552433732313a207472616e73666572206f6620746f6b656e2074686174206960008301527f73206e6f74206f776e00000000000000000000000000000000000000000000006020830152604082019050919050565b6000613fdb602f8361490a565b91507f4552433732314d657461646174613a2055524920717565727920666f72206e6f60008301527f6e6578697374656e7420746f6b656e00000000000000000000000000000000006020830152604082019050919050565b600061404160218361490a565b91507f4552433732313a20617070726f76616c20746f2063757272656e74206f776e6560008301527f72000000000000000000000000000000000000000000000000000000000000006020830152604082019050919050565b60006140a7601c8361490a565b91507f5573657220686173206e6f2067656e65726174656420746f6b656e73000000006000830152602082019050919050565b60006140e760318361490a565b91507f4552433732313a207472616e736665722063616c6c6572206973206e6f74206f60008301527f776e6572206e6f7220617070726f7665640000000000000000000000000000006020830152604082019050919050565b600061414d601d8361490a565b91507f416464726573733a2063616c6c20746f206e6f6e2d636f6e74726163740000006000830152602082019050919050565b600061418d60318361490a565b91507f5472616e73616374696f6e2076616c7565206d757374206d617463682074726160008301527f6e73666f726d6174696f6e2070726963650000000000000000000000000000006020830152604082019050919050565b60006060830160008301516141fe6000860182614236565b50602083015184820360208601526142168282613789565b915050604083015161422b6040860182614236565b508091505092915050565b61423f816149a2565b82525050565b61424e816149a2565b82525050565b60006142608284613758565b915081905092915050565b6000614277828561382c565b915061428382846137fb565b91508190509392505050565b60006020820190506142a4600083018461362e565b92915050565b60006080820190506142bf600083018761361f565b6142cc602083018661362e565b6142d96040830185614245565b81810360608301526142eb818461371f565b905095945050505050565b600060608201905061430b6000830186613610565b6143186020830185614245565b6143256040830184614245565b949350505050565b60006080820190506143426000830187613610565b61434f6020830186614245565b61435c6040830185614245565b818103606083015261436e81846137c2565b905095945050505050565b600060a08201905061438e600083018861362e565b61439b602083018761362e565b6143a86040830186614245565b81810360608301526143ba81856137c2565b90506143c96080830184614245565b9695505050505050565b600060208201905081810360008301526143ed818461363d565b905092915050565b6000602082019050818103600083015261440f81846136b2565b905092915050565b600060208201905061442c6000830184613710565b92915050565b6000602082019050818103600083015261444c81846137c2565b905092915050565b6000602082019050818103600083015261446d816138ba565b9050919050565b6000602082019050818103600083015261448d816138fa565b9050919050565b600060208201905081810360008301526144ad81613960565b9050919050565b600060208201905081810360008301526144cd816139c6565b9050919050565b600060208201905081810360008301526144ed81613a2c565b9050919050565b6000602082019050818103600083015261450d81613a6c565b9050919050565b6000602082019050818103600083015261452d81613aac565b9050919050565b6000602082019050818103600083015261454d81613b12565b9050919050565b6000602082019050818103600083015261456d81613b52565b9050919050565b6000602082019050818103600083015261458d81613bb8565b9050919050565b600060208201905081810360008301526145ad81613c1e565b9050919050565b600060208201905081810360008301526145cd81613c5e565b9050919050565b600060208201905081810360008301526145ed81613cc4565b9050919050565b6000602082019050818103600083015261460d81613d2a565b9050919050565b6000602082019050818103600083015261462d81613db6565b9050919050565b6000602082019050818103600083015261464d81613e1c565b9050919050565b6000602082019050818103600083015261466d81613e5c565b9050919050565b6000602082019050818103600083015261468d81613ec2565b9050919050565b600060208201905081810360008301526146ad81613f28565b9050919050565b600060208201905081810360008301526146cd81613f68565b9050919050565b600060208201905081810360008301526146ed81613fce565b9050919050565b6000602082019050818103600083015261470d81614034565b9050919050565b6000602082019050818103600083015261472d8161409a565b9050919050565b6000602082019050818103600083015261474d816140da565b9050919050565b6000602082019050818103600083015261476d81614140565b9050919050565b6000602082019050818103600083015261478d81614180565b9050919050565b60006020820190506147a96000830184614245565b92915050565b6000604051905081810181811067ffffffffffffffff821117156147d6576147d5614a24565b5b8060405250919050565b600067ffffffffffffffff8211156147fb576147fa614a24565b5b601f19601f8301169050602081019050919050565b600067ffffffffffffffff82111561482b5761482a614a24565b5b601f19601f8301169050602081019050919050565b6000819050602082019050919050565b6000819050602082019050919050565b60008190508160005260206000209050919050565b600081519050919050565b600081519050919050565b600081519050919050565b600081519050919050565b6000602082019050919050565b6000602082019050919050565b600082825260208201905092915050565b600082825260208201905092915050565b600082825260208201905092915050565b600081905092915050565b600082825260208201905092915050565b600082825260208201905092915050565b600081905092915050565b600061493182614982565b9050919050565b600061494382614982565b9050919050565b60008115159050919050565b60007fffffffff0000000000000000000000000000000000000000000000000000000082169050919050565b600073ffffffffffffffffffffffffffffffffffffffff82169050919050565b6000819050919050565b60006149b7826149be565b9050919050565b60006149c9826149d0565b9050919050565b60006149db82614982565b9050919050565b82818337600083830152505050565b60005b83811015614a0f5780820151818401526020810190506149f4565b83811115614a1e576000848401525b50505050565bfe5b6000601f19601f8301169050919050565b614a4081614926565b8114614a4b57600080fd5b50565b614a578161494a565b8114614a6257600080fd5b50565b614a6e81614956565b8114614a7957600080fd5b50565b614a85816149a2565b8114614a9057600080fd5b5056fe4552433732313a207472616e7366657220746f206e6f6e20455243373231526563656976657220696d706c656d656e7465724552433732313a206f776e657220717565727920666f72206e6f6e6578697374656e7420746f6b656ea264697066735822122051dbf23bd1c70a46328840af9ae8d3047672f31d8bb2ac5a443b7bf1034bb08564736f6c63430007030033",
  "linkReferences": {},
  "deployedLinkReferences": {}
}