{
  "_format": "hh-sol-artifact-1",
  "contractName": "StyleNFT",
  "sourceName": "contracts/StyleNFT.sol",
  "abi": [
    {
      "inputs": [],
      "stateMutability": "nonpayable",
      "type": "constructor"
    },
    {
      "anonymous": false,
      "inputs": [
        {
          "indexed": true,
          "internalType": "address",
          "name": "owner",
          "type": "address"
        },
        {
          "indexed": true,
          "internalType": "address",
          "name": "approved",
          "type": "address"
        },
        {
          "indexed": true,
          "internalType": "uint256",
          "name": "tokenId",
          "type": "uint256"
        }
      ],
      "name": "Approval",
      "type": "event"
    },
    {
      "anonymous": false,
      "inputs": [
        {
          "indexed": true,
          "internalType": "address",
          "name": "owner",
          "type": "address"
        },
        {
          "indexed": true,
          "internalType": "address",
          "name": "operator",
          "type": "address"
        },
        {
          "indexed": false,
          "internalType": "bool",
          "name": "approved",
          "type": "bool"
        }
      ],
      "name": "ApprovalForAll",
      "type": "event"
    },
    {
      "anonymous": false,
      "inputs": [
        {
          "indexed": false,
          "internalType": "address",
          "name": "sender",
          "type": "address"
        },
        {
          "indexed": false,
          "internalType": "uint256",
          "name": "value",
          "type": "uint256"
        },
        {
          "indexed": false,
          "internalType": "uint256",
          "name": "transformationId",
          "type": "uint256"
        },
        {
          "indexed": false,
          "internalType": "string",
          "name": "imageURL",
          "type": "string"
        }
      ],
      "name": "ImageGenerationPaid",
      "type": "event"
    },
    {
      "anonymous": false,
      "inputs": [
        {
          "indexed": false,
          "internalType": "address",
          "name": "sender",
          "type": "address"
        },
        {
          "indexed": false,
          "internalType": "uint256",
          "name": "value",
          "type": "uint256"
        },
        {
          "indexed": false,
          "internalType": "uint256",
          "name": "tokenId",
          "type": "uint256"
        }
      ],
      "name": "ImagePaid",
      "type": "event"
    },
    {
      "anonymous": false,
      "inputs": [
        {
          "indexed": true,
          "internalType": "address",
          "name": "previousOwner",
          "type": "address"
        },
        {
          "indexed": true,
          "internalType": "address",
          "name": "newOwner",
          "type": "address"
        }
      ],
      "name": "OwnershipTransferred",
      "type": "event"
    },
    {
      "anonymous": false,
      "inputs": [
        {
          "indexed": false,
          "internalType": "address",
          "name": "recipient",
          "type": "address"
        },
        {
          "indexed": false,
          "internalType": "address",
          "name": "payer",
          "type": "address"
        },
        {
          "indexed": false,
          "internalType": "uint256",
          "name": "tokenId",
          "type": "uint256"
        },
        {
          "indexed": false,
          "internalType": "string",
          "name": "tokenURI",
          "type": "string"
        },
        {
          "indexed": false,
          "internalType": "uint256",
          "name": "price",
          "type": "uint256"
        }
      ],
      "name": "TokenMinted",
      "type": "event"
    },
    {
      "anonymous": false,
      "inputs": [
        {
          "indexed": true,
          "internalType": "address",
          "name": "from",
          "type": "address"
        },
        {
          "indexed": true,
          "internalType": "address",
          "name": "to",
          "type": "address"
        },
        {
          "indexed": true,
          "internalType": "uint256",
          "name": "tokenId",
          "type": "uint256"
        }
      ],
      "name": "Transfer",
      "type": "event"
    },
    {
      "inputs": [
        {
          "internalType": "string",
          "name": "name",
          "type": "string"
        },
        {
          "internalType": "uint256",
          "name": "price",
          "type": "uint256"
        }
      ],
      "name": "addTransformation",
      "outputs": [
        {
          "internalType": "uint256",
          "name": "",
          "type": "uint256"
        }
      ],
      "stateMutability": "nonpayable",
      "type": "function"
    },
    {
      "inputs": [
        {
          "internalType": "address",
          "name": "to",
          "type": "address"
        },
        {
          "internalType": "uint256",
          "name": "tokenId",
          "type": "uint256"
        }
      ],
      "name": "approve",
      "outputs": [],
      "stateMutability": "nonpayable",
      "type": "function"
    },
    {
      "inputs": [
        {
          "internalType": "address",
          "name": "owner",
          "type": "address"
        }
      ],
      "name": "balanceOf",
      "outputs": [
        {
          "internalType": "uint256",
          "name": "",
          "type": "uint256"
        }
      ],
      "stateMutability": "view",
      "type": "function"
    },
    {
      "inputs": [],
      "name": "baseURI",
      "outputs": [
        {
          "internalType": "string",
          "name": "",
          "type": "string"
        }
      ],
      "stateMutability": "view",
      "type": "function"
    },
    {
      "inputs": [
        {
          "internalType": "uint256",
          "name": "tokenId",
          "type": "uint256"
        }
      ],
      "name": "getApproved",
      "outputs": [
        {
          "internalType": "address",
          "name": "",
          "type": "address"
        }
      ],
      "stateMutability": "view",
      "type": "function"
    },
    {
      "inputs": [
        {
          "internalType": "address",
          "name": "owner",
          "type": "address"
        },
        {
          "internalType": "address",
          "name": "operator",
          "type": "address"
        }
      ],
      "name": "isApprovedForAll",
      "outputs": [
        {
          "internalType": "bool",
          "name": "",
          "type": "bool"
        }
      ],
      "stateMutability": "view",
      "type": "function"
    },
    {
      "inputs": [],
      "name": "listTransformations",
      "outputs": [
        {
          "components": [
            {
              "internalType": "uint256",
              "name": "id",
              "type": "uint256"
            },
            {
              "internalType": "uint256",
              "name": "price",
              "type": "uint256"
            },
            {
              "internalType": "string",
              "name": "name",
              "type": "string"
            }
          ],
          "internalType": "struct StyleNFT.Transformation[]",
          "name": "",
          "type": "tuple[]"
        }
      ],
      "stateMutability": "view",
      "type": "function"
    },
    {
      "inputs": [
        {
          "internalType": "address",
          "name": "recipient",
          "type": "address"
        },
        {
          "internalType": "address",
          "name": "payer",
          "type": "address"
        },
        {
          "internalType": "string",
          "name": "tokenURI",
          "type": "string"
        },
        {
          "internalType": "uint256",
          "name": "price",
          "type": "uint256"
        }
      ],
      "name": "mintNFT",
      "outputs": [
        {
          "internalType": "uint256",
          "name": "",
          "type": "uint256"
        }
      ],
      "stateMutability": "nonpayable",
      "type": "function"
    },
    {
      "inputs": [],
      "name": "name",
      "outputs": [
        {
          "internalType": "string",
          "name": "",
          "type": "string"
        }
      ],
      "stateMutability": "view",
      "type": "function"
    },
    {
      "inputs": [],
      "name": "owner",
      "outputs": [
        {
          "internalType": "address",
          "name": "",
          "type": "address"
        }
      ],
      "stateMutability": "view",
      "type": "function"
    },
    {
      "inputs": [
        {
          "internalType": "uint256",
          "name": "tokenId",
          "type": "uint256"
        }
      ],
      "name": "ownerOf",
      "outputs": [
        {
          "internalType": "address",
          "name": "",
          "type": "address"
        }
      ],
      "stateMutability": "view",
      "type": "function"
    },
    {
      "inputs": [
        {
          "internalType": "uint256",
          "name": "transformationId",
          "type": "uint256"
        },
        {
          "internalType": "string",
          "name": "imageUrl",
          "type": "string"
        }
      ],
      "name": "payGenerating",
      "outputs": [],
      "stateMutability": "payable",
      "type": "function"
    },
    {
      "inputs": [
        {
          "internalType": "uint256",
          "name": "tokenId",
          "type": "uint256"
        }
      ],
      "name": "payImage",
      "outputs": [],
      "stateMutability": "payable",
      "type": "function"
    },
    {
      "inputs": [
        {
          "internalType": "uint256",
          "name": "tokenId",
          "type": "uint256"
        }
      ],
      "name": "payerOf",
      "outputs": [
        {
          "internalType": "address",
          "name": "",
          "type": "address"
        }
      ],
      "stateMutability": "view",
      "type": "function"
    },
    {
      "inputs": [],
      "name": "renounceOwnership",
      "outputs": [],
      "stateMutability": "nonpayable",
      "type": "function"
    },
    {
      "inputs": [
        {
          "internalType": "address",
          "name": "from",
          "type": "address"
        },
        {
          "internalType": "address",
          "name": "to",
          "type": "address"
        },
        {
          "internalType": "uint256",
          "name": "tokenId",
          "type": "uint256"
        }
      ],
      "name": "safeTransferFrom",
      "outputs": [],
      "stateMutability": "nonpayable",
      "type": "function"
    },
    {
      "inputs": [
        {
          "internalType": "address",
          "name": "from",
          "type": "address"
        },
        {
          "internalType": "address",
          "name": "to",
          "type": "address"
        },
        {
          "internalType": "uint256",
          "name": "tokenId",
          "type": "uint256"
        },
        {
          "internalType": "bytes",
          "name": "_data",
          "type": "bytes"
        }
      ],
      "name": "safeTransferFrom",
      "outputs": [],
      "stateMutability": "nonpayable",
      "type": "function"
    },
    {
      "inputs": [
        {
          "internalType": "address",
          "name": "operator",
          "type": "address"
        },
        {
          "internalType": "bool",
          "name": "approved",
          "type": "bool"
        }
      ],
      "name": "setApprovalForAll",
      "outputs": [],
      "stateMutability": "nonpayable",
      "type": "function"
    },
    {
      "inputs": [
        {
          "internalType": "bytes4",
          "name": "interfaceId",
          "type": "bytes4"
        }
      ],
      "name": "supportsInterface",
      "outputs": [
        {
          "internalType": "bool",
          "name": "",
          "type": "bool"
        }
      ],
      "stateMutability": "view",
      "type": "function"
    },
    {
      "inputs": [],
      "name": "symbol",
      "outputs": [
        {
          "internalType": "string",
          "name": "",
          "type": "string"
        }
      ],
      "stateMutability": "view",
      "type": "function"
    },
    {
      "inputs": [
        {
          "internalType": "uint256",
          "name": "index",
          "type": "uint256"
        }
      ],
      "name": "tokenByIndex",
      "outputs": [
        {
          "internalType": "uint256",
          "name": "",
          "type": "uint256"
        }
      ],
      "stateMutability": "view",
      "type": "function"
    },
    {
      "inputs": [
        {
          "internalType": "address",
          "name": "owner",
          "type": "address"
        },
        {
          "internalType": "uint256",
          "name": "index",
          "type": "uint256"
        }
      ],
      "name": "tokenOfOwnerByIndex",
      "outputs": [
        {
          "internalType": "uint256",
          "name": "",
          "type": "uint256"
        }
      ],
      "stateMutability": "view",
      "type": "function"
    },
    {
      "inputs": [
        {
          "internalType": "uint256",
          "name": "tokenId",
          "type": "uint256"
        }
      ],
      "name": "tokenURI",
      "outputs": [
        {
          "internalType": "string",
          "name": "",
          "type": "string"
        }
      ],
      "stateMutability": "view",
      "type": "function"
    },
    {
      "inputs": [],
      "name": "totalSupply",
      "outputs": [
        {
          "internalType": "uint256",
          "name": "",
          "type": "uint256"
        }
      ],
      "stateMutability": "view",
      "type": "function"
    },
    {
      "inputs": [
        {
          "internalType": "address",
          "name": "from",
          "type": "address"
        },
        {
          "internalType": "address",
          "name": "to",
          "type": "address"
        },
        {
          "internalType": "uint256",
          "name": "tokenId",
          "type": "uint256"
        }
      ],
      "name": "transferFrom",
      "outputs": [],
      "stateMutability": "nonpayable",
      "type": "function"
    },
    {
      "inputs": [
        {
          "internalType": "address",
          "name": "newOwner",
          "type": "address"
        }
      ],
      "name": "transferOwnership",
      "outputs": [],
      "stateMutability": "nonpayable",
      "type": "function"
    },
    {
      "inputs": [
        {
          "internalType": "uint256",
          "name": "tokenId",
          "type": "uint256"
        },
        {
          "internalType": "uint256",
          "name": "price",
          "type": "uint256"
        }
      ],
      "name": "updateTokenPrice",
      "outputs": [
        {
          "internalType": "bool",
          "name": "",
          "type": "bool"
        }
      ],
      "stateMutability": "nonpayable",
      "type": "function"
    },
    {
      "inputs": [
        {
          "internalType": "uint256",
          "name": "id",
          "type": "uint256"
        },
        {
          "internalType": "uint256",
          "name": "price",
          "type": "uint256"
        }
      ],
      "name": "updateTransformationPrice",
      "outputs": [
        {
          "internalType": "bool",
          "name": "",
          "type": "bool"
        }
      ],
      "stateMutability": "nonpayable",
      "type": "function"
    },
    {
      "inputs": [
        {
          "internalType": "address",
          "name": "user",
          "type": "address"
        }
      ],
      "name": "userGeneratedTokens",
      "outputs": [
        {
          "internalType": "uint256[]",
          "name": "",
          "type": "uint256[]"
        }
      ],
      "stateMutability": "view",
      "type": "function"
    }
  ],
  "bytecode": "0x60806040523480156200001157600080fd5b506040518060400160405280600881526020017f7374796c656172740000000000000000000000000000000000000000000000008152506040518060400160405280600481526020017f736e667400000000000000000000000000000000000000000000000000000000815250620000966301ffc9a760e01b6200020a60201b60201c565b8160069080519060200190620000ae929190620002ea565b508060079080519060200190620000c7929190620002ea565b50620000e06380ac58cd60e01b6200020a60201b60201c565b620000f8635b5e139f60e01b6200020a60201b60201c565b6200011063780e9d6360e01b6200020a60201b60201c565b5050600062000124620002e260201b60201c565b905080600a60006101000a81548173ffffffffffffffffffffffffffffffffffffffff021916908373ffffffffffffffffffffffffffffffffffffffff1602179055508073ffffffffffffffffffffffffffffffffffffffff16600073ffffffffffffffffffffffffffffffffffffffff167f8be0079c531659141344cd1fd0a4f28419497f9722a3daafe3b4186f6b6457e060405160405180910390a35033600d60006101000a81548173ffffffffffffffffffffffffffffffffffffffff021916908373ffffffffffffffffffffffffffffffffffffffff16021790555062000405565b63ffffffff60e01b817bffffffffffffffffffffffffffffffffffffffffffffffffffffffff1916141562000276576040517f08c379a00000000000000000000000000000000000000000000000000000000081526004016200026d90620003d2565b60405180910390fd5b6001600080837bffffffffffffffffffffffffffffffffffffffffffffffffffffffff19167bffffffffffffffffffffffffffffffffffffffffffffffffffffffff1916815260200190815260200160002060006101000a81548160ff02191690831515021790555050565b600033905090565b828054600181600116156101000203166002900490600052602060002090601f016020900481019282601f106200032d57805160ff19168380011785556200035e565b828001600101855582156200035e579182015b828111156200035d57825182559160200191906001019062000340565b5b5090506200036d919062000371565b5090565b5b808211156200038c57600081600090555060010162000372565b5090565b60006200039f601c83620003f4565b91507f4552433136353a20696e76616c696420696e74657266616365206964000000006000830152602082019050919050565b60006020820190508181036000830152620003ed8162000390565b9050919050565b600082825260208201905092915050565b614cca80620004156000396000f3fe6080604052600436106101c25760003560e01c80636352211e116100f757806395d89b4111610095578063db64426411610064578063db64426414610684578063e985e9c5146106c1578063e9c7723d146106fe578063f2fde38b1461073b576101c2565b806395d89b41146105ca578063a22cb465146105f5578063b88d4fde1461061e578063c87b56dd14610647576101c2565b8063715018a6116100d1578063715018a61461050e5780637edcf18f14610525578063897925f5146105625780638da5cb5b1461059f576101c2565b80636352211e146104695780636c0360eb146104a657806370a08231146104d1576101c2565b806323b872dd116101645780634f6ccce71161013e5780634f6ccce7146103b757806358a1388f146103f45780635e45d17e146104105780636031dd951461042c576101c2565b806323b872dd146103285780632f745c591461035157806342842e0e1461038e576101c2565b8063095ea7b3116101a0578063095ea7b31461026c57806318160ddd146102955780631935ec9f146102c05780632362382d146102eb576101c2565b806301ffc9a7146101c757806306fdde0314610204578063081812fc1461022f575b600080fd5b3480156101d357600080fd5b506101ee60048036038101906101e991906135a5565b610764565b6040516101fb919061459d565b60405180910390f35b34801561021057600080fd5b506102196107cb565b60405161022691906145b8565b60405180910390f35b34801561023b57600080fd5b506102566004803603810190610251919061364b565b61086d565b6040516102639190614415565b60405180910390f35b34801561027857600080fd5b50610293600480360381019061028e9190613569565b6108f2565b005b3480156102a157600080fd5b506102aa610a0a565b6040516102b7919061493a565b60405180910390f35b3480156102cc57600080fd5b506102d5610a1b565b6040516102e29190614559565b60405180910390f35b3480156102f757600080fd5b50610312600480360381019061030d91906136c8565b610b30565b60405161031f919061459d565b60405180910390f35b34801561033457600080fd5b5061034f600480360381019061034a9190613463565b610c45565b005b34801561035d57600080fd5b5061037860048036038101906103739190613569565b610ca5565b604051610385919061493a565b60405180910390f35b34801561039a57600080fd5b506103b560048036038101906103b09190613463565b610d00565b005b3480156103c357600080fd5b506103de60048036038101906103d9919061364b565b610d20565b6040516103eb919061493a565b60405180910390f35b61040e60048036038101906104099190613674565b610d43565b005b61042a6004803603810190610425919061364b565b610edc565b005b34801561043857600080fd5b50610453600480360381019061044e91906133e8565b6111a3565b604051610460919061493a565b60405180910390f35b34801561047557600080fd5b50610490600480360381019061048b919061364b565b611410565b60405161049d9190614415565b60405180910390f35b3480156104b257600080fd5b506104bb611447565b6040516104c891906145b8565b60405180910390f35b3480156104dd57600080fd5b506104f860048036038101906104f39190613383565b6114e9565b604051610505919061493a565b60405180910390f35b34801561051a57600080fd5b506105236115a8565b005b34801561053157600080fd5b5061054c6004803603810190610547919061364b565b611700565b6040516105599190614415565b60405180910390f35b34801561056e57600080fd5b50610589600480360381019061058491906136c8565b6117a3565b604051610596919061459d565b60405180910390f35b3480156105ab57600080fd5b506105b4611930565b6040516105c19190614415565b60405180910390f35b3480156105d657600080fd5b506105df61195a565b6040516105ec91906145b8565b60405180910390f35b34801561060157600080fd5b5061061c6004803603810190610617919061352d565b6119fc565b005b34801561062a57600080fd5b50610645600480360381019061064091906134b2565b611b7d565b005b34801561065357600080fd5b5061066e6004803603810190610669919061364b565b611bdf565b60405161067b91906145b8565b60405180910390f35b34801561069057600080fd5b506106ab60048036038101906106a691906135f7565b611d6a565b6040516106b8919061493a565b60405180910390f35b3480156106cd57600080fd5b506106e860048036038101906106e391906133ac565b611e9e565b6040516106f5919061459d565b60405180910390f35b34801561070a57600080fd5b5061072560048036038101906107209190613383565b611f32565b604051610732919061457b565b60405180910390f35b34801561074757600080fd5b50610762600480360381019061075d9190613383565b612054565b005b6000806000837bffffffffffffffffffffffffffffffffffffffffffffffffffffffff19167bffffffffffffffffffffffffffffffffffffffffffffffffffffffff1916815260200190815260200160002060009054906101000a900460ff169050919050565b606060068054600181600116156101000203166002900480601f0160208091040260200160405190810160405280929190818152602001828054600181600116156101000203166002900480156108635780601f1061083857610100808354040283529160200191610863565b820191906000526020600020905b81548152906001019060200180831161084657829003601f168201915b5050505050905090565b60006108788261221b565b6108b7576040517f08c379a00000000000000000000000000000000000000000000000000000000081526004016108ae906147da565b60405180910390fd5b6004600083815260200190815260200160002060009054906101000a900473ffffffffffffffffffffffffffffffffffffffff169050919050565b60006108fd82611410565b90508073ffffffffffffffffffffffffffffffffffffffff168373ffffffffffffffffffffffffffffffffffffffff16141561096e576040517f08c379a00000000000000000000000000000000000000000000000000000000081526004016109659061487a565b60405180910390fd5b8073ffffffffffffffffffffffffffffffffffffffff1661098d612238565b73ffffffffffffffffffffffffffffffffffffffff1614806109bc57506109bb816109b6612238565b611e9e565b5b6109fb576040517f08c379a00000000000000000000000000000000000000000000000000000000081526004016109f29061471a565b60405180910390fd5b610a058383612240565b505050565b6000610a1660026122f9565b905090565b60606010805480602002602001604051908101604052809291908181526020016000905b82821015610b2757838290600052602060002090600302016040518060600160405290816000820154815260200160018201548152602001600282018054600181600116156101000203166002900480601f016020809104026020016040519081016040528092919081815260200182805460018160011615610100020316600290048015610b0f5780601f10610ae457610100808354040283529160200191610b0f565b820191906000526020600020905b815481529060010190602001808311610af257829003601f168201915b50505050508152505081526020019060010190610a3f565b50505050905090565b6000610b3a612238565b73ffffffffffffffffffffffffffffffffffffffff16600a60009054906101000a900473ffffffffffffffffffffffffffffffffffffffff1673ffffffffffffffffffffffffffffffffffffffff1614610bc9576040517f08c379a0000000000000000000000000000000000000000000000000000000008152600401610bc09061481a565b60405180910390fd5b60005b601080549050811015610c39578360108281548110610be757fe5b9060005260206000209060030201600001541415610c2c578260108281548110610c0d57fe5b9060005260206000209060030201600101819055506001915050610c3f565b8080600101915050610bcc565b50600090505b92915050565b610c56610c50612238565b8261230e565b610c95576040517f08c379a0000000000000000000000000000000000000000000000000000000008152600401610c8c906148ba565b60405180910390fd5b610ca08383836123ec565b505050565b6000610cf882600160008673ffffffffffffffffffffffffffffffffffffffff1673ffffffffffffffffffffffffffffffffffffffff16815260200190815260200160002061260390919063ffffffff16565b905092915050565b610d1b83838360405180602001604052806000815250611b7d565b505050565b600080610d3783600261261d90919063ffffffff16565b50905080915050919050565b81346000805b601080549050811015610dee578360108281548110610d6457fe5b9060005260206000209060030201600001541415610de157600191508260108281548110610d8e57fe5b90600052602060002090600302016001015414610de0576040517f08c379a0000000000000000000000000000000000000000000000000000000008152600401610dd7906148fa565b60405180910390fd5b5b8080600101915050610d49565b5080610e2f576040517f08c379a0000000000000000000000000000000000000000000000000000000008152600401610e26906146da565b60405180910390fd5b600d60009054906101000a900473ffffffffffffffffffffffffffffffffffffffff1673ffffffffffffffffffffffffffffffffffffffff166108fc349081150290604051600060405180830381858888f19350505050158015610e97573d6000803e3d6000fd5b507fb4b3eea958fd79328ea998403a758ad1a0d9db9c72633bbf4b014b934939ae9033348787604051610ecd94939291906144b3565b60405180910390a15050505050565b80600e600082815260200190815260200160002060030160009054906101000a900460ff16610f40576040517f08c379a0000000000000000000000000000000000000000000000000000000008152600401610f37906146ba565b60405180910390fd5b60001515600e600083815260200190815260200160002060030160019054906101000a900460ff16151514610faa576040517f08c379a0000000000000000000000000000000000000000000000000000000008152600401610fa1906147ba565b60405180910390fd5b33826014600e60008381526020019081526020016000206001015401421015611072578173ffffffffffffffffffffffffffffffffffffffff16600e600083815260200190815260200160002060000160009054906101000a900473ffffffffffffffffffffffffffffffffffffffff1673ffffffffffffffffffffffffffffffffffffffff1614611071576040517f08c379a00000000000000000000000000000000000000000000000000000000081526004016110689061475a565b60405180910390fd5b5b600e60008581526020019081526020016000206002015434146110ca576040517f08c379a00000000000000000000000000000000000000000000000000000000081526004016110c19061491a565b60405180910390fd5b600d60009054906101000a900473ffffffffffffffffffffffffffffffffffffffff1673ffffffffffffffffffffffffffffffffffffffff166108fc349081150290604051600060405180830381858888f19350505050158015611132573d6000803e3d6000fd5b506001600e600086815260200190815260200160002060030160016101000a81548160ff0219169083151502179055507fe73afeaacaf168c89f8eca1d95b1e592a2a43d550dd0e3de98218e418a198f453334866040516111959392919061447c565b60405180910390a150505050565b60006111ad612238565b73ffffffffffffffffffffffffffffffffffffffff16600a60009054906101000a900473ffffffffffffffffffffffffffffffffffffffff1673ffffffffffffffffffffffffffffffffffffffff161461123c576040517f08c379a00000000000000000000000000000000000000000000000000000000081526004016112339061481a565b60405180910390fd5b611246600b612649565b6000611252600b61265f565b905061125e868261266d565b61126881856127fb565b6040518060a001604052808673ffffffffffffffffffffffffffffffffffffffff16815260200142815260200184815260200160011515815260200160001515815250600e600083815260200190815260200160002060008201518160000160006101000a81548173ffffffffffffffffffffffffffffffffffffffff021916908373ffffffffffffffffffffffffffffffffffffffff160217905550602082015181600101556040820151816002015560608201518160030160006101000a81548160ff02191690831515021790555060808201518160030160016101000a81548160ff021916908315150217905550905050600f60008673ffffffffffffffffffffffffffffffffffffffff1673ffffffffffffffffffffffffffffffffffffffff1681526020019081526020016000206000018190806001815401808255809150506001900390600052602060002001600090919091909150557f9bc29a7be16d04de3c353003faca2ab9ecae65d0443b11bcc70d01948a78a3d886868387876040516113fc9594939291906144ff565b60405180910390a180915050949350505050565b600061144082604051806060016040528060298152602001614c6c60299139600261286f9092919063ffffffff16565b9050919050565b606060098054600181600116156101000203166002900480601f0160208091040260200160405190810160405280929190818152602001828054600181600116156101000203166002900480156114df5780601f106114b4576101008083540402835291602001916114df565b820191906000526020600020905b8154815290600101906020018083116114c257829003601f168201915b5050505050905090565b60008073ffffffffffffffffffffffffffffffffffffffff168273ffffffffffffffffffffffffffffffffffffffff16141561155a576040517f08c379a00000000000000000000000000000000000000000000000000000000081526004016115519061473a565b60405180910390fd5b6115a1600160008473ffffffffffffffffffffffffffffffffffffffff1673ffffffffffffffffffffffffffffffffffffffff16815260200190815260200160002061288e565b9050919050565b6115b0612238565b73ffffffffffffffffffffffffffffffffffffffff16600a60009054906101000a900473ffffffffffffffffffffffffffffffffffffffff1673ffffffffffffffffffffffffffffffffffffffff161461163f576040517f08c379a00000000000000000000000000000000000000000000000000000000081526004016116369061481a565b60405180910390fd5b600073ffffffffffffffffffffffffffffffffffffffff16600a60009054906101000a900473ffffffffffffffffffffffffffffffffffffffff1673ffffffffffffffffffffffffffffffffffffffff167f8be0079c531659141344cd1fd0a4f28419497f9722a3daafe3b4186f6b6457e060405160405180910390a36000600a60006101000a81548173ffffffffffffffffffffffffffffffffffffffff021916908373ffffffffffffffffffffffffffffffffffffffff160217905550565b6000600e600083815260200190815260200160002060030160009054906101000a900460ff16611765576040517f08c379a000000000000000000000000000000000000000000000000000000000815260040161175c906145da565b60405180910390fd5b600e600083815260200190815260200160002060000160009054906101000a900473ffffffffffffffffffffffffffffffffffffffff169050919050565b60006117ad612238565b73ffffffffffffffffffffffffffffffffffffffff16600a60009054906101000a900473ffffffffffffffffffffffffffffffffffffffff1673ffffffffffffffffffffffffffffffffffffffff161461183c576040517f08c379a00000000000000000000000000000000000000000000000000000000081526004016118339061481a565b60405180910390fd5b82600e600082815260200190815260200160002060030160009054906101000a900460ff166118a0576040517f08c379a0000000000000000000000000000000000000000000000000000000008152600401611897906146ba565b60405180910390fd5b60001515600e600083815260200190815260200160002060030160019054906101000a900460ff1615151461190a576040517f08c379a0000000000000000000000000000000000000000000000000000000008152600401611901906147ba565b60405180910390fd5b82600e600086815260200190815260200160002060020181905550600191505092915050565b6000600a60009054906101000a900473ffffffffffffffffffffffffffffffffffffffff16905090565b606060078054600181600116156101000203166002900480601f0160208091040260200160405190810160405280929190818152602001828054600181600116156101000203166002900480156119f25780601f106119c7576101008083540402835291602001916119f2565b820191906000526020600020905b8154815290600101906020018083116119d557829003601f168201915b5050505050905090565b611a04612238565b73ffffffffffffffffffffffffffffffffffffffff168273ffffffffffffffffffffffffffffffffffffffff161415611a72576040517f08c379a0000000000000000000000000000000000000000000000000000000008152600401611a699061469a565b60405180910390fd5b8060056000611a7f612238565b73ffffffffffffffffffffffffffffffffffffffff1673ffffffffffffffffffffffffffffffffffffffff16815260200190815260200160002060008473ffffffffffffffffffffffffffffffffffffffff1673ffffffffffffffffffffffffffffffffffffffff16815260200190815260200160002060006101000a81548160ff0219169083151502179055508173ffffffffffffffffffffffffffffffffffffffff16611b2c612238565b73ffffffffffffffffffffffffffffffffffffffff167f17307eab39ab6107e8899845ad3d59bd9653f200f220920489ca2b5937696c3183604051611b71919061459d565b60405180910390a35050565b611b8e611b88612238565b8361230e565b611bcd576040517f08c379a0000000000000000000000000000000000000000000000000000000008152600401611bc4906148ba565b60405180910390fd5b611bd9848484846128a3565b50505050565b6060611bea8261221b565b611c29576040517f08c379a0000000000000000000000000000000000000000000000000000000008152600401611c209061485a565b60405180910390fd5b6060600860008481526020019081526020016000208054600181600116156101000203166002900480601f016020809104026020016040519081016040528092919081815260200182805460018160011615610100020316600290048015611cd25780601f10611ca757610100808354040283529160200191611cd2565b820191906000526020600020905b815481529060010190602001808311611cb557829003601f168201915b50505050509050600060098054600181600116156101000203166002900490501415611d015780915050611d65565b600081511115611d3657600981604051602001611d1f9291906143f1565b604051602081830303815290604052915050611d65565b6009611d41846128ff565b604051602001611d529291906143f1565b6040516020818303038152906040529150505b919050565b6000611d74612238565b73ffffffffffffffffffffffffffffffffffffffff16600a60009054906101000a900473ffffffffffffffffffffffffffffffffffffffff1673ffffffffffffffffffffffffffffffffffffffff1614611e03576040517f08c379a0000000000000000000000000000000000000000000000000000000008152600401611dfa9061481a565b60405180910390fd5b611e0d600c612649565b6000611e19600c61265f565b90506010604051806060016040528083815260200185815260200186815250908060018154018082558091505060019003906000526020600020906003020160009091909190915060008201518160000155602082015181600101556040820151816002019080519060200190611e919291906131d5565b5050508091505092915050565b6000600560008473ffffffffffffffffffffffffffffffffffffffff1673ffffffffffffffffffffffffffffffffffffffff16815260200190815260200160002060008373ffffffffffffffffffffffffffffffffffffffff1673ffffffffffffffffffffffffffffffffffffffff16815260200190815260200160002060009054906101000a900460ff16905092915050565b60606000600f60008473ffffffffffffffffffffffffffffffffffffffff1673ffffffffffffffffffffffffffffffffffffffff1681526020019081526020016000206000018054905011611fbc576040517f08c379a0000000000000000000000000000000000000000000000000000000008152600401611fb39061489a565b60405180910390fd5b600f60008373ffffffffffffffffffffffffffffffffffffffff1673ffffffffffffffffffffffffffffffffffffffff16815260200190815260200160002060000180548060200260200160405190810160405280929190818152602001828054801561204857602002820191906000526020600020905b815481526020019060010190808311612034575b50505050509050919050565b61205c612238565b73ffffffffffffffffffffffffffffffffffffffff16600a60009054906101000a900473ffffffffffffffffffffffffffffffffffffffff1673ffffffffffffffffffffffffffffffffffffffff16146120eb576040517f08c379a00000000000000000000000000000000000000000000000000000000081526004016120e29061481a565b60405180910390fd5b600073ffffffffffffffffffffffffffffffffffffffff168173ffffffffffffffffffffffffffffffffffffffff16141561215b576040517f08c379a00000000000000000000000000000000000000000000000000000000081526004016121529061463a565b60405180910390fd5b8073ffffffffffffffffffffffffffffffffffffffff16600a60009054906101000a900473ffffffffffffffffffffffffffffffffffffffff1673ffffffffffffffffffffffffffffffffffffffff167f8be0079c531659141344cd1fd0a4f28419497f9722a3daafe3b4186f6b6457e060405160405180910390a380600a60006101000a81548173ffffffffffffffffffffffffffffffffffffffff021916908373ffffffffffffffffffffffffffffffffffffffff16021790555050565b6000612231826002612a4690919063ffffffff16565b9050919050565b600033905090565b816004600083815260200190815260200160002060006101000a81548173ffffffffffffffffffffffffffffffffffffffff021916908373ffffffffffffffffffffffffffffffffffffffff160217905550808273ffffffffffffffffffffffffffffffffffffffff166122b383611410565b73ffffffffffffffffffffffffffffffffffffffff167f8c5be1e5ebec7d5bd14f71427d1e84f3dd0314c0f7b2291e5b200ac8c7c3b92560405160405180910390a45050565b600061230782600001612a60565b9050919050565b60006123198261221b565b612358576040517f08c379a000000000000000000000000000000000000000000000000000000000815260040161234f906146fa565b60405180910390fd5b600061236383611410565b90508073ffffffffffffffffffffffffffffffffffffffff168473ffffffffffffffffffffffffffffffffffffffff1614806123d257508373ffffffffffffffffffffffffffffffffffffffff166123ba8461086d565b73ffffffffffffffffffffffffffffffffffffffff16145b806123e357506123e28185611e9e565b5b91505092915050565b8273ffffffffffffffffffffffffffffffffffffffff1661240c82611410565b73ffffffffffffffffffffffffffffffffffffffff1614612462576040517f08c379a00000000000000000000000000000000000000000000000000000000081526004016124599061483a565b60405180910390fd5b600073ffffffffffffffffffffffffffffffffffffffff168273ffffffffffffffffffffffffffffffffffffffff1614156124d2576040517f08c379a00000000000000000000000000000000000000000000000000000000081526004016124c99061467a565b60405180910390fd5b6124dd838383612a71565b6124e8600082612240565b61253981600160008673ffffffffffffffffffffffffffffffffffffffff1673ffffffffffffffffffffffffffffffffffffffff168152602001908152602001600020612a7690919063ffffffff16565b5061258b81600160008573ffffffffffffffffffffffffffffffffffffffff1673ffffffffffffffffffffffffffffffffffffffff168152602001908152602001600020612a9090919063ffffffff16565b506125a281836002612aaa9092919063ffffffff16565b50808273ffffffffffffffffffffffffffffffffffffffff168473ffffffffffffffffffffffffffffffffffffffff167fddf252ad1be2c89b69c2b068fc378daa952ba7f163c4a11628f55a4df523b3ef60405160405180910390a4505050565b60006126128360000183612adf565b60001c905092915050565b6000806000806126308660000186612b4c565b915091508160001c8160001c9350935050509250929050565b6001816000016000828254019250508190555050565b600081600001549050919050565b600073ffffffffffffffffffffffffffffffffffffffff168273ffffffffffffffffffffffffffffffffffffffff1614156126dd576040517f08c379a00000000000000000000000000000000000000000000000000000000081526004016126d49061479a565b60405180910390fd5b6126e68161221b565b15612726576040517f08c379a000000000000000000000000000000000000000000000000000000000815260040161271d9061465a565b60405180910390fd5b61273260008383612a71565b61278381600160008573ffffffffffffffffffffffffffffffffffffffff1673ffffffffffffffffffffffffffffffffffffffff168152602001908152602001600020612a9090919063ffffffff16565b5061279a81836002612aaa9092919063ffffffff16565b50808273ffffffffffffffffffffffffffffffffffffffff16600073ffffffffffffffffffffffffffffffffffffffff167fddf252ad1be2c89b69c2b068fc378daa952ba7f163c4a11628f55a4df523b3ef60405160405180910390a45050565b6128048261221b565b612843576040517f08c379a000000000000000000000000000000000000000000000000000000000815260040161283a906147fa565b60405180910390fd5b8060086000848152602001908152602001600020908051906020019061286a9291906131d5565b505050565b6000612882846000018460001b84612bcf565b60001c90509392505050565b600061289c82600001612c60565b9050919050565b6128ae8484846123ec565b6128ba84848484612c71565b6128f9576040517f08c379a00000000000000000000000000000000000000000000000000000000081526004016128f09061461a565b60405180910390fd5b50505050565b60606000821415612947576040518060400160405280600181526020017f30000000000000000000000000000000000000000000000000000000000000008152509050612a41565b600082905060005b60008214612971578080600101915050600a828161296957fe5b04915061294f565b60608167ffffffffffffffff8111801561298a57600080fd5b506040519080825280601f01601f1916602001820160405280156129bd5781602001600182028036833780820191505090505b50905060006001830390508593505b60008414612a3957600a84816129de57fe5b0660300160f81b828280600190039350815181106129f857fe5b60200101907effffffffffffffffffffffffffffffffffffffffffffffffffffffffffffff1916908160001a905350600a8481612a3157fe5b0493506129cc565b819450505050505b919050565b6000612a58836000018360001b612dd5565b905092915050565b600081600001805490509050919050565b505050565b6000612a88836000018360001b612df8565b905092915050565b6000612aa2836000018360001b612ee0565b905092915050565b6000612ad6846000018460001b8473ffffffffffffffffffffffffffffffffffffffff1660001b612f50565b90509392505050565b600081836000018054905011612b2a576040517f08c379a0000000000000000000000000000000000000000000000000000000008152600401612b21906145fa565b60405180910390fd5b826000018281548110612b3957fe5b9060005260206000200154905092915050565b60008082846000018054905011612b98576040517f08c379a0000000000000000000000000000000000000000000000000000000008152600401612b8f9061477a565b60405180910390fd5b6000846000018481548110612ba957fe5b906000526020600020906002020190508060000154816001015492509250509250929050565b60008084600101600085815260200190815260200160002054905060008114158390612c31576040517f08c379a0000000000000000000000000000000000000000000000000000000008152600401612c2891906145b8565b60405180910390fd5b50846000016001820381548110612c4457fe5b9060005260206000209060020201600101549150509392505050565b600081600001805490509050919050565b6000612c928473ffffffffffffffffffffffffffffffffffffffff1661302c565b612c9f5760019050612dcd565b6060612d6663150b7a0260e01b612cb4612238565b888787604051602401612cca9493929190614430565b604051602081830303815290604052907bffffffffffffffffffffffffffffffffffffffffffffffffffffffff19166020820180517bffffffffffffffffffffffffffffffffffffffffffffffffffffffff8381831617835250505050604051806060016040528060328152602001614c3a603291398773ffffffffffffffffffffffffffffffffffffffff166130779092919063ffffffff16565b9050600081806020019051810190612d7e91906135ce565b905063150b7a0260e01b7bffffffffffffffffffffffffffffffffffffffffffffffffffffffff1916817bffffffffffffffffffffffffffffffffffffffffffffffffffffffff191614925050505b949350505050565b600080836001016000848152602001908152602001600020541415905092915050565b60008083600101600084815260200190815260200160002054905060008114612ed45760006001820390506000600186600001805490500390506000866000018281548110612e4357fe5b9060005260206000200154905080876000018481548110612e6057fe5b9060005260206000200181905550600183018760010160008381526020019081526020016000208190555086600001805480612e9857fe5b60019003818190600052602060002001600090559055866001016000878152602001908152602001600020600090556001945050505050612eda565b60009150505b92915050565b6000612eec838361308f565b612f45578260000182908060018154018082558091505060019003906000526020600020016000909190919091505582600001805490508360010160008481526020019081526020016000208190555060019050612f4a565b600090505b92915050565b6000808460010160008581526020019081526020016000205490506000811415612ff757846000016040518060400160405280868152602001858152509080600181540180825580915050600190039060005260206000209060020201600090919091909150600082015181600001556020820151816001015550508460000180549050856001016000868152602001908152602001600020819055506001915050613025565b8285600001600183038154811061300a57fe5b90600052602060002090600202016001018190555060009150505b9392505050565b60008060007fc5d2460186f7233c927e7db2dcc703c0e500b653ca82273b7bfad8045d85a47060001b9050833f915080821415801561306e57506000801b8214155b92505050919050565b606061308684846000856130b2565b90509392505050565b600080836001016000848152602001908152602001600020541415905092915050565b60606130bd8561302c565b6130fc576040517f08c379a00000000000000000000000000000000000000000000000000000000081526004016130f3906148da565b60405180910390fd5b600060608673ffffffffffffffffffffffffffffffffffffffff16858760405161312691906143da565b60006040518083038185875af1925050503d8060008114613163576040519150601f19603f3d011682016040523d82523d6000602084013e613168565b606091505b5091509150811561317d5780925050506131cd565b6000815111156131905780518082602001fd5b836040517f08c379a00000000000000000000000000000000000000000000000000000000081526004016131c491906145b8565b60405180910390fd5b949350505050565b828054600181600116156101000203166002900490600052602060002090601f016020900481019282601f1061321657805160ff1916838001178555613244565b82800160010185558215613244579182015b82811115613243578251825591602001919060010190613228565b5b5090506132519190613255565b5090565b5b8082111561326e576000816000905550600101613256565b5090565b60008135905061328181614bdd565b92915050565b60008135905061329681614bf4565b92915050565b6000813590506132ab81614c0b565b92915050565b6000815190506132c081614c0b565b92915050565b600082601f8301126132d757600080fd5b81356132ea6132e582614986565b614955565b9150808252602083016020830185838301111561330657600080fd5b613311838284614b88565b50505092915050565b600082601f83011261332b57600080fd5b813561333e613339826149b6565b614955565b9150808252602083016020830185838301111561335a57600080fd5b613365838284614b88565b50505092915050565b60008135905061337d81614c22565b92915050565b60006020828403121561339557600080fd5b60006133a384828501613272565b91505092915050565b600080604083850312156133bf57600080fd5b60006133cd85828601613272565b92505060206133de85828601613272565b9150509250929050565b600080600080608085870312156133fe57600080fd5b600061340c87828801613272565b945050602061341d87828801613272565b935050604085013567ffffffffffffffff81111561343a57600080fd5b6134468782880161331a565b92505060606134578782880161336e565b91505092959194509250565b60008060006060848603121561347857600080fd5b600061348686828701613272565b935050602061349786828701613272565b92505060406134a88682870161336e565b9150509250925092565b600080600080608085870312156134c857600080fd5b60006134d687828801613272565b94505060206134e787828801613272565b93505060406134f88782880161336e565b925050606085013567ffffffffffffffff81111561351557600080fd5b613521878288016132c6565b91505092959194509250565b6000806040838503121561354057600080fd5b600061354e85828601613272565b925050602061355f85828601613287565b9150509250929050565b6000806040838503121561357c57600080fd5b600061358a85828601613272565b925050602061359b8582860161336e565b9150509250929050565b6000602082840312156135b757600080fd5b60006135c58482850161329c565b91505092915050565b6000602082840312156135e057600080fd5b60006135ee848285016132b1565b91505092915050565b6000806040838503121561360a57600080fd5b600083013567ffffffffffffffff81111561362457600080fd5b6136308582860161331a565b92505060206136418582860161336e565b9150509250929050565b60006020828403121561365d57600080fd5b600061366b8482850161336e565b91505092915050565b6000806040838503121561368757600080fd5b60006136958582860161336e565b925050602083013567ffffffffffffffff8111156136b257600080fd5b6136be8582860161331a565b9150509250929050565b600080604083850312156136db57600080fd5b60006136e98582860161336e565b92505060206136fa8582860161336e565b9150509250929050565b6000613710838361436c565b905092915050565b600061372483836143bc565b60208301905092915050565b61373981614b52565b82525050565b61374881614ade565b82525050565b61375781614acc565b82525050565b600061376882614a1b565b6137728185614a61565b935083602082028501613784856149e6565b8060005b858110156137c057848403895281516137a18582613704565b94506137ac83614a47565b925060208a01995050600181019050613788565b50829750879550505050505092915050565b60006137dd82614a26565b6137e78185614a72565b93506137f2836149f6565b8060005b8381101561382357815161380a8882613718565b975061381583614a54565b9250506001810190506137f6565b5085935050505092915050565b61383981614af0565b82525050565b600061384a82614a31565b6138548185614a83565b9350613864818560208601614b97565b61386d81614bcc565b840191505092915050565b600061388382614a31565b61388d8185614a94565b935061389d818560208601614b97565b80840191505092915050565b60006138b482614a3c565b6138be8185614a9f565b93506138ce818560208601614b97565b6138d781614bcc565b840191505092915050565b60006138ed82614a3c565b6138f78185614ab0565b9350613907818560208601614b97565b61391081614bcc565b840191505092915050565b600061392682614a3c565b6139308185614ac1565b9350613940818560208601614b97565b80840191505092915050565b600081546001811660008114613969576001811461398e576139d2565b607f600283041661397a8187614ac1565b955060ff19831686528086019350506139d2565b6002820461399c8187614ac1565b95506139a785614a06565b60005b828110156139c9578154818901526001820191506020810190506139aa565b82880195505050505b505092915050565b60006139e7601383614ab0565b91507f546f6b656e20646f65736e2774206578697374000000000000000000000000006000830152602082019050919050565b6000613a27602283614ab0565b91507f456e756d657261626c655365743a20696e646578206f7574206f6620626f756e60008301527f64730000000000000000000000000000000000000000000000000000000000006020830152604082019050919050565b6000613a8d603283614ab0565b91507f4552433732313a207472616e7366657220746f206e6f6e20455243373231526560008301527f63656976657220696d706c656d656e74657200000000000000000000000000006020830152604082019050919050565b6000613af3602683614ab0565b91507f4f776e61626c653a206e6577206f776e657220697320746865207a65726f206160008301527f64647265737300000000000000000000000000000000000000000000000000006020830152604082019050919050565b6000613b59601c83614ab0565b91507f4552433732313a20746f6b656e20616c7265616479206d696e746564000000006000830152602082019050919050565b6000613b99602483614ab0565b91507f4552433732313a207472616e7366657220746f20746865207a65726f2061646460008301527f72657373000000000000000000000000000000000000000000000000000000006020830152604082019050919050565b6000613bff601983614ab0565b91507f4552433732313a20617070726f766520746f2063616c6c6572000000000000006000830152602082019050919050565b6000613c3f601483614ab0565b91507f546f6b656e20646f6573206e6f742065786973740000000000000000000000006000830152602082019050919050565b6000613c7f602683614ab0565b91507f526571756573746564207472616e73666f726d6174696f6e20646f65736e277460008301527f20657869737400000000000000000000000000000000000000000000000000006020830152604082019050919050565b6000613ce5602c83614ab0565b91507f4552433732313a206f70657261746f7220717565727920666f72206e6f6e657860008301527f697374656e7420746f6b656e00000000000000000000000000000000000000006020830152604082019050919050565b6000613d4b603883614ab0565b91507f4552433732313a20617070726f76652063616c6c6572206973206e6f74206f7760008301527f6e6572206e6f7220617070726f76656420666f7220616c6c00000000000000006020830152604082019050919050565b6000613db1602a83614ab0565b91507f4552433732313a2062616c616e636520717565727920666f7220746865207a6560008301527f726f2061646472657373000000000000000000000000000000000000000000006020830152604082019050919050565b6000613e17604483614ab0565b91507f4f6e6c792074686520706572736f6e2077686f2067656e65726174656420746860008301527f6520696d6167652063616e2062757920697420696e207468652066697273742060208301527f686f7572000000000000000000000000000000000000000000000000000000006040830152606082019050919050565b6000613ea3602283614ab0565b91507f456e756d657261626c654d61703a20696e646578206f7574206f6620626f756e60008301527f64730000000000000000000000000000000000000000000000000000000000006020830152604082019050919050565b6000613f09602083614ab0565b91507f4552433732313a206d696e7420746f20746865207a65726f20616464726573736000830152602082019050919050565b6000613f49601483614ab0565b91507f546f6b656e20616c726561647920626f756768740000000000000000000000006000830152602082019050919050565b6000613f89602c83614ab0565b91507f4552433732313a20617070726f76656420717565727920666f72206e6f6e657860008301527f697374656e7420746f6b656e00000000000000000000000000000000000000006020830152604082019050919050565b6000613fef602c83614ab0565b91507f4552433732314d657461646174613a2055524920736574206f66206e6f6e657860008301527f697374656e7420746f6b656e00000000000000000000000000000000000000006020830152604082019050919050565b6000614055602083614ab0565b91507f4f776e61626c653a2063616c6c6572206973206e6f7420746865206f776e65726000830152602082019050919050565b6000614095602983614ab0565b91507f4552433732313a207472616e73666572206f6620746f6b656e2074686174206960008301527f73206e6f74206f776e00000000000000000000000000000000000000000000006020830152604082019050919050565b60006140fb602f83614ab0565b91507f4552433732314d657461646174613a2055524920717565727920666f72206e6f60008301527f6e6578697374656e7420746f6b656e00000000000000000000000000000000006020830152604082019050919050565b6000614161602183614ab0565b91507f4552433732313a20617070726f76616c20746f2063757272656e74206f776e6560008301527f72000000000000000000000000000000000000000000000000000000000000006020830152604082019050919050565b60006141c7601c83614ab0565b91507f5573657220686173206e6f2067656e65726174656420746f6b656e73000000006000830152602082019050919050565b6000614207603183614ab0565b91507f4552433732313a207472616e736665722063616c6c6572206973206e6f74206f60008301527f776e6572206e6f7220617070726f7665640000000000000000000000000000006020830152604082019050919050565b600061426d601d83614ab0565b91507f416464726573733a2063616c6c20746f206e6f6e2d636f6e74726163740000006000830152602082019050919050565b60006142ad603183614ab0565b91507f5472616e73616374696f6e2076616c7565206d757374206d617463682074726160008301527f6e73666f726d6174696f6e2070726963650000000000000000000000000000006020830152604082019050919050565b6000614313602683614ab0565b91507f5472616e73616374696f6e2076616c7565206d757374206d61746368206e667460008301527f20707269636500000000000000000000000000000000000000000000000000006020830152604082019050919050565b600060608301600083015161438460008601826143bc565b50602083015161439760208601826143bc565b50604083015184820360408601526143af82826138a9565b9150508091505092915050565b6143c581614b48565b82525050565b6143d481614b48565b82525050565b60006143e68284613878565b915081905092915050565b60006143fd828561394c565b9150614409828461391b565b91508190509392505050565b600060208201905061442a600083018461374e565b92915050565b6000608082019050614445600083018761373f565b614452602083018661374e565b61445f60408301856143cb565b8181036060830152614471818461383f565b905095945050505050565b60006060820190506144916000830186613730565b61449e60208301856143cb565b6144ab60408301846143cb565b949350505050565b60006080820190506144c86000830187613730565b6144d560208301866143cb565b6144e260408301856143cb565b81810360608301526144f481846138e2565b905095945050505050565b600060a082019050614514600083018861374e565b614521602083018761374e565b61452e60408301866143cb565b818103606083015261454081856138e2565b905061454f60808301846143cb565b9695505050505050565b60006020820190508181036000830152614573818461375d565b905092915050565b6000602082019050818103600083015261459581846137d2565b905092915050565b60006020820190506145b26000830184613830565b92915050565b600060208201905081810360008301526145d281846138e2565b905092915050565b600060208201905081810360008301526145f3816139da565b9050919050565b6000602082019050818103600083015261461381613a1a565b9050919050565b6000602082019050818103600083015261463381613a80565b9050919050565b6000602082019050818103600083015261465381613ae6565b9050919050565b6000602082019050818103600083015261467381613b4c565b9050919050565b6000602082019050818103600083015261469381613b8c565b9050919050565b600060208201905081810360008301526146b381613bf2565b9050919050565b600060208201905081810360008301526146d381613c32565b9050919050565b600060208201905081810360008301526146f381613c72565b9050919050565b6000602082019050818103600083015261471381613cd8565b9050919050565b6000602082019050818103600083015261473381613d3e565b9050919050565b6000602082019050818103600083015261475381613da4565b9050919050565b6000602082019050818103600083015261477381613e0a565b9050919050565b6000602082019050818103600083015261479381613e96565b9050919050565b600060208201905081810360008301526147b381613efc565b9050919050565b600060208201905081810360008301526147d381613f3c565b9050919050565b600060208201905081810360008301526147f381613f7c565b9050919050565b6000602082019050818103600083015261481381613fe2565b9050919050565b6000602082019050818103600083015261483381614048565b9050919050565b6000602082019050818103600083015261485381614088565b9050919050565b60006020820190508181036000830152614873816140ee565b9050919050565b6000602082019050818103600083015261489381614154565b9050919050565b600060208201905081810360008301526148b3816141ba565b9050919050565b600060208201905081810360008301526148d3816141fa565b9050919050565b600060208201905081810360008301526148f381614260565b9050919050565b60006020820190508181036000830152614913816142a0565b9050919050565b6000602082019050818103600083015261493381614306565b9050919050565b600060208201905061494f60008301846143cb565b92915050565b6000604051905081810181811067ffffffffffffffff8211171561497c5761497b614bca565b5b8060405250919050565b600067ffffffffffffffff8211156149a1576149a0614bca565b5b601f19601f8301169050602081019050919050565b600067ffffffffffffffff8211156149d1576149d0614bca565b5b601f19601f8301169050602081019050919050565b6000819050602082019050919050565b6000819050602082019050919050565b60008190508160005260206000209050919050565b600081519050919050565b600081519050919050565b600081519050919050565b600081519050919050565b6000602082019050919050565b6000602082019050919050565b600082825260208201905092915050565b600082825260208201905092915050565b600082825260208201905092915050565b600081905092915050565b600082825260208201905092915050565b600082825260208201905092915050565b600081905092915050565b6000614ad782614b28565b9050919050565b6000614ae982614b28565b9050919050565b60008115159050919050565b60007fffffffff0000000000000000000000000000000000000000000000000000000082169050919050565b600073ffffffffffffffffffffffffffffffffffffffff82169050919050565b6000819050919050565b6000614b5d82614b64565b9050919050565b6000614b6f82614b76565b9050919050565b6000614b8182614b28565b9050919050565b82818337600083830152505050565b60005b83811015614bb5578082015181840152602081019050614b9a565b83811115614bc4576000848401525b50505050565bfe5b6000601f19601f8301169050919050565b614be681614acc565b8114614bf157600080fd5b50565b614bfd81614af0565b8114614c0857600080fd5b50565b614c1481614afc565b8114614c1f57600080fd5b50565b614c2b81614b48565b8114614c3657600080fd5b5056fe4552433732313a207472616e7366657220746f206e6f6e20455243373231526563656976657220696d706c656d656e7465724552433732313a206f776e657220717565727920666f72206e6f6e6578697374656e7420746f6b656ea2646970667358221220d02deb264b2ae25f9cf741790838a2ed9d13e81942bb94295d294dd396fd640564736f6c63430007030033",
  "linkReferences": {},
  "deployedLinkReferences": {}
}