{
  "_format": "hh-sol-artifact-1",
  "contractName": "StyleNFT",
  "sourceName": "contracts/StyleNFT.sol",
  "abi": [
    {
      "inputs": [],
      "stateMutability": "nonpayable",
      "type": "constructor"
    },
    {
      "anonymous": false,
      "inputs": [
        {
          "indexed": true,
          "internalType": "address",
          "name": "owner",
          "type": "address"
        },
        {
          "indexed": true,
          "internalType": "address",
          "name": "approved",
          "type": "address"
        },
        {
          "indexed": true,
          "internalType": "uint256",
          "name": "tokenId",
          "type": "uint256"
        }
      ],
      "name": "Approval",
      "type": "event"
    },
    {
      "anonymous": false,
      "inputs": [
        {
          "indexed": true,
          "internalType": "address",
          "name": "owner",
          "type": "address"
        },
        {
          "indexed": true,
          "internalType": "address",
          "name": "operator",
          "type": "address"
        },
        {
          "indexed": false,
          "internalType": "bool",
          "name": "approved",
          "type": "bool"
        }
      ],
      "name": "ApprovalForAll",
      "type": "event"
    },
    {
      "anonymous": false,
      "inputs": [
        {
          "indexed": false,
          "internalType": "address",
          "name": "sender",
          "type": "address"
        },
        {
          "indexed": false,
          "internalType": "uint256",
          "name": "value",
          "type": "uint256"
        },
        {
          "indexed": false,
          "internalType": "string",
          "name": "imageURL",
          "type": "string"
        }
      ],
      "name": "ImageGenerationPaid",
      "type": "event"
    },
    {
      "anonymous": false,
      "inputs": [
        {
          "indexed": false,
          "internalType": "address",
          "name": "sender",
          "type": "address"
        },
        {
          "indexed": false,
          "internalType": "uint256",
          "name": "value",
          "type": "uint256"
        },
        {
          "indexed": false,
          "internalType": "uint256",
          "name": "tokenId",
          "type": "uint256"
        }
      ],
      "name": "ImagePaid",
      "type": "event"
    },
    {
      "anonymous": false,
      "inputs": [
        {
          "indexed": true,
          "internalType": "address",
          "name": "previousOwner",
          "type": "address"
        },
        {
          "indexed": true,
          "internalType": "address",
          "name": "newOwner",
          "type": "address"
        }
      ],
      "name": "OwnershipTransferred",
      "type": "event"
    },
    {
      "anonymous": false,
      "inputs": [
        {
          "indexed": false,
          "internalType": "address",
          "name": "recipient",
          "type": "address"
        },
        {
          "indexed": false,
          "internalType": "address",
          "name": "payer",
          "type": "address"
        },
        {
          "indexed": false,
          "internalType": "uint256",
          "name": "tokenId",
          "type": "uint256"
        },
        {
          "indexed": false,
          "internalType": "string",
          "name": "tokenURI",
          "type": "string"
        },
        {
          "indexed": false,
          "internalType": "uint256",
          "name": "price",
          "type": "uint256"
        }
      ],
      "name": "TokenMinted",
      "type": "event"
    },
    {
      "anonymous": false,
      "inputs": [
        {
          "indexed": false,
          "internalType": "address",
          "name": "sender",
          "type": "address"
        },
        {
          "indexed": false,
          "internalType": "address",
          "name": "recipient",
          "type": "address"
        },
        {
          "indexed": false,
          "internalType": "uint256",
          "name": "tokenId",
          "type": "uint256"
        }
      ],
      "name": "TokenTransfered",
      "type": "event"
    },
    {
      "anonymous": false,
      "inputs": [
        {
          "indexed": true,
          "internalType": "address",
          "name": "from",
          "type": "address"
        },
        {
          "indexed": true,
          "internalType": "address",
          "name": "to",
          "type": "address"
        },
        {
          "indexed": true,
          "internalType": "uint256",
          "name": "tokenId",
          "type": "uint256"
        }
      ],
      "name": "Transfer",
      "type": "event"
    },
    {
      "inputs": [
        {
          "internalType": "string",
          "name": "name",
          "type": "string"
        },
        {
          "internalType": "uint256",
          "name": "price",
          "type": "uint256"
        }
      ],
      "name": "addTransformation",
      "outputs": [
        {
          "internalType": "uint256",
          "name": "",
          "type": "uint256"
        }
      ],
      "stateMutability": "nonpayable",
      "type": "function"
    },
    {
      "inputs": [
        {
          "internalType": "address",
          "name": "to",
          "type": "address"
        },
        {
          "internalType": "uint256",
          "name": "tokenId",
          "type": "uint256"
        }
      ],
      "name": "approve",
      "outputs": [],
      "stateMutability": "nonpayable",
      "type": "function"
    },
    {
      "inputs": [
        {
          "internalType": "address",
          "name": "owner",
          "type": "address"
        }
      ],
      "name": "balanceOf",
      "outputs": [
        {
          "internalType": "uint256",
          "name": "",
          "type": "uint256"
        }
      ],
      "stateMutability": "view",
      "type": "function"
    },
    {
      "inputs": [],
      "name": "baseURI",
      "outputs": [
        {
          "internalType": "string",
          "name": "",
          "type": "string"
        }
      ],
      "stateMutability": "view",
      "type": "function"
    },
    {
      "inputs": [
        {
          "internalType": "uint256",
          "name": "tokenId",
          "type": "uint256"
        }
      ],
      "name": "getApproved",
      "outputs": [
        {
          "internalType": "address",
          "name": "",
          "type": "address"
        }
      ],
      "stateMutability": "view",
      "type": "function"
    },
    {
      "inputs": [
        {
          "internalType": "address",
          "name": "owner",
          "type": "address"
        },
        {
          "internalType": "address",
          "name": "operator",
          "type": "address"
        }
      ],
      "name": "isApprovedForAll",
      "outputs": [
        {
          "internalType": "bool",
          "name": "",
          "type": "bool"
        }
      ],
      "stateMutability": "view",
      "type": "function"
    },
    {
      "inputs": [],
      "name": "listTransformations",
      "outputs": [
        {
          "components": [
            {
              "internalType": "uint256",
              "name": "id",
              "type": "uint256"
            },
            {
              "internalType": "string",
              "name": "name",
              "type": "string"
            },
            {
              "internalType": "uint256",
              "name": "price",
              "type": "uint256"
            }
          ],
          "internalType": "struct StyleNFT.Transformation[]",
          "name": "",
          "type": "tuple[]"
        }
      ],
      "stateMutability": "view",
      "type": "function"
    },
    {
      "inputs": [
        {
          "internalType": "address",
          "name": "recipient",
          "type": "address"
        },
        {
          "internalType": "address",
          "name": "payer",
          "type": "address"
        },
        {
          "internalType": "string",
          "name": "tokenURI",
          "type": "string"
        },
        {
          "internalType": "uint256",
          "name": "price",
          "type": "uint256"
        }
      ],
      "name": "mintNFT",
      "outputs": [
        {
          "internalType": "uint256",
          "name": "",
          "type": "uint256"
        }
      ],
      "stateMutability": "nonpayable",
      "type": "function"
    },
    {
      "inputs": [],
      "name": "name",
      "outputs": [
        {
          "internalType": "string",
          "name": "",
          "type": "string"
        }
      ],
      "stateMutability": "view",
      "type": "function"
    },
    {
      "inputs": [],
      "name": "owner",
      "outputs": [
        {
          "internalType": "address",
          "name": "",
          "type": "address"
        }
      ],
      "stateMutability": "view",
      "type": "function"
    },
    {
      "inputs": [
        {
          "internalType": "uint256",
          "name": "tokenId",
          "type": "uint256"
        }
      ],
      "name": "ownerOf",
      "outputs": [
        {
          "internalType": "address",
          "name": "",
          "type": "address"
        }
      ],
      "stateMutability": "view",
      "type": "function"
    },
    {
      "inputs": [
        {
          "internalType": "string",
          "name": "imageUrl",
          "type": "string"
        }
      ],
      "name": "payGenerating",
      "outputs": [],
      "stateMutability": "payable",
      "type": "function"
    },
    {
      "inputs": [
        {
          "internalType": "uint256",
          "name": "tokenId",
          "type": "uint256"
        }
      ],
      "name": "payImage",
      "outputs": [],
      "stateMutability": "payable",
      "type": "function"
    },
    {
      "inputs": [
        {
          "internalType": "uint256",
          "name": "tokenId",
          "type": "uint256"
        }
      ],
      "name": "payerOf",
      "outputs": [
        {
          "internalType": "address",
          "name": "",
          "type": "address"
        }
      ],
      "stateMutability": "view",
      "type": "function"
    },
    {
      "inputs": [],
      "name": "renounceOwnership",
      "outputs": [],
      "stateMutability": "nonpayable",
      "type": "function"
    },
    {
      "inputs": [
        {
          "internalType": "address",
          "name": "from",
          "type": "address"
        },
        {
          "internalType": "address",
          "name": "to",
          "type": "address"
        },
        {
          "internalType": "uint256",
          "name": "tokenId",
          "type": "uint256"
        }
      ],
      "name": "safeTransferFrom",
      "outputs": [],
      "stateMutability": "nonpayable",
      "type": "function"
    },
    {
      "inputs": [
        {
          "internalType": "address",
          "name": "from",
          "type": "address"
        },
        {
          "internalType": "address",
          "name": "to",
          "type": "address"
        },
        {
          "internalType": "uint256",
          "name": "tokenId",
          "type": "uint256"
        },
        {
          "internalType": "bytes",
          "name": "_data",
          "type": "bytes"
        }
      ],
      "name": "safeTransferFrom",
      "outputs": [],
      "stateMutability": "nonpayable",
      "type": "function"
    },
    {
      "inputs": [
        {
          "internalType": "address",
          "name": "operator",
          "type": "address"
        },
        {
          "internalType": "bool",
          "name": "approved",
          "type": "bool"
        }
      ],
      "name": "setApprovalForAll",
      "outputs": [],
      "stateMutability": "nonpayable",
      "type": "function"
    },
    {
      "inputs": [
        {
          "internalType": "bytes4",
          "name": "interfaceId",
          "type": "bytes4"
        }
      ],
      "name": "supportsInterface",
      "outputs": [
        {
          "internalType": "bool",
          "name": "",
          "type": "bool"
        }
      ],
      "stateMutability": "view",
      "type": "function"
    },
    {
      "inputs": [],
      "name": "symbol",
      "outputs": [
        {
          "internalType": "string",
          "name": "",
          "type": "string"
        }
      ],
      "stateMutability": "view",
      "type": "function"
    },
    {
      "inputs": [
        {
          "internalType": "uint256",
          "name": "index",
          "type": "uint256"
        }
      ],
      "name": "tokenByIndex",
      "outputs": [
        {
          "internalType": "uint256",
          "name": "",
          "type": "uint256"
        }
      ],
      "stateMutability": "view",
      "type": "function"
    },
    {
      "inputs": [
        {
          "internalType": "address",
          "name": "owner",
          "type": "address"
        },
        {
          "internalType": "uint256",
          "name": "index",
          "type": "uint256"
        }
      ],
      "name": "tokenOfOwnerByIndex",
      "outputs": [
        {
          "internalType": "uint256",
          "name": "",
          "type": "uint256"
        }
      ],
      "stateMutability": "view",
      "type": "function"
    },
    {
      "inputs": [
        {
          "internalType": "uint256",
          "name": "tokenId",
          "type": "uint256"
        }
      ],
      "name": "tokenURI",
      "outputs": [
        {
          "internalType": "string",
          "name": "",
          "type": "string"
        }
      ],
      "stateMutability": "view",
      "type": "function"
    },
    {
      "inputs": [],
      "name": "totalSupply",
      "outputs": [
        {
          "internalType": "uint256",
          "name": "",
          "type": "uint256"
        }
      ],
      "stateMutability": "view",
      "type": "function"
    },
    {
      "inputs": [
        {
          "internalType": "address",
          "name": "from",
          "type": "address"
        },
        {
          "internalType": "address",
          "name": "to",
          "type": "address"
        },
        {
          "internalType": "uint256",
          "name": "tokenId",
          "type": "uint256"
        }
      ],
      "name": "transferFrom",
      "outputs": [],
      "stateMutability": "nonpayable",
      "type": "function"
    },
    {
      "inputs": [
        {
          "internalType": "address",
          "name": "newOwner",
          "type": "address"
        }
      ],
      "name": "transferOwnership",
      "outputs": [],
      "stateMutability": "nonpayable",
      "type": "function"
    },
    {
      "inputs": [
        {
          "internalType": "uint256",
          "name": "id",
          "type": "uint256"
        },
        {
          "internalType": "uint256",
          "name": "price",
          "type": "uint256"
        }
      ],
      "name": "updateTransformationPrice",
      "outputs": [
        {
          "internalType": "bool",
          "name": "",
          "type": "bool"
        }
      ],
      "stateMutability": "nonpayable",
      "type": "function"
    },
    {
      "inputs": [
        {
          "internalType": "address",
          "name": "user",
          "type": "address"
        }
      ],
      "name": "userBoughtTokens",
      "outputs": [
        {
          "internalType": "uint256[]",
          "name": "",
          "type": "uint256[]"
        }
      ],
      "stateMutability": "view",
      "type": "function"
    },
    {
      "inputs": [
        {
          "internalType": "address",
          "name": "user",
          "type": "address"
        }
      ],
      "name": "userGeneratedTokens",
      "outputs": [
        {
          "internalType": "uint256[]",
          "name": "",
          "type": "uint256[]"
        }
      ],
      "stateMutability": "view",
      "type": "function"
    }
  ],
  "bytecode": "0x60806040523480156200001157600080fd5b506040518060400160405280600881526020017f7374796c656172740000000000000000000000000000000000000000000000008152506040518060400160405280600481526020017f736e667400000000000000000000000000000000000000000000000000000000815250620000966301ffc9a760e01b6200020a60201b60201c565b8160069080519060200190620000ae929190620002ea565b508060079080519060200190620000c7929190620002ea565b50620000e06380ac58cd60e01b6200020a60201b60201c565b620000f8635b5e139f60e01b6200020a60201b60201c565b6200011063780e9d6360e01b6200020a60201b60201c565b5050600062000124620002e260201b60201c565b905080600a60006101000a81548173ffffffffffffffffffffffffffffffffffffffff021916908373ffffffffffffffffffffffffffffffffffffffff1602179055508073ffffffffffffffffffffffffffffffffffffffff16600073ffffffffffffffffffffffffffffffffffffffff167f8be0079c531659141344cd1fd0a4f28419497f9722a3daafe3b4186f6b6457e060405160405180910390a35033600d60006101000a81548173ffffffffffffffffffffffffffffffffffffffff021916908373ffffffffffffffffffffffffffffffffffffffff16021790555062000405565b63ffffffff60e01b817bffffffffffffffffffffffffffffffffffffffffffffffffffffffff1916141562000276576040517f08c379a00000000000000000000000000000000000000000000000000000000081526004016200026d90620003d2565b60405180910390fd5b6001600080837bffffffffffffffffffffffffffffffffffffffffffffffffffffffff19167bffffffffffffffffffffffffffffffffffffffffffffffffffffffff1916815260200190815260200160002060006101000a81548160ff02191690831515021790555050565b600033905090565b828054600181600116156101000203166002900490600052602060002090601f016020900481019282601f106200032d57805160ff19168380011785556200035e565b828001600101855582156200035e579182015b828111156200035d57825182559160200191906001019062000340565b5b5090506200036d919062000371565b5090565b5b808211156200038c57600081600090555060010162000372565b5090565b60006200039f601c83620003f4565b91507f4552433136353a20696e76616c696420696e74657266616365206964000000006000830152602082019050919050565b60006020820190508181036000830152620003ed8162000390565b9050919050565b600082825260208201905092915050565b6149ce80620004156000396000f3fe6080604052600436106101c25760003560e01c80636c0360eb116100f7578063a22cb46511610095578063db64426411610064578063db64426414610684578063e985e9c5146106c1578063e9c7723d146106fe578063f2fde38b1461073b576101c2565b8063a22cb465146105d9578063b88d4fde14610602578063c19be4781461062b578063c87b56dd14610647576101c2565b80637edcf18f116100d15780637edcf18f146105095780638da5cb5b146105465780639210e5081461057157806395d89b41146105ae576101c2565b80636c0360eb1461048a57806370a08231146104b5578063715018a6146104f2576101c2565b806323b872dd116101645780634f6ccce71161013e5780634f6ccce7146103b75780635e45d17e146103f45780636031dd95146104105780636352211e1461044d576101c2565b806323b872dd146103285780632f745c591461035157806342842e0e1461038e576101c2565b8063095ea7b3116101a0578063095ea7b31461026c57806318160ddd146102955780631935ec9f146102c05780632362382d146102eb576101c2565b806301ffc9a7146101c757806306fdde0314610204578063081812fc1461022f575b600080fd5b3480156101d357600080fd5b506101ee60048036038101906101e991906133d6565b610764565b6040516101fb91906142e1565b60405180910390f35b34801561021057600080fd5b506102196107cb565b60405161022691906142fc565b60405180910390f35b34801561023b57600080fd5b50610256600480360381019061025191906134bd565b61086d565b6040516102639190614167565b60405180910390f35b34801561027857600080fd5b50610293600480360381019061028e919061339a565b6108f2565b005b3480156102a157600080fd5b506102aa610a0a565b6040516102b7919061463e565b60405180910390f35b3480156102cc57600080fd5b506102d5610a1b565b6040516102e2919061429d565b60405180910390f35b3480156102f757600080fd5b50610312600480360381019061030d91906134e6565b610b30565b60405161031f91906142e1565b60405180910390f35b34801561033457600080fd5b5061034f600480360381019061034a9190613294565b610c45565b005b34801561035d57600080fd5b506103786004803603810190610373919061339a565b610ca5565b604051610385919061463e565b60405180910390f35b34801561039a57600080fd5b506103b560048036038101906103b09190613294565b610d00565b005b3480156103c357600080fd5b506103de60048036038101906103d991906134bd565b610d20565b6040516103eb919061463e565b60405180910390f35b61040e600480360381019061040991906134bd565b610d43565b005b34801561041c57600080fd5b5061043760048036038101906104329190613219565b610f7e565b604051610444919061463e565b60405180910390f35b34801561045957600080fd5b50610474600480360381019061046f91906134bd565b6111c2565b6040516104819190614167565b60405180910390f35b34801561049657600080fd5b5061049f6111f9565b6040516104ac91906142fc565b60405180910390f35b3480156104c157600080fd5b506104dc60048036038101906104d791906131b4565b61129b565b6040516104e9919061463e565b60405180910390f35b3480156104fe57600080fd5b5061050761135a565b005b34801561051557600080fd5b50610530600480360381019061052b91906134bd565b6114b2565b60405161053d9190614167565b60405180910390f35b34801561055257600080fd5b5061055b611555565b6040516105689190614167565b60405180910390f35b34801561057d57600080fd5b50610598600480360381019061059391906131b4565b61157f565b6040516105a591906142bf565b60405180910390f35b3480156105ba57600080fd5b506105c36116a1565b6040516105d091906142fc565b60405180910390f35b3480156105e557600080fd5b5061060060048036038101906105fb919061335e565b611743565b005b34801561060e57600080fd5b50610629600480360381019061062491906132e3565b6118c4565b005b61064560048036038101906106409190613428565b611926565b005b34801561065357600080fd5b5061066e600480360381019061066991906134bd565b611a10565b60405161067b91906142fc565b60405180910390f35b34801561069057600080fd5b506106ab60048036038101906106a69190613469565b611b9b565b6040516106b8919061463e565b60405180910390f35b3480156106cd57600080fd5b506106e860048036038101906106e391906131dd565b611ccf565b6040516106f591906142e1565b60405180910390f35b34801561070a57600080fd5b50610725600480360381019061072091906131b4565b611d63565b60405161073291906142bf565b60405180910390f35b34801561074757600080fd5b50610762600480360381019061075d91906131b4565b611e85565b005b6000806000837bffffffffffffffffffffffffffffffffffffffffffffffffffffffff19167bffffffffffffffffffffffffffffffffffffffffffffffffffffffff1916815260200190815260200160002060009054906101000a900460ff169050919050565b606060068054600181600116156101000203166002900480601f0160208091040260200160405190810160405280929190818152602001828054600181600116156101000203166002900480156108635780601f1061083857610100808354040283529160200191610863565b820191906000526020600020905b81548152906001019060200180831161084657829003601f168201915b5050505050905090565b60006108788261204c565b6108b7576040517f08c379a00000000000000000000000000000000000000000000000000000000081526004016108ae9061451e565b60405180910390fd5b6004600083815260200190815260200160002060009054906101000a900473ffffffffffffffffffffffffffffffffffffffff169050919050565b60006108fd826111c2565b90508073ffffffffffffffffffffffffffffffffffffffff168373ffffffffffffffffffffffffffffffffffffffff16141561096e576040517f08c379a0000000000000000000000000000000000000000000000000000000008152600401610965906145be565b60405180910390fd5b8073ffffffffffffffffffffffffffffffffffffffff1661098d612069565b73ffffffffffffffffffffffffffffffffffffffff1614806109bc57506109bb816109b6612069565b611ccf565b5b6109fb576040517f08c379a00000000000000000000000000000000000000000000000000000000081526004016109f29061447e565b60405180910390fd5b610a058383612071565b505050565b6000610a16600261212a565b905090565b60606010805480602002602001604051908101604052809291908181526020016000905b82821015610b27578382906000526020600020906003020160405180606001604052908160008201548152602001600182018054600181600116156101000203166002900480601f016020809104026020016040519081016040528092919081815260200182805460018160011615610100020316600290048015610b055780601f10610ada57610100808354040283529160200191610b05565b820191906000526020600020905b815481529060010190602001808311610ae857829003601f168201915b5050505050815260200160028201548152505081526020019060010190610a3f565b50505050905090565b6000610b3a612069565b73ffffffffffffffffffffffffffffffffffffffff16600a60009054906101000a900473ffffffffffffffffffffffffffffffffffffffff1673ffffffffffffffffffffffffffffffffffffffff1614610bc9576040517f08c379a0000000000000000000000000000000000000000000000000000000008152600401610bc09061455e565b60405180910390fd5b60005b601080549050811015610c39578360108281548110610be757fe5b9060005260206000209060030201600001541415610c2c578260108281548110610c0d57fe5b9060005260206000209060030201600201819055506001915050610c3f565b8080600101915050610bcc565b50600090505b92915050565b610c56610c50612069565b8261213f565b610c95576040517f08c379a0000000000000000000000000000000000000000000000000000000008152600401610c8c906145fe565b60405180910390fd5b610ca083838361221d565b505050565b6000610cf882600160008673ffffffffffffffffffffffffffffffffffffffff1673ffffffffffffffffffffffffffffffffffffffff16815260200190815260200160002061243490919063ffffffff16565b905092915050565b610d1b838383604051806020016040528060008152506118c4565b505050565b600080610d3783600261244e90919063ffffffff16565b50905080915050919050565b33816014600e60008381526020019081526020016000206001015401421015610e0b578173ffffffffffffffffffffffffffffffffffffffff16600e600083815260200190815260200160002060000160009054906101000a900473ffffffffffffffffffffffffffffffffffffffff1673ffffffffffffffffffffffffffffffffffffffff1614610e0a576040517f08c379a0000000000000000000000000000000000000000000000000000000008152600401610e01906144be565b60405180910390fd5b5b6000600e6000858152602001908152602001600020600301546001029050803414610e6b576040517f08c379a0000000000000000000000000000000000000000000000000000000008152600401610e62906143de565b60405180910390fd5b600d60009054906101000a900473ffffffffffffffffffffffffffffffffffffffff1673ffffffffffffffffffffffffffffffffffffffff166108fc349081150290604051600060405180830381858888f19350505050158015610ed3573d6000803e3d6000fd5b50600f60003373ffffffffffffffffffffffffffffffffffffffff1673ffffffffffffffffffffffffffffffffffffffff1681526020019081526020016000206001018490806001815401808255809150506001900390600052602060002001600090919091909150557fe73afeaacaf168c89f8eca1d95b1e592a2a43d550dd0e3de98218e418a198f45333486604051610f709392919061420c565b60405180910390a150505050565b6000610f88612069565b73ffffffffffffffffffffffffffffffffffffffff16600a60009054906101000a900473ffffffffffffffffffffffffffffffffffffffff1673ffffffffffffffffffffffffffffffffffffffff1614611017576040517f08c379a000000000000000000000000000000000000000000000000000000000815260040161100e9061455e565b60405180910390fd5b611021600b61247a565b600061102d600b612490565b9050611039868261249e565b611043818561262c565b60405180608001604052808673ffffffffffffffffffffffffffffffffffffffff16815260200142815260200160011515815260200184815250600e600083815260200190815260200160002060008201518160000160006101000a81548173ffffffffffffffffffffffffffffffffffffffff021916908373ffffffffffffffffffffffffffffffffffffffff1602179055506020820151816001015560408201518160020160006101000a81548160ff02191690831515021790555060608201518160030155905050600f60008673ffffffffffffffffffffffffffffffffffffffff1673ffffffffffffffffffffffffffffffffffffffff1681526020019081526020016000206000018190806001815401808255809150506001900390600052602060002001600090919091909150557f9bc29a7be16d04de3c353003faca2ab9ecae65d0443b11bcc70d01948a78a3d886868387876040516111ae959493929190614243565b60405180910390a180915050949350505050565b60006111f2826040518060600160405280602981526020016149706029913960026126a09092919063ffffffff16565b9050919050565b606060098054600181600116156101000203166002900480601f0160208091040260200160405190810160405280929190818152602001828054600181600116156101000203166002900480156112915780601f1061126657610100808354040283529160200191611291565b820191906000526020600020905b81548152906001019060200180831161127457829003601f168201915b5050505050905090565b60008073ffffffffffffffffffffffffffffffffffffffff168273ffffffffffffffffffffffffffffffffffffffff16141561130c576040517f08c379a00000000000000000000000000000000000000000000000000000000081526004016113039061449e565b60405180910390fd5b611353600160008473ffffffffffffffffffffffffffffffffffffffff1673ffffffffffffffffffffffffffffffffffffffff1681526020019081526020016000206126bf565b9050919050565b611362612069565b73ffffffffffffffffffffffffffffffffffffffff16600a60009054906101000a900473ffffffffffffffffffffffffffffffffffffffff1673ffffffffffffffffffffffffffffffffffffffff16146113f1576040517f08c379a00000000000000000000000000000000000000000000000000000000081526004016113e89061455e565b60405180910390fd5b600073ffffffffffffffffffffffffffffffffffffffff16600a60009054906101000a900473ffffffffffffffffffffffffffffffffffffffff1673ffffffffffffffffffffffffffffffffffffffff167f8be0079c531659141344cd1fd0a4f28419497f9722a3daafe3b4186f6b6457e060405160405180910390a36000600a60006101000a81548173ffffffffffffffffffffffffffffffffffffffff021916908373ffffffffffffffffffffffffffffffffffffffff160217905550565b6000600e600083815260200190815260200160002060020160009054906101000a900460ff16611517576040517f08c379a000000000000000000000000000000000000000000000000000000000815260040161150e9061431e565b60405180910390fd5b600e600083815260200190815260200160002060000160009054906101000a900473ffffffffffffffffffffffffffffffffffffffff169050919050565b6000600a60009054906101000a900473ffffffffffffffffffffffffffffffffffffffff16905090565b60606000600f60008473ffffffffffffffffffffffffffffffffffffffff1673ffffffffffffffffffffffffffffffffffffffff1681526020019081526020016000206001018054905011611609576040517f08c379a00000000000000000000000000000000000000000000000000000000081526004016116009061445e565b60405180910390fd5b600f60008373ffffffffffffffffffffffffffffffffffffffff1673ffffffffffffffffffffffffffffffffffffffff16815260200190815260200160002060010180548060200260200160405190810160405280929190818152602001828054801561169557602002820191906000526020600020905b815481526020019060010190808311611681575b50505050509050919050565b606060078054600181600116156101000203166002900480601f0160208091040260200160405190810160405280929190818152602001828054600181600116156101000203166002900480156117395780601f1061170e57610100808354040283529160200191611739565b820191906000526020600020905b81548152906001019060200180831161171c57829003601f168201915b5050505050905090565b61174b612069565b73ffffffffffffffffffffffffffffffffffffffff168273ffffffffffffffffffffffffffffffffffffffff1614156117b9576040517f08c379a00000000000000000000000000000000000000000000000000000000081526004016117b09061441e565b60405180910390fd5b80600560006117c6612069565b73ffffffffffffffffffffffffffffffffffffffff1673ffffffffffffffffffffffffffffffffffffffff16815260200190815260200160002060008473ffffffffffffffffffffffffffffffffffffffff1673ffffffffffffffffffffffffffffffffffffffff16815260200190815260200160002060006101000a81548160ff0219169083151502179055508173ffffffffffffffffffffffffffffffffffffffff16611873612069565b73ffffffffffffffffffffffffffffffffffffffff167f17307eab39ab6107e8899845ad3d59bd9653f200f220920489ca2b5937696c31836040516118b891906142e1565b60405180910390a35050565b6118d56118cf612069565b8361213f565b611914576040517f08c379a000000000000000000000000000000000000000000000000000000000815260040161190b906145fe565b60405180910390fd5b611920848484846126d4565b50505050565b60003414611969576040517f08c379a00000000000000000000000000000000000000000000000000000000081526004016119609061439e565b60405180910390fd5b600d60009054906101000a900473ffffffffffffffffffffffffffffffffffffffff1673ffffffffffffffffffffffffffffffffffffffff166108fc349081150290604051600060405180830381858888f193505050501580156119d1573d6000803e3d6000fd5b507fcf407d7cf32eb45bbe6d84b6c0499daec1dc1a74958122ba6972fc38b94927d0333483604051611a05939291906141ce565b60405180910390a150565b6060611a1b8261204c565b611a5a576040517f08c379a0000000000000000000000000000000000000000000000000000000008152600401611a519061459e565b60405180910390fd5b6060600860008481526020019081526020016000208054600181600116156101000203166002900480601f016020809104026020016040519081016040528092919081815260200182805460018160011615610100020316600290048015611b035780601f10611ad857610100808354040283529160200191611b03565b820191906000526020600020905b815481529060010190602001808311611ae657829003601f168201915b50505050509050600060098054600181600116156101000203166002900490501415611b325780915050611b96565b600081511115611b6757600981604051602001611b50929190614143565b604051602081830303815290604052915050611b96565b6009611b7284612730565b604051602001611b83929190614143565b6040516020818303038152906040529150505b919050565b6000611ba5612069565b73ffffffffffffffffffffffffffffffffffffffff16600a60009054906101000a900473ffffffffffffffffffffffffffffffffffffffff1673ffffffffffffffffffffffffffffffffffffffff1614611c34576040517f08c379a0000000000000000000000000000000000000000000000000000000008152600401611c2b9061455e565b60405180910390fd5b611c3e600c61247a565b6000611c4a600c612490565b905060106040518060600160405280838152602001868152602001858152509080600181540180825580915050600190039060005260206000209060030201600090919091909150600082015181600001556020820151816001019080519060200190611cb8929190613006565b506040820151816002015550508091505092915050565b6000600560008473ffffffffffffffffffffffffffffffffffffffff1673ffffffffffffffffffffffffffffffffffffffff16815260200190815260200160002060008373ffffffffffffffffffffffffffffffffffffffff1673ffffffffffffffffffffffffffffffffffffffff16815260200190815260200160002060009054906101000a900460ff16905092915050565b60606000600f60008473ffffffffffffffffffffffffffffffffffffffff1673ffffffffffffffffffffffffffffffffffffffff1681526020019081526020016000206000018054905011611ded576040517f08c379a0000000000000000000000000000000000000000000000000000000008152600401611de4906145de565b60405180910390fd5b600f60008373ffffffffffffffffffffffffffffffffffffffff1673ffffffffffffffffffffffffffffffffffffffff168152602001908152602001600020600001805480602002602001604051908101604052809291908181526020018280548015611e7957602002820191906000526020600020905b815481526020019060010190808311611e65575b50505050509050919050565b611e8d612069565b73ffffffffffffffffffffffffffffffffffffffff16600a60009054906101000a900473ffffffffffffffffffffffffffffffffffffffff1673ffffffffffffffffffffffffffffffffffffffff1614611f1c576040517f08c379a0000000000000000000000000000000000000000000000000000000008152600401611f139061455e565b60405180910390fd5b600073ffffffffffffffffffffffffffffffffffffffff168173ffffffffffffffffffffffffffffffffffffffff161415611f8c576040517f08c379a0000000000000000000000000000000000000000000000000000000008152600401611f839061437e565b60405180910390fd5b8073ffffffffffffffffffffffffffffffffffffffff16600a60009054906101000a900473ffffffffffffffffffffffffffffffffffffffff1673ffffffffffffffffffffffffffffffffffffffff167f8be0079c531659141344cd1fd0a4f28419497f9722a3daafe3b4186f6b6457e060405160405180910390a380600a60006101000a81548173ffffffffffffffffffffffffffffffffffffffff021916908373ffffffffffffffffffffffffffffffffffffffff16021790555050565b600061206282600261287790919063ffffffff16565b9050919050565b600033905090565b816004600083815260200190815260200160002060006101000a81548173ffffffffffffffffffffffffffffffffffffffff021916908373ffffffffffffffffffffffffffffffffffffffff160217905550808273ffffffffffffffffffffffffffffffffffffffff166120e4836111c2565b73ffffffffffffffffffffffffffffffffffffffff167f8c5be1e5ebec7d5bd14f71427d1e84f3dd0314c0f7b2291e5b200ac8c7c3b92560405160405180910390a45050565b600061213882600001612891565b9050919050565b600061214a8261204c565b612189576040517f08c379a00000000000000000000000000000000000000000000000000000000081526004016121809061443e565b60405180910390fd5b6000612194836111c2565b90508073ffffffffffffffffffffffffffffffffffffffff168473ffffffffffffffffffffffffffffffffffffffff16148061220357508373ffffffffffffffffffffffffffffffffffffffff166121eb8461086d565b73ffffffffffffffffffffffffffffffffffffffff16145b8061221457506122138185611ccf565b5b91505092915050565b8273ffffffffffffffffffffffffffffffffffffffff1661223d826111c2565b73ffffffffffffffffffffffffffffffffffffffff1614612293576040517f08c379a000000000000000000000000000000000000000000000000000000000815260040161228a9061457e565b60405180910390fd5b600073ffffffffffffffffffffffffffffffffffffffff168273ffffffffffffffffffffffffffffffffffffffff161415612303576040517f08c379a00000000000000000000000000000000000000000000000000000000081526004016122fa906143fe565b60405180910390fd5b61230e8383836128a2565b612319600082612071565b61236a81600160008673ffffffffffffffffffffffffffffffffffffffff1673ffffffffffffffffffffffffffffffffffffffff1681526020019081526020016000206128a790919063ffffffff16565b506123bc81600160008573ffffffffffffffffffffffffffffffffffffffff1673ffffffffffffffffffffffffffffffffffffffff1681526020019081526020016000206128c190919063ffffffff16565b506123d3818360026128db9092919063ffffffff16565b50808273ffffffffffffffffffffffffffffffffffffffff168473ffffffffffffffffffffffffffffffffffffffff167fddf252ad1be2c89b69c2b068fc378daa952ba7f163c4a11628f55a4df523b3ef60405160405180910390a4505050565b60006124438360000183612910565b60001c905092915050565b600080600080612461866000018661297d565b915091508160001c8160001c9350935050509250929050565b6001816000016000828254019250508190555050565b600081600001549050919050565b600073ffffffffffffffffffffffffffffffffffffffff168273ffffffffffffffffffffffffffffffffffffffff16141561250e576040517f08c379a0000000000000000000000000000000000000000000000000000000008152600401612505906144fe565b60405180910390fd5b6125178161204c565b15612557576040517f08c379a000000000000000000000000000000000000000000000000000000000815260040161254e906143be565b60405180910390fd5b612563600083836128a2565b6125b481600160008573ffffffffffffffffffffffffffffffffffffffff1673ffffffffffffffffffffffffffffffffffffffff1681526020019081526020016000206128c190919063ffffffff16565b506125cb818360026128db9092919063ffffffff16565b50808273ffffffffffffffffffffffffffffffffffffffff16600073ffffffffffffffffffffffffffffffffffffffff167fddf252ad1be2c89b69c2b068fc378daa952ba7f163c4a11628f55a4df523b3ef60405160405180910390a45050565b6126358261204c565b612674576040517f08c379a000000000000000000000000000000000000000000000000000000000815260040161266b9061453e565b60405180910390fd5b8060086000848152602001908152602001600020908051906020019061269b929190613006565b505050565b60006126b3846000018460001b84612a00565b60001c90509392505050565b60006126cd82600001612a91565b9050919050565b6126df84848461221d565b6126eb84848484612aa2565b61272a576040517f08c379a00000000000000000000000000000000000000000000000000000000081526004016127219061435e565b60405180910390fd5b50505050565b60606000821415612778576040518060400160405280600181526020017f30000000000000000000000000000000000000000000000000000000000000008152509050612872565b600082905060005b600082146127a2578080600101915050600a828161279a57fe5b049150612780565b60608167ffffffffffffffff811180156127bb57600080fd5b506040519080825280601f01601f1916602001820160405280156127ee5781602001600182028036833780820191505090505b50905060006001830390508593505b6000841461286a57600a848161280f57fe5b0660300160f81b8282806001900393508151811061282957fe5b60200101907effffffffffffffffffffffffffffffffffffffffffffffffffffffffffffff1916908160001a905350600a848161286257fe5b0493506127fd565b819450505050505b919050565b6000612889836000018360001b612c06565b905092915050565b600081600001805490509050919050565b505050565b60006128b9836000018360001b612c29565b905092915050565b60006128d3836000018360001b612d11565b905092915050565b6000612907846000018460001b8473ffffffffffffffffffffffffffffffffffffffff1660001b612d81565b90509392505050565b60008183600001805490501161295b576040517f08c379a00000000000000000000000000000000000000000000000000000000081526004016129529061433e565b60405180910390fd5b82600001828154811061296a57fe5b9060005260206000200154905092915050565b600080828460000180549050116129c9576040517f08c379a00000000000000000000000000000000000000000000000000000000081526004016129c0906144de565b60405180910390fd5b60008460000184815481106129da57fe5b906000526020600020906002020190508060000154816001015492509250509250929050565b60008084600101600085815260200190815260200160002054905060008114158390612a62576040517f08c379a0000000000000000000000000000000000000000000000000000000008152600401612a5991906142fc565b60405180910390fd5b50846000016001820381548110612a7557fe5b9060005260206000209060020201600101549150509392505050565b600081600001805490509050919050565b6000612ac38473ffffffffffffffffffffffffffffffffffffffff16612e5d565b612ad05760019050612bfe565b6060612b9763150b7a0260e01b612ae5612069565b888787604051602401612afb9493929190614182565b604051602081830303815290604052907bffffffffffffffffffffffffffffffffffffffffffffffffffffffff19166020820180517bffffffffffffffffffffffffffffffffffffffffffffffffffffffff838183161783525050505060405180606001604052806032815260200161493e603291398773ffffffffffffffffffffffffffffffffffffffff16612ea89092919063ffffffff16565b9050600081806020019051810190612baf91906133ff565b905063150b7a0260e01b7bffffffffffffffffffffffffffffffffffffffffffffffffffffffff1916817bffffffffffffffffffffffffffffffffffffffffffffffffffffffff191614925050505b949350505050565b600080836001016000848152602001908152602001600020541415905092915050565b60008083600101600084815260200190815260200160002054905060008114612d055760006001820390506000600186600001805490500390506000866000018281548110612c7457fe5b9060005260206000200154905080876000018481548110612c9157fe5b9060005260206000200181905550600183018760010160008381526020019081526020016000208190555086600001805480612cc957fe5b60019003818190600052602060002001600090559055866001016000878152602001908152602001600020600090556001945050505050612d0b565b60009150505b92915050565b6000612d1d8383612ec0565b612d76578260000182908060018154018082558091505060019003906000526020600020016000909190919091505582600001805490508360010160008481526020019081526020016000208190555060019050612d7b565b600090505b92915050565b6000808460010160008581526020019081526020016000205490506000811415612e2857846000016040518060400160405280868152602001858152509080600181540180825580915050600190039060005260206000209060020201600090919091909150600082015181600001556020820151816001015550508460000180549050856001016000868152602001908152602001600020819055506001915050612e56565b82856000016001830381548110612e3b57fe5b90600052602060002090600202016001018190555060009150505b9392505050565b60008060007fc5d2460186f7233c927e7db2dcc703c0e500b653ca82273b7bfad8045d85a47060001b9050833f9150808214158015612e9f57506000801b8214155b92505050919050565b6060612eb78484600085612ee3565b90509392505050565b600080836001016000848152602001908152602001600020541415905092915050565b6060612eee85612e5d565b612f2d576040517f08c379a0000000000000000000000000000000000000000000000000000000008152600401612f249061461e565b60405180910390fd5b600060608673ffffffffffffffffffffffffffffffffffffffff168587604051612f57919061412c565b60006040518083038185875af1925050503d8060008114612f94576040519150601f19603f3d011682016040523d82523d6000602084013e612f99565b606091505b50915091508115612fae578092505050612ffe565b600081511115612fc15780518082602001fd5b836040517f08c379a0000000000000000000000000000000000000000000000000000000008152600401612ff591906142fc565b60405180910390fd5b949350505050565b828054600181600116156101000203166002900490600052602060002090601f016020900481019282601f1061304757805160ff1916838001178555613075565b82800160010185558215613075579182015b82811115613074578251825591602001919060010190613059565b5b5090506130829190613086565b5090565b5b8082111561309f576000816000905550600101613087565b5090565b6000813590506130b2816148e1565b92915050565b6000813590506130c7816148f8565b92915050565b6000813590506130dc8161490f565b92915050565b6000815190506130f18161490f565b92915050565b600082601f83011261310857600080fd5b813561311b6131168261468a565b614659565b9150808252602083016020830185838301111561313757600080fd5b61314283828461488c565b50505092915050565b600082601f83011261315c57600080fd5b813561316f61316a826146ba565b614659565b9150808252602083016020830185838301111561318b57600080fd5b61319683828461488c565b50505092915050565b6000813590506131ae81614926565b92915050565b6000602082840312156131c657600080fd5b60006131d4848285016130a3565b91505092915050565b600080604083850312156131f057600080fd5b60006131fe858286016130a3565b925050602061320f858286016130a3565b9150509250929050565b6000806000806080858703121561322f57600080fd5b600061323d878288016130a3565b945050602061324e878288016130a3565b935050604085013567ffffffffffffffff81111561326b57600080fd5b6132778782880161314b565b92505060606132888782880161319f565b91505092959194509250565b6000806000606084860312156132a957600080fd5b60006132b7868287016130a3565b93505060206132c8868287016130a3565b92505060406132d98682870161319f565b9150509250925092565b600080600080608085870312156132f957600080fd5b6000613307878288016130a3565b9450506020613318878288016130a3565b93505060406133298782880161319f565b925050606085013567ffffffffffffffff81111561334657600080fd5b613352878288016130f7565b91505092959194509250565b6000806040838503121561337157600080fd5b600061337f858286016130a3565b9250506020613390858286016130b8565b9150509250929050565b600080604083850312156133ad57600080fd5b60006133bb858286016130a3565b92505060206133cc8582860161319f565b9150509250929050565b6000602082840312156133e857600080fd5b60006133f6848285016130cd565b91505092915050565b60006020828403121561341157600080fd5b600061341f848285016130e2565b91505092915050565b60006020828403121561343a57600080fd5b600082013567ffffffffffffffff81111561345457600080fd5b6134608482850161314b565b91505092915050565b6000806040838503121561347c57600080fd5b600083013567ffffffffffffffff81111561349657600080fd5b6134a28582860161314b565b92505060206134b38582860161319f565b9150509250929050565b6000602082840312156134cf57600080fd5b60006134dd8482850161319f565b91505092915050565b600080604083850312156134f957600080fd5b60006135078582860161319f565b92505060206135188582860161319f565b9150509250929050565b600061352e83836140be565b905092915050565b6000613542838361410e565b60208301905092915050565b61355781614856565b82525050565b613566816147e2565b82525050565b613575816147d0565b82525050565b60006135868261471f565b6135908185614765565b9350836020820285016135a2856146ea565b8060005b858110156135de57848403895281516135bf8582613522565b94506135ca8361474b565b925060208a019950506001810190506135a6565b50829750879550505050505092915050565b60006135fb8261472a565b6136058185614776565b9350613610836146fa565b8060005b838110156136415781516136288882613536565b975061363383614758565b925050600181019050613614565b5085935050505092915050565b613657816147f4565b82525050565b600061366882614735565b6136728185614787565b935061368281856020860161489b565b61368b816148d0565b840191505092915050565b60006136a182614735565b6136ab8185614798565b93506136bb81856020860161489b565b80840191505092915050565b60006136d282614740565b6136dc81856147a3565b93506136ec81856020860161489b565b6136f5816148d0565b840191505092915050565b600061370b82614740565b61371581856147b4565b935061372581856020860161489b565b61372e816148d0565b840191505092915050565b600061374482614740565b61374e81856147c5565b935061375e81856020860161489b565b80840191505092915050565b60008154600181166000811461378757600181146137ac576137f0565b607f600283041661379881876147c5565b955060ff19831686528086019350506137f0565b600282046137ba81876147c5565b95506137c58561470a565b60005b828110156137e7578154818901526001820191506020810190506137c8565b82880195505050505b505092915050565b60006138056013836147b4565b91507f546f6b656e20646f65736e2774206578697374000000000000000000000000006000830152602082019050919050565b60006138456022836147b4565b91507f456e756d657261626c655365743a20696e646578206f7574206f6620626f756e60008301527f64730000000000000000000000000000000000000000000000000000000000006020830152604082019050919050565b60006138ab6032836147b4565b91507f4552433732313a207472616e7366657220746f206e6f6e20455243373231526560008301527f63656976657220696d706c656d656e74657200000000000000000000000000006020830152604082019050919050565b60006139116026836147b4565b91507f4f776e61626c653a206e6577206f776e657220697320746865207a65726f206160008301527f64647265737300000000000000000000000000000000000000000000000000006020830152604082019050919050565b60006139776022836147b4565b91507f4e6f7420656e6f75676820636f696e7320746f2067656e657261746520696d6160008301527f67650000000000000000000000000000000000000000000000000000000000006020830152604082019050919050565b60006139dd601c836147b4565b91507f4552433732313a20746f6b656e20616c7265616479206d696e746564000000006000830152602082019050919050565b6000613a1d6020836147b4565b91507f4e6f7420656e6f75676820636f696e7320746f207472616e73666572206e66746000830152602082019050919050565b6000613a5d6024836147b4565b91507f4552433732313a207472616e7366657220746f20746865207a65726f2061646460008301527f72657373000000000000000000000000000000000000000000000000000000006020830152604082019050919050565b6000613ac36019836147b4565b91507f4552433732313a20617070726f766520746f2063616c6c6572000000000000006000830152602082019050919050565b6000613b03602c836147b4565b91507f4552433732313a206f70657261746f7220717565727920666f72206e6f6e657860008301527f697374656e7420746f6b656e00000000000000000000000000000000000000006020830152604082019050919050565b6000613b696019836147b4565b91507f5573657220686173206e6f20626f7567687420746f6b656e73000000000000006000830152602082019050919050565b6000613ba96038836147b4565b91507f4552433732313a20617070726f76652063616c6c6572206973206e6f74206f7760008301527f6e6572206e6f7220617070726f76656420666f7220616c6c00000000000000006020830152604082019050919050565b6000613c0f602a836147b4565b91507f4552433732313a2062616c616e636520717565727920666f7220746865207a6560008301527f726f2061646472657373000000000000000000000000000000000000000000006020830152604082019050919050565b6000613c756044836147b4565b91507f4f6e6c792074686520706572736f6e2077686f2067656e65726174656420746860008301527f6520696d6167652063616e2062757920697420696e207468652066697273742060208301527f686f7572000000000000000000000000000000000000000000000000000000006040830152606082019050919050565b6000613d016022836147b4565b91507f456e756d657261626c654d61703a20696e646578206f7574206f6620626f756e60008301527f64730000000000000000000000000000000000000000000000000000000000006020830152604082019050919050565b6000613d676020836147b4565b91507f4552433732313a206d696e7420746f20746865207a65726f20616464726573736000830152602082019050919050565b6000613da7602c836147b4565b91507f4552433732313a20617070726f76656420717565727920666f72206e6f6e657860008301527f697374656e7420746f6b656e00000000000000000000000000000000000000006020830152604082019050919050565b6000613e0d602c836147b4565b91507f4552433732314d657461646174613a2055524920736574206f66206e6f6e657860008301527f697374656e7420746f6b656e00000000000000000000000000000000000000006020830152604082019050919050565b6000613e736020836147b4565b91507f4f776e61626c653a2063616c6c6572206973206e6f7420746865206f776e65726000830152602082019050919050565b6000613eb36029836147b4565b91507f4552433732313a207472616e73666572206f6620746f6b656e2074686174206960008301527f73206e6f74206f776e00000000000000000000000000000000000000000000006020830152604082019050919050565b6000613f19602f836147b4565b91507f4552433732314d657461646174613a2055524920717565727920666f72206e6f60008301527f6e6578697374656e7420746f6b656e00000000000000000000000000000000006020830152604082019050919050565b6000613f7f6021836147b4565b91507f4552433732313a20617070726f76616c20746f2063757272656e74206f776e6560008301527f72000000000000000000000000000000000000000000000000000000000000006020830152604082019050919050565b6000613fe5601c836147b4565b91507f5573657220686173206e6f2067656e65726174656420746f6b656e73000000006000830152602082019050919050565b60006140256031836147b4565b91507f4552433732313a207472616e736665722063616c6c6572206973206e6f74206f60008301527f776e6572206e6f7220617070726f7665640000000000000000000000000000006020830152604082019050919050565b600061408b601d836147b4565b91507f416464726573733a2063616c6c20746f206e6f6e2d636f6e74726163740000006000830152602082019050919050565b60006060830160008301516140d6600086018261410e565b50602083015184820360208601526140ee82826136c7565b9150506040830151614103604086018261410e565b508091505092915050565b6141178161484c565b82525050565b6141268161484c565b82525050565b60006141388284613696565b915081905092915050565b600061414f828561376a565b915061415b8284613739565b91508190509392505050565b600060208201905061417c600083018461356c565b92915050565b6000608082019050614197600083018761355d565b6141a4602083018661356c565b6141b1604083018561411d565b81810360608301526141c3818461365d565b905095945050505050565b60006060820190506141e3600083018661354e565b6141f0602083018561411d565b81810360408301526142028184613700565b9050949350505050565b6000606082019050614221600083018661354e565b61422e602083018561411d565b61423b604083018461411d565b949350505050565b600060a082019050614258600083018861356c565b614265602083018761356c565b614272604083018661411d565b81810360608301526142848185613700565b9050614293608083018461411d565b9695505050505050565b600060208201905081810360008301526142b7818461357b565b905092915050565b600060208201905081810360008301526142d981846135f0565b905092915050565b60006020820190506142f6600083018461364e565b92915050565b600060208201905081810360008301526143168184613700565b905092915050565b60006020820190508181036000830152614337816137f8565b9050919050565b6000602082019050818103600083015261435781613838565b9050919050565b600060208201905081810360008301526143778161389e565b9050919050565b6000602082019050818103600083015261439781613904565b9050919050565b600060208201905081810360008301526143b78161396a565b9050919050565b600060208201905081810360008301526143d7816139d0565b9050919050565b600060208201905081810360008301526143f781613a10565b9050919050565b6000602082019050818103600083015261441781613a50565b9050919050565b6000602082019050818103600083015261443781613ab6565b9050919050565b6000602082019050818103600083015261445781613af6565b9050919050565b6000602082019050818103600083015261447781613b5c565b9050919050565b6000602082019050818103600083015261449781613b9c565b9050919050565b600060208201905081810360008301526144b781613c02565b9050919050565b600060208201905081810360008301526144d781613c68565b9050919050565b600060208201905081810360008301526144f781613cf4565b9050919050565b6000602082019050818103600083015261451781613d5a565b9050919050565b6000602082019050818103600083015261453781613d9a565b9050919050565b6000602082019050818103600083015261455781613e00565b9050919050565b6000602082019050818103600083015261457781613e66565b9050919050565b6000602082019050818103600083015261459781613ea6565b9050919050565b600060208201905081810360008301526145b781613f0c565b9050919050565b600060208201905081810360008301526145d781613f72565b9050919050565b600060208201905081810360008301526145f781613fd8565b9050919050565b6000602082019050818103600083015261461781614018565b9050919050565b600060208201905081810360008301526146378161407e565b9050919050565b6000602082019050614653600083018461411d565b92915050565b6000604051905081810181811067ffffffffffffffff821117156146805761467f6148ce565b5b8060405250919050565b600067ffffffffffffffff8211156146a5576146a46148ce565b5b601f19601f8301169050602081019050919050565b600067ffffffffffffffff8211156146d5576146d46148ce565b5b601f19601f8301169050602081019050919050565b6000819050602082019050919050565b6000819050602082019050919050565b60008190508160005260206000209050919050565b600081519050919050565b600081519050919050565b600081519050919050565b600081519050919050565b6000602082019050919050565b6000602082019050919050565b600082825260208201905092915050565b600082825260208201905092915050565b600082825260208201905092915050565b600081905092915050565b600082825260208201905092915050565b600082825260208201905092915050565b600081905092915050565b60006147db8261482c565b9050919050565b60006147ed8261482c565b9050919050565b60008115159050919050565b60007fffffffff0000000000000000000000000000000000000000000000000000000082169050919050565b600073ffffffffffffffffffffffffffffffffffffffff82169050919050565b6000819050919050565b600061486182614868565b9050919050565b60006148738261487a565b9050919050565b60006148858261482c565b9050919050565b82818337600083830152505050565b60005b838110156148b957808201518184015260208101905061489e565b838111156148c8576000848401525b50505050565bfe5b6000601f19601f8301169050919050565b6148ea816147d0565b81146148f557600080fd5b50565b614901816147f4565b811461490c57600080fd5b50565b61491881614800565b811461492357600080fd5b50565b61492f8161484c565b811461493a57600080fd5b5056fe4552433732313a207472616e7366657220746f206e6f6e20455243373231526563656976657220696d706c656d656e7465724552433732313a206f776e657220717565727920666f72206e6f6e6578697374656e7420746f6b656ea2646970667358221220f547ebc755563c4af88b15da06fb5604e2b89394ae195e195eb8f3efbb0d489064736f6c63430007030033",
  "linkReferences": {},
  "deployedLinkReferences": {}
}