{
  "_format": "hh-sol-artifact-1",
  "contractName": "StyleNFT",
  "sourceName": "contracts/StyleNFT.sol",
  "abi": [
    {
      "inputs": [],
      "stateMutability": "nonpayable",
      "type": "constructor"
    },
    {
      "anonymous": false,
      "inputs": [
        {
          "indexed": true,
          "internalType": "address",
          "name": "owner",
          "type": "address"
        },
        {
          "indexed": true,
          "internalType": "address",
          "name": "approved",
          "type": "address"
        },
        {
          "indexed": true,
          "internalType": "uint256",
          "name": "tokenId",
          "type": "uint256"
        }
      ],
      "name": "Approval",
      "type": "event"
    },
    {
      "anonymous": false,
      "inputs": [
        {
          "indexed": true,
          "internalType": "address",
          "name": "owner",
          "type": "address"
        },
        {
          "indexed": true,
          "internalType": "address",
          "name": "operator",
          "type": "address"
        },
        {
          "indexed": false,
          "internalType": "bool",
          "name": "approved",
          "type": "bool"
        }
      ],
      "name": "ApprovalForAll",
      "type": "event"
    },
    {
      "anonymous": false,
      "inputs": [
        {
          "indexed": false,
          "internalType": "address",
          "name": "sender",
          "type": "address"
        },
        {
          "indexed": false,
          "internalType": "uint256",
          "name": "value",
          "type": "uint256"
        },
        {
          "indexed": false,
          "internalType": "uint256",
          "name": "transformationId",
          "type": "uint256"
        },
        {
          "indexed": false,
          "internalType": "string",
          "name": "imageURL",
          "type": "string"
        }
      ],
      "name": "ImageGenerationPaid",
      "type": "event"
    },
    {
      "anonymous": false,
      "inputs": [
        {
          "indexed": false,
          "internalType": "address",
          "name": "sender",
          "type": "address"
        },
        {
          "indexed": false,
          "internalType": "uint256",
          "name": "value",
          "type": "uint256"
        },
        {
          "indexed": false,
          "internalType": "uint256",
          "name": "tokenId",
          "type": "uint256"
        }
      ],
      "name": "ImagePaid",
      "type": "event"
    },
    {
      "anonymous": false,
      "inputs": [
        {
          "indexed": true,
          "internalType": "address",
          "name": "previousOwner",
          "type": "address"
        },
        {
          "indexed": true,
          "internalType": "address",
          "name": "newOwner",
          "type": "address"
        }
      ],
      "name": "OwnershipTransferred",
      "type": "event"
    },
    {
      "anonymous": false,
      "inputs": [
        {
          "indexed": false,
          "internalType": "address",
          "name": "recipient",
          "type": "address"
        },
        {
          "indexed": false,
          "internalType": "address",
          "name": "payer",
          "type": "address"
        },
        {
          "indexed": false,
          "internalType": "uint256",
          "name": "tokenId",
          "type": "uint256"
        },
        {
          "indexed": false,
          "internalType": "string",
          "name": "tokenURI",
          "type": "string"
        },
        {
          "indexed": false,
          "internalType": "uint256",
          "name": "price",
          "type": "uint256"
        }
      ],
      "name": "TokenMinted",
      "type": "event"
    },
    {
      "anonymous": false,
      "inputs": [
        {
          "indexed": true,
          "internalType": "address",
          "name": "from",
          "type": "address"
        },
        {
          "indexed": true,
          "internalType": "address",
          "name": "to",
          "type": "address"
        },
        {
          "indexed": true,
          "internalType": "uint256",
          "name": "tokenId",
          "type": "uint256"
        }
      ],
      "name": "Transfer",
      "type": "event"
    },
    {
      "inputs": [
        {
          "internalType": "string",
          "name": "name",
          "type": "string"
        },
        {
          "internalType": "uint256",
          "name": "price",
          "type": "uint256"
        },
        {
          "internalType": "uint256",
          "name": "supply",
          "type": "uint256"
        }
      ],
      "name": "addTransformation",
      "outputs": [
        {
          "internalType": "uint256",
          "name": "",
          "type": "uint256"
        }
      ],
      "stateMutability": "nonpayable",
      "type": "function"
    },
    {
      "inputs": [
        {
          "internalType": "address",
          "name": "to",
          "type": "address"
        },
        {
          "internalType": "uint256",
          "name": "tokenId",
          "type": "uint256"
        }
      ],
      "name": "approve",
      "outputs": [],
      "stateMutability": "nonpayable",
      "type": "function"
    },
    {
      "inputs": [
        {
          "internalType": "address",
          "name": "owner",
          "type": "address"
        }
      ],
      "name": "balanceOf",
      "outputs": [
        {
          "internalType": "uint256",
          "name": "",
          "type": "uint256"
        }
      ],
      "stateMutability": "view",
      "type": "function"
    },
    {
      "inputs": [],
      "name": "baseURI",
      "outputs": [
        {
          "internalType": "string",
          "name": "",
          "type": "string"
        }
      ],
      "stateMutability": "view",
      "type": "function"
    },
    {
      "inputs": [
        {
          "internalType": "uint256",
          "name": "tokenId",
          "type": "uint256"
        }
      ],
      "name": "getApproved",
      "outputs": [
        {
          "internalType": "address",
          "name": "",
          "type": "address"
        }
      ],
      "stateMutability": "view",
      "type": "function"
    },
    {
      "inputs": [
        {
          "internalType": "address",
          "name": "owner",
          "type": "address"
        },
        {
          "internalType": "address",
          "name": "operator",
          "type": "address"
        }
      ],
      "name": "isApprovedForAll",
      "outputs": [
        {
          "internalType": "bool",
          "name": "",
          "type": "bool"
        }
      ],
      "stateMutability": "view",
      "type": "function"
    },
    {
      "inputs": [],
      "name": "listTransformations",
      "outputs": [
        {
          "components": [
            {
              "internalType": "uint256",
              "name": "id",
              "type": "uint256"
            },
            {
              "internalType": "uint256",
              "name": "price",
              "type": "uint256"
            },
            {
              "internalType": "uint256",
              "name": "supply",
              "type": "uint256"
            },
            {
              "internalType": "string",
              "name": "name",
              "type": "string"
            }
          ],
          "internalType": "struct StyleNFT.Transformation[]",
          "name": "",
          "type": "tuple[]"
        }
      ],
      "stateMutability": "view",
      "type": "function"
    },
    {
      "inputs": [
        {
          "internalType": "address",
          "name": "recipient",
          "type": "address"
        },
        {
          "internalType": "address",
          "name": "payer",
          "type": "address"
        },
        {
          "internalType": "string",
          "name": "tokenURI",
          "type": "string"
        },
        {
          "internalType": "uint256",
          "name": "price",
          "type": "uint256"
        }
      ],
      "name": "mintNFT",
      "outputs": [
        {
          "internalType": "uint256",
          "name": "",
          "type": "uint256"
        }
      ],
      "stateMutability": "nonpayable",
      "type": "function"
    },
    {
      "inputs": [],
      "name": "name",
      "outputs": [
        {
          "internalType": "string",
          "name": "",
          "type": "string"
        }
      ],
      "stateMutability": "view",
      "type": "function"
    },
    {
      "inputs": [],
      "name": "owner",
      "outputs": [
        {
          "internalType": "address",
          "name": "",
          "type": "address"
        }
      ],
      "stateMutability": "view",
      "type": "function"
    },
    {
      "inputs": [
        {
          "internalType": "uint256",
          "name": "tokenId",
          "type": "uint256"
        }
      ],
      "name": "ownerOf",
      "outputs": [
        {
          "internalType": "address",
          "name": "",
          "type": "address"
        }
      ],
      "stateMutability": "view",
      "type": "function"
    },
    {
      "inputs": [
        {
          "internalType": "uint256",
          "name": "transformationId",
          "type": "uint256"
        },
        {
          "internalType": "string",
          "name": "imageUrl",
          "type": "string"
        }
      ],
      "name": "payGenerating",
      "outputs": [],
      "stateMutability": "payable",
      "type": "function"
    },
    {
      "inputs": [
        {
          "internalType": "uint256",
          "name": "tokenId",
          "type": "uint256"
        }
      ],
      "name": "payImage",
      "outputs": [],
      "stateMutability": "payable",
      "type": "function"
    },
    {
      "inputs": [
        {
          "internalType": "uint256",
          "name": "tokenId",
          "type": "uint256"
        }
      ],
      "name": "payerOf",
      "outputs": [
        {
          "internalType": "address",
          "name": "",
          "type": "address"
        }
      ],
      "stateMutability": "view",
      "type": "function"
    },
    {
      "inputs": [],
      "name": "renounceOwnership",
      "outputs": [],
      "stateMutability": "nonpayable",
      "type": "function"
    },
    {
      "inputs": [
        {
          "internalType": "address",
          "name": "from",
          "type": "address"
        },
        {
          "internalType": "address",
          "name": "to",
          "type": "address"
        },
        {
          "internalType": "uint256",
          "name": "tokenId",
          "type": "uint256"
        }
      ],
      "name": "safeTransferFrom",
      "outputs": [],
      "stateMutability": "nonpayable",
      "type": "function"
    },
    {
      "inputs": [
        {
          "internalType": "address",
          "name": "from",
          "type": "address"
        },
        {
          "internalType": "address",
          "name": "to",
          "type": "address"
        },
        {
          "internalType": "uint256",
          "name": "tokenId",
          "type": "uint256"
        },
        {
          "internalType": "bytes",
          "name": "_data",
          "type": "bytes"
        }
      ],
      "name": "safeTransferFrom",
      "outputs": [],
      "stateMutability": "nonpayable",
      "type": "function"
    },
    {
      "inputs": [
        {
          "internalType": "address",
          "name": "operator",
          "type": "address"
        },
        {
          "internalType": "bool",
          "name": "approved",
          "type": "bool"
        }
      ],
      "name": "setApprovalForAll",
      "outputs": [],
      "stateMutability": "nonpayable",
      "type": "function"
    },
    {
      "inputs": [
        {
          "internalType": "bytes4",
          "name": "interfaceId",
          "type": "bytes4"
        }
      ],
      "name": "supportsInterface",
      "outputs": [
        {
          "internalType": "bool",
          "name": "",
          "type": "bool"
        }
      ],
      "stateMutability": "view",
      "type": "function"
    },
    {
      "inputs": [],
      "name": "symbol",
      "outputs": [
        {
          "internalType": "string",
          "name": "",
          "type": "string"
        }
      ],
      "stateMutability": "view",
      "type": "function"
    },
    {
      "inputs": [
        {
          "internalType": "uint256",
          "name": "index",
          "type": "uint256"
        }
      ],
      "name": "tokenByIndex",
      "outputs": [
        {
          "internalType": "uint256",
          "name": "",
          "type": "uint256"
        }
      ],
      "stateMutability": "view",
      "type": "function"
    },
    {
      "inputs": [
        {
          "internalType": "address",
          "name": "owner",
          "type": "address"
        },
        {
          "internalType": "uint256",
          "name": "index",
          "type": "uint256"
        }
      ],
      "name": "tokenOfOwnerByIndex",
      "outputs": [
        {
          "internalType": "uint256",
          "name": "",
          "type": "uint256"
        }
      ],
      "stateMutability": "view",
      "type": "function"
    },
    {
      "inputs": [
        {
          "internalType": "uint256",
          "name": "tokenId",
          "type": "uint256"
        }
      ],
      "name": "tokenURI",
      "outputs": [
        {
          "internalType": "string",
          "name": "",
          "type": "string"
        }
      ],
      "stateMutability": "view",
      "type": "function"
    },
    {
      "inputs": [],
      "name": "totalSupply",
      "outputs": [
        {
          "internalType": "uint256",
          "name": "",
          "type": "uint256"
        }
      ],
      "stateMutability": "view",
      "type": "function"
    },
    {
      "inputs": [
        {
          "internalType": "address",
          "name": "from",
          "type": "address"
        },
        {
          "internalType": "address",
          "name": "to",
          "type": "address"
        },
        {
          "internalType": "uint256",
          "name": "tokenId",
          "type": "uint256"
        }
      ],
      "name": "transferFrom",
      "outputs": [],
      "stateMutability": "nonpayable",
      "type": "function"
    },
    {
      "inputs": [
        {
          "internalType": "address",
          "name": "newOwner",
          "type": "address"
        }
      ],
      "name": "transferOwnership",
      "outputs": [],
      "stateMutability": "nonpayable",
      "type": "function"
    },
    {
      "inputs": [
        {
          "internalType": "uint256",
          "name": "tokenId",
          "type": "uint256"
        },
        {
          "internalType": "uint256",
          "name": "price",
          "type": "uint256"
        }
      ],
      "name": "updateTokenPrice",
      "outputs": [
        {
          "internalType": "bool",
          "name": "",
          "type": "bool"
        }
      ],
      "stateMutability": "nonpayable",
      "type": "function"
    },
    {
      "inputs": [
        {
          "internalType": "uint256",
          "name": "id",
          "type": "uint256"
        },
        {
          "internalType": "uint256",
          "name": "price",
          "type": "uint256"
        }
      ],
      "name": "updateTransformationPrice",
      "outputs": [
        {
          "internalType": "bool",
          "name": "",
          "type": "bool"
        }
      ],
      "stateMutability": "nonpayable",
      "type": "function"
    },
    {
      "inputs": [
        {
          "internalType": "address",
          "name": "user",
          "type": "address"
        }
      ],
      "name": "userGeneratedTokens",
      "outputs": [
        {
          "internalType": "uint256[]",
          "name": "",
          "type": "uint256[]"
        }
      ],
      "stateMutability": "view",
      "type": "function"
    }
  ],
  "bytecode": "0x60806040523480156200001157600080fd5b506040518060400160405280600881526020017f7374796c656172740000000000000000000000000000000000000000000000008152506040518060400160405280600481526020017f736e667400000000000000000000000000000000000000000000000000000000815250620000966301ffc9a760e01b6200020a60201b60201c565b8160069080519060200190620000ae929190620002ea565b508060079080519060200190620000c7929190620002ea565b50620000e06380ac58cd60e01b6200020a60201b60201c565b620000f8635b5e139f60e01b6200020a60201b60201c565b6200011063780e9d6360e01b6200020a60201b60201c565b5050600062000124620002e260201b60201c565b905080600a60006101000a81548173ffffffffffffffffffffffffffffffffffffffff021916908373ffffffffffffffffffffffffffffffffffffffff1602179055508073ffffffffffffffffffffffffffffffffffffffff16600073ffffffffffffffffffffffffffffffffffffffff167f8be0079c531659141344cd1fd0a4f28419497f9722a3daafe3b4186f6b6457e060405160405180910390a35033600d60006101000a81548173ffffffffffffffffffffffffffffffffffffffff021916908373ffffffffffffffffffffffffffffffffffffffff16021790555062000405565b63ffffffff60e01b817bffffffffffffffffffffffffffffffffffffffffffffffffffffffff1916141562000276576040517f08c379a00000000000000000000000000000000000000000000000000000000081526004016200026d90620003d2565b60405180910390fd5b6001600080837bffffffffffffffffffffffffffffffffffffffffffffffffffffffff19167bffffffffffffffffffffffffffffffffffffffffffffffffffffffff1916815260200190815260200160002060006101000a81548160ff02191690831515021790555050565b600033905090565b828054600181600116156101000203166002900490600052602060002090601f016020900481019282601f106200032d57805160ff19168380011785556200035e565b828001600101855582156200035e579182015b828111156200035d57825182559160200191906001019062000340565b5b5090506200036d919062000371565b5090565b5b808211156200038c57600081600090555060010162000372565b5090565b60006200039f601c83620003f4565b91507f4552433136353a20696e76616c696420696e74657266616365206964000000006000830152602082019050919050565b60006020820190508181036000830152620003ed8162000390565b9050919050565b600082825260208201905092915050565b614e6480620004156000396000f3fe6080604052600436106101c25760003560e01c80636352211e116100f757806395d89b4111610095578063e3a6f8fc11610064578063e3a6f8fc14610684578063e985e9c5146106c1578063e9c7723d146106fe578063f2fde38b1461073b576101c2565b806395d89b41146105ca578063a22cb465146105f5578063b88d4fde1461061e578063c87b56dd14610647576101c2565b8063715018a6116100d1578063715018a61461050e5780637edcf18f14610525578063897925f5146105625780638da5cb5b1461059f576101c2565b80636352211e146104695780636c0360eb146104a657806370a08231146104d1576101c2565b806323b872dd116101645780634f6ccce71161013e5780634f6ccce7146103b757806358a1388f146103f45780635e45d17e146104105780636031dd951461042c576101c2565b806323b872dd146103285780632f745c591461035157806342842e0e1461038e576101c2565b8063095ea7b3116101a0578063095ea7b31461026c57806318160ddd146102955780631935ec9f146102c05780632362382d146102eb576101c2565b806301ffc9a7146101c757806306fdde0314610204578063081812fc1461022f575b600080fd5b3480156101d357600080fd5b506101ee60048036038101906101e99190613693565b610764565b6040516101fb9190614717565b60405180910390f35b34801561021057600080fd5b506102196107cb565b6040516102269190614732565b60405180910390f35b34801561023b57600080fd5b506102566004803603810190610251919061374c565b61086d565b604051610263919061458f565b60405180910390f35b34801561027857600080fd5b50610293600480360381019061028e9190613657565b6108f2565b005b3480156102a157600080fd5b506102aa610a0a565b6040516102b79190614ad4565b60405180910390f35b3480156102cc57600080fd5b506102d5610a1b565b6040516102e291906146d3565b60405180910390f35b3480156102f757600080fd5b50610312600480360381019061030d91906137c9565b610b3a565b60405161031f9190614717565b60405180910390f35b34801561033457600080fd5b5061034f600480360381019061034a9190613551565b610c4f565b005b34801561035d57600080fd5b5061037860048036038101906103739190613657565b610caf565b6040516103859190614ad4565b60405180910390f35b34801561039a57600080fd5b506103b560048036038101906103b09190613551565b610d0a565b005b3480156103c357600080fd5b506103de60048036038101906103d9919061374c565b610d2a565b6040516103eb9190614ad4565b60405180910390f35b61040e60048036038101906104099190613775565b610d4d565b005b61042a6004803603810190610425919061374c565b610fb9565b005b34801561043857600080fd5b50610453600480360381019061044e91906134d6565b611280565b6040516104609190614ad4565b60405180910390f35b34801561047557600080fd5b50610490600480360381019061048b919061374c565b6114ed565b60405161049d919061458f565b60405180910390f35b3480156104b257600080fd5b506104bb611524565b6040516104c89190614732565b60405180910390f35b3480156104dd57600080fd5b506104f860048036038101906104f39190613471565b6115c6565b6040516105059190614ad4565b60405180910390f35b34801561051a57600080fd5b50610523611685565b005b34801561053157600080fd5b5061054c6004803603810190610547919061374c565b6117dd565b604051610559919061458f565b60405180910390f35b34801561056e57600080fd5b50610589600480360381019061058491906137c9565b611880565b6040516105969190614717565b60405180910390f35b3480156105ab57600080fd5b506105b4611a0d565b6040516105c1919061458f565b60405180910390f35b3480156105d657600080fd5b506105df611a37565b6040516105ec9190614732565b60405180910390f35b34801561060157600080fd5b5061061c6004803603810190610617919061361b565b611ad9565b005b34801561062a57600080fd5b50610645600480360381019061064091906135a0565b611c5a565b005b34801561065357600080fd5b5061066e6004803603810190610669919061374c565b611cbc565b60405161067b9190614732565b60405180910390f35b34801561069057600080fd5b506106ab60048036038101906106a691906136e5565b611e47565b6040516106b89190614ad4565b60405180910390f35b3480156106cd57600080fd5b506106e860048036038101906106e3919061349a565b611f8c565b6040516106f59190614717565b60405180910390f35b34801561070a57600080fd5b5061072560048036038101906107209190613471565b612020565b60405161073291906146f5565b60405180910390f35b34801561074757600080fd5b50610762600480360381019061075d9190613471565b612142565b005b6000806000837bffffffffffffffffffffffffffffffffffffffffffffffffffffffff19167bffffffffffffffffffffffffffffffffffffffffffffffffffffffff1916815260200190815260200160002060009054906101000a900460ff169050919050565b606060068054600181600116156101000203166002900480601f0160208091040260200160405190810160405280929190818152602001828054600181600116156101000203166002900480156108635780601f1061083857610100808354040283529160200191610863565b820191906000526020600020905b81548152906001019060200180831161084657829003601f168201915b5050505050905090565b600061087882612309565b6108b7576040517f08c379a00000000000000000000000000000000000000000000000000000000081526004016108ae90614954565b60405180910390fd5b6004600083815260200190815260200160002060009054906101000a900473ffffffffffffffffffffffffffffffffffffffff169050919050565b60006108fd826114ed565b90508073ffffffffffffffffffffffffffffffffffffffff168373ffffffffffffffffffffffffffffffffffffffff16141561096e576040517f08c379a0000000000000000000000000000000000000000000000000000000008152600401610965906149f4565b60405180910390fd5b8073ffffffffffffffffffffffffffffffffffffffff1661098d612326565b73ffffffffffffffffffffffffffffffffffffffff1614806109bc57506109bb816109b6612326565b611f8c565b5b6109fb576040517f08c379a00000000000000000000000000000000000000000000000000000000081526004016109f290614894565b60405180910390fd5b610a05838361232e565b505050565b6000610a1660026123e7565b905090565b60606010805480602002602001604051908101604052809291908181526020016000905b82821015610b315783829060005260206000209060040201604051806080016040529081600082015481526020016001820154815260200160028201548152602001600382018054600181600116156101000203166002900480601f016020809104026020016040519081016040528092919081815260200182805460018160011615610100020316600290048015610b195780601f10610aee57610100808354040283529160200191610b19565b820191906000526020600020905b815481529060010190602001808311610afc57829003601f168201915b50505050508152505081526020019060010190610a3f565b50505050905090565b6000610b44612326565b73ffffffffffffffffffffffffffffffffffffffff16600a60009054906101000a900473ffffffffffffffffffffffffffffffffffffffff1673ffffffffffffffffffffffffffffffffffffffff1614610bd3576040517f08c379a0000000000000000000000000000000000000000000000000000000008152600401610bca90614994565b60405180910390fd5b60005b601080549050811015610c43578360108281548110610bf157fe5b9060005260206000209060040201600001541415610c36578260108281548110610c1757fe5b9060005260206000209060040201600101819055506001915050610c49565b8080600101915050610bd6565b50600090505b92915050565b610c60610c5a612326565b826123fc565b610c9f576040517f08c379a0000000000000000000000000000000000000000000000000000000008152600401610c9690614a54565b60405180910390fd5b610caa8383836124da565b505050565b6000610d0282600160008673ffffffffffffffffffffffffffffffffffffffff1673ffffffffffffffffffffffffffffffffffffffff1681526020019081526020016000206126f190919063ffffffff16565b905092915050565b610d2583838360405180602001604052806000815250611c5a565b505050565b600080610d4183600261270b90919063ffffffff16565b50905080915050919050565b81346000805b601080549050811015610e59578360108281548110610d6e57fe5b9060005260206000209060040201600001541415610e4c57600191508260108281548110610d9857fe5b90600052602060002090600402016001015414610dea576040517f08c379a0000000000000000000000000000000000000000000000000000000008152600401610de190614a94565b60405180910390fd5b600060108281548110610df957fe5b90600052602060002090600402016002015411610e4b576040517f08c379a0000000000000000000000000000000000000000000000000000000008152600401610e4290614a34565b60405180910390fd5b5b8080600101915050610d53565b5080610e9a576040517f08c379a0000000000000000000000000000000000000000000000000000000008152600401610e9190614854565b60405180910390fd5b60005b601080549050811015610f0b578560108281548110610eb857fe5b9060005260206000209060040201600001541415610efe57600160108281548110610edf57fe5b9060005260206000209060040201600201600082825403925050819055505b8080600101915050610e9d565b50600d60009054906101000a900473ffffffffffffffffffffffffffffffffffffffff1673ffffffffffffffffffffffffffffffffffffffff166108fc349081150290604051600060405180830381858888f19350505050158015610f74573d6000803e3d6000fd5b507fb4b3eea958fd79328ea998403a758ad1a0d9db9c72633bbf4b014b934939ae9033348787604051610faa949392919061462d565b60405180910390a15050505050565b80600e600082815260200190815260200160002060030160009054906101000a900460ff1661101d576040517f08c379a000000000000000000000000000000000000000000000000000000000815260040161101490614834565b60405180910390fd5b60001515600e600083815260200190815260200160002060030160019054906101000a900460ff16151514611087576040517f08c379a000000000000000000000000000000000000000000000000000000000815260040161107e90614934565b60405180910390fd5b33826014600e6000838152602001908152602001600020600101540142101561114f578173ffffffffffffffffffffffffffffffffffffffff16600e600083815260200190815260200160002060000160009054906101000a900473ffffffffffffffffffffffffffffffffffffffff1673ffffffffffffffffffffffffffffffffffffffff161461114e576040517f08c379a0000000000000000000000000000000000000000000000000000000008152600401611145906148d4565b60405180910390fd5b5b600e60008581526020019081526020016000206002015434146111a7576040517f08c379a000000000000000000000000000000000000000000000000000000000815260040161119e90614ab4565b60405180910390fd5b600d60009054906101000a900473ffffffffffffffffffffffffffffffffffffffff1673ffffffffffffffffffffffffffffffffffffffff166108fc349081150290604051600060405180830381858888f1935050505015801561120f573d6000803e3d6000fd5b506001600e600086815260200190815260200160002060030160016101000a81548160ff0219169083151502179055507fe73afeaacaf168c89f8eca1d95b1e592a2a43d550dd0e3de98218e418a198f45333486604051611272939291906145f6565b60405180910390a150505050565b600061128a612326565b73ffffffffffffffffffffffffffffffffffffffff16600a60009054906101000a900473ffffffffffffffffffffffffffffffffffffffff1673ffffffffffffffffffffffffffffffffffffffff1614611319576040517f08c379a000000000000000000000000000000000000000000000000000000000815260040161131090614994565b60405180910390fd5b611323600b612737565b600061132f600b61274d565b905061133b868261275b565b61134581856128e9565b6040518060a001604052808673ffffffffffffffffffffffffffffffffffffffff16815260200142815260200184815260200160011515815260200160001515815250600e600083815260200190815260200160002060008201518160000160006101000a81548173ffffffffffffffffffffffffffffffffffffffff021916908373ffffffffffffffffffffffffffffffffffffffff160217905550602082015181600101556040820151816002015560608201518160030160006101000a81548160ff02191690831515021790555060808201518160030160016101000a81548160ff021916908315150217905550905050600f60008673ffffffffffffffffffffffffffffffffffffffff1673ffffffffffffffffffffffffffffffffffffffff1681526020019081526020016000206000018190806001815401808255809150506001900390600052602060002001600090919091909150557f9bc29a7be16d04de3c353003faca2ab9ecae65d0443b11bcc70d01948a78a3d886868387876040516114d9959493929190614679565b60405180910390a180915050949350505050565b600061151d82604051806060016040528060298152602001614e0660299139600261295d9092919063ffffffff16565b9050919050565b606060098054600181600116156101000203166002900480601f0160208091040260200160405190810160405280929190818152602001828054600181600116156101000203166002900480156115bc5780601f10611591576101008083540402835291602001916115bc565b820191906000526020600020905b81548152906001019060200180831161159f57829003601f168201915b5050505050905090565b60008073ffffffffffffffffffffffffffffffffffffffff168273ffffffffffffffffffffffffffffffffffffffff161415611637576040517f08c379a000000000000000000000000000000000000000000000000000000000815260040161162e906148b4565b60405180910390fd5b61167e600160008473ffffffffffffffffffffffffffffffffffffffff1673ffffffffffffffffffffffffffffffffffffffff16815260200190815260200160002061297c565b9050919050565b61168d612326565b73ffffffffffffffffffffffffffffffffffffffff16600a60009054906101000a900473ffffffffffffffffffffffffffffffffffffffff1673ffffffffffffffffffffffffffffffffffffffff161461171c576040517f08c379a000000000000000000000000000000000000000000000000000000000815260040161171390614994565b60405180910390fd5b600073ffffffffffffffffffffffffffffffffffffffff16600a60009054906101000a900473ffffffffffffffffffffffffffffffffffffffff1673ffffffffffffffffffffffffffffffffffffffff167f8be0079c531659141344cd1fd0a4f28419497f9722a3daafe3b4186f6b6457e060405160405180910390a36000600a60006101000a81548173ffffffffffffffffffffffffffffffffffffffff021916908373ffffffffffffffffffffffffffffffffffffffff160217905550565b6000600e600083815260200190815260200160002060030160009054906101000a900460ff16611842576040517f08c379a000000000000000000000000000000000000000000000000000000000815260040161183990614754565b60405180910390fd5b600e600083815260200190815260200160002060000160009054906101000a900473ffffffffffffffffffffffffffffffffffffffff169050919050565b600061188a612326565b73ffffffffffffffffffffffffffffffffffffffff16600a60009054906101000a900473ffffffffffffffffffffffffffffffffffffffff1673ffffffffffffffffffffffffffffffffffffffff1614611919576040517f08c379a000000000000000000000000000000000000000000000000000000000815260040161191090614994565b60405180910390fd5b82600e600082815260200190815260200160002060030160009054906101000a900460ff1661197d576040517f08c379a000000000000000000000000000000000000000000000000000000000815260040161197490614834565b60405180910390fd5b60001515600e600083815260200190815260200160002060030160019054906101000a900460ff161515146119e7576040517f08c379a00000000000000000000000000000000000000000000000000000000081526004016119de90614934565b60405180910390fd5b82600e600086815260200190815260200160002060020181905550600191505092915050565b6000600a60009054906101000a900473ffffffffffffffffffffffffffffffffffffffff16905090565b606060078054600181600116156101000203166002900480601f016020809104026020016040519081016040528092919081815260200182805460018160011615610100020316600290048015611acf5780601f10611aa457610100808354040283529160200191611acf565b820191906000526020600020905b815481529060010190602001808311611ab257829003601f168201915b5050505050905090565b611ae1612326565b73ffffffffffffffffffffffffffffffffffffffff168273ffffffffffffffffffffffffffffffffffffffff161415611b4f576040517f08c379a0000000000000000000000000000000000000000000000000000000008152600401611b4690614814565b60405180910390fd5b8060056000611b5c612326565b73ffffffffffffffffffffffffffffffffffffffff1673ffffffffffffffffffffffffffffffffffffffff16815260200190815260200160002060008473ffffffffffffffffffffffffffffffffffffffff1673ffffffffffffffffffffffffffffffffffffffff16815260200190815260200160002060006101000a81548160ff0219169083151502179055508173ffffffffffffffffffffffffffffffffffffffff16611c09612326565b73ffffffffffffffffffffffffffffffffffffffff167f17307eab39ab6107e8899845ad3d59bd9653f200f220920489ca2b5937696c3183604051611c4e9190614717565b60405180910390a35050565b611c6b611c65612326565b836123fc565b611caa576040517f08c379a0000000000000000000000000000000000000000000000000000000008152600401611ca190614a54565b60405180910390fd5b611cb684848484612991565b50505050565b6060611cc782612309565b611d06576040517f08c379a0000000000000000000000000000000000000000000000000000000008152600401611cfd906149d4565b60405180910390fd5b6060600860008481526020019081526020016000208054600181600116156101000203166002900480601f016020809104026020016040519081016040528092919081815260200182805460018160011615610100020316600290048015611daf5780601f10611d8457610100808354040283529160200191611daf565b820191906000526020600020905b815481529060010190602001808311611d9257829003601f168201915b50505050509050600060098054600181600116156101000203166002900490501415611dde5780915050611e42565b600081511115611e1357600981604051602001611dfc92919061456b565b604051602081830303815290604052915050611e42565b6009611e1e846129ed565b604051602001611e2f92919061456b565b6040516020818303038152906040529150505b919050565b6000611e51612326565b73ffffffffffffffffffffffffffffffffffffffff16600a60009054906101000a900473ffffffffffffffffffffffffffffffffffffffff1673ffffffffffffffffffffffffffffffffffffffff1614611ee0576040517f08c379a0000000000000000000000000000000000000000000000000000000008152600401611ed790614994565b60405180910390fd5b611eea600c612737565b6000611ef6600c61274d565b9050601060405180608001604052808381526020018681526020018581526020018781525090806001815401808255809150506001900390600052602060002090600402016000909190919091506000820151816000015560208201518160010155604082015181600201556060820151816003019080519060200190611f7e9291906132c3565b505050809150509392505050565b6000600560008473ffffffffffffffffffffffffffffffffffffffff1673ffffffffffffffffffffffffffffffffffffffff16815260200190815260200160002060008373ffffffffffffffffffffffffffffffffffffffff1673ffffffffffffffffffffffffffffffffffffffff16815260200190815260200160002060009054906101000a900460ff16905092915050565b60606000600f60008473ffffffffffffffffffffffffffffffffffffffff1673ffffffffffffffffffffffffffffffffffffffff16815260200190815260200160002060000180549050116120aa576040517f08c379a00000000000000000000000000000000000000000000000000000000081526004016120a190614a14565b60405180910390fd5b600f60008373ffffffffffffffffffffffffffffffffffffffff1673ffffffffffffffffffffffffffffffffffffffff16815260200190815260200160002060000180548060200260200160405190810160405280929190818152602001828054801561213657602002820191906000526020600020905b815481526020019060010190808311612122575b50505050509050919050565b61214a612326565b73ffffffffffffffffffffffffffffffffffffffff16600a60009054906101000a900473ffffffffffffffffffffffffffffffffffffffff1673ffffffffffffffffffffffffffffffffffffffff16146121d9576040517f08c379a00000000000000000000000000000000000000000000000000000000081526004016121d090614994565b60405180910390fd5b600073ffffffffffffffffffffffffffffffffffffffff168173ffffffffffffffffffffffffffffffffffffffff161415612249576040517f08c379a0000000000000000000000000000000000000000000000000000000008152600401612240906147b4565b60405180910390fd5b8073ffffffffffffffffffffffffffffffffffffffff16600a60009054906101000a900473ffffffffffffffffffffffffffffffffffffffff1673ffffffffffffffffffffffffffffffffffffffff167f8be0079c531659141344cd1fd0a4f28419497f9722a3daafe3b4186f6b6457e060405160405180910390a380600a60006101000a81548173ffffffffffffffffffffffffffffffffffffffff021916908373ffffffffffffffffffffffffffffffffffffffff16021790555050565b600061231f826002612b3490919063ffffffff16565b9050919050565b600033905090565b816004600083815260200190815260200160002060006101000a81548173ffffffffffffffffffffffffffffffffffffffff021916908373ffffffffffffffffffffffffffffffffffffffff160217905550808273ffffffffffffffffffffffffffffffffffffffff166123a1836114ed565b73ffffffffffffffffffffffffffffffffffffffff167f8c5be1e5ebec7d5bd14f71427d1e84f3dd0314c0f7b2291e5b200ac8c7c3b92560405160405180910390a45050565b60006123f582600001612b4e565b9050919050565b600061240782612309565b612446576040517f08c379a000000000000000000000000000000000000000000000000000000000815260040161243d90614874565b60405180910390fd5b6000612451836114ed565b90508073ffffffffffffffffffffffffffffffffffffffff168473ffffffffffffffffffffffffffffffffffffffff1614806124c057508373ffffffffffffffffffffffffffffffffffffffff166124a88461086d565b73ffffffffffffffffffffffffffffffffffffffff16145b806124d157506124d08185611f8c565b5b91505092915050565b8273ffffffffffffffffffffffffffffffffffffffff166124fa826114ed565b73ffffffffffffffffffffffffffffffffffffffff1614612550576040517f08c379a0000000000000000000000000000000000000000000000000000000008152600401612547906149b4565b60405180910390fd5b600073ffffffffffffffffffffffffffffffffffffffff168273ffffffffffffffffffffffffffffffffffffffff1614156125c0576040517f08c379a00000000000000000000000000000000000000000000000000000000081526004016125b7906147f4565b60405180910390fd5b6125cb838383612b5f565b6125d660008261232e565b61262781600160008673ffffffffffffffffffffffffffffffffffffffff1673ffffffffffffffffffffffffffffffffffffffff168152602001908152602001600020612b6490919063ffffffff16565b5061267981600160008573ffffffffffffffffffffffffffffffffffffffff1673ffffffffffffffffffffffffffffffffffffffff168152602001908152602001600020612b7e90919063ffffffff16565b5061269081836002612b989092919063ffffffff16565b50808273ffffffffffffffffffffffffffffffffffffffff168473ffffffffffffffffffffffffffffffffffffffff167fddf252ad1be2c89b69c2b068fc378daa952ba7f163c4a11628f55a4df523b3ef60405160405180910390a4505050565b60006127008360000183612bcd565b60001c905092915050565b60008060008061271e8660000186612c3a565b915091508160001c8160001c9350935050509250929050565b6001816000016000828254019250508190555050565b600081600001549050919050565b600073ffffffffffffffffffffffffffffffffffffffff168273ffffffffffffffffffffffffffffffffffffffff1614156127cb576040517f08c379a00000000000000000000000000000000000000000000000000000000081526004016127c290614914565b60405180910390fd5b6127d481612309565b15612814576040517f08c379a000000000000000000000000000000000000000000000000000000000815260040161280b906147d4565b60405180910390fd5b61282060008383612b5f565b61287181600160008573ffffffffffffffffffffffffffffffffffffffff1673ffffffffffffffffffffffffffffffffffffffff168152602001908152602001600020612b7e90919063ffffffff16565b5061288881836002612b989092919063ffffffff16565b50808273ffffffffffffffffffffffffffffffffffffffff16600073ffffffffffffffffffffffffffffffffffffffff167fddf252ad1be2c89b69c2b068fc378daa952ba7f163c4a11628f55a4df523b3ef60405160405180910390a45050565b6128f282612309565b612931576040517f08c379a000000000000000000000000000000000000000000000000000000000815260040161292890614974565b60405180910390fd5b806008600084815260200190815260200160002090805190602001906129589291906132c3565b505050565b6000612970846000018460001b84612cbd565b60001c90509392505050565b600061298a82600001612d4e565b9050919050565b61299c8484846124da565b6129a884848484612d5f565b6129e7576040517f08c379a00000000000000000000000000000000000000000000000000000000081526004016129de90614794565b60405180910390fd5b50505050565b60606000821415612a35576040518060400160405280600181526020017f30000000000000000000000000000000000000000000000000000000000000008152509050612b2f565b600082905060005b60008214612a5f578080600101915050600a8281612a5757fe5b049150612a3d565b60608167ffffffffffffffff81118015612a7857600080fd5b506040519080825280601f01601f191660200182016040528015612aab5781602001600182028036833780820191505090505b50905060006001830390508593505b60008414612b2757600a8481612acc57fe5b0660300160f81b82828060019003935081518110612ae657fe5b60200101907effffffffffffffffffffffffffffffffffffffffffffffffffffffffffffff1916908160001a905350600a8481612b1f57fe5b049350612aba565b819450505050505b919050565b6000612b46836000018360001b612ec3565b905092915050565b600081600001805490509050919050565b505050565b6000612b76836000018360001b612ee6565b905092915050565b6000612b90836000018360001b612fce565b905092915050565b6000612bc4846000018460001b8473ffffffffffffffffffffffffffffffffffffffff1660001b61303e565b90509392505050565b600081836000018054905011612c18576040517f08c379a0000000000000000000000000000000000000000000000000000000008152600401612c0f90614774565b60405180910390fd5b826000018281548110612c2757fe5b9060005260206000200154905092915050565b60008082846000018054905011612c86576040517f08c379a0000000000000000000000000000000000000000000000000000000008152600401612c7d906148f4565b60405180910390fd5b6000846000018481548110612c9757fe5b906000526020600020906002020190508060000154816001015492509250509250929050565b60008084600101600085815260200190815260200160002054905060008114158390612d1f576040517f08c379a0000000000000000000000000000000000000000000000000000000008152600401612d169190614732565b60405180910390fd5b50846000016001820381548110612d3257fe5b9060005260206000209060020201600101549150509392505050565b600081600001805490509050919050565b6000612d808473ffffffffffffffffffffffffffffffffffffffff1661311a565b612d8d5760019050612ebb565b6060612e5463150b7a0260e01b612da2612326565b888787604051602401612db894939291906145aa565b604051602081830303815290604052907bffffffffffffffffffffffffffffffffffffffffffffffffffffffff19166020820180517bffffffffffffffffffffffffffffffffffffffffffffffffffffffff8381831617835250505050604051806060016040528060328152602001614dd4603291398773ffffffffffffffffffffffffffffffffffffffff166131659092919063ffffffff16565b9050600081806020019051810190612e6c91906136bc565b905063150b7a0260e01b7bffffffffffffffffffffffffffffffffffffffffffffffffffffffff1916817bffffffffffffffffffffffffffffffffffffffffffffffffffffffff191614925050505b949350505050565b600080836001016000848152602001908152602001600020541415905092915050565b60008083600101600084815260200190815260200160002054905060008114612fc25760006001820390506000600186600001805490500390506000866000018281548110612f3157fe5b9060005260206000200154905080876000018481548110612f4e57fe5b9060005260206000200181905550600183018760010160008381526020019081526020016000208190555086600001805480612f8657fe5b60019003818190600052602060002001600090559055866001016000878152602001908152602001600020600090556001945050505050612fc8565b60009150505b92915050565b6000612fda838361317d565b613033578260000182908060018154018082558091505060019003906000526020600020016000909190919091505582600001805490508360010160008481526020019081526020016000208190555060019050613038565b600090505b92915050565b60008084600101600085815260200190815260200160002054905060008114156130e557846000016040518060400160405280868152602001858152509080600181540180825580915050600190039060005260206000209060020201600090919091909150600082015181600001556020820151816001015550508460000180549050856001016000868152602001908152602001600020819055506001915050613113565b828560000160018303815481106130f857fe5b90600052602060002090600202016001018190555060009150505b9392505050565b60008060007fc5d2460186f7233c927e7db2dcc703c0e500b653ca82273b7bfad8045d85a47060001b9050833f915080821415801561315c57506000801b8214155b92505050919050565b606061317484846000856131a0565b90509392505050565b600080836001016000848152602001908152602001600020541415905092915050565b60606131ab8561311a565b6131ea576040517f08c379a00000000000000000000000000000000000000000000000000000000081526004016131e190614a74565b60405180910390fd5b600060608673ffffffffffffffffffffffffffffffffffffffff1685876040516132149190614554565b60006040518083038185875af1925050503d8060008114613251576040519150601f19603f3d011682016040523d82523d6000602084013e613256565b606091505b5091509150811561326b5780925050506132bb565b60008151111561327e5780518082602001fd5b836040517f08c379a00000000000000000000000000000000000000000000000000000000081526004016132b29190614732565b60405180910390fd5b949350505050565b828054600181600116156101000203166002900490600052602060002090601f016020900481019282601f1061330457805160ff1916838001178555613332565b82800160010185558215613332579182015b82811115613331578251825591602001919060010190613316565b5b50905061333f9190613343565b5090565b5b8082111561335c576000816000905550600101613344565b5090565b60008135905061336f81614d77565b92915050565b60008135905061338481614d8e565b92915050565b60008135905061339981614da5565b92915050565b6000815190506133ae81614da5565b92915050565b600082601f8301126133c557600080fd5b81356133d86133d382614b20565b614aef565b915080825260208301602083018583830111156133f457600080fd5b6133ff838284614d22565b50505092915050565b600082601f83011261341957600080fd5b813561342c61342782614b50565b614aef565b9150808252602083016020830185838301111561344857600080fd5b613453838284614d22565b50505092915050565b60008135905061346b81614dbc565b92915050565b60006020828403121561348357600080fd5b600061349184828501613360565b91505092915050565b600080604083850312156134ad57600080fd5b60006134bb85828601613360565b92505060206134cc85828601613360565b9150509250929050565b600080600080608085870312156134ec57600080fd5b60006134fa87828801613360565b945050602061350b87828801613360565b935050604085013567ffffffffffffffff81111561352857600080fd5b61353487828801613408565b92505060606135458782880161345c565b91505092959194509250565b60008060006060848603121561356657600080fd5b600061357486828701613360565b935050602061358586828701613360565b92505060406135968682870161345c565b9150509250925092565b600080600080608085870312156135b657600080fd5b60006135c487828801613360565b94505060206135d587828801613360565b93505060406135e68782880161345c565b925050606085013567ffffffffffffffff81111561360357600080fd5b61360f878288016133b4565b91505092959194509250565b6000806040838503121561362e57600080fd5b600061363c85828601613360565b925050602061364d85828601613375565b9150509250929050565b6000806040838503121561366a57600080fd5b600061367885828601613360565b92505060206136898582860161345c565b9150509250929050565b6000602082840312156136a557600080fd5b60006136b38482850161338a565b91505092915050565b6000602082840312156136ce57600080fd5b60006136dc8482850161339f565b91505092915050565b6000806000606084860312156136fa57600080fd5b600084013567ffffffffffffffff81111561371457600080fd5b61372086828701613408565b93505060206137318682870161345c565b92505060406137428682870161345c565b9150509250925092565b60006020828403121561375e57600080fd5b600061376c8482850161345c565b91505092915050565b6000806040838503121561378857600080fd5b60006137968582860161345c565b925050602083013567ffffffffffffffff8111156137b357600080fd5b6137bf85828601613408565b9150509250929050565b600080604083850312156137dc57600080fd5b60006137ea8582860161345c565b92505060206137fb8582860161345c565b9150509250929050565b600061381183836144d3565b905092915050565b60006138258383614536565b60208301905092915050565b61383a81614cec565b82525050565b61384981614c78565b82525050565b61385881614c66565b82525050565b600061386982614bb5565b6138738185614bfb565b93508360208202850161388585614b80565b8060005b858110156138c157848403895281516138a28582613805565b94506138ad83614be1565b925060208a01995050600181019050613889565b50829750879550505050505092915050565b60006138de82614bc0565b6138e88185614c0c565b93506138f383614b90565b8060005b8381101561392457815161390b8882613819565b975061391683614bee565b9250506001810190506138f7565b5085935050505092915050565b61393a81614c8a565b82525050565b600061394b82614bcb565b6139558185614c1d565b9350613965818560208601614d31565b61396e81614d66565b840191505092915050565b600061398482614bcb565b61398e8185614c2e565b935061399e818560208601614d31565b80840191505092915050565b60006139b582614bd6565b6139bf8185614c39565b93506139cf818560208601614d31565b6139d881614d66565b840191505092915050565b60006139ee82614bd6565b6139f88185614c4a565b9350613a08818560208601614d31565b613a1181614d66565b840191505092915050565b6000613a2782614bd6565b613a318185614c5b565b9350613a41818560208601614d31565b80840191505092915050565b600081546001811660008114613a6a5760018114613a8f57613ad3565b607f6002830416613a7b8187614c5b565b955060ff1983168652808601935050613ad3565b60028204613a9d8187614c5b565b9550613aa885614ba0565b60005b82811015613aca57815481890152600182019150602081019050613aab565b82880195505050505b505092915050565b6000613ae8601383614c4a565b91507f546f6b656e20646f65736e2774206578697374000000000000000000000000006000830152602082019050919050565b6000613b28602283614c4a565b91507f456e756d657261626c655365743a20696e646578206f7574206f6620626f756e60008301527f64730000000000000000000000000000000000000000000000000000000000006020830152604082019050919050565b6000613b8e603283614c4a565b91507f4552433732313a207472616e7366657220746f206e6f6e20455243373231526560008301527f63656976657220696d706c656d656e74657200000000000000000000000000006020830152604082019050919050565b6000613bf4602683614c4a565b91507f4f776e61626c653a206e6577206f776e657220697320746865207a65726f206160008301527f64647265737300000000000000000000000000000000000000000000000000006020830152604082019050919050565b6000613c5a601c83614c4a565b91507f4552433732313a20746f6b656e20616c7265616479206d696e746564000000006000830152602082019050919050565b6000613c9a602483614c4a565b91507f4552433732313a207472616e7366657220746f20746865207a65726f2061646460008301527f72657373000000000000000000000000000000000000000000000000000000006020830152604082019050919050565b6000613d00601983614c4a565b91507f4552433732313a20617070726f766520746f2063616c6c6572000000000000006000830152602082019050919050565b6000613d40601483614c4a565b91507f546f6b656e20646f6573206e6f742065786973740000000000000000000000006000830152602082019050919050565b6000613d80602683614c4a565b91507f526571756573746564207472616e73666f726d6174696f6e20646f65736e277460008301527f20657869737400000000000000000000000000000000000000000000000000006020830152604082019050919050565b6000613de6602c83614c4a565b91507f4552433732313a206f70657261746f7220717565727920666f72206e6f6e657860008301527f697374656e7420746f6b656e00000000000000000000000000000000000000006020830152604082019050919050565b6000613e4c603883614c4a565b91507f4552433732313a20617070726f76652063616c6c6572206973206e6f74206f7760008301527f6e6572206e6f7220617070726f76656420666f7220616c6c00000000000000006020830152604082019050919050565b6000613eb2602a83614c4a565b91507f4552433732313a2062616c616e636520717565727920666f7220746865207a6560008301527f726f2061646472657373000000000000000000000000000000000000000000006020830152604082019050919050565b6000613f18604483614c4a565b91507f4f6e6c792074686520706572736f6e2077686f2067656e65726174656420746860008301527f6520696d6167652063616e2062757920697420696e207468652066697273742060208301527f686f7572000000000000000000000000000000000000000000000000000000006040830152606082019050919050565b6000613fa4602283614c4a565b91507f456e756d657261626c654d61703a20696e646578206f7574206f6620626f756e60008301527f64730000000000000000000000000000000000000000000000000000000000006020830152604082019050919050565b600061400a602083614c4a565b91507f4552433732313a206d696e7420746f20746865207a65726f20616464726573736000830152602082019050919050565b600061404a601483614c4a565b91507f546f6b656e20616c726561647920626f756768740000000000000000000000006000830152602082019050919050565b600061408a602c83614c4a565b91507f4552433732313a20617070726f76656420717565727920666f72206e6f6e657860008301527f697374656e7420746f6b656e00000000000000000000000000000000000000006020830152604082019050919050565b60006140f0602c83614c4a565b91507f4552433732314d657461646174613a2055524920736574206f66206e6f6e657860008301527f697374656e7420746f6b656e00000000000000000000000000000000000000006020830152604082019050919050565b6000614156602083614c4a565b91507f4f776e61626c653a2063616c6c6572206973206e6f7420746865206f776e65726000830152602082019050919050565b6000614196602983614c4a565b91507f4552433732313a207472616e73666572206f6620746f6b656e2074686174206960008301527f73206e6f74206f776e00000000000000000000000000000000000000000000006020830152604082019050919050565b60006141fc602f83614c4a565b91507f4552433732314d657461646174613a2055524920717565727920666f72206e6f60008301527f6e6578697374656e7420746f6b656e00000000000000000000000000000000006020830152604082019050919050565b6000614262602183614c4a565b91507f4552433732313a20617070726f76616c20746f2063757272656e74206f776e6560008301527f72000000000000000000000000000000000000000000000000000000000000006020830152604082019050919050565b60006142c8601c83614c4a565b91507f5573657220686173206e6f2067656e65726174656420746f6b656e73000000006000830152602082019050919050565b6000614308602283614c4a565b91507f5472616e73666f726d6174696f6e20737570706c79206973206578686175737460008301527f65640000000000000000000000000000000000000000000000000000000000006020830152604082019050919050565b600061436e603183614c4a565b91507f4552433732313a207472616e736665722063616c6c6572206973206e6f74206f60008301527f776e6572206e6f7220617070726f7665640000000000000000000000000000006020830152604082019050919050565b60006143d4601d83614c4a565b91507f416464726573733a2063616c6c20746f206e6f6e2d636f6e74726163740000006000830152602082019050919050565b6000614414603183614c4a565b91507f5472616e73616374696f6e2076616c7565206d757374206d617463682074726160008301527f6e73666f726d6174696f6e2070726963650000000000000000000000000000006020830152604082019050919050565b600061447a602683614c4a565b91507f5472616e73616374696f6e2076616c7565206d757374206d61746368206e667460008301527f20707269636500000000000000000000000000000000000000000000000000006020830152604082019050919050565b60006080830160008301516144eb6000860182614536565b5060208301516144fe6020860182614536565b5060408301516145116040860182614536565b506060830151848203606086015261452982826139aa565b9150508091505092915050565b61453f81614ce2565b82525050565b61454e81614ce2565b82525050565b60006145608284613979565b915081905092915050565b60006145778285613a4d565b91506145838284613a1c565b91508190509392505050565b60006020820190506145a4600083018461384f565b92915050565b60006080820190506145bf6000830187613840565b6145cc602083018661384f565b6145d96040830185614545565b81810360608301526145eb8184613940565b905095945050505050565b600060608201905061460b6000830186613831565b6146186020830185614545565b6146256040830184614545565b949350505050565b60006080820190506146426000830187613831565b61464f6020830186614545565b61465c6040830185614545565b818103606083015261466e81846139e3565b905095945050505050565b600060a08201905061468e600083018861384f565b61469b602083018761384f565b6146a86040830186614545565b81810360608301526146ba81856139e3565b90506146c96080830184614545565b9695505050505050565b600060208201905081810360008301526146ed818461385e565b905092915050565b6000602082019050818103600083015261470f81846138d3565b905092915050565b600060208201905061472c6000830184613931565b92915050565b6000602082019050818103600083015261474c81846139e3565b905092915050565b6000602082019050818103600083015261476d81613adb565b9050919050565b6000602082019050818103600083015261478d81613b1b565b9050919050565b600060208201905081810360008301526147ad81613b81565b9050919050565b600060208201905081810360008301526147cd81613be7565b9050919050565b600060208201905081810360008301526147ed81613c4d565b9050919050565b6000602082019050818103600083015261480d81613c8d565b9050919050565b6000602082019050818103600083015261482d81613cf3565b9050919050565b6000602082019050818103600083015261484d81613d33565b9050919050565b6000602082019050818103600083015261486d81613d73565b9050919050565b6000602082019050818103600083015261488d81613dd9565b9050919050565b600060208201905081810360008301526148ad81613e3f565b9050919050565b600060208201905081810360008301526148cd81613ea5565b9050919050565b600060208201905081810360008301526148ed81613f0b565b9050919050565b6000602082019050818103600083015261490d81613f97565b9050919050565b6000602082019050818103600083015261492d81613ffd565b9050919050565b6000602082019050818103600083015261494d8161403d565b9050919050565b6000602082019050818103600083015261496d8161407d565b9050919050565b6000602082019050818103600083015261498d816140e3565b9050919050565b600060208201905081810360008301526149ad81614149565b9050919050565b600060208201905081810360008301526149cd81614189565b9050919050565b600060208201905081810360008301526149ed816141ef565b9050919050565b60006020820190508181036000830152614a0d81614255565b9050919050565b60006020820190508181036000830152614a2d816142bb565b9050919050565b60006020820190508181036000830152614a4d816142fb565b9050919050565b60006020820190508181036000830152614a6d81614361565b9050919050565b60006020820190508181036000830152614a8d816143c7565b9050919050565b60006020820190508181036000830152614aad81614407565b9050919050565b60006020820190508181036000830152614acd8161446d565b9050919050565b6000602082019050614ae96000830184614545565b92915050565b6000604051905081810181811067ffffffffffffffff82111715614b1657614b15614d64565b5b8060405250919050565b600067ffffffffffffffff821115614b3b57614b3a614d64565b5b601f19601f8301169050602081019050919050565b600067ffffffffffffffff821115614b6b57614b6a614d64565b5b601f19601f8301169050602081019050919050565b6000819050602082019050919050565b6000819050602082019050919050565b60008190508160005260206000209050919050565b600081519050919050565b600081519050919050565b600081519050919050565b600081519050919050565b6000602082019050919050565b6000602082019050919050565b600082825260208201905092915050565b600082825260208201905092915050565b600082825260208201905092915050565b600081905092915050565b600082825260208201905092915050565b600082825260208201905092915050565b600081905092915050565b6000614c7182614cc2565b9050919050565b6000614c8382614cc2565b9050919050565b60008115159050919050565b60007fffffffff0000000000000000000000000000000000000000000000000000000082169050919050565b600073ffffffffffffffffffffffffffffffffffffffff82169050919050565b6000819050919050565b6000614cf782614cfe565b9050919050565b6000614d0982614d10565b9050919050565b6000614d1b82614cc2565b9050919050565b82818337600083830152505050565b60005b83811015614d4f578082015181840152602081019050614d34565b83811115614d5e576000848401525b50505050565bfe5b6000601f19601f8301169050919050565b614d8081614c66565b8114614d8b57600080fd5b50565b614d9781614c8a565b8114614da257600080fd5b50565b614dae81614c96565b8114614db957600080fd5b50565b614dc581614ce2565b8114614dd057600080fd5b5056fe4552433732313a207472616e7366657220746f206e6f6e20455243373231526563656976657220696d706c656d656e7465724552433732313a206f776e657220717565727920666f72206e6f6e6578697374656e7420746f6b656ea2646970667358221220de022ded1350873e6c1593626f470b15a8400425ce0ed532e563463e38eedb0664736f6c63430007030033",
  "linkReferences": {},
  "deployedLinkReferences": {}
}