{
  "_format": "hh-sol-artifact-1",
  "contractName": "StyleNFT",
  "sourceName": "contracts/StyleNFT.sol",
  "abi": [
    {
      "inputs": [],
      "stateMutability": "nonpayable",
      "type": "constructor"
    },
    {
      "anonymous": false,
      "inputs": [
        {
          "indexed": true,
          "internalType": "address",
          "name": "owner",
          "type": "address"
        },
        {
          "indexed": true,
          "internalType": "address",
          "name": "approved",
          "type": "address"
        },
        {
          "indexed": true,
          "internalType": "uint256",
          "name": "tokenId",
          "type": "uint256"
        }
      ],
      "name": "Approval",
      "type": "event"
    },
    {
      "anonymous": false,
      "inputs": [
        {
          "indexed": true,
          "internalType": "address",
          "name": "owner",
          "type": "address"
        },
        {
          "indexed": true,
          "internalType": "address",
          "name": "operator",
          "type": "address"
        },
        {
          "indexed": false,
          "internalType": "bool",
          "name": "approved",
          "type": "bool"
        }
      ],
      "name": "ApprovalForAll",
      "type": "event"
    },
    {
      "anonymous": false,
      "inputs": [
        {
          "indexed": false,
          "internalType": "address",
          "name": "sender",
          "type": "address"
        },
        {
          "indexed": false,
          "internalType": "uint256",
          "name": "value",
          "type": "uint256"
        },
        {
          "indexed": false,
          "internalType": "uint256",
          "name": "transformationId",
          "type": "uint256"
        },
        {
          "indexed": false,
          "internalType": "string",
          "name": "imageURL",
          "type": "string"
        }
      ],
      "name": "ImageGenerationPaid",
      "type": "event"
    },
    {
      "anonymous": false,
      "inputs": [
        {
          "indexed": false,
          "internalType": "address",
          "name": "sender",
          "type": "address"
        },
        {
          "indexed": false,
          "internalType": "uint256",
          "name": "value",
          "type": "uint256"
        },
        {
          "indexed": false,
          "internalType": "uint256",
          "name": "tokenId",
          "type": "uint256"
        }
      ],
      "name": "ImagePaid",
      "type": "event"
    },
    {
      "anonymous": false,
      "inputs": [
        {
          "indexed": true,
          "internalType": "address",
          "name": "previousOwner",
          "type": "address"
        },
        {
          "indexed": true,
          "internalType": "address",
          "name": "newOwner",
          "type": "address"
        }
      ],
      "name": "OwnershipTransferred",
      "type": "event"
    },
    {
      "anonymous": false,
      "inputs": [
        {
          "indexed": false,
          "internalType": "address",
          "name": "recipient",
          "type": "address"
        },
        {
          "indexed": false,
          "internalType": "address",
          "name": "payer",
          "type": "address"
        },
        {
          "indexed": false,
          "internalType": "uint256",
          "name": "tokenId",
          "type": "uint256"
        },
        {
          "indexed": false,
          "internalType": "string",
          "name": "tokenURI",
          "type": "string"
        },
        {
          "indexed": false,
          "internalType": "uint256",
          "name": "price",
          "type": "uint256"
        }
      ],
      "name": "TokenMinted",
      "type": "event"
    },
    {
      "anonymous": false,
      "inputs": [
        {
          "indexed": true,
          "internalType": "address",
          "name": "from",
          "type": "address"
        },
        {
          "indexed": true,
          "internalType": "address",
          "name": "to",
          "type": "address"
        },
        {
          "indexed": true,
          "internalType": "uint256",
          "name": "tokenId",
          "type": "uint256"
        }
      ],
      "name": "Transfer",
      "type": "event"
    },
    {
      "inputs": [
        {
          "internalType": "string",
          "name": "name",
          "type": "string"
        },
        {
          "internalType": "uint256",
          "name": "price",
          "type": "uint256"
        }
      ],
      "name": "addTransformation",
      "outputs": [
        {
          "internalType": "uint256",
          "name": "",
          "type": "uint256"
        }
      ],
      "stateMutability": "nonpayable",
      "type": "function"
    },
    {
      "inputs": [
        {
          "internalType": "address",
          "name": "to",
          "type": "address"
        },
        {
          "internalType": "uint256",
          "name": "tokenId",
          "type": "uint256"
        }
      ],
      "name": "approve",
      "outputs": [],
      "stateMutability": "nonpayable",
      "type": "function"
    },
    {
      "inputs": [
        {
          "internalType": "address",
          "name": "owner",
          "type": "address"
        }
      ],
      "name": "balanceOf",
      "outputs": [
        {
          "internalType": "uint256",
          "name": "",
          "type": "uint256"
        }
      ],
      "stateMutability": "view",
      "type": "function"
    },
    {
      "inputs": [],
      "name": "baseURI",
      "outputs": [
        {
          "internalType": "string",
          "name": "",
          "type": "string"
        }
      ],
      "stateMutability": "view",
      "type": "function"
    },
    {
      "inputs": [
        {
          "internalType": "uint256",
          "name": "tokenId",
          "type": "uint256"
        }
      ],
      "name": "getApproved",
      "outputs": [
        {
          "internalType": "address",
          "name": "",
          "type": "address"
        }
      ],
      "stateMutability": "view",
      "type": "function"
    },
    {
      "inputs": [
        {
          "internalType": "address",
          "name": "owner",
          "type": "address"
        },
        {
          "internalType": "address",
          "name": "operator",
          "type": "address"
        }
      ],
      "name": "isApprovedForAll",
      "outputs": [
        {
          "internalType": "bool",
          "name": "",
          "type": "bool"
        }
      ],
      "stateMutability": "view",
      "type": "function"
    },
    {
      "inputs": [],
      "name": "listTransformations",
      "outputs": [
        {
          "components": [
            {
              "internalType": "uint256",
              "name": "id",
              "type": "uint256"
            },
            {
              "internalType": "string",
              "name": "name",
              "type": "string"
            },
            {
              "internalType": "uint256",
              "name": "price",
              "type": "uint256"
            }
          ],
          "internalType": "struct StyleNFT.Transformation[]",
          "name": "",
          "type": "tuple[]"
        }
      ],
      "stateMutability": "view",
      "type": "function"
    },
    {
      "inputs": [
        {
          "internalType": "address",
          "name": "recipient",
          "type": "address"
        },
        {
          "internalType": "address",
          "name": "payer",
          "type": "address"
        },
        {
          "internalType": "string",
          "name": "tokenURI",
          "type": "string"
        },
        {
          "internalType": "uint256",
          "name": "price",
          "type": "uint256"
        }
      ],
      "name": "mintNFT",
      "outputs": [
        {
          "internalType": "uint256",
          "name": "",
          "type": "uint256"
        }
      ],
      "stateMutability": "nonpayable",
      "type": "function"
    },
    {
      "inputs": [],
      "name": "name",
      "outputs": [
        {
          "internalType": "string",
          "name": "",
          "type": "string"
        }
      ],
      "stateMutability": "view",
      "type": "function"
    },
    {
      "inputs": [],
      "name": "owner",
      "outputs": [
        {
          "internalType": "address",
          "name": "",
          "type": "address"
        }
      ],
      "stateMutability": "view",
      "type": "function"
    },
    {
      "inputs": [
        {
          "internalType": "uint256",
          "name": "tokenId",
          "type": "uint256"
        }
      ],
      "name": "ownerOf",
      "outputs": [
        {
          "internalType": "address",
          "name": "",
          "type": "address"
        }
      ],
      "stateMutability": "view",
      "type": "function"
    },
    {
      "inputs": [
        {
          "internalType": "uint256",
          "name": "transformationId",
          "type": "uint256"
        },
        {
          "internalType": "string",
          "name": "imageUrl",
          "type": "string"
        }
      ],
      "name": "payGenerating",
      "outputs": [],
      "stateMutability": "payable",
      "type": "function"
    },
    {
      "inputs": [
        {
          "internalType": "uint256",
          "name": "tokenId",
          "type": "uint256"
        }
      ],
      "name": "payImage",
      "outputs": [],
      "stateMutability": "payable",
      "type": "function"
    },
    {
      "inputs": [
        {
          "internalType": "uint256",
          "name": "tokenId",
          "type": "uint256"
        }
      ],
      "name": "payerOf",
      "outputs": [
        {
          "internalType": "address",
          "name": "",
          "type": "address"
        }
      ],
      "stateMutability": "view",
      "type": "function"
    },
    {
      "inputs": [],
      "name": "renounceOwnership",
      "outputs": [],
      "stateMutability": "nonpayable",
      "type": "function"
    },
    {
      "inputs": [
        {
          "internalType": "address",
          "name": "from",
          "type": "address"
        },
        {
          "internalType": "address",
          "name": "to",
          "type": "address"
        },
        {
          "internalType": "uint256",
          "name": "tokenId",
          "type": "uint256"
        }
      ],
      "name": "safeTransferFrom",
      "outputs": [],
      "stateMutability": "nonpayable",
      "type": "function"
    },
    {
      "inputs": [
        {
          "internalType": "address",
          "name": "from",
          "type": "address"
        },
        {
          "internalType": "address",
          "name": "to",
          "type": "address"
        },
        {
          "internalType": "uint256",
          "name": "tokenId",
          "type": "uint256"
        },
        {
          "internalType": "bytes",
          "name": "_data",
          "type": "bytes"
        }
      ],
      "name": "safeTransferFrom",
      "outputs": [],
      "stateMutability": "nonpayable",
      "type": "function"
    },
    {
      "inputs": [
        {
          "internalType": "address",
          "name": "operator",
          "type": "address"
        },
        {
          "internalType": "bool",
          "name": "approved",
          "type": "bool"
        }
      ],
      "name": "setApprovalForAll",
      "outputs": [],
      "stateMutability": "nonpayable",
      "type": "function"
    },
    {
      "inputs": [
        {
          "internalType": "bytes4",
          "name": "interfaceId",
          "type": "bytes4"
        }
      ],
      "name": "supportsInterface",
      "outputs": [
        {
          "internalType": "bool",
          "name": "",
          "type": "bool"
        }
      ],
      "stateMutability": "view",
      "type": "function"
    },
    {
      "inputs": [],
      "name": "symbol",
      "outputs": [
        {
          "internalType": "string",
          "name": "",
          "type": "string"
        }
      ],
      "stateMutability": "view",
      "type": "function"
    },
    {
      "inputs": [
        {
          "internalType": "uint256",
          "name": "index",
          "type": "uint256"
        }
      ],
      "name": "tokenByIndex",
      "outputs": [
        {
          "internalType": "uint256",
          "name": "",
          "type": "uint256"
        }
      ],
      "stateMutability": "view",
      "type": "function"
    },
    {
      "inputs": [
        {
          "internalType": "address",
          "name": "owner",
          "type": "address"
        },
        {
          "internalType": "uint256",
          "name": "index",
          "type": "uint256"
        }
      ],
      "name": "tokenOfOwnerByIndex",
      "outputs": [
        {
          "internalType": "uint256",
          "name": "",
          "type": "uint256"
        }
      ],
      "stateMutability": "view",
      "type": "function"
    },
    {
      "inputs": [
        {
          "internalType": "uint256",
          "name": "tokenId",
          "type": "uint256"
        }
      ],
      "name": "tokenURI",
      "outputs": [
        {
          "internalType": "string",
          "name": "",
          "type": "string"
        }
      ],
      "stateMutability": "view",
      "type": "function"
    },
    {
      "inputs": [],
      "name": "totalSupply",
      "outputs": [
        {
          "internalType": "uint256",
          "name": "",
          "type": "uint256"
        }
      ],
      "stateMutability": "view",
      "type": "function"
    },
    {
      "inputs": [
        {
          "internalType": "address",
          "name": "from",
          "type": "address"
        },
        {
          "internalType": "address",
          "name": "to",
          "type": "address"
        },
        {
          "internalType": "uint256",
          "name": "tokenId",
          "type": "uint256"
        }
      ],
      "name": "transferFrom",
      "outputs": [],
      "stateMutability": "nonpayable",
      "type": "function"
    },
    {
      "inputs": [
        {
          "internalType": "address",
          "name": "newOwner",
          "type": "address"
        }
      ],
      "name": "transferOwnership",
      "outputs": [],
      "stateMutability": "nonpayable",
      "type": "function"
    },
    {
      "inputs": [
        {
          "internalType": "uint256",
          "name": "tokenId",
          "type": "uint256"
        },
        {
          "internalType": "uint256",
          "name": "price",
          "type": "uint256"
        }
      ],
      "name": "updateTokenPrice",
      "outputs": [
        {
          "internalType": "bool",
          "name": "",
          "type": "bool"
        }
      ],
      "stateMutability": "nonpayable",
      "type": "function"
    },
    {
      "inputs": [
        {
          "internalType": "uint256",
          "name": "id",
          "type": "uint256"
        },
        {
          "internalType": "uint256",
          "name": "price",
          "type": "uint256"
        }
      ],
      "name": "updateTransformationPrice",
      "outputs": [
        {
          "internalType": "bool",
          "name": "",
          "type": "bool"
        }
      ],
      "stateMutability": "nonpayable",
      "type": "function"
    },
    {
      "inputs": [
        {
          "internalType": "address",
          "name": "user",
          "type": "address"
        }
      ],
      "name": "userBoughtTokens",
      "outputs": [
        {
          "internalType": "uint256[]",
          "name": "",
          "type": "uint256[]"
        }
      ],
      "stateMutability": "view",
      "type": "function"
    },
    {
      "inputs": [
        {
          "internalType": "address",
          "name": "user",
          "type": "address"
        }
      ],
      "name": "userGeneratedTokens",
      "outputs": [
        {
          "internalType": "uint256[]",
          "name": "",
          "type": "uint256[]"
        }
      ],
      "stateMutability": "view",
      "type": "function"
    }
  ],
  "bytecode": "0x60806040523480156200001157600080fd5b506040518060400160405280600881526020017f7374796c656172740000000000000000000000000000000000000000000000008152506040518060400160405280600481526020017f736e667400000000000000000000000000000000000000000000000000000000815250620000966301ffc9a760e01b6200020a60201b60201c565b8160069080519060200190620000ae929190620002ea565b508060079080519060200190620000c7929190620002ea565b50620000e06380ac58cd60e01b6200020a60201b60201c565b620000f8635b5e139f60e01b6200020a60201b60201c565b6200011063780e9d6360e01b6200020a60201b60201c565b5050600062000124620002e260201b60201c565b905080600a60006101000a81548173ffffffffffffffffffffffffffffffffffffffff021916908373ffffffffffffffffffffffffffffffffffffffff1602179055508073ffffffffffffffffffffffffffffffffffffffff16600073ffffffffffffffffffffffffffffffffffffffff167f8be0079c531659141344cd1fd0a4f28419497f9722a3daafe3b4186f6b6457e060405160405180910390a35033600d60006101000a81548173ffffffffffffffffffffffffffffffffffffffff021916908373ffffffffffffffffffffffffffffffffffffffff16021790555062000405565b63ffffffff60e01b817bffffffffffffffffffffffffffffffffffffffffffffffffffffffff1916141562000276576040517f08c379a00000000000000000000000000000000000000000000000000000000081526004016200026d90620003d2565b60405180910390fd5b6001600080837bffffffffffffffffffffffffffffffffffffffffffffffffffffffff19167bffffffffffffffffffffffffffffffffffffffffffffffffffffffff1916815260200190815260200160002060006101000a81548160ff02191690831515021790555050565b600033905090565b828054600181600116156101000203166002900490600052602060002090601f016020900481019282601f106200032d57805160ff19168380011785556200035e565b828001600101855582156200035e579182015b828111156200035d57825182559160200191906001019062000340565b5b5090506200036d919062000371565b5090565b5b808211156200038c57600081600090555060010162000372565b5090565b60006200039f601c83620003f4565b91507f4552433136353a20696e76616c696420696e74657266616365206964000000006000830152602082019050919050565b60006020820190508181036000830152620003ed8162000390565b9050919050565b600082825260208201905092915050565b614f0680620004156000396000f3fe6080604052600436106101cd5760003560e01c80636c0360eb116100f757806395d89b4111610095578063db64426411610064578063db644264146106cc578063e985e9c514610709578063e9c7723d14610746578063f2fde38b14610783576101cd565b806395d89b4114610612578063a22cb4651461063d578063b88d4fde14610666578063c87b56dd1461068f576101cd565b80637edcf18f116100d15780637edcf18f14610530578063897925f51461056d5780638da5cb5b146105aa5780639210e508146105d5576101cd565b80636c0360eb146104b157806370a08231146104dc578063715018a614610519576101cd565b806323b872dd1161016f57806358a1388f1161013e57806358a1388f146103ff5780635e45d17e1461041b5780636031dd95146104375780636352211e14610474576101cd565b806323b872dd146103335780632f745c591461035c57806342842e0e146103995780634f6ccce7146103c2576101cd565b8063095ea7b3116101ab578063095ea7b31461027757806318160ddd146102a05780631935ec9f146102cb5780632362382d146102f6576101cd565b806301ffc9a7146101d257806306fdde031461020f578063081812fc1461023a575b600080fd5b3480156101de57600080fd5b506101f960048036038101906101f49190613781565b6107ac565b60405161020691906147b9565b60405180910390f35b34801561021b57600080fd5b50610224610813565b60405161023191906147d4565b60405180910390f35b34801561024657600080fd5b50610261600480360381019061025c9190613827565b6108b5565b60405161026e9190614631565b60405180910390f35b34801561028357600080fd5b5061029e60048036038101906102999190613745565b61093a565b005b3480156102ac57600080fd5b506102b5610a52565b6040516102c29190614b76565b60405180910390f35b3480156102d757600080fd5b506102e0610a63565b6040516102ed9190614775565b60405180910390f35b34801561030257600080fd5b5061031d600480360381019061031891906138a4565b610b78565b60405161032a91906147b9565b60405180910390f35b34801561033f57600080fd5b5061035a6004803603810190610355919061363f565b610c8d565b005b34801561036857600080fd5b50610383600480360381019061037e9190613745565b610ced565b6040516103909190614b76565b60405180910390f35b3480156103a557600080fd5b506103c060048036038101906103bb919061363f565b610d48565b005b3480156103ce57600080fd5b506103e960048036038101906103e49190613827565b610d68565b6040516103f69190614b76565b60405180910390f35b61041960048036038101906104149190613850565b610d8b565b005b61043560048036038101906104309190613827565b610f24565b005b34801561044357600080fd5b5061045e600480360381019061045991906135c4565b61125d565b60405161046b9190614b76565b60405180910390f35b34801561048057600080fd5b5061049b60048036038101906104969190613827565b6114ca565b6040516104a89190614631565b60405180910390f35b3480156104bd57600080fd5b506104c6611501565b6040516104d391906147d4565b60405180910390f35b3480156104e857600080fd5b5061050360048036038101906104fe919061355f565b6115a3565b6040516105109190614b76565b60405180910390f35b34801561052557600080fd5b5061052e611662565b005b34801561053c57600080fd5b5061055760048036038101906105529190613827565b6117ba565b6040516105649190614631565b60405180910390f35b34801561057957600080fd5b50610594600480360381019061058f91906138a4565b61185d565b6040516105a191906147b9565b60405180910390f35b3480156105b657600080fd5b506105bf6119ea565b6040516105cc9190614631565b60405180910390f35b3480156105e157600080fd5b506105fc60048036038101906105f7919061355f565b611a14565b6040516106099190614797565b60405180910390f35b34801561061e57600080fd5b50610627611b36565b60405161063491906147d4565b60405180910390f35b34801561064957600080fd5b50610664600480360381019061065f9190613709565b611bd8565b005b34801561067257600080fd5b5061068d6004803603810190610688919061368e565b611d59565b005b34801561069b57600080fd5b506106b660048036038101906106b19190613827565b611dbb565b6040516106c391906147d4565b60405180910390f35b3480156106d857600080fd5b506106f360048036038101906106ee91906137d3565b611f46565b6040516107009190614b76565b60405180910390f35b34801561071557600080fd5b50610730600480360381019061072b9190613588565b61207a565b60405161073d91906147b9565b60405180910390f35b34801561075257600080fd5b5061076d6004803603810190610768919061355f565b61210e565b60405161077a9190614797565b60405180910390f35b34801561078f57600080fd5b506107aa60048036038101906107a5919061355f565b612230565b005b6000806000837bffffffffffffffffffffffffffffffffffffffffffffffffffffffff19167bffffffffffffffffffffffffffffffffffffffffffffffffffffffff1916815260200190815260200160002060009054906101000a900460ff169050919050565b606060068054600181600116156101000203166002900480601f0160208091040260200160405190810160405280929190818152602001828054600181600116156101000203166002900480156108ab5780601f10610880576101008083540402835291602001916108ab565b820191906000526020600020905b81548152906001019060200180831161088e57829003601f168201915b5050505050905090565b60006108c0826123f7565b6108ff576040517f08c379a00000000000000000000000000000000000000000000000000000000081526004016108f690614a16565b60405180910390fd5b6004600083815260200190815260200160002060009054906101000a900473ffffffffffffffffffffffffffffffffffffffff169050919050565b6000610945826114ca565b90508073ffffffffffffffffffffffffffffffffffffffff168373ffffffffffffffffffffffffffffffffffffffff1614156109b6576040517f08c379a00000000000000000000000000000000000000000000000000000000081526004016109ad90614ab6565b60405180910390fd5b8073ffffffffffffffffffffffffffffffffffffffff166109d5612414565b73ffffffffffffffffffffffffffffffffffffffff161480610a045750610a03816109fe612414565b61207a565b5b610a43576040517f08c379a0000000000000000000000000000000000000000000000000000000008152600401610a3a90614956565b60405180910390fd5b610a4d838361241c565b505050565b6000610a5e60026124d5565b905090565b60606010805480602002602001604051908101604052809291908181526020016000905b82821015610b6f578382906000526020600020906003020160405180606001604052908160008201548152602001600182018054600181600116156101000203166002900480601f016020809104026020016040519081016040528092919081815260200182805460018160011615610100020316600290048015610b4d5780601f10610b2257610100808354040283529160200191610b4d565b820191906000526020600020905b815481529060010190602001808311610b3057829003601f168201915b5050505050815260200160028201548152505081526020019060010190610a87565b50505050905090565b6000610b82612414565b73ffffffffffffffffffffffffffffffffffffffff16600a60009054906101000a900473ffffffffffffffffffffffffffffffffffffffff1673ffffffffffffffffffffffffffffffffffffffff1614610c11576040517f08c379a0000000000000000000000000000000000000000000000000000000008152600401610c0890614a56565b60405180910390fd5b60005b601080549050811015610c81578360108281548110610c2f57fe5b9060005260206000209060030201600001541415610c74578260108281548110610c5557fe5b9060005260206000209060030201600201819055506001915050610c87565b8080600101915050610c14565b50600090505b92915050565b610c9e610c98612414565b826124ea565b610cdd576040517f08c379a0000000000000000000000000000000000000000000000000000000008152600401610cd490614af6565b60405180910390fd5b610ce88383836125c8565b505050565b6000610d4082600160008673ffffffffffffffffffffffffffffffffffffffff1673ffffffffffffffffffffffffffffffffffffffff1681526020019081526020016000206127df90919063ffffffff16565b905092915050565b610d6383838360405180602001604052806000815250611d59565b505050565b600080610d7f8360026127f990919063ffffffff16565b50905080915050919050565b81346000805b601080549050811015610e36578360108281548110610dac57fe5b9060005260206000209060030201600001541415610e2957600191508260108281548110610dd657fe5b90600052602060002090600302016002015414610e28576040517f08c379a0000000000000000000000000000000000000000000000000000000008152600401610e1f90614b36565b60405180910390fd5b5b8080600101915050610d91565b5080610e77576040517f08c379a0000000000000000000000000000000000000000000000000000000008152600401610e6e906148f6565b60405180910390fd5b600d60009054906101000a900473ffffffffffffffffffffffffffffffffffffffff1673ffffffffffffffffffffffffffffffffffffffff166108fc349081150290604051600060405180830381858888f19350505050158015610edf573d6000803e3d6000fd5b507fb4b3eea958fd79328ea998403a758ad1a0d9db9c72633bbf4b014b934939ae9033348787604051610f1594939291906146cf565b60405180910390a15050505050565b80600e600082815260200190815260200160002060020160009054906101000a900460ff16610f88576040517f08c379a0000000000000000000000000000000000000000000000000000000008152600401610f7f906148d6565b60405180910390fd5b60001515600e600083815260200190815260200160002060040160009054906101000a900460ff16151514610ff2576040517f08c379a0000000000000000000000000000000000000000000000000000000008152600401610fe9906149f6565b60405180910390fd5b33826014600e600083815260200190815260200160002060010154014210156110ba578173ffffffffffffffffffffffffffffffffffffffff16600e600083815260200190815260200160002060000160009054906101000a900473ffffffffffffffffffffffffffffffffffffffff1673ffffffffffffffffffffffffffffffffffffffff16146110b9576040517f08c379a00000000000000000000000000000000000000000000000000000000081526004016110b090614996565b60405180910390fd5b5b6000600e600086815260200190815260200160002060030154600102905080341461111a576040517f08c379a000000000000000000000000000000000000000000000000000000000815260040161111190614b56565b60405180910390fd5b600d60009054906101000a900473ffffffffffffffffffffffffffffffffffffffff1673ffffffffffffffffffffffffffffffffffffffff166108fc349081150290604051600060405180830381858888f19350505050158015611182573d6000803e3d6000fd5b506001600e600087815260200190815260200160002060040160006101000a81548160ff021916908315150217905550600f60003373ffffffffffffffffffffffffffffffffffffffff1673ffffffffffffffffffffffffffffffffffffffff1681526020019081526020016000206001018590806001815401808255809150506001900390600052602060002001600090919091909150557fe73afeaacaf168c89f8eca1d95b1e592a2a43d550dd0e3de98218e418a198f4533348760405161124e93929190614698565b60405180910390a15050505050565b6000611267612414565b73ffffffffffffffffffffffffffffffffffffffff16600a60009054906101000a900473ffffffffffffffffffffffffffffffffffffffff1673ffffffffffffffffffffffffffffffffffffffff16146112f6576040517f08c379a00000000000000000000000000000000000000000000000000000000081526004016112ed90614a56565b60405180910390fd5b611300600b612825565b600061130c600b61283b565b90506113188682612849565b61132281856129d7565b6040518060a001604052808673ffffffffffffffffffffffffffffffffffffffff16815260200142815260200160011515815260200184815260200160001515815250600e600083815260200190815260200160002060008201518160000160006101000a81548173ffffffffffffffffffffffffffffffffffffffff021916908373ffffffffffffffffffffffffffffffffffffffff1602179055506020820151816001015560408201518160020160006101000a81548160ff0219169083151502179055506060820151816003015560808201518160040160006101000a81548160ff021916908315150217905550905050600f60008673ffffffffffffffffffffffffffffffffffffffff1673ffffffffffffffffffffffffffffffffffffffff1681526020019081526020016000206000018190806001815401808255809150506001900390600052602060002001600090919091909150557f9bc29a7be16d04de3c353003faca2ab9ecae65d0443b11bcc70d01948a78a3d886868387876040516114b695949392919061471b565b60405180910390a180915050949350505050565b60006114fa82604051806060016040528060298152602001614ea8602991396002612a4b9092919063ffffffff16565b9050919050565b606060098054600181600116156101000203166002900480601f0160208091040260200160405190810160405280929190818152602001828054600181600116156101000203166002900480156115995780601f1061156e57610100808354040283529160200191611599565b820191906000526020600020905b81548152906001019060200180831161157c57829003601f168201915b5050505050905090565b60008073ffffffffffffffffffffffffffffffffffffffff168273ffffffffffffffffffffffffffffffffffffffff161415611614576040517f08c379a000000000000000000000000000000000000000000000000000000000815260040161160b90614976565b60405180910390fd5b61165b600160008473ffffffffffffffffffffffffffffffffffffffff1673ffffffffffffffffffffffffffffffffffffffff168152602001908152602001600020612a6a565b9050919050565b61166a612414565b73ffffffffffffffffffffffffffffffffffffffff16600a60009054906101000a900473ffffffffffffffffffffffffffffffffffffffff1673ffffffffffffffffffffffffffffffffffffffff16146116f9576040517f08c379a00000000000000000000000000000000000000000000000000000000081526004016116f090614a56565b60405180910390fd5b600073ffffffffffffffffffffffffffffffffffffffff16600a60009054906101000a900473ffffffffffffffffffffffffffffffffffffffff1673ffffffffffffffffffffffffffffffffffffffff167f8be0079c531659141344cd1fd0a4f28419497f9722a3daafe3b4186f6b6457e060405160405180910390a36000600a60006101000a81548173ffffffffffffffffffffffffffffffffffffffff021916908373ffffffffffffffffffffffffffffffffffffffff160217905550565b6000600e600083815260200190815260200160002060020160009054906101000a900460ff1661181f576040517f08c379a0000000000000000000000000000000000000000000000000000000008152600401611816906147f6565b60405180910390fd5b600e600083815260200190815260200160002060000160009054906101000a900473ffffffffffffffffffffffffffffffffffffffff169050919050565b6000611867612414565b73ffffffffffffffffffffffffffffffffffffffff16600a60009054906101000a900473ffffffffffffffffffffffffffffffffffffffff1673ffffffffffffffffffffffffffffffffffffffff16146118f6576040517f08c379a00000000000000000000000000000000000000000000000000000000081526004016118ed90614a56565b60405180910390fd5b82600e600082815260200190815260200160002060020160009054906101000a900460ff1661195a576040517f08c379a0000000000000000000000000000000000000000000000000000000008152600401611951906148d6565b60405180910390fd5b60001515600e600083815260200190815260200160002060040160009054906101000a900460ff161515146119c4576040517f08c379a00000000000000000000000000000000000000000000000000000000081526004016119bb906149f6565b60405180910390fd5b82600e600086815260200190815260200160002060030181905550600191505092915050565b6000600a60009054906101000a900473ffffffffffffffffffffffffffffffffffffffff16905090565b60606000600f60008473ffffffffffffffffffffffffffffffffffffffff1673ffffffffffffffffffffffffffffffffffffffff1681526020019081526020016000206001018054905011611a9e576040517f08c379a0000000000000000000000000000000000000000000000000000000008152600401611a9590614936565b60405180910390fd5b600f60008373ffffffffffffffffffffffffffffffffffffffff1673ffffffffffffffffffffffffffffffffffffffff168152602001908152602001600020600101805480602002602001604051908101604052809291908181526020018280548015611b2a57602002820191906000526020600020905b815481526020019060010190808311611b16575b50505050509050919050565b606060078054600181600116156101000203166002900480601f016020809104026020016040519081016040528092919081815260200182805460018160011615610100020316600290048015611bce5780601f10611ba357610100808354040283529160200191611bce565b820191906000526020600020905b815481529060010190602001808311611bb157829003601f168201915b5050505050905090565b611be0612414565b73ffffffffffffffffffffffffffffffffffffffff168273ffffffffffffffffffffffffffffffffffffffff161415611c4e576040517f08c379a0000000000000000000000000000000000000000000000000000000008152600401611c45906148b6565b60405180910390fd5b8060056000611c5b612414565b73ffffffffffffffffffffffffffffffffffffffff1673ffffffffffffffffffffffffffffffffffffffff16815260200190815260200160002060008473ffffffffffffffffffffffffffffffffffffffff1673ffffffffffffffffffffffffffffffffffffffff16815260200190815260200160002060006101000a81548160ff0219169083151502179055508173ffffffffffffffffffffffffffffffffffffffff16611d08612414565b73ffffffffffffffffffffffffffffffffffffffff167f17307eab39ab6107e8899845ad3d59bd9653f200f220920489ca2b5937696c3183604051611d4d91906147b9565b60405180910390a35050565b611d6a611d64612414565b836124ea565b611da9576040517f08c379a0000000000000000000000000000000000000000000000000000000008152600401611da090614af6565b60405180910390fd5b611db584848484612a7f565b50505050565b6060611dc6826123f7565b611e05576040517f08c379a0000000000000000000000000000000000000000000000000000000008152600401611dfc90614a96565b60405180910390fd5b6060600860008481526020019081526020016000208054600181600116156101000203166002900480601f016020809104026020016040519081016040528092919081815260200182805460018160011615610100020316600290048015611eae5780601f10611e8357610100808354040283529160200191611eae565b820191906000526020600020905b815481529060010190602001808311611e9157829003601f168201915b50505050509050600060098054600181600116156101000203166002900490501415611edd5780915050611f41565b600081511115611f1257600981604051602001611efb92919061460d565b604051602081830303815290604052915050611f41565b6009611f1d84612adb565b604051602001611f2e92919061460d565b6040516020818303038152906040529150505b919050565b6000611f50612414565b73ffffffffffffffffffffffffffffffffffffffff16600a60009054906101000a900473ffffffffffffffffffffffffffffffffffffffff1673ffffffffffffffffffffffffffffffffffffffff1614611fdf576040517f08c379a0000000000000000000000000000000000000000000000000000000008152600401611fd690614a56565b60405180910390fd5b611fe9600c612825565b6000611ff5600c61283b565b9050601060405180606001604052808381526020018681526020018581525090806001815401808255809150506001900390600052602060002090600302016000909190919091506000820151816000015560208201518160010190805190602001906120639291906133b1565b506040820151816002015550508091505092915050565b6000600560008473ffffffffffffffffffffffffffffffffffffffff1673ffffffffffffffffffffffffffffffffffffffff16815260200190815260200160002060008373ffffffffffffffffffffffffffffffffffffffff1673ffffffffffffffffffffffffffffffffffffffff16815260200190815260200160002060009054906101000a900460ff16905092915050565b60606000600f60008473ffffffffffffffffffffffffffffffffffffffff1673ffffffffffffffffffffffffffffffffffffffff1681526020019081526020016000206000018054905011612198576040517f08c379a000000000000000000000000000000000000000000000000000000000815260040161218f90614ad6565b60405180910390fd5b600f60008373ffffffffffffffffffffffffffffffffffffffff1673ffffffffffffffffffffffffffffffffffffffff16815260200190815260200160002060000180548060200260200160405190810160405280929190818152602001828054801561222457602002820191906000526020600020905b815481526020019060010190808311612210575b50505050509050919050565b612238612414565b73ffffffffffffffffffffffffffffffffffffffff16600a60009054906101000a900473ffffffffffffffffffffffffffffffffffffffff1673ffffffffffffffffffffffffffffffffffffffff16146122c7576040517f08c379a00000000000000000000000000000000000000000000000000000000081526004016122be90614a56565b60405180910390fd5b600073ffffffffffffffffffffffffffffffffffffffff168173ffffffffffffffffffffffffffffffffffffffff161415612337576040517f08c379a000000000000000000000000000000000000000000000000000000000815260040161232e90614856565b60405180910390fd5b8073ffffffffffffffffffffffffffffffffffffffff16600a60009054906101000a900473ffffffffffffffffffffffffffffffffffffffff1673ffffffffffffffffffffffffffffffffffffffff167f8be0079c531659141344cd1fd0a4f28419497f9722a3daafe3b4186f6b6457e060405160405180910390a380600a60006101000a81548173ffffffffffffffffffffffffffffffffffffffff021916908373ffffffffffffffffffffffffffffffffffffffff16021790555050565b600061240d826002612c2290919063ffffffff16565b9050919050565b600033905090565b816004600083815260200190815260200160002060006101000a81548173ffffffffffffffffffffffffffffffffffffffff021916908373ffffffffffffffffffffffffffffffffffffffff160217905550808273ffffffffffffffffffffffffffffffffffffffff1661248f836114ca565b73ffffffffffffffffffffffffffffffffffffffff167f8c5be1e5ebec7d5bd14f71427d1e84f3dd0314c0f7b2291e5b200ac8c7c3b92560405160405180910390a45050565b60006124e382600001612c3c565b9050919050565b60006124f5826123f7565b612534576040517f08c379a000000000000000000000000000000000000000000000000000000000815260040161252b90614916565b60405180910390fd5b600061253f836114ca565b90508073ffffffffffffffffffffffffffffffffffffffff168473ffffffffffffffffffffffffffffffffffffffff1614806125ae57508373ffffffffffffffffffffffffffffffffffffffff16612596846108b5565b73ffffffffffffffffffffffffffffffffffffffff16145b806125bf57506125be818561207a565b5b91505092915050565b8273ffffffffffffffffffffffffffffffffffffffff166125e8826114ca565b73ffffffffffffffffffffffffffffffffffffffff161461263e576040517f08c379a000000000000000000000000000000000000000000000000000000000815260040161263590614a76565b60405180910390fd5b600073ffffffffffffffffffffffffffffffffffffffff168273ffffffffffffffffffffffffffffffffffffffff1614156126ae576040517f08c379a00000000000000000000000000000000000000000000000000000000081526004016126a590614896565b60405180910390fd5b6126b9838383612c4d565b6126c460008261241c565b61271581600160008673ffffffffffffffffffffffffffffffffffffffff1673ffffffffffffffffffffffffffffffffffffffff168152602001908152602001600020612c5290919063ffffffff16565b5061276781600160008573ffffffffffffffffffffffffffffffffffffffff1673ffffffffffffffffffffffffffffffffffffffff168152602001908152602001600020612c6c90919063ffffffff16565b5061277e81836002612c869092919063ffffffff16565b50808273ffffffffffffffffffffffffffffffffffffffff168473ffffffffffffffffffffffffffffffffffffffff167fddf252ad1be2c89b69c2b068fc378daa952ba7f163c4a11628f55a4df523b3ef60405160405180910390a4505050565b60006127ee8360000183612cbb565b60001c905092915050565b60008060008061280c8660000186612d28565b915091508160001c8160001c9350935050509250929050565b6001816000016000828254019250508190555050565b600081600001549050919050565b600073ffffffffffffffffffffffffffffffffffffffff168273ffffffffffffffffffffffffffffffffffffffff1614156128b9576040517f08c379a00000000000000000000000000000000000000000000000000000000081526004016128b0906149d6565b60405180910390fd5b6128c2816123f7565b15612902576040517f08c379a00000000000000000000000000000000000000000000000000000000081526004016128f990614876565b60405180910390fd5b61290e60008383612c4d565b61295f81600160008573ffffffffffffffffffffffffffffffffffffffff1673ffffffffffffffffffffffffffffffffffffffff168152602001908152602001600020612c6c90919063ffffffff16565b5061297681836002612c869092919063ffffffff16565b50808273ffffffffffffffffffffffffffffffffffffffff16600073ffffffffffffffffffffffffffffffffffffffff167fddf252ad1be2c89b69c2b068fc378daa952ba7f163c4a11628f55a4df523b3ef60405160405180910390a45050565b6129e0826123f7565b612a1f576040517f08c379a0000000000000000000000000000000000000000000000000000000008152600401612a1690614a36565b60405180910390fd5b80600860008481526020019081526020016000209080519060200190612a469291906133b1565b505050565b6000612a5e846000018460001b84612dab565b60001c90509392505050565b6000612a7882600001612e3c565b9050919050565b612a8a8484846125c8565b612a9684848484612e4d565b612ad5576040517f08c379a0000000000000000000000000000000000000000000000000000000008152600401612acc90614836565b60405180910390fd5b50505050565b60606000821415612b23576040518060400160405280600181526020017f30000000000000000000000000000000000000000000000000000000000000008152509050612c1d565b600082905060005b60008214612b4d578080600101915050600a8281612b4557fe5b049150612b2b565b60608167ffffffffffffffff81118015612b6657600080fd5b506040519080825280601f01601f191660200182016040528015612b995781602001600182028036833780820191505090505b50905060006001830390508593505b60008414612c1557600a8481612bba57fe5b0660300160f81b82828060019003935081518110612bd457fe5b60200101907effffffffffffffffffffffffffffffffffffffffffffffffffffffffffffff1916908160001a905350600a8481612c0d57fe5b049350612ba8565b819450505050505b919050565b6000612c34836000018360001b612fb1565b905092915050565b600081600001805490509050919050565b505050565b6000612c64836000018360001b612fd4565b905092915050565b6000612c7e836000018360001b6130bc565b905092915050565b6000612cb2846000018460001b8473ffffffffffffffffffffffffffffffffffffffff1660001b61312c565b90509392505050565b600081836000018054905011612d06576040517f08c379a0000000000000000000000000000000000000000000000000000000008152600401612cfd90614816565b60405180910390fd5b826000018281548110612d1557fe5b9060005260206000200154905092915050565b60008082846000018054905011612d74576040517f08c379a0000000000000000000000000000000000000000000000000000000008152600401612d6b906149b6565b60405180910390fd5b6000846000018481548110612d8557fe5b906000526020600020906002020190508060000154816001015492509250509250929050565b60008084600101600085815260200190815260200160002054905060008114158390612e0d576040517f08c379a0000000000000000000000000000000000000000000000000000000008152600401612e0491906147d4565b60405180910390fd5b50846000016001820381548110612e2057fe5b9060005260206000209060020201600101549150509392505050565b600081600001805490509050919050565b6000612e6e8473ffffffffffffffffffffffffffffffffffffffff16613208565b612e7b5760019050612fa9565b6060612f4263150b7a0260e01b612e90612414565b888787604051602401612ea6949392919061464c565b604051602081830303815290604052907bffffffffffffffffffffffffffffffffffffffffffffffffffffffff19166020820180517bffffffffffffffffffffffffffffffffffffffffffffffffffffffff8381831617835250505050604051806060016040528060328152602001614e76603291398773ffffffffffffffffffffffffffffffffffffffff166132539092919063ffffffff16565b9050600081806020019051810190612f5a91906137aa565b905063150b7a0260e01b7bffffffffffffffffffffffffffffffffffffffffffffffffffffffff1916817bffffffffffffffffffffffffffffffffffffffffffffffffffffffff191614925050505b949350505050565b600080836001016000848152602001908152602001600020541415905092915050565b600080836001016000848152602001908152602001600020549050600081146130b0576000600182039050600060018660000180549050039050600086600001828154811061301f57fe5b906000526020600020015490508087600001848154811061303c57fe5b906000526020600020018190555060018301876001016000838152602001908152602001600020819055508660000180548061307457fe5b600190038181906000526020600020016000905590558660010160008781526020019081526020016000206000905560019450505050506130b6565b60009150505b92915050565b60006130c8838361326b565b613121578260000182908060018154018082558091505060019003906000526020600020016000909190919091505582600001805490508360010160008481526020019081526020016000208190555060019050613126565b600090505b92915050565b60008084600101600085815260200190815260200160002054905060008114156131d357846000016040518060400160405280868152602001858152509080600181540180825580915050600190039060005260206000209060020201600090919091909150600082015181600001556020820151816001015550508460000180549050856001016000868152602001908152602001600020819055506001915050613201565b828560000160018303815481106131e657fe5b90600052602060002090600202016001018190555060009150505b9392505050565b60008060007fc5d2460186f7233c927e7db2dcc703c0e500b653ca82273b7bfad8045d85a47060001b9050833f915080821415801561324a57506000801b8214155b92505050919050565b6060613262848460008561328e565b90509392505050565b600080836001016000848152602001908152602001600020541415905092915050565b606061329985613208565b6132d8576040517f08c379a00000000000000000000000000000000000000000000000000000000081526004016132cf90614b16565b60405180910390fd5b600060608673ffffffffffffffffffffffffffffffffffffffff16858760405161330291906145f6565b60006040518083038185875af1925050503d806000811461333f576040519150601f19603f3d011682016040523d82523d6000602084013e613344565b606091505b509150915081156133595780925050506133a9565b60008151111561336c5780518082602001fd5b836040517f08c379a00000000000000000000000000000000000000000000000000000000081526004016133a091906147d4565b60405180910390fd5b949350505050565b828054600181600116156101000203166002900490600052602060002090601f016020900481019282601f106133f257805160ff1916838001178555613420565b82800160010185558215613420579182015b8281111561341f578251825591602001919060010190613404565b5b50905061342d9190613431565b5090565b5b8082111561344a576000816000905550600101613432565b5090565b60008135905061345d81614e19565b92915050565b60008135905061347281614e30565b92915050565b60008135905061348781614e47565b92915050565b60008151905061349c81614e47565b92915050565b600082601f8301126134b357600080fd5b81356134c66134c182614bc2565b614b91565b915080825260208301602083018583830111156134e257600080fd5b6134ed838284614dc4565b50505092915050565b600082601f83011261350757600080fd5b813561351a61351582614bf2565b614b91565b9150808252602083016020830185838301111561353657600080fd5b613541838284614dc4565b50505092915050565b60008135905061355981614e5e565b92915050565b60006020828403121561357157600080fd5b600061357f8482850161344e565b91505092915050565b6000806040838503121561359b57600080fd5b60006135a98582860161344e565b92505060206135ba8582860161344e565b9150509250929050565b600080600080608085870312156135da57600080fd5b60006135e88782880161344e565b94505060206135f98782880161344e565b935050604085013567ffffffffffffffff81111561361657600080fd5b613622878288016134f6565b92505060606136338782880161354a565b91505092959194509250565b60008060006060848603121561365457600080fd5b60006136628682870161344e565b93505060206136738682870161344e565b92505060406136848682870161354a565b9150509250925092565b600080600080608085870312156136a457600080fd5b60006136b28782880161344e565b94505060206136c38782880161344e565b93505060406136d48782880161354a565b925050606085013567ffffffffffffffff8111156136f157600080fd5b6136fd878288016134a2565b91505092959194509250565b6000806040838503121561371c57600080fd5b600061372a8582860161344e565b925050602061373b85828601613463565b9150509250929050565b6000806040838503121561375857600080fd5b60006137668582860161344e565b92505060206137778582860161354a565b9150509250929050565b60006020828403121561379357600080fd5b60006137a184828501613478565b91505092915050565b6000602082840312156137bc57600080fd5b60006137ca8482850161348d565b91505092915050565b600080604083850312156137e657600080fd5b600083013567ffffffffffffffff81111561380057600080fd5b61380c858286016134f6565b925050602061381d8582860161354a565b9150509250929050565b60006020828403121561383957600080fd5b60006138478482850161354a565b91505092915050565b6000806040838503121561386357600080fd5b60006138718582860161354a565b925050602083013567ffffffffffffffff81111561388e57600080fd5b61389a858286016134f6565b9150509250929050565b600080604083850312156138b757600080fd5b60006138c58582860161354a565b92505060206138d68582860161354a565b9150509250929050565b60006138ec8383614588565b905092915050565b600061390083836145d8565b60208301905092915050565b61391581614d8e565b82525050565b61392481614d1a565b82525050565b61393381614d08565b82525050565b600061394482614c57565b61394e8185614c9d565b93508360208202850161396085614c22565b8060005b8581101561399c578484038952815161397d85826138e0565b945061398883614c83565b925060208a01995050600181019050613964565b50829750879550505050505092915050565b60006139b982614c62565b6139c38185614cae565b93506139ce83614c32565b8060005b838110156139ff5781516139e688826138f4565b97506139f183614c90565b9250506001810190506139d2565b5085935050505092915050565b613a1581614d2c565b82525050565b6000613a2682614c6d565b613a308185614cbf565b9350613a40818560208601614dd3565b613a4981614e08565b840191505092915050565b6000613a5f82614c6d565b613a698185614cd0565b9350613a79818560208601614dd3565b80840191505092915050565b6000613a9082614c78565b613a9a8185614cdb565b9350613aaa818560208601614dd3565b613ab381614e08565b840191505092915050565b6000613ac982614c78565b613ad38185614cec565b9350613ae3818560208601614dd3565b613aec81614e08565b840191505092915050565b6000613b0282614c78565b613b0c8185614cfd565b9350613b1c818560208601614dd3565b80840191505092915050565b600081546001811660008114613b455760018114613b6a57613bae565b607f6002830416613b568187614cfd565b955060ff1983168652808601935050613bae565b60028204613b788187614cfd565b9550613b8385614c42565b60005b82811015613ba557815481890152600182019150602081019050613b86565b82880195505050505b505092915050565b6000613bc3601383614cec565b91507f546f6b656e20646f65736e2774206578697374000000000000000000000000006000830152602082019050919050565b6000613c03602283614cec565b91507f456e756d657261626c655365743a20696e646578206f7574206f6620626f756e60008301527f64730000000000000000000000000000000000000000000000000000000000006020830152604082019050919050565b6000613c69603283614cec565b91507f4552433732313a207472616e7366657220746f206e6f6e20455243373231526560008301527f63656976657220696d706c656d656e74657200000000000000000000000000006020830152604082019050919050565b6000613ccf602683614cec565b91507f4f776e61626c653a206e6577206f776e657220697320746865207a65726f206160008301527f64647265737300000000000000000000000000000000000000000000000000006020830152604082019050919050565b6000613d35601c83614cec565b91507f4552433732313a20746f6b656e20616c7265616479206d696e746564000000006000830152602082019050919050565b6000613d75602483614cec565b91507f4552433732313a207472616e7366657220746f20746865207a65726f2061646460008301527f72657373000000000000000000000000000000000000000000000000000000006020830152604082019050919050565b6000613ddb601983614cec565b91507f4552433732313a20617070726f766520746f2063616c6c6572000000000000006000830152602082019050919050565b6000613e1b601483614cec565b91507f546f6b656e20646f6573206e6f742065786973740000000000000000000000006000830152602082019050919050565b6000613e5b602683614cec565b91507f526571756573746564207472616e73666f726d6174696f6e20646f65736e277460008301527f20657869737400000000000000000000000000000000000000000000000000006020830152604082019050919050565b6000613ec1602c83614cec565b91507f4552433732313a206f70657261746f7220717565727920666f72206e6f6e657860008301527f697374656e7420746f6b656e00000000000000000000000000000000000000006020830152604082019050919050565b6000613f27601983614cec565b91507f5573657220686173206e6f20626f7567687420746f6b656e73000000000000006000830152602082019050919050565b6000613f67603883614cec565b91507f4552433732313a20617070726f76652063616c6c6572206973206e6f74206f7760008301527f6e6572206e6f7220617070726f76656420666f7220616c6c00000000000000006020830152604082019050919050565b6000613fcd602a83614cec565b91507f4552433732313a2062616c616e636520717565727920666f7220746865207a6560008301527f726f2061646472657373000000000000000000000000000000000000000000006020830152604082019050919050565b6000614033604483614cec565b91507f4f6e6c792074686520706572736f6e2077686f2067656e65726174656420746860008301527f6520696d6167652063616e2062757920697420696e207468652066697273742060208301527f686f7572000000000000000000000000000000000000000000000000000000006040830152606082019050919050565b60006140bf602283614cec565b91507f456e756d657261626c654d61703a20696e646578206f7574206f6620626f756e60008301527f64730000000000000000000000000000000000000000000000000000000000006020830152604082019050919050565b6000614125602083614cec565b91507f4552433732313a206d696e7420746f20746865207a65726f20616464726573736000830152602082019050919050565b6000614165601483614cec565b91507f546f6b656e20616c726561647920626f756768740000000000000000000000006000830152602082019050919050565b60006141a5602c83614cec565b91507f4552433732313a20617070726f76656420717565727920666f72206e6f6e657860008301527f697374656e7420746f6b656e00000000000000000000000000000000000000006020830152604082019050919050565b600061420b602c83614cec565b91507f4552433732314d657461646174613a2055524920736574206f66206e6f6e657860008301527f697374656e7420746f6b656e00000000000000000000000000000000000000006020830152604082019050919050565b6000614271602083614cec565b91507f4f776e61626c653a2063616c6c6572206973206e6f7420746865206f776e65726000830152602082019050919050565b60006142b1602983614cec565b91507f4552433732313a207472616e73666572206f6620746f6b656e2074686174206960008301527f73206e6f74206f776e00000000000000000000000000000000000000000000006020830152604082019050919050565b6000614317602f83614cec565b91507f4552433732314d657461646174613a2055524920717565727920666f72206e6f60008301527f6e6578697374656e7420746f6b656e00000000000000000000000000000000006020830152604082019050919050565b600061437d602183614cec565b91507f4552433732313a20617070726f76616c20746f2063757272656e74206f776e6560008301527f72000000000000000000000000000000000000000000000000000000000000006020830152604082019050919050565b60006143e3601c83614cec565b91507f5573657220686173206e6f2067656e65726174656420746f6b656e73000000006000830152602082019050919050565b6000614423603183614cec565b91507f4552433732313a207472616e736665722063616c6c6572206973206e6f74206f60008301527f776e6572206e6f7220617070726f7665640000000000000000000000000000006020830152604082019050919050565b6000614489601d83614cec565b91507f416464726573733a2063616c6c20746f206e6f6e2d636f6e74726163740000006000830152602082019050919050565b60006144c9603183614cec565b91507f5472616e73616374696f6e2076616c7565206d757374206d617463682074726160008301527f6e73666f726d6174696f6e2070726963650000000000000000000000000000006020830152604082019050919050565b600061452f602683614cec565b91507f5472616e73616374696f6e2076616c7565206d757374206d61746368206e667460008301527f20707269636500000000000000000000000000000000000000000000000000006020830152604082019050919050565b60006060830160008301516145a060008601826145d8565b50602083015184820360208601526145b88282613a85565b91505060408301516145cd60408601826145d8565b508091505092915050565b6145e181614d84565b82525050565b6145f081614d84565b82525050565b60006146028284613a54565b915081905092915050565b60006146198285613b28565b91506146258284613af7565b91508190509392505050565b6000602082019050614646600083018461392a565b92915050565b6000608082019050614661600083018761391b565b61466e602083018661392a565b61467b60408301856145e7565b818103606083015261468d8184613a1b565b905095945050505050565b60006060820190506146ad600083018661390c565b6146ba60208301856145e7565b6146c760408301846145e7565b949350505050565b60006080820190506146e4600083018761390c565b6146f160208301866145e7565b6146fe60408301856145e7565b81810360608301526147108184613abe565b905095945050505050565b600060a082019050614730600083018861392a565b61473d602083018761392a565b61474a60408301866145e7565b818103606083015261475c8185613abe565b905061476b60808301846145e7565b9695505050505050565b6000602082019050818103600083015261478f8184613939565b905092915050565b600060208201905081810360008301526147b181846139ae565b905092915050565b60006020820190506147ce6000830184613a0c565b92915050565b600060208201905081810360008301526147ee8184613abe565b905092915050565b6000602082019050818103600083015261480f81613bb6565b9050919050565b6000602082019050818103600083015261482f81613bf6565b9050919050565b6000602082019050818103600083015261484f81613c5c565b9050919050565b6000602082019050818103600083015261486f81613cc2565b9050919050565b6000602082019050818103600083015261488f81613d28565b9050919050565b600060208201905081810360008301526148af81613d68565b9050919050565b600060208201905081810360008301526148cf81613dce565b9050919050565b600060208201905081810360008301526148ef81613e0e565b9050919050565b6000602082019050818103600083015261490f81613e4e565b9050919050565b6000602082019050818103600083015261492f81613eb4565b9050919050565b6000602082019050818103600083015261494f81613f1a565b9050919050565b6000602082019050818103600083015261496f81613f5a565b9050919050565b6000602082019050818103600083015261498f81613fc0565b9050919050565b600060208201905081810360008301526149af81614026565b9050919050565b600060208201905081810360008301526149cf816140b2565b9050919050565b600060208201905081810360008301526149ef81614118565b9050919050565b60006020820190508181036000830152614a0f81614158565b9050919050565b60006020820190508181036000830152614a2f81614198565b9050919050565b60006020820190508181036000830152614a4f816141fe565b9050919050565b60006020820190508181036000830152614a6f81614264565b9050919050565b60006020820190508181036000830152614a8f816142a4565b9050919050565b60006020820190508181036000830152614aaf8161430a565b9050919050565b60006020820190508181036000830152614acf81614370565b9050919050565b60006020820190508181036000830152614aef816143d6565b9050919050565b60006020820190508181036000830152614b0f81614416565b9050919050565b60006020820190508181036000830152614b2f8161447c565b9050919050565b60006020820190508181036000830152614b4f816144bc565b9050919050565b60006020820190508181036000830152614b6f81614522565b9050919050565b6000602082019050614b8b60008301846145e7565b92915050565b6000604051905081810181811067ffffffffffffffff82111715614bb857614bb7614e06565b5b8060405250919050565b600067ffffffffffffffff821115614bdd57614bdc614e06565b5b601f19601f8301169050602081019050919050565b600067ffffffffffffffff821115614c0d57614c0c614e06565b5b601f19601f8301169050602081019050919050565b6000819050602082019050919050565b6000819050602082019050919050565b60008190508160005260206000209050919050565b600081519050919050565b600081519050919050565b600081519050919050565b600081519050919050565b6000602082019050919050565b6000602082019050919050565b600082825260208201905092915050565b600082825260208201905092915050565b600082825260208201905092915050565b600081905092915050565b600082825260208201905092915050565b600082825260208201905092915050565b600081905092915050565b6000614d1382614d64565b9050919050565b6000614d2582614d64565b9050919050565b60008115159050919050565b60007fffffffff0000000000000000000000000000000000000000000000000000000082169050919050565b600073ffffffffffffffffffffffffffffffffffffffff82169050919050565b6000819050919050565b6000614d9982614da0565b9050919050565b6000614dab82614db2565b9050919050565b6000614dbd82614d64565b9050919050565b82818337600083830152505050565b60005b83811015614df1578082015181840152602081019050614dd6565b83811115614e00576000848401525b50505050565bfe5b6000601f19601f8301169050919050565b614e2281614d08565b8114614e2d57600080fd5b50565b614e3981614d2c565b8114614e4457600080fd5b50565b614e5081614d38565b8114614e5b57600080fd5b50565b614e6781614d84565b8114614e7257600080fd5b5056fe4552433732313a207472616e7366657220746f206e6f6e20455243373231526563656976657220696d706c656d656e7465724552433732313a206f776e657220717565727920666f72206e6f6e6578697374656e7420746f6b656ea264697066735822122039bf6d440988d720205c9cbe259b98eb8f546be44b1fc12f040693dde79dc9f064736f6c63430007030033",
  "linkReferences": {},
  "deployedLinkReferences": {}
}