{
  "_format": "hh-sol-artifact-1",
  "contractName": "StyleArt",
  "sourceName": "contracts/StyleArt.sol",
  "abi": [
    {
      "inputs": [],
      "stateMutability": "nonpayable",
      "type": "constructor"
    },
    {
      "anonymous": false,
      "inputs": [
        {
          "indexed": true,
          "internalType": "address",
          "name": "owner",
          "type": "address"
        },
        {
          "indexed": true,
          "internalType": "address",
          "name": "approved",
          "type": "address"
        },
        {
          "indexed": true,
          "internalType": "uint256",
          "name": "tokenId",
          "type": "uint256"
        }
      ],
      "name": "Approval",
      "type": "event"
    },
    {
      "anonymous": false,
      "inputs": [
        {
          "indexed": true,
          "internalType": "address",
          "name": "owner",
          "type": "address"
        },
        {
          "indexed": true,
          "internalType": "address",
          "name": "operator",
          "type": "address"
        },
        {
          "indexed": false,
          "internalType": "bool",
          "name": "approved",
          "type": "bool"
        }
      ],
      "name": "ApprovalForAll",
      "type": "event"
    },
    {
      "anonymous": false,
      "inputs": [
        {
          "indexed": false,
          "internalType": "address",
          "name": "sender",
          "type": "address"
        },
        {
          "indexed": false,
          "internalType": "uint256",
          "name": "value",
          "type": "uint256"
        },
        {
          "indexed": false,
          "internalType": "uint256",
          "name": "transformationId",
          "type": "uint256"
        },
        {
          "indexed": false,
          "internalType": "uint256",
          "name": "transformationNumber",
          "type": "uint256"
        },
        {
          "indexed": false,
          "internalType": "bytes",
          "name": "params",
          "type": "bytes"
        }
      ],
      "name": "ImageGenerationPaid",
      "type": "event"
    },
    {
      "anonymous": false,
      "inputs": [
        {
          "indexed": true,
          "internalType": "address",
          "name": "previousOwner",
          "type": "address"
        },
        {
          "indexed": true,
          "internalType": "address",
          "name": "newOwner",
          "type": "address"
        }
      ],
      "name": "OwnershipTransferred",
      "type": "event"
    },
    {
      "anonymous": false,
      "inputs": [
        {
          "indexed": false,
          "internalType": "address",
          "name": "payer",
          "type": "address"
        },
        {
          "indexed": false,
          "internalType": "uint256",
          "name": "tokenId",
          "type": "uint256"
        },
        {
          "indexed": false,
          "internalType": "string",
          "name": "tokenURI",
          "type": "string"
        }
      ],
      "name": "TokenMinted",
      "type": "event"
    },
    {
      "anonymous": false,
      "inputs": [
        {
          "indexed": true,
          "internalType": "address",
          "name": "from",
          "type": "address"
        },
        {
          "indexed": true,
          "internalType": "address",
          "name": "to",
          "type": "address"
        },
        {
          "indexed": true,
          "internalType": "uint256",
          "name": "tokenId",
          "type": "uint256"
        }
      ],
      "name": "Transfer",
      "type": "event"
    },
    {
      "inputs": [
        {
          "internalType": "address",
          "name": "minter",
          "type": "address"
        }
      ],
      "name": "addMinter",
      "outputs": [
        {
          "internalType": "bool",
          "name": "",
          "type": "bool"
        }
      ],
      "stateMutability": "nonpayable",
      "type": "function"
    },
    {
      "inputs": [
        {
          "internalType": "string",
          "name": "name",
          "type": "string"
        },
        {
          "internalType": "uint256",
          "name": "price",
          "type": "uint256"
        },
        {
          "internalType": "uint256",
          "name": "supply",
          "type": "uint256"
        }
      ],
      "name": "addTransformation",
      "outputs": [
        {
          "internalType": "uint256",
          "name": "",
          "type": "uint256"
        }
      ],
      "stateMutability": "nonpayable",
      "type": "function"
    },
    {
      "inputs": [
        {
          "internalType": "address",
          "name": "to",
          "type": "address"
        },
        {
          "internalType": "uint256",
          "name": "tokenId",
          "type": "uint256"
        }
      ],
      "name": "approve",
      "outputs": [],
      "stateMutability": "nonpayable",
      "type": "function"
    },
    {
      "inputs": [
        {
          "internalType": "address",
          "name": "owner",
          "type": "address"
        }
      ],
      "name": "balanceOf",
      "outputs": [
        {
          "internalType": "uint256",
          "name": "",
          "type": "uint256"
        }
      ],
      "stateMutability": "view",
      "type": "function"
    },
    {
      "inputs": [],
      "name": "baseURI",
      "outputs": [
        {
          "internalType": "string",
          "name": "",
          "type": "string"
        }
      ],
      "stateMutability": "view",
      "type": "function"
    },
    {
      "inputs": [
        {
          "internalType": "uint256",
          "name": "tokenId",
          "type": "uint256"
        }
      ],
      "name": "getApproved",
      "outputs": [
        {
          "internalType": "address",
          "name": "",
          "type": "address"
        }
      ],
      "stateMutability": "view",
      "type": "function"
    },
    {
      "inputs": [
        {
          "internalType": "address",
          "name": "owner",
          "type": "address"
        },
        {
          "internalType": "address",
          "name": "operator",
          "type": "address"
        }
      ],
      "name": "isApprovedForAll",
      "outputs": [
        {
          "internalType": "bool",
          "name": "",
          "type": "bool"
        }
      ],
      "stateMutability": "view",
      "type": "function"
    },
    {
      "inputs": [],
      "name": "listTransformations",
      "outputs": [
        {
          "components": [
            {
              "internalType": "uint256",
              "name": "id",
              "type": "uint256"
            },
            {
              "internalType": "uint256",
              "name": "price",
              "type": "uint256"
            },
            {
              "internalType": "uint256",
              "name": "supply",
              "type": "uint256"
            },
            {
              "internalType": "uint256",
              "name": "nTokens",
              "type": "uint256"
            },
            {
              "internalType": "string",
              "name": "name",
              "type": "string"
            },
            {
              "internalType": "bool",
              "name": "exists",
              "type": "bool"
            }
          ],
          "internalType": "struct StyleArt.Transformation[]",
          "name": "",
          "type": "tuple[]"
        }
      ],
      "stateMutability": "view",
      "type": "function"
    },
    {
      "inputs": [
        {
          "internalType": "address",
          "name": "payer",
          "type": "address"
        },
        {
          "internalType": "string",
          "name": "tokenURI",
          "type": "string"
        }
      ],
      "name": "mintNFT",
      "outputs": [
        {
          "internalType": "uint256",
          "name": "",
          "type": "uint256"
        }
      ],
      "stateMutability": "nonpayable",
      "type": "function"
    },
    {
      "inputs": [
        {
          "internalType": "address",
          "name": "",
          "type": "address"
        }
      ],
      "name": "minters",
      "outputs": [
        {
          "internalType": "bool",
          "name": "",
          "type": "bool"
        }
      ],
      "stateMutability": "view",
      "type": "function"
    },
    {
      "inputs": [],
      "name": "name",
      "outputs": [
        {
          "internalType": "string",
          "name": "",
          "type": "string"
        }
      ],
      "stateMutability": "view",
      "type": "function"
    },
    {
      "inputs": [],
      "name": "owner",
      "outputs": [
        {
          "internalType": "address",
          "name": "",
          "type": "address"
        }
      ],
      "stateMutability": "view",
      "type": "function"
    },
    {
      "inputs": [
        {
          "internalType": "uint256",
          "name": "tokenId",
          "type": "uint256"
        }
      ],
      "name": "ownerOf",
      "outputs": [
        {
          "internalType": "address",
          "name": "",
          "type": "address"
        }
      ],
      "stateMutability": "view",
      "type": "function"
    },
    {
      "inputs": [
        {
          "internalType": "uint256",
          "name": "transformationId",
          "type": "uint256"
        },
        {
          "internalType": "bytes",
          "name": "params",
          "type": "bytes"
        }
      ],
      "name": "payGenerating",
      "outputs": [],
      "stateMutability": "payable",
      "type": "function"
    },
    {
      "inputs": [
        {
          "internalType": "address",
          "name": "minter",
          "type": "address"
        }
      ],
      "name": "removeMinter",
      "outputs": [
        {
          "internalType": "bool",
          "name": "",
          "type": "bool"
        }
      ],
      "stateMutability": "nonpayable",
      "type": "function"
    },
    {
      "inputs": [],
      "name": "renounceOwnership",
      "outputs": [],
      "stateMutability": "nonpayable",
      "type": "function"
    },
    {
      "inputs": [
        {
          "internalType": "address",
          "name": "from",
          "type": "address"
        },
        {
          "internalType": "address",
          "name": "to",
          "type": "address"
        },
        {
          "internalType": "uint256",
          "name": "tokenId",
          "type": "uint256"
        }
      ],
      "name": "safeTransferFrom",
      "outputs": [],
      "stateMutability": "nonpayable",
      "type": "function"
    },
    {
      "inputs": [
        {
          "internalType": "address",
          "name": "from",
          "type": "address"
        },
        {
          "internalType": "address",
          "name": "to",
          "type": "address"
        },
        {
          "internalType": "uint256",
          "name": "tokenId",
          "type": "uint256"
        },
        {
          "internalType": "bytes",
          "name": "_data",
          "type": "bytes"
        }
      ],
      "name": "safeTransferFrom",
      "outputs": [],
      "stateMutability": "nonpayable",
      "type": "function"
    },
    {
      "inputs": [
        {
          "internalType": "address",
          "name": "operator",
          "type": "address"
        },
        {
          "internalType": "bool",
          "name": "approved",
          "type": "bool"
        }
      ],
      "name": "setApprovalForAll",
      "outputs": [],
      "stateMutability": "nonpayable",
      "type": "function"
    },
    {
      "inputs": [
        {
          "internalType": "bytes4",
          "name": "interfaceId",
          "type": "bytes4"
        }
      ],
      "name": "supportsInterface",
      "outputs": [
        {
          "internalType": "bool",
          "name": "",
          "type": "bool"
        }
      ],
      "stateMutability": "view",
      "type": "function"
    },
    {
      "inputs": [],
      "name": "symbol",
      "outputs": [
        {
          "internalType": "string",
          "name": "",
          "type": "string"
        }
      ],
      "stateMutability": "view",
      "type": "function"
    },
    {
      "inputs": [
        {
          "internalType": "uint256",
          "name": "index",
          "type": "uint256"
        }
      ],
      "name": "tokenByIndex",
      "outputs": [
        {
          "internalType": "uint256",
          "name": "",
          "type": "uint256"
        }
      ],
      "stateMutability": "view",
      "type": "function"
    },
    {
      "inputs": [
        {
          "internalType": "address",
          "name": "owner",
          "type": "address"
        },
        {
          "internalType": "uint256",
          "name": "index",
          "type": "uint256"
        }
      ],
      "name": "tokenOfOwnerByIndex",
      "outputs": [
        {
          "internalType": "uint256",
          "name": "",
          "type": "uint256"
        }
      ],
      "stateMutability": "view",
      "type": "function"
    },
    {
      "inputs": [
        {
          "internalType": "uint256",
          "name": "tokenId",
          "type": "uint256"
        }
      ],
      "name": "tokenURI",
      "outputs": [
        {
          "internalType": "string",
          "name": "",
          "type": "string"
        }
      ],
      "stateMutability": "view",
      "type": "function"
    },
    {
      "inputs": [],
      "name": "totalSupply",
      "outputs": [
        {
          "internalType": "uint256",
          "name": "",
          "type": "uint256"
        }
      ],
      "stateMutability": "view",
      "type": "function"
    },
    {
      "inputs": [
        {
          "internalType": "address",
          "name": "from",
          "type": "address"
        },
        {
          "internalType": "address",
          "name": "to",
          "type": "address"
        },
        {
          "internalType": "uint256",
          "name": "tokenId",
          "type": "uint256"
        }
      ],
      "name": "transferFrom",
      "outputs": [],
      "stateMutability": "nonpayable",
      "type": "function"
    },
    {
      "inputs": [
        {
          "internalType": "address",
          "name": "newOwner",
          "type": "address"
        }
      ],
      "name": "transferOwnership",
      "outputs": [],
      "stateMutability": "nonpayable",
      "type": "function"
    },
    {
      "inputs": [
        {
          "internalType": "uint256",
          "name": "id",
          "type": "uint256"
        },
        {
          "internalType": "uint256",
          "name": "price",
          "type": "uint256"
        }
      ],
      "name": "updateTransformationPrice",
      "outputs": [
        {
          "internalType": "bool",
          "name": "",
          "type": "bool"
        }
      ],
      "stateMutability": "nonpayable",
      "type": "function"
    },
    {
      "inputs": [
        {
          "internalType": "address",
          "name": "user",
          "type": "address"
        }
      ],
      "name": "userGeneratedTokens",
      "outputs": [
        {
          "internalType": "uint256[]",
          "name": "",
          "type": "uint256[]"
        }
      ],
      "stateMutability": "view",
      "type": "function"
    }
  ],
  "bytecode": "0x60806040523480156200001157600080fd5b506040518060400160405280600881526020017f7374796c656172740000000000000000000000000000000000000000000000008152506040518060400160405280600481526020017f7361727400000000000000000000000000000000000000000000000000000000815250620000966301ffc9a760e01b6200020a60201b60201c565b8160069080519060200190620000ae929190620002ea565b508060079080519060200190620000c7929190620002ea565b50620000e06380ac58cd60e01b6200020a60201b60201c565b620000f8635b5e139f60e01b6200020a60201b60201c565b6200011063780e9d6360e01b6200020a60201b60201c565b5050600062000124620002e260201b60201c565b905080600a60006101000a81548173ffffffffffffffffffffffffffffffffffffffff021916908373ffffffffffffffffffffffffffffffffffffffff1602179055508073ffffffffffffffffffffffffffffffffffffffff16600073ffffffffffffffffffffffffffffffffffffffff167f8be0079c531659141344cd1fd0a4f28419497f9722a3daafe3b4186f6b6457e060405160405180910390a35033600d60006101000a81548173ffffffffffffffffffffffffffffffffffffffff021916908373ffffffffffffffffffffffffffffffffffffffff16021790555062000405565b63ffffffff60e01b817bffffffffffffffffffffffffffffffffffffffffffffffffffffffff1916141562000276576040517f08c379a00000000000000000000000000000000000000000000000000000000081526004016200026d90620003d2565b60405180910390fd5b6001600080837bffffffffffffffffffffffffffffffffffffffffffffffffffffffff19167bffffffffffffffffffffffffffffffffffffffffffffffffffffffff1916815260200190815260200160002060006101000a81548160ff02191690831515021790555050565b600033905090565b828054600181600116156101000203166002900490600052602060002090601f016020900481019282601f106200032d57805160ff19168380011785556200035e565b828001600101855582156200035e579182015b828111156200035d57825182559160200191906001019062000340565b5b5090506200036d919062000371565b5090565b5b808211156200038c57600081600090555060010162000372565b5090565b60006200039f601c83620003f4565b91507f4552433136353a20696e76616c696420696e74657266616365206964000000006000830152602082019050919050565b60006020820190508181036000830152620003ed8162000390565b9050919050565b600082825260208201905092915050565b6147dc80620004156000396000f3fe6080604052600436106101c25760003560e01c80636c0360eb116100f7578063b88d4fde11610095578063e9c7723d11610064578063e9c7723d146106a5578063eacabe14146106e2578063f2fde38b1461071f578063f46eccc414610748576101c2565b8063b88d4fde146105c5578063c87b56dd146105ee578063e3a6f8fc1461062b578063e985e9c514610668576101c2565b80638da5cb5b116100d15780638da5cb5b1461050957806395d89b4114610534578063983b2d561461055f578063a22cb4651461059c576101c2565b80636c0360eb1461048a57806370a08231146104b5578063715018a6146104f2576101c2565b806323b872dd1161016457806342842e0e1161013e57806342842e0e146103cb5780634f6ccce7146103f45780636352211e14610431578063673885661461046e576101c2565b806323b872dd146103285780632f745c59146103515780633092afd51461038e576101c2565b8063095ea7b3116101a0578063095ea7b31461026c57806318160ddd146102955780631935ec9f146102c05780632362382d146102eb576101c2565b806301ffc9a7146101c757806306fdde0314610204578063081812fc1461022f575b600080fd5b3480156101d357600080fd5b506101ee60048036038101906101e9919061328a565b610785565b6040516101fb9190614124565b60405180910390f35b34801561021057600080fd5b506102196107ec565b604051610226919061413f565b60405180910390f35b34801561023b57600080fd5b5061025660048036038101906102519190613343565b61088e565b6040516102639190613fe1565b60405180910390f35b34801561027857600080fd5b50610293600480360381019061028e919061324e565b610913565b005b3480156102a157600080fd5b506102aa610a2b565b6040516102b79190614461565b60405180910390f35b3480156102cc57600080fd5b506102d5610a3c565b6040516102e291906140e0565b60405180910390f35b3480156102f757600080fd5b50610312600480360381019061030d91906133c0565b610bee565b60405161031f9190614124565b60405180910390f35b34801561033457600080fd5b5061034f600480360381019061034a91906130f4565b610c91565b005b34801561035d57600080fd5b506103786004803603810190610373919061324e565b610cf1565b6040516103859190614461565b60405180910390f35b34801561039a57600080fd5b506103b560048036038101906103b0919061308f565b610d4c565b6040516103c29190614124565b60405180910390f35b3480156103d757600080fd5b506103f260048036038101906103ed91906130f4565b610e2b565b005b34801561040057600080fd5b5061041b60048036038101906104169190613343565b610e4b565b6040516104289190614461565b60405180910390f35b34801561043d57600080fd5b5061045860048036038101906104539190613343565b610e6e565b6040516104659190613fe1565b60405180910390f35b6104886004803603810190610483919061336c565b610ea5565b005b34801561049657600080fd5b5061049f6110ee565b6040516104ac919061413f565b60405180910390f35b3480156104c157600080fd5b506104dc60048036038101906104d7919061308f565b611190565b6040516104e99190614461565b60405180910390f35b3480156104fe57600080fd5b5061050761124f565b005b34801561051557600080fd5b5061051e61138c565b60405161052b9190613fe1565b60405180910390f35b34801561054057600080fd5b506105496113b6565b604051610556919061413f565b60405180910390f35b34801561056b57600080fd5b506105866004803603810190610581919061308f565b611458565b6040516105939190614124565b60405180910390f35b3480156105a857600080fd5b506105c360048036038101906105be91906131be565b611537565b005b3480156105d157600080fd5b506105ec60048036038101906105e79190613143565b6116b8565b005b3480156105fa57600080fd5b5061061560048036038101906106109190613343565b61171a565b604051610622919061413f565b60405180910390f35b34801561063757600080fd5b50610652600480360381019061064d91906132dc565b61189d565b60405161065f9190614461565b60405180910390f35b34801561067457600080fd5b5061068f600480360381019061068a91906130b8565b611a13565b60405161069c9190614124565b60405180910390f35b3480156106b157600080fd5b506106cc60048036038101906106c7919061308f565b611aa7565b6040516106d99190614102565b60405180910390f35b3480156106ee57600080fd5b50610709600480360381019061070491906131fa565b611b3e565b6040516107169190614461565b60405180910390f35b34801561072b57600080fd5b506107466004803603810190610741919061308f565b611d02565b005b34801561075457600080fd5b5061076f600480360381019061076a919061308f565b611eae565b60405161077c9190614124565b60405180910390f35b6000806000837bffffffffffffffffffffffffffffffffffffffffffffffffffffffff19167bffffffffffffffffffffffffffffffffffffffffffffffffffffffff1916815260200190815260200160002060009054906101000a900460ff169050919050565b606060068054600181600116156101000203166002900480601f0160208091040260200160405190810160405280929190818152602001828054600181600116156101000203166002900480156108845780601f1061085957610100808354040283529160200191610884565b820191906000526020600020905b81548152906001019060200180831161086757829003601f168201915b5050505050905090565b600061089982611ece565b6108d8576040517f08c379a00000000000000000000000000000000000000000000000000000000081526004016108cf90614321565b60405180910390fd5b6004600083815260200190815260200160002060009054906101000a900473ffffffffffffffffffffffffffffffffffffffff169050919050565b600061091e82610e6e565b90508073ffffffffffffffffffffffffffffffffffffffff168373ffffffffffffffffffffffffffffffffffffffff16141561098f576040517f08c379a0000000000000000000000000000000000000000000000000000000008152600401610986906143c1565b60405180910390fd5b8073ffffffffffffffffffffffffffffffffffffffff166109ae611eeb565b73ffffffffffffffffffffffffffffffffffffffff1614806109dd57506109dc816109d7611eeb565b611a13565b5b610a1c576040517f08c379a0000000000000000000000000000000000000000000000000000000008152600401610a13906142a1565b60405180910390fd5b610a268383611ef3565b505050565b6000610a376002611fac565b905090565b60608060108054905067ffffffffffffffff81118015610a5b57600080fd5b50604051908082528060200260200182016040528015610a9557816020015b610a82612ea9565b815260200190600190039081610a7a5790505b50905060005b601080549050811015610be6576011600060108381548110610ab957fe5b906000526020600020015481526020019081526020016000206040518060c001604052908160008201548152602001600182015481526020016002820154815260200160038201548152602001600482018054600181600116156101000203166002900480601f016020809104026020016040519081016040528092919081815260200182805460018160011615610100020316600290048015610b9e5780601f10610b7357610100808354040283529160200191610b9e565b820191906000526020600020905b815481529060010190602001808311610b8157829003601f168201915b505050505081526020016005820160009054906101000a900460ff161515151581525050828281518110610bce57fe5b60200260200101819052508080600101915050610a9b565b508091505090565b6000610bf8611eeb565b73ffffffffffffffffffffffffffffffffffffffff16610c1661138c565b73ffffffffffffffffffffffffffffffffffffffff1614610c6c576040517f08c379a0000000000000000000000000000000000000000000000000000000008152600401610c6390614361565b60405180910390fd5b8160116000858152602001908152602001600020600101819055506001905092915050565b610ca2610c9c611eeb565b82611fc1565b610ce1576040517f08c379a0000000000000000000000000000000000000000000000000000000008152600401610cd890614401565b60405180910390fd5b610cec83838361209f565b505050565b6000610d4482600160008673ffffffffffffffffffffffffffffffffffffffff1673ffffffffffffffffffffffffffffffffffffffff1681526020019081526020016000206122b690919063ffffffff16565b905092915050565b6000610d56611eeb565b73ffffffffffffffffffffffffffffffffffffffff16610d7461138c565b73ffffffffffffffffffffffffffffffffffffffff1614610dca576040517f08c379a0000000000000000000000000000000000000000000000000000000008152600401610dc190614361565b60405180910390fd5b6000600e60008473ffffffffffffffffffffffffffffffffffffffff1673ffffffffffffffffffffffffffffffffffffffff16815260200190815260200160002060006101000a81548160ff02191690831515021790555060019050919050565b610e46838383604051806020016040528060008152506116b8565b505050565b600080610e628360026122d090919063ffffffff16565b50905080915050919050565b6000610e9e8260405180606001604052806029815260200161477e6029913960026122fc9092919063ffffffff16565b9050919050565b81346011600083815260200190815260200160002060050160009054906101000a900460ff1615610f9b5780601160008481526020019081526020016000206001015414610f28576040517f08c379a0000000000000000000000000000000000000000000000000000000008152600401610f1f90614441565b60405180910390fd5b6011600083815260200190815260200160002060020154601160008481526020019081526020016000206003015410610f96576040517f08c379a0000000000000000000000000000000000000000000000000000000008152600401610f8d906143e1565b60405180910390fd5b610fff565b6011600083815260200190815260200160002060050160009054906101000a900460ff16610ffe576040517f08c379a0000000000000000000000000000000000000000000000000000000008152600401610ff590614241565b60405180910390fd5b5b60006001601160008781526020019081526020016000206003016000828254019250508190555060116000868152602001908152602001600020600301549050600d60009054906101000a900473ffffffffffffffffffffffffffffffffffffffff1673ffffffffffffffffffffffffffffffffffffffff166108fc349081150290604051600060405180830381858888f193505050501580156110a7573d6000803e3d6000fd5b507fd8e40976882f1a257a5dfa438d0b49ed3bba40181ff40ec72129a8338394a71433348784886040516110df959493929190614048565b60405180910390a15050505050565b606060098054600181600116156101000203166002900480601f0160208091040260200160405190810160405280929190818152602001828054600181600116156101000203166002900480156111865780601f1061115b57610100808354040283529160200191611186565b820191906000526020600020905b81548152906001019060200180831161116957829003601f168201915b5050505050905090565b60008073ffffffffffffffffffffffffffffffffffffffff168273ffffffffffffffffffffffffffffffffffffffff161415611201576040517f08c379a00000000000000000000000000000000000000000000000000000000081526004016111f8906142c1565b60405180910390fd5b611248600160008473ffffffffffffffffffffffffffffffffffffffff1673ffffffffffffffffffffffffffffffffffffffff16815260200190815260200160002061231b565b9050919050565b611257611eeb565b73ffffffffffffffffffffffffffffffffffffffff1661127561138c565b73ffffffffffffffffffffffffffffffffffffffff16146112cb576040517f08c379a00000000000000000000000000000000000000000000000000000000081526004016112c290614361565b60405180910390fd5b600073ffffffffffffffffffffffffffffffffffffffff16600a60009054906101000a900473ffffffffffffffffffffffffffffffffffffffff1673ffffffffffffffffffffffffffffffffffffffff167f8be0079c531659141344cd1fd0a4f28419497f9722a3daafe3b4186f6b6457e060405160405180910390a36000600a60006101000a81548173ffffffffffffffffffffffffffffffffffffffff021916908373ffffffffffffffffffffffffffffffffffffffff160217905550565b6000600a60009054906101000a900473ffffffffffffffffffffffffffffffffffffffff16905090565b606060078054600181600116156101000203166002900480601f01602080910402602001604051908101604052809291908181526020018280546001816001161561010002031660029004801561144e5780601f106114235761010080835404028352916020019161144e565b820191906000526020600020905b81548152906001019060200180831161143157829003601f168201915b5050505050905090565b6000611462611eeb565b73ffffffffffffffffffffffffffffffffffffffff1661148061138c565b73ffffffffffffffffffffffffffffffffffffffff16146114d6576040517f08c379a00000000000000000000000000000000000000000000000000000000081526004016114cd90614361565b60405180910390fd5b6001600e60008473ffffffffffffffffffffffffffffffffffffffff1673ffffffffffffffffffffffffffffffffffffffff16815260200190815260200160002060006101000a81548160ff02191690831515021790555060019050919050565b61153f611eeb565b73ffffffffffffffffffffffffffffffffffffffff168273ffffffffffffffffffffffffffffffffffffffff1614156115ad576040517f08c379a00000000000000000000000000000000000000000000000000000000081526004016115a490614221565b60405180910390fd5b80600560006115ba611eeb565b73ffffffffffffffffffffffffffffffffffffffff1673ffffffffffffffffffffffffffffffffffffffff16815260200190815260200160002060008473ffffffffffffffffffffffffffffffffffffffff1673ffffffffffffffffffffffffffffffffffffffff16815260200190815260200160002060006101000a81548160ff0219169083151502179055508173ffffffffffffffffffffffffffffffffffffffff16611667611eeb565b73ffffffffffffffffffffffffffffffffffffffff167f17307eab39ab6107e8899845ad3d59bd9653f200f220920489ca2b5937696c31836040516116ac9190614124565b60405180910390a35050565b6116c96116c3611eeb565b83611fc1565b611708576040517f08c379a00000000000000000000000000000000000000000000000000000000081526004016116ff90614401565b60405180910390fd5b61171484848484612330565b50505050565b606061172582611ece565b611764576040517f08c379a000000000000000000000000000000000000000000000000000000000815260040161175b906143a1565b60405180910390fd5b6060600860008481526020019081526020016000208054600181600116156101000203166002900480601f01602080910402602001604051908101604052809291908181526020018280546001816001161561010002031660029004801561180d5780601f106117e25761010080835404028352916020019161180d565b820191906000526020600020905b8154815290600101906020018083116117f057829003601f168201915b50505050509050606061181e6110ee565b9050600081511415611834578192505050611898565b600082511115611869578082604051602001611851929190613fbd565b60405160208183030381529060405292505050611898565b806118738561238c565b604051602001611884929190613fbd565b604051602081830303815290604052925050505b919050565b60006118a7611eeb565b73ffffffffffffffffffffffffffffffffffffffff166118c561138c565b73ffffffffffffffffffffffffffffffffffffffff161461191b576040517f08c379a000000000000000000000000000000000000000000000000000000000815260040161191290614361565b60405180910390fd5b611925600c6124d3565b6000611931600c6124e9565b905060108190806001815401808255809150506001900390600052602060002001600090919091909150556040518060c001604052808281526020018581526020018481526020016000815260200186815260200160011515815250601160008381526020019081526020016000206000820151816000015560208201518160010155604082015181600201556060820151816003015560808201518160040190805190602001906119e4929190612ee1565b5060a08201518160050160006101000a81548160ff021916908315150217905550905050809150509392505050565b6000600560008473ffffffffffffffffffffffffffffffffffffffff1673ffffffffffffffffffffffffffffffffffffffff16815260200190815260200160002060008373ffffffffffffffffffffffffffffffffffffffff1673ffffffffffffffffffffffffffffffffffffffff16815260200190815260200160002060009054906101000a900460ff16905092915050565b6060600f60008373ffffffffffffffffffffffffffffffffffffffff1673ffffffffffffffffffffffffffffffffffffffff168152602001908152602001600020805480602002602001604051908101604052809291908181526020018280548015611b3257602002820191906000526020600020905b815481526020019060010190808311611b1e575b50505050509050919050565b6000600d60009054906101000a900473ffffffffffffffffffffffffffffffffffffffff1673ffffffffffffffffffffffffffffffffffffffff163373ffffffffffffffffffffffffffffffffffffffff161480611bec575060011515600e60003373ffffffffffffffffffffffffffffffffffffffff1673ffffffffffffffffffffffffffffffffffffffff16815260200190815260200160002060009054906101000a900460ff161515145b611c2b576040517f08c379a0000000000000000000000000000000000000000000000000000000008152600401611c2290614181565b60405180910390fd5b611c35600b6124d3565b6000611c41600b6124e9565b9050611c4d84826124f7565b611c578184612685565b600f60008573ffffffffffffffffffffffffffffffffffffffff1673ffffffffffffffffffffffffffffffffffffffff1681526020019081526020016000208190806001815401808255809150506001900390600052602060002001600090919091909150557fdf92894dc4675a7333caa5903b69cf5d8e8ec0d3f361c88207b6688e525703bb848285604051611cf0939291906140a2565b60405180910390a18091505092915050565b611d0a611eeb565b73ffffffffffffffffffffffffffffffffffffffff16611d2861138c565b73ffffffffffffffffffffffffffffffffffffffff1614611d7e576040517f08c379a0000000000000000000000000000000000000000000000000000000008152600401611d7590614361565b60405180910390fd5b600073ffffffffffffffffffffffffffffffffffffffff168173ffffffffffffffffffffffffffffffffffffffff161415611dee576040517f08c379a0000000000000000000000000000000000000000000000000000000008152600401611de5906141c1565b60405180910390fd5b8073ffffffffffffffffffffffffffffffffffffffff16600a60009054906101000a900473ffffffffffffffffffffffffffffffffffffffff1673ffffffffffffffffffffffffffffffffffffffff167f8be0079c531659141344cd1fd0a4f28419497f9722a3daafe3b4186f6b6457e060405160405180910390a380600a60006101000a81548173ffffffffffffffffffffffffffffffffffffffff021916908373ffffffffffffffffffffffffffffffffffffffff16021790555050565b600e6020528060005260406000206000915054906101000a900460ff1681565b6000611ee48260026126f990919063ffffffff16565b9050919050565b600033905090565b816004600083815260200190815260200160002060006101000a81548173ffffffffffffffffffffffffffffffffffffffff021916908373ffffffffffffffffffffffffffffffffffffffff160217905550808273ffffffffffffffffffffffffffffffffffffffff16611f6683610e6e565b73ffffffffffffffffffffffffffffffffffffffff167f8c5be1e5ebec7d5bd14f71427d1e84f3dd0314c0f7b2291e5b200ac8c7c3b92560405160405180910390a45050565b6000611fba82600001612713565b9050919050565b6000611fcc82611ece565b61200b576040517f08c379a000000000000000000000000000000000000000000000000000000000815260040161200290614281565b60405180910390fd5b600061201683610e6e565b90508073ffffffffffffffffffffffffffffffffffffffff168473ffffffffffffffffffffffffffffffffffffffff16148061208557508373ffffffffffffffffffffffffffffffffffffffff1661206d8461088e565b73ffffffffffffffffffffffffffffffffffffffff16145b8061209657506120958185611a13565b5b91505092915050565b8273ffffffffffffffffffffffffffffffffffffffff166120bf82610e6e565b73ffffffffffffffffffffffffffffffffffffffff1614612115576040517f08c379a000000000000000000000000000000000000000000000000000000000815260040161210c90614381565b60405180910390fd5b600073ffffffffffffffffffffffffffffffffffffffff168273ffffffffffffffffffffffffffffffffffffffff161415612185576040517f08c379a000000000000000000000000000000000000000000000000000000000815260040161217c90614201565b60405180910390fd5b612190838383612724565b61219b600082611ef3565b6121ec81600160008673ffffffffffffffffffffffffffffffffffffffff1673ffffffffffffffffffffffffffffffffffffffff16815260200190815260200160002061272990919063ffffffff16565b5061223e81600160008573ffffffffffffffffffffffffffffffffffffffff1673ffffffffffffffffffffffffffffffffffffffff16815260200190815260200160002061274390919063ffffffff16565b506122558183600261275d9092919063ffffffff16565b50808273ffffffffffffffffffffffffffffffffffffffff168473ffffffffffffffffffffffffffffffffffffffff167fddf252ad1be2c89b69c2b068fc378daa952ba7f163c4a11628f55a4df523b3ef60405160405180910390a4505050565b60006122c58360000183612792565b60001c905092915050565b6000806000806122e386600001866127ff565b915091508160001c8160001c9350935050509250929050565b600061230f846000018460001b84612882565b60001c90509392505050565b600061232982600001612913565b9050919050565b61233b84848461209f565b61234784848484612924565b612386576040517f08c379a000000000000000000000000000000000000000000000000000000000815260040161237d906141a1565b60405180910390fd5b50505050565b606060008214156123d4576040518060400160405280600181526020017f300000000000000000000000000000000000000000000000000000000000000081525090506124ce565b600082905060005b600082146123fe578080600101915050600a82816123f657fe5b0491506123dc565b60608167ffffffffffffffff8111801561241757600080fd5b506040519080825280601f01601f19166020018201604052801561244a5781602001600182028036833780820191505090505b50905060006001830390508593505b600084146124c657600a848161246b57fe5b0660300160f81b8282806001900393508151811061248557fe5b60200101907effffffffffffffffffffffffffffffffffffffffffffffffffffffffffffff1916908160001a905350600a84816124be57fe5b049350612459565b819450505050505b919050565b6001816000016000828254019250508190555050565b600081600001549050919050565b600073ffffffffffffffffffffffffffffffffffffffff168273ffffffffffffffffffffffffffffffffffffffff161415612567576040517f08c379a000000000000000000000000000000000000000000000000000000000815260040161255e90614301565b60405180910390fd5b61257081611ece565b156125b0576040517f08c379a00000000000000000000000000000000000000000000000000000000081526004016125a7906141e1565b60405180910390fd5b6125bc60008383612724565b61260d81600160008573ffffffffffffffffffffffffffffffffffffffff1673ffffffffffffffffffffffffffffffffffffffff16815260200190815260200160002061274390919063ffffffff16565b506126248183600261275d9092919063ffffffff16565b50808273ffffffffffffffffffffffffffffffffffffffff16600073ffffffffffffffffffffffffffffffffffffffff167fddf252ad1be2c89b69c2b068fc378daa952ba7f163c4a11628f55a4df523b3ef60405160405180910390a45050565b61268e82611ece565b6126cd576040517f08c379a00000000000000000000000000000000000000000000000000000000081526004016126c490614341565b60405180910390fd5b806008600084815260200190815260200160002090805190602001906126f4929190612ee1565b505050565b600061270b836000018360001b612a88565b905092915050565b600081600001805490509050919050565b505050565b600061273b836000018360001b612aab565b905092915050565b6000612755836000018360001b612b93565b905092915050565b6000612789846000018460001b8473ffffffffffffffffffffffffffffffffffffffff1660001b612c03565b90509392505050565b6000818360000180549050116127dd576040517f08c379a00000000000000000000000000000000000000000000000000000000081526004016127d490614161565b60405180910390fd5b8260000182815481106127ec57fe5b9060005260206000200154905092915050565b6000808284600001805490501161284b576040517f08c379a0000000000000000000000000000000000000000000000000000000008152600401612842906142e1565b60405180910390fd5b600084600001848154811061285c57fe5b906000526020600020906002020190508060000154816001015492509250509250929050565b600080846001016000858152602001908152602001600020549050600081141583906128e4576040517f08c379a00000000000000000000000000000000000000000000000000000000081526004016128db919061413f565b60405180910390fd5b508460000160018203815481106128f757fe5b9060005260206000209060020201600101549150509392505050565b600081600001805490509050919050565b60006129458473ffffffffffffffffffffffffffffffffffffffff16612cdf565b6129525760019050612a80565b6060612a1963150b7a0260e01b612967611eeb565b88878760405160240161297d9493929190613ffc565b604051602081830303815290604052907bffffffffffffffffffffffffffffffffffffffffffffffffffffffff19166020820180517bffffffffffffffffffffffffffffffffffffffffffffffffffffffff838183161783525050505060405180606001604052806032815260200161474c603291398773ffffffffffffffffffffffffffffffffffffffff16612cf29092919063ffffffff16565b9050600081806020019051810190612a3191906132b3565b905063150b7a0260e01b7bffffffffffffffffffffffffffffffffffffffffffffffffffffffff1916817bffffffffffffffffffffffffffffffffffffffffffffffffffffffff191614925050505b949350505050565b600080836001016000848152602001908152602001600020541415905092915050565b60008083600101600084815260200190815260200160002054905060008114612b875760006001820390506000600186600001805490500390506000866000018281548110612af657fe5b9060005260206000200154905080876000018481548110612b1357fe5b9060005260206000200181905550600183018760010160008381526020019081526020016000208190555086600001805480612b4b57fe5b60019003818190600052602060002001600090559055866001016000878152602001908152602001600020600090556001945050505050612b8d565b60009150505b92915050565b6000612b9f8383612d0a565b612bf8578260000182908060018154018082558091505060019003906000526020600020016000909190919091505582600001805490508360010160008481526020019081526020016000208190555060019050612bfd565b600090505b92915050565b6000808460010160008581526020019081526020016000205490506000811415612caa57846000016040518060400160405280868152602001858152509080600181540180825580915050600190039060005260206000209060020201600090919091909150600082015181600001556020820151816001015550508460000180549050856001016000868152602001908152602001600020819055506001915050612cd8565b82856000016001830381548110612cbd57fe5b90600052602060002090600202016001018190555060009150505b9392505050565b600080823b905060008111915050919050565b6060612d018484600085612d2d565b90509392505050565b600080836001016000848152602001908152602001600020541415905092915050565b606082471015612d72576040517f08c379a0000000000000000000000000000000000000000000000000000000008152600401612d6990614261565b60405180910390fd5b612d7b85612cdf565b612dba576040517f08c379a0000000000000000000000000000000000000000000000000000000008152600401612db190614421565b60405180910390fd5b600060608673ffffffffffffffffffffffffffffffffffffffff168587604051612de49190613fa6565b60006040518083038185875af1925050503d8060008114612e21576040519150601f19603f3d011682016040523d82523d6000602084013e612e26565b606091505b5091509150612e36828286612e42565b92505050949350505050565b60608315612e5257829050612ea2565b600083511115612e655782518084602001fd5b816040517f08c379a0000000000000000000000000000000000000000000000000000000008152600401612e99919061413f565b60405180910390fd5b9392505050565b6040518060c0016040528060008152602001600081526020016000815260200160008152602001606081526020016000151581525090565b828054600181600116156101000203166002900490600052602060002090601f016020900481019282601f10612f2257805160ff1916838001178555612f50565b82800160010185558215612f50579182015b82811115612f4f578251825591602001919060010190612f34565b5b509050612f5d9190612f61565b5090565b5b80821115612f7a576000816000905550600101612f62565b5090565b600081359050612f8d816146ef565b92915050565b600081359050612fa281614706565b92915050565b600081359050612fb78161471d565b92915050565b600081519050612fcc8161471d565b92915050565b600082601f830112612fe357600080fd5b8135612ff6612ff1826144ad565b61447c565b9150808252602083016020830185838301111561301257600080fd5b61301d83828461469a565b50505092915050565b600082601f83011261303757600080fd5b813561304a613045826144dd565b61447c565b9150808252602083016020830185838301111561306657600080fd5b61307183828461469a565b50505092915050565b60008135905061308981614734565b92915050565b6000602082840312156130a157600080fd5b60006130af84828501612f7e565b91505092915050565b600080604083850312156130cb57600080fd5b60006130d985828601612f7e565b92505060206130ea85828601612f7e565b9150509250929050565b60008060006060848603121561310957600080fd5b600061311786828701612f7e565b935050602061312886828701612f7e565b92505060406131398682870161307a565b9150509250925092565b6000806000806080858703121561315957600080fd5b600061316787828801612f7e565b945050602061317887828801612f7e565b93505060406131898782880161307a565b925050606085013567ffffffffffffffff8111156131a657600080fd5b6131b287828801612fd2565b91505092959194509250565b600080604083850312156131d157600080fd5b60006131df85828601612f7e565b92505060206131f085828601612f93565b9150509250929050565b6000806040838503121561320d57600080fd5b600061321b85828601612f7e565b925050602083013567ffffffffffffffff81111561323857600080fd5b61324485828601613026565b9150509250929050565b6000806040838503121561326157600080fd5b600061326f85828601612f7e565b92505060206132808582860161307a565b9150509250929050565b60006020828403121561329c57600080fd5b60006132aa84828501612fa8565b91505092915050565b6000602082840312156132c557600080fd5b60006132d384828501612fbd565b91505092915050565b6000806000606084860312156132f157600080fd5b600084013567ffffffffffffffff81111561330b57600080fd5b61331786828701613026565b93505060206133288682870161307a565b92505060406133398682870161307a565b9150509250925092565b60006020828403121561335557600080fd5b60006133638482850161307a565b91505092915050565b6000806040838503121561337f57600080fd5b600061338d8582860161307a565b925050602083013567ffffffffffffffff8111156133aa57600080fd5b6133b685828601612fd2565b9150509250929050565b600080604083850312156133d357600080fd5b60006133e18582860161307a565b92505060206133f28582860161307a565b9150509250929050565b60006134088383613eff565b905092915050565b600061341c8383613f88565b60208301905092915050565b61343181614664565b82525050565b613440816145f0565b82525050565b61344f816145de565b82525050565b60006134608261452d565b61346a8185614573565b93508360208202850161347c8561450d565b8060005b858110156134b8578484038952815161349985826133fc565b94506134a483614559565b925060208a01995050600181019050613480565b50829750879550505050505092915050565b60006134d582614538565b6134df8185614584565b93506134ea8361451d565b8060005b8381101561351b5781516135028882613410565b975061350d83614566565b9250506001810190506134ee565b5085935050505092915050565b61353181614602565b82525050565b61354081614602565b82525050565b600061355182614543565b61355b8185614595565b935061356b8185602086016146a9565b613574816146de565b840191505092915050565b600061358a82614543565b61359481856145a6565b93506135a48185602086016146a9565b80840191505092915050565b60006135bb8261454e565b6135c581856145b1565b93506135d58185602086016146a9565b6135de816146de565b840191505092915050565b60006135f48261454e565b6135fe81856145c2565b935061360e8185602086016146a9565b613617816146de565b840191505092915050565b600061362d8261454e565b61363781856145d3565b93506136478185602086016146a9565b80840191505092915050565b60006136606022836145c2565b91507f456e756d657261626c655365743a20696e646578206f7574206f6620626f756e60008301527f64730000000000000000000000000000000000000000000000000000000000006020830152604082019050919050565b60006136c66015836145c2565b91507f4e6f207065726d697373696f6e20746f206d696e7400000000000000000000006000830152602082019050919050565b60006137066032836145c2565b91507f4552433732313a207472616e7366657220746f206e6f6e20455243373231526560008301527f63656976657220696d706c656d656e74657200000000000000000000000000006020830152604082019050919050565b600061376c6026836145c2565b91507f4f776e61626c653a206e6577206f776e657220697320746865207a65726f206160008301527f64647265737300000000000000000000000000000000000000000000000000006020830152604082019050919050565b60006137d2601c836145c2565b91507f4552433732313a20746f6b656e20616c7265616479206d696e746564000000006000830152602082019050919050565b60006138126024836145c2565b91507f4552433732313a207472616e7366657220746f20746865207a65726f2061646460008301527f72657373000000000000000000000000000000000000000000000000000000006020830152604082019050919050565b60006138786019836145c2565b91507f4552433732313a20617070726f766520746f2063616c6c6572000000000000006000830152602082019050919050565b60006138b86026836145c2565b91507f526571756573746564207472616e73666f726d6174696f6e20646f65736e277460008301527f20657869737400000000000000000000000000000000000000000000000000006020830152604082019050919050565b600061391e6026836145c2565b91507f416464726573733a20696e73756666696369656e742062616c616e636520666f60008301527f722063616c6c00000000000000000000000000000000000000000000000000006020830152604082019050919050565b6000613984602c836145c2565b91507f4552433732313a206f70657261746f7220717565727920666f72206e6f6e657860008301527f697374656e7420746f6b656e00000000000000000000000000000000000000006020830152604082019050919050565b60006139ea6038836145c2565b91507f4552433732313a20617070726f76652063616c6c6572206973206e6f74206f7760008301527f6e6572206e6f7220617070726f76656420666f7220616c6c00000000000000006020830152604082019050919050565b6000613a50602a836145c2565b91507f4552433732313a2062616c616e636520717565727920666f7220746865207a6560008301527f726f2061646472657373000000000000000000000000000000000000000000006020830152604082019050919050565b6000613ab66022836145c2565b91507f456e756d657261626c654d61703a20696e646578206f7574206f6620626f756e60008301527f64730000000000000000000000000000000000000000000000000000000000006020830152604082019050919050565b6000613b1c6020836145c2565b91507f4552433732313a206d696e7420746f20746865207a65726f20616464726573736000830152602082019050919050565b6000613b5c602c836145c2565b91507f4552433732313a20617070726f76656420717565727920666f72206e6f6e657860008301527f697374656e7420746f6b656e00000000000000000000000000000000000000006020830152604082019050919050565b6000613bc2602c836145c2565b91507f4552433732314d657461646174613a2055524920736574206f66206e6f6e657860008301527f697374656e7420746f6b656e00000000000000000000000000000000000000006020830152604082019050919050565b6000613c286020836145c2565b91507f4f776e61626c653a2063616c6c6572206973206e6f7420746865206f776e65726000830152602082019050919050565b6000613c686029836145c2565b91507f4552433732313a207472616e73666572206f6620746f6b656e2074686174206960008301527f73206e6f74206f776e00000000000000000000000000000000000000000000006020830152604082019050919050565b6000613cce602f836145c2565b91507f4552433732314d657461646174613a2055524920717565727920666f72206e6f60008301527f6e6578697374656e7420746f6b656e00000000000000000000000000000000006020830152604082019050919050565b6000613d346021836145c2565b91507f4552433732313a20617070726f76616c20746f2063757272656e74206f776e6560008301527f72000000000000000000000000000000000000000000000000000000000000006020830152604082019050919050565b6000613d9a6022836145c2565b91507f5472616e73666f726d6174696f6e20737570706c79206973206578686175737460008301527f65640000000000000000000000000000000000000000000000000000000000006020830152604082019050919050565b6000613e006031836145c2565b91507f4552433732313a207472616e736665722063616c6c6572206973206e6f74206f60008301527f776e6572206e6f7220617070726f7665640000000000000000000000000000006020830152604082019050919050565b6000613e66601d836145c2565b91507f416464726573733a2063616c6c20746f206e6f6e2d636f6e74726163740000006000830152602082019050919050565b6000613ea66031836145c2565b91507f5472616e73616374696f6e2076616c7565206d757374206d617463682074726160008301527f6e73666f726d6174696f6e2070726963650000000000000000000000000000006020830152604082019050919050565b600060c083016000830151613f176000860182613f88565b506020830151613f2a6020860182613f88565b506040830151613f3d6040860182613f88565b506060830151613f506060860182613f88565b5060808301518482036080860152613f6882826135b0565b91505060a0830151613f7d60a0860182613528565b508091505092915050565b613f918161465a565b82525050565b613fa08161465a565b82525050565b6000613fb2828461357f565b915081905092915050565b6000613fc98285613622565b9150613fd58284613622565b91508190509392505050565b6000602082019050613ff66000830184613446565b92915050565b60006080820190506140116000830187613437565b61401e6020830186613446565b61402b6040830185613f97565b818103606083015261403d8184613546565b905095945050505050565b600060a08201905061405d6000830188613428565b61406a6020830187613f97565b6140776040830186613f97565b6140846060830185613f97565b81810360808301526140968184613546565b90509695505050505050565b60006060820190506140b76000830186613446565b6140c46020830185613f97565b81810360408301526140d681846135e9565b9050949350505050565b600060208201905081810360008301526140fa8184613455565b905092915050565b6000602082019050818103600083015261411c81846134ca565b905092915050565b60006020820190506141396000830184613537565b92915050565b6000602082019050818103600083015261415981846135e9565b905092915050565b6000602082019050818103600083015261417a81613653565b9050919050565b6000602082019050818103600083015261419a816136b9565b9050919050565b600060208201905081810360008301526141ba816136f9565b9050919050565b600060208201905081810360008301526141da8161375f565b9050919050565b600060208201905081810360008301526141fa816137c5565b9050919050565b6000602082019050818103600083015261421a81613805565b9050919050565b6000602082019050818103600083015261423a8161386b565b9050919050565b6000602082019050818103600083015261425a816138ab565b9050919050565b6000602082019050818103600083015261427a81613911565b9050919050565b6000602082019050818103600083015261429a81613977565b9050919050565b600060208201905081810360008301526142ba816139dd565b9050919050565b600060208201905081810360008301526142da81613a43565b9050919050565b600060208201905081810360008301526142fa81613aa9565b9050919050565b6000602082019050818103600083015261431a81613b0f565b9050919050565b6000602082019050818103600083015261433a81613b4f565b9050919050565b6000602082019050818103600083015261435a81613bb5565b9050919050565b6000602082019050818103600083015261437a81613c1b565b9050919050565b6000602082019050818103600083015261439a81613c5b565b9050919050565b600060208201905081810360008301526143ba81613cc1565b9050919050565b600060208201905081810360008301526143da81613d27565b9050919050565b600060208201905081810360008301526143fa81613d8d565b9050919050565b6000602082019050818103600083015261441a81613df3565b9050919050565b6000602082019050818103600083015261443a81613e59565b9050919050565b6000602082019050818103600083015261445a81613e99565b9050919050565b60006020820190506144766000830184613f97565b92915050565b6000604051905081810181811067ffffffffffffffff821117156144a3576144a26146dc565b5b8060405250919050565b600067ffffffffffffffff8211156144c8576144c76146dc565b5b601f19601f8301169050602081019050919050565b600067ffffffffffffffff8211156144f8576144f76146dc565b5b601f19601f8301169050602081019050919050565b6000819050602082019050919050565b6000819050602082019050919050565b600081519050919050565b600081519050919050565b600081519050919050565b600081519050919050565b6000602082019050919050565b6000602082019050919050565b600082825260208201905092915050565b600082825260208201905092915050565b600082825260208201905092915050565b600081905092915050565b600082825260208201905092915050565b600082825260208201905092915050565b600081905092915050565b60006145e98261463a565b9050919050565b60006145fb8261463a565b9050919050565b60008115159050919050565b60007fffffffff0000000000000000000000000000000000000000000000000000000082169050919050565b600073ffffffffffffffffffffffffffffffffffffffff82169050919050565b6000819050919050565b600061466f82614676565b9050919050565b600061468182614688565b9050919050565b60006146938261463a565b9050919050565b82818337600083830152505050565b60005b838110156146c75780820151818401526020810190506146ac565b838111156146d6576000848401525b50505050565bfe5b6000601f19601f8301169050919050565b6146f8816145de565b811461470357600080fd5b50565b61470f81614602565b811461471a57600080fd5b50565b6147268161460e565b811461473157600080fd5b50565b61473d8161465a565b811461474857600080fd5b5056fe4552433732313a207472616e7366657220746f206e6f6e20455243373231526563656976657220696d706c656d656e7465724552433732313a206f776e657220717565727920666f72206e6f6e6578697374656e7420746f6b656ea2646970667358221220f1e14a10bb52b090dec466897e33161334b7b2ba2282e37d8f323a65df9ac8c564736f6c63430007030033",
  "linkReferences": {},
  "deployedLinkReferences": {}
}