{
  "_format": "hh-sol-artifact-1",
  "contractName": "StyleArt",
  "sourceName": "contracts/StyleArt.sol",
  "abi": [
    {
      "inputs": [],
      "stateMutability": "nonpayable",
      "type": "constructor"
    },
    {
      "anonymous": false,
      "inputs": [
        {
          "indexed": true,
          "internalType": "address",
          "name": "owner",
          "type": "address"
        },
        {
          "indexed": true,
          "internalType": "address",
          "name": "approved",
          "type": "address"
        },
        {
          "indexed": true,
          "internalType": "uint256",
          "name": "tokenId",
          "type": "uint256"
        }
      ],
      "name": "Approval",
      "type": "event"
    },
    {
      "anonymous": false,
      "inputs": [
        {
          "indexed": true,
          "internalType": "address",
          "name": "owner",
          "type": "address"
        },
        {
          "indexed": true,
          "internalType": "address",
          "name": "operator",
          "type": "address"
        },
        {
          "indexed": false,
          "internalType": "bool",
          "name": "approved",
          "type": "bool"
        }
      ],
      "name": "ApprovalForAll",
      "type": "event"
    },
    {
      "anonymous": false,
      "inputs": [
        {
          "indexed": false,
          "internalType": "address",
          "name": "sender",
          "type": "address"
        },
        {
          "indexed": false,
          "internalType": "uint256",
          "name": "value",
          "type": "uint256"
        },
        {
          "indexed": false,
          "internalType": "uint256",
          "name": "transformationId",
          "type": "uint256"
        },
        {
          "indexed": false,
          "internalType": "uint256",
          "name": "transformationNumber",
          "type": "uint256"
        },
        {
          "indexed": false,
          "internalType": "string",
          "name": "imageURL",
          "type": "string"
        }
      ],
      "name": "ImageGenerationPaid",
      "type": "event"
    },
    {
      "anonymous": false,
      "inputs": [
        {
          "indexed": true,
          "internalType": "address",
          "name": "previousOwner",
          "type": "address"
        },
        {
          "indexed": true,
          "internalType": "address",
          "name": "newOwner",
          "type": "address"
        }
      ],
      "name": "OwnershipTransferred",
      "type": "event"
    },
    {
      "anonymous": false,
      "inputs": [
        {
          "indexed": false,
          "internalType": "address",
          "name": "payer",
          "type": "address"
        },
        {
          "indexed": false,
          "internalType": "uint256",
          "name": "tokenId",
          "type": "uint256"
        },
        {
          "indexed": false,
          "internalType": "string",
          "name": "tokenURI",
          "type": "string"
        }
      ],
      "name": "TokenMinted",
      "type": "event"
    },
    {
      "anonymous": false,
      "inputs": [
        {
          "indexed": true,
          "internalType": "address",
          "name": "from",
          "type": "address"
        },
        {
          "indexed": true,
          "internalType": "address",
          "name": "to",
          "type": "address"
        },
        {
          "indexed": true,
          "internalType": "uint256",
          "name": "tokenId",
          "type": "uint256"
        }
      ],
      "name": "Transfer",
      "type": "event"
    },
    {
      "inputs": [
        {
          "internalType": "string",
          "name": "name",
          "type": "string"
        },
        {
          "internalType": "uint256",
          "name": "price",
          "type": "uint256"
        },
        {
          "internalType": "uint256",
          "name": "supply",
          "type": "uint256"
        }
      ],
      "name": "addTransformation",
      "outputs": [
        {
          "internalType": "uint256",
          "name": "",
          "type": "uint256"
        }
      ],
      "stateMutability": "nonpayable",
      "type": "function"
    },
    {
      "inputs": [
        {
          "internalType": "address",
          "name": "to",
          "type": "address"
        },
        {
          "internalType": "uint256",
          "name": "tokenId",
          "type": "uint256"
        }
      ],
      "name": "approve",
      "outputs": [],
      "stateMutability": "nonpayable",
      "type": "function"
    },
    {
      "inputs": [
        {
          "internalType": "address",
          "name": "owner",
          "type": "address"
        }
      ],
      "name": "balanceOf",
      "outputs": [
        {
          "internalType": "uint256",
          "name": "",
          "type": "uint256"
        }
      ],
      "stateMutability": "view",
      "type": "function"
    },
    {
      "inputs": [],
      "name": "baseURI",
      "outputs": [
        {
          "internalType": "string",
          "name": "",
          "type": "string"
        }
      ],
      "stateMutability": "view",
      "type": "function"
    },
    {
      "inputs": [
        {
          "internalType": "uint256",
          "name": "tokenId",
          "type": "uint256"
        }
      ],
      "name": "getApproved",
      "outputs": [
        {
          "internalType": "address",
          "name": "",
          "type": "address"
        }
      ],
      "stateMutability": "view",
      "type": "function"
    },
    {
      "inputs": [
        {
          "internalType": "address",
          "name": "owner",
          "type": "address"
        },
        {
          "internalType": "address",
          "name": "operator",
          "type": "address"
        }
      ],
      "name": "isApprovedForAll",
      "outputs": [
        {
          "internalType": "bool",
          "name": "",
          "type": "bool"
        }
      ],
      "stateMutability": "view",
      "type": "function"
    },
    {
      "inputs": [],
      "name": "listTransformations",
      "outputs": [
        {
          "components": [
            {
              "internalType": "uint256",
              "name": "id",
              "type": "uint256"
            },
            {
              "internalType": "uint256",
              "name": "price",
              "type": "uint256"
            },
            {
              "internalType": "uint256",
              "name": "supply",
              "type": "uint256"
            },
            {
              "internalType": "uint256",
              "name": "nTokens",
              "type": "uint256"
            },
            {
              "internalType": "string",
              "name": "name",
              "type": "string"
            }
          ],
          "internalType": "struct StyleArt.Transformation[]",
          "name": "",
          "type": "tuple[]"
        }
      ],
      "stateMutability": "view",
      "type": "function"
    },
    {
      "inputs": [
        {
          "internalType": "address",
          "name": "payer",
          "type": "address"
        },
        {
          "internalType": "string",
          "name": "tokenURI",
          "type": "string"
        }
      ],
      "name": "mintNFT",
      "outputs": [
        {
          "internalType": "uint256",
          "name": "",
          "type": "uint256"
        }
      ],
      "stateMutability": "nonpayable",
      "type": "function"
    },
    {
      "inputs": [],
      "name": "name",
      "outputs": [
        {
          "internalType": "string",
          "name": "",
          "type": "string"
        }
      ],
      "stateMutability": "view",
      "type": "function"
    },
    {
      "inputs": [],
      "name": "owner",
      "outputs": [
        {
          "internalType": "address",
          "name": "",
          "type": "address"
        }
      ],
      "stateMutability": "view",
      "type": "function"
    },
    {
      "inputs": [
        {
          "internalType": "uint256",
          "name": "tokenId",
          "type": "uint256"
        }
      ],
      "name": "ownerOf",
      "outputs": [
        {
          "internalType": "address",
          "name": "",
          "type": "address"
        }
      ],
      "stateMutability": "view",
      "type": "function"
    },
    {
      "inputs": [
        {
          "internalType": "uint256",
          "name": "transformationId",
          "type": "uint256"
        },
        {
          "internalType": "string",
          "name": "imageUrl",
          "type": "string"
        }
      ],
      "name": "payGenerating",
      "outputs": [],
      "stateMutability": "payable",
      "type": "function"
    },
    {
      "inputs": [
        {
          "internalType": "uint256",
          "name": "tokenId",
          "type": "uint256"
        }
      ],
      "name": "payerOf",
      "outputs": [
        {
          "internalType": "address",
          "name": "",
          "type": "address"
        }
      ],
      "stateMutability": "view",
      "type": "function"
    },
    {
      "inputs": [],
      "name": "renounceOwnership",
      "outputs": [],
      "stateMutability": "nonpayable",
      "type": "function"
    },
    {
      "inputs": [
        {
          "internalType": "address",
          "name": "from",
          "type": "address"
        },
        {
          "internalType": "address",
          "name": "to",
          "type": "address"
        },
        {
          "internalType": "uint256",
          "name": "tokenId",
          "type": "uint256"
        }
      ],
      "name": "safeTransferFrom",
      "outputs": [],
      "stateMutability": "nonpayable",
      "type": "function"
    },
    {
      "inputs": [
        {
          "internalType": "address",
          "name": "from",
          "type": "address"
        },
        {
          "internalType": "address",
          "name": "to",
          "type": "address"
        },
        {
          "internalType": "uint256",
          "name": "tokenId",
          "type": "uint256"
        },
        {
          "internalType": "bytes",
          "name": "_data",
          "type": "bytes"
        }
      ],
      "name": "safeTransferFrom",
      "outputs": [],
      "stateMutability": "nonpayable",
      "type": "function"
    },
    {
      "inputs": [
        {
          "internalType": "address",
          "name": "operator",
          "type": "address"
        },
        {
          "internalType": "bool",
          "name": "approved",
          "type": "bool"
        }
      ],
      "name": "setApprovalForAll",
      "outputs": [],
      "stateMutability": "nonpayable",
      "type": "function"
    },
    {
      "inputs": [
        {
          "internalType": "bytes4",
          "name": "interfaceId",
          "type": "bytes4"
        }
      ],
      "name": "supportsInterface",
      "outputs": [
        {
          "internalType": "bool",
          "name": "",
          "type": "bool"
        }
      ],
      "stateMutability": "view",
      "type": "function"
    },
    {
      "inputs": [],
      "name": "symbol",
      "outputs": [
        {
          "internalType": "string",
          "name": "",
          "type": "string"
        }
      ],
      "stateMutability": "view",
      "type": "function"
    },
    {
      "inputs": [
        {
          "internalType": "uint256",
          "name": "index",
          "type": "uint256"
        }
      ],
      "name": "tokenByIndex",
      "outputs": [
        {
          "internalType": "uint256",
          "name": "",
          "type": "uint256"
        }
      ],
      "stateMutability": "view",
      "type": "function"
    },
    {
      "inputs": [
        {
          "internalType": "address",
          "name": "owner",
          "type": "address"
        },
        {
          "internalType": "uint256",
          "name": "index",
          "type": "uint256"
        }
      ],
      "name": "tokenOfOwnerByIndex",
      "outputs": [
        {
          "internalType": "uint256",
          "name": "",
          "type": "uint256"
        }
      ],
      "stateMutability": "view",
      "type": "function"
    },
    {
      "inputs": [
        {
          "internalType": "uint256",
          "name": "tokenId",
          "type": "uint256"
        }
      ],
      "name": "tokenURI",
      "outputs": [
        {
          "internalType": "string",
          "name": "",
          "type": "string"
        }
      ],
      "stateMutability": "view",
      "type": "function"
    },
    {
      "inputs": [],
      "name": "totalSupply",
      "outputs": [
        {
          "internalType": "uint256",
          "name": "",
          "type": "uint256"
        }
      ],
      "stateMutability": "view",
      "type": "function"
    },
    {
      "inputs": [
        {
          "internalType": "address",
          "name": "from",
          "type": "address"
        },
        {
          "internalType": "address",
          "name": "to",
          "type": "address"
        },
        {
          "internalType": "uint256",
          "name": "tokenId",
          "type": "uint256"
        }
      ],
      "name": "transferFrom",
      "outputs": [],
      "stateMutability": "nonpayable",
      "type": "function"
    },
    {
      "inputs": [
        {
          "internalType": "address",
          "name": "newOwner",
          "type": "address"
        }
      ],
      "name": "transferOwnership",
      "outputs": [],
      "stateMutability": "nonpayable",
      "type": "function"
    },
    {
      "inputs": [
        {
          "internalType": "uint256",
          "name": "id",
          "type": "uint256"
        },
        {
          "internalType": "uint256",
          "name": "price",
          "type": "uint256"
        }
      ],
      "name": "updateTransformationPrice",
      "outputs": [
        {
          "internalType": "bool",
          "name": "",
          "type": "bool"
        }
      ],
      "stateMutability": "nonpayable",
      "type": "function"
    },
    {
      "inputs": [
        {
          "internalType": "address",
          "name": "user",
          "type": "address"
        }
      ],
      "name": "userGeneratedTokens",
      "outputs": [
        {
          "internalType": "uint256[]",
          "name": "",
          "type": "uint256[]"
        }
      ],
      "stateMutability": "view",
      "type": "function"
    }
  ],
  "bytecode": "0x60806040523480156200001157600080fd5b506040518060400160405280600881526020017f7374796c656172740000000000000000000000000000000000000000000000008152506040518060400160405280600481526020017f7361727400000000000000000000000000000000000000000000000000000000815250620000966301ffc9a760e01b6200020a60201b60201c565b8160069080519060200190620000ae929190620002ea565b508060079080519060200190620000c7929190620002ea565b50620000e06380ac58cd60e01b6200020a60201b60201c565b620000f8635b5e139f60e01b6200020a60201b60201c565b6200011063780e9d6360e01b6200020a60201b60201c565b5050600062000124620002e260201b60201c565b905080600a60006101000a81548173ffffffffffffffffffffffffffffffffffffffff021916908373ffffffffffffffffffffffffffffffffffffffff1602179055508073ffffffffffffffffffffffffffffffffffffffff16600073ffffffffffffffffffffffffffffffffffffffff167f8be0079c531659141344cd1fd0a4f28419497f9722a3daafe3b4186f6b6457e060405160405180910390a35033600d60006101000a81548173ffffffffffffffffffffffffffffffffffffffff021916908373ffffffffffffffffffffffffffffffffffffffff16021790555062000405565b63ffffffff60e01b817bffffffffffffffffffffffffffffffffffffffffffffffffffffffff1916141562000276576040517f08c379a00000000000000000000000000000000000000000000000000000000081526004016200026d90620003d2565b60405180910390fd5b6001600080837bffffffffffffffffffffffffffffffffffffffffffffffffffffffff19167bffffffffffffffffffffffffffffffffffffffffffffffffffffffff1916815260200190815260200160002060006101000a81548160ff02191690831515021790555050565b600033905090565b828054600181600116156101000203166002900490600052602060002090601f016020900481019282601f106200032d57805160ff19168380011785556200035e565b828001600101855582156200035e579182015b828111156200035d57825182559160200191906001019062000340565b5b5090506200036d919062000371565b5090565b5b808211156200038c57600081600090555060010162000372565b5090565b60006200039f601c83620003f4565b91507f4552433136353a20696e76616c696420696e74657266616365206964000000006000830152602082019050919050565b60006020820190508181036000830152620003ed8162000390565b9050919050565b600082825260208201905092915050565b6146e180620004156000396000f3fe60806040526004361061019c5760003560e01c80636c0360eb116100ec578063b88d4fde1161008a578063e985e9c511610064578063e985e9c514610605578063e9c7723d14610642578063eacabe141461067f578063f2fde38b146106bc5761019c565b8063b88d4fde14610562578063c87b56dd1461058b578063e3a6f8fc146105c85761019c565b80637edcf18f116100c65780637edcf18f146104a65780638da5cb5b146104e357806395d89b411461050e578063a22cb465146105395761019c565b80636c0360eb1461042757806370a0823114610452578063715018a61461048f5761019c565b80632362382d1161015957806342842e0e1161013357806342842e0e146103685780634f6ccce71461039157806358a1388f146103ce5780636352211e146103ea5761019c565b80632362382d146102c557806323b872dd146103025780632f745c591461032b5761019c565b806301ffc9a7146101a157806306fdde03146101de578063081812fc14610209578063095ea7b31461024657806318160ddd1461026f5780631935ec9f1461029a575b600080fd5b3480156101ad57600080fd5b506101c860048036038101906101c39190613151565b6106e5565b6040516101d59190614009565b60405180910390f35b3480156101ea57600080fd5b506101f361074c565b6040516102009190614024565b60405180910390f35b34801561021557600080fd5b50610230600480360381019061022b919061320a565b6107ee565b60405161023d9190613ec6565b60405180910390f35b34801561025257600080fd5b5061026d60048036038101906102689190613115565b610873565b005b34801561027b57600080fd5b5061028461098b565b6040516102919190614366565b60405180910390f35b3480156102a657600080fd5b506102af61099c565b6040516102bc9190613fc5565b60405180910390f35b3480156102d157600080fd5b506102ec60048036038101906102e79190613287565b610ac5565b6040516102f99190614009565b60405180910390f35b34801561030e57600080fd5b5061032960048036038101906103249190612fbb565b610bbf565b005b34801561033757600080fd5b50610352600480360381019061034d9190613115565b610c1f565b60405161035f9190614366565b60405180910390f35b34801561037457600080fd5b5061038f600480360381019061038a9190612fbb565b610c7a565b005b34801561039d57600080fd5b506103b860048036038101906103b3919061320a565b610c9a565b6040516103c59190614366565b60405180910390f35b6103e860048036038101906103e39190613233565b610cbd565b005b3480156103f657600080fd5b50610411600480360381019061040c919061320a565b610f73565b60405161041e9190613ec6565b60405180910390f35b34801561043357600080fd5b5061043c610faa565b6040516104499190614024565b60405180910390f35b34801561045e57600080fd5b5061047960048036038101906104749190612f56565b61104c565b6040516104869190614366565b60405180910390f35b34801561049b57600080fd5b506104a461110b565b005b3480156104b257600080fd5b506104cd60048036038101906104c8919061320a565b611248565b6040516104da9190613ec6565b60405180910390f35b3480156104ef57600080fd5b506104f86112eb565b6040516105059190613ec6565b60405180910390f35b34801561051a57600080fd5b50610523611315565b6040516105309190614024565b60405180910390f35b34801561054557600080fd5b50610560600480360381019061055b9190613085565b6113b7565b005b34801561056e57600080fd5b506105896004803603810190610584919061300a565b611538565b005b34801561059757600080fd5b506105b260048036038101906105ad919061320a565b61159a565b6040516105bf9190614024565b60405180910390f35b3480156105d457600080fd5b506105ef60048036038101906105ea91906131a3565b61171d565b6040516105fc9190614366565b60405180910390f35b34801561061157600080fd5b5061062c60048036038101906106279190612f7f565b611858565b6040516106399190614009565b60405180910390f35b34801561064e57600080fd5b5061066960048036038101906106649190612f56565b6118ec565b6040516106769190613fe7565b60405180910390f35b34801561068b57600080fd5b506106a660048036038101906106a191906130c1565b611a0e565b6040516106b39190614366565b60405180910390f35b3480156106c857600080fd5b506106e360048036038101906106de9190612f56565b611c21565b005b6000806000837bffffffffffffffffffffffffffffffffffffffffffffffffffffffff19167bffffffffffffffffffffffffffffffffffffffffffffffffffffffff1916815260200190815260200160002060009054906101000a900460ff169050919050565b606060068054600181600116156101000203166002900480601f0160208091040260200160405190810160405280929190818152602001828054600181600116156101000203166002900480156107e45780601f106107b9576101008083540402835291602001916107e4565b820191906000526020600020905b8154815290600101906020018083116107c757829003601f168201915b5050505050905090565b60006107f982611dcd565b610838576040517f08c379a000000000000000000000000000000000000000000000000000000000815260040161082f90614206565b60405180910390fd5b6004600083815260200190815260200160002060009054906101000a900473ffffffffffffffffffffffffffffffffffffffff169050919050565b600061087e82610f73565b90508073ffffffffffffffffffffffffffffffffffffffff168373ffffffffffffffffffffffffffffffffffffffff1614156108ef576040517f08c379a00000000000000000000000000000000000000000000000000000000081526004016108e6906142a6565b60405180910390fd5b8073ffffffffffffffffffffffffffffffffffffffff1661090e611dea565b73ffffffffffffffffffffffffffffffffffffffff16148061093d575061093c81610937611dea565b611858565b5b61097c576040517f08c379a000000000000000000000000000000000000000000000000000000000815260040161097390614186565b60405180910390fd5b6109868383611df2565b505050565b60006109976002611eab565b905090565b60606010805480602002602001604051908101604052809291908181526020016000905b82821015610abc57838290600052602060002090600502016040518060a001604052908160008201548152602001600182015481526020016002820154815260200160038201548152602001600482018054600181600116156101000203166002900480601f016020809104026020016040519081016040528092919081815260200182805460018160011615610100020316600290048015610aa45780601f10610a7957610100808354040283529160200191610aa4565b820191906000526020600020905b815481529060010190602001808311610a8757829003601f168201915b505050505081525050815260200190600101906109c0565b50505050905090565b6000610acf611dea565b73ffffffffffffffffffffffffffffffffffffffff16610aed6112eb565b73ffffffffffffffffffffffffffffffffffffffff1614610b43576040517f08c379a0000000000000000000000000000000000000000000000000000000008152600401610b3a90614246565b60405180910390fd5b60005b601080549050811015610bb3578360108281548110610b6157fe5b9060005260206000209060050201600001541415610ba6578260108281548110610b8757fe5b9060005260206000209060050201600101819055506001915050610bb9565b8080600101915050610b46565b50600090505b92915050565b610bd0610bca611dea565b82611ec0565b610c0f576040517f08c379a0000000000000000000000000000000000000000000000000000000008152600401610c0690614306565b60405180910390fd5b610c1a838383611f9e565b505050565b6000610c7282600160008673ffffffffffffffffffffffffffffffffffffffff1673ffffffffffffffffffffffffffffffffffffffff1681526020019081526020016000206121b590919063ffffffff16565b905092915050565b610c9583838360405180602001604052806000815250611538565b505050565b600080610cb18360026121cf90919063ffffffff16565b50905080915050919050565b81346000805b601080549050811015610de6578360108281548110610cde57fe5b9060005260206000209060050201600001541415610dd957600191508260108281548110610d0857fe5b90600052602060002090600502016001015414610d5a576040517f08c379a0000000000000000000000000000000000000000000000000000000008152600401610d5190614346565b60405180910390fd5b60108181548110610d6757fe5b90600052602060002090600502016002015460108281548110610d8657fe5b90600052602060002090600502016003015410610dd8576040517f08c379a0000000000000000000000000000000000000000000000000000000008152600401610dcf906142e6565b60405180910390fd5b5b8080600101915050610cc3565b5080610e27576040517f08c379a0000000000000000000000000000000000000000000000000000000008152600401610e1e90614126565b60405180910390fd5b600080600090505b601080549050811015610ec2578660108281548110610e4a57fe5b9060005260206000209060050201600001541415610eb557600160108281548110610e7157fe5b90600052602060002090600502016003016000828254019250508190555060108181548110610e9c57fe5b9060005260206000209060050201600301549150610ec2565b8080600101915050610e2f565b50600d60009054906101000a900473ffffffffffffffffffffffffffffffffffffffff1673ffffffffffffffffffffffffffffffffffffffff166108fc349081150290604051600060405180830381858888f19350505050158015610f2b573d6000803e3d6000fd5b507f81d4cad9cb4f927b4ee31e3bd4535f9bdb3426d1b822eb1cb91059ddfa3b42b03334888489604051610f63959493929190613f2d565b60405180910390a1505050505050565b6000610fa3826040518060600160405280602981526020016146836029913960026121fb9092919063ffffffff16565b9050919050565b606060098054600181600116156101000203166002900480601f0160208091040260200160405190810160405280929190818152602001828054600181600116156101000203166002900480156110425780601f1061101757610100808354040283529160200191611042565b820191906000526020600020905b81548152906001019060200180831161102557829003601f168201915b5050505050905090565b60008073ffffffffffffffffffffffffffffffffffffffff168273ffffffffffffffffffffffffffffffffffffffff1614156110bd576040517f08c379a00000000000000000000000000000000000000000000000000000000081526004016110b4906141a6565b60405180910390fd5b611104600160008473ffffffffffffffffffffffffffffffffffffffff1673ffffffffffffffffffffffffffffffffffffffff16815260200190815260200160002061221a565b9050919050565b611113611dea565b73ffffffffffffffffffffffffffffffffffffffff166111316112eb565b73ffffffffffffffffffffffffffffffffffffffff1614611187576040517f08c379a000000000000000000000000000000000000000000000000000000000815260040161117e90614246565b60405180910390fd5b600073ffffffffffffffffffffffffffffffffffffffff16600a60009054906101000a900473ffffffffffffffffffffffffffffffffffffffff1673ffffffffffffffffffffffffffffffffffffffff167f8be0079c531659141344cd1fd0a4f28419497f9722a3daafe3b4186f6b6457e060405160405180910390a36000600a60006101000a81548173ffffffffffffffffffffffffffffffffffffffff021916908373ffffffffffffffffffffffffffffffffffffffff160217905550565b6000600e600083815260200190815260200160002060020160009054906101000a900460ff166112ad576040517f08c379a00000000000000000000000000000000000000000000000000000000081526004016112a490614046565b60405180910390fd5b600e600083815260200190815260200160002060000160009054906101000a900473ffffffffffffffffffffffffffffffffffffffff169050919050565b6000600a60009054906101000a900473ffffffffffffffffffffffffffffffffffffffff16905090565b606060078054600181600116156101000203166002900480601f0160208091040260200160405190810160405280929190818152602001828054600181600116156101000203166002900480156113ad5780601f10611382576101008083540402835291602001916113ad565b820191906000526020600020905b81548152906001019060200180831161139057829003601f168201915b5050505050905090565b6113bf611dea565b73ffffffffffffffffffffffffffffffffffffffff168273ffffffffffffffffffffffffffffffffffffffff16141561142d576040517f08c379a000000000000000000000000000000000000000000000000000000000815260040161142490614106565b60405180910390fd5b806005600061143a611dea565b73ffffffffffffffffffffffffffffffffffffffff1673ffffffffffffffffffffffffffffffffffffffff16815260200190815260200160002060008473ffffffffffffffffffffffffffffffffffffffff1673ffffffffffffffffffffffffffffffffffffffff16815260200190815260200160002060006101000a81548160ff0219169083151502179055508173ffffffffffffffffffffffffffffffffffffffff166114e7611dea565b73ffffffffffffffffffffffffffffffffffffffff167f17307eab39ab6107e8899845ad3d59bd9653f200f220920489ca2b5937696c318360405161152c9190614009565b60405180910390a35050565b611549611543611dea565b83611ec0565b611588576040517f08c379a000000000000000000000000000000000000000000000000000000000815260040161157f90614306565b60405180910390fd5b6115948484848461222f565b50505050565b60606115a582611dcd565b6115e4576040517f08c379a00000000000000000000000000000000000000000000000000000000081526004016115db90614286565b60405180910390fd5b6060600860008481526020019081526020016000208054600181600116156101000203166002900480601f01602080910402602001604051908101604052809291908181526020018280546001816001161561010002031660029004801561168d5780601f106116625761010080835404028352916020019161168d565b820191906000526020600020905b81548152906001019060200180831161167057829003601f168201915b50505050509050606061169e610faa565b90506000815114156116b4578192505050611718565b6000825111156116e95780826040516020016116d1929190613ea2565b60405160208183030381529060405292505050611718565b806116f38561228b565b604051602001611704929190613ea2565b604051602081830303815290604052925050505b919050565b6000611727611dea565b73ffffffffffffffffffffffffffffffffffffffff166117456112eb565b73ffffffffffffffffffffffffffffffffffffffff161461179b576040517f08c379a000000000000000000000000000000000000000000000000000000000815260040161179290614246565b60405180910390fd5b6117a5600c6123d2565b60006117b1600c6123e8565b905060106040518060a001604052808381526020018681526020018581526020016000815260200187815250908060018154018082558091505060019003906000526020600020906005020160009091909190915060008201518160000155602082015181600101556040820151816002015560608201518160030155608082015181600401908051906020019061184a929190612da8565b505050809150509392505050565b6000600560008473ffffffffffffffffffffffffffffffffffffffff1673ffffffffffffffffffffffffffffffffffffffff16815260200190815260200160002060008373ffffffffffffffffffffffffffffffffffffffff1673ffffffffffffffffffffffffffffffffffffffff16815260200190815260200160002060009054906101000a900460ff16905092915050565b60606000600f60008473ffffffffffffffffffffffffffffffffffffffff1673ffffffffffffffffffffffffffffffffffffffff1681526020019081526020016000206000018054905011611976576040517f08c379a000000000000000000000000000000000000000000000000000000000815260040161196d906142c6565b60405180910390fd5b600f60008373ffffffffffffffffffffffffffffffffffffffff1673ffffffffffffffffffffffffffffffffffffffff168152602001908152602001600020600001805480602002602001604051908101604052809291908181526020018280548015611a0257602002820191906000526020600020905b8154815260200190600101908083116119ee575b50505050509050919050565b6000611a18611dea565b73ffffffffffffffffffffffffffffffffffffffff16611a366112eb565b73ffffffffffffffffffffffffffffffffffffffff1614611a8c576040517f08c379a0000000000000000000000000000000000000000000000000000000008152600401611a8390614246565b60405180910390fd5b611a96600b6123d2565b6000611aa2600b6123e8565b9050611aae84826123f6565b611ab88184612584565b60405180606001604052808573ffffffffffffffffffffffffffffffffffffffff16815260200142815260200160011515815250600e600083815260200190815260200160002060008201518160000160006101000a81548173ffffffffffffffffffffffffffffffffffffffff021916908373ffffffffffffffffffffffffffffffffffffffff1602179055506020820151816001015560408201518160020160006101000a81548160ff021916908315150217905550905050600f60008573ffffffffffffffffffffffffffffffffffffffff1673ffffffffffffffffffffffffffffffffffffffff1681526020019081526020016000206000018190806001815401808255809150506001900390600052602060002001600090919091909150557fdf92894dc4675a7333caa5903b69cf5d8e8ec0d3f361c88207b6688e525703bb848285604051611c0f93929190613f87565b60405180910390a18091505092915050565b611c29611dea565b73ffffffffffffffffffffffffffffffffffffffff16611c476112eb565b73ffffffffffffffffffffffffffffffffffffffff1614611c9d576040517f08c379a0000000000000000000000000000000000000000000000000000000008152600401611c9490614246565b60405180910390fd5b600073ffffffffffffffffffffffffffffffffffffffff168173ffffffffffffffffffffffffffffffffffffffff161415611d0d576040517f08c379a0000000000000000000000000000000000000000000000000000000008152600401611d04906140a6565b60405180910390fd5b8073ffffffffffffffffffffffffffffffffffffffff16600a60009054906101000a900473ffffffffffffffffffffffffffffffffffffffff1673ffffffffffffffffffffffffffffffffffffffff167f8be0079c531659141344cd1fd0a4f28419497f9722a3daafe3b4186f6b6457e060405160405180910390a380600a60006101000a81548173ffffffffffffffffffffffffffffffffffffffff021916908373ffffffffffffffffffffffffffffffffffffffff16021790555050565b6000611de38260026125f890919063ffffffff16565b9050919050565b600033905090565b816004600083815260200190815260200160002060006101000a81548173ffffffffffffffffffffffffffffffffffffffff021916908373ffffffffffffffffffffffffffffffffffffffff160217905550808273ffffffffffffffffffffffffffffffffffffffff16611e6583610f73565b73ffffffffffffffffffffffffffffffffffffffff167f8c5be1e5ebec7d5bd14f71427d1e84f3dd0314c0f7b2291e5b200ac8c7c3b92560405160405180910390a45050565b6000611eb982600001612612565b9050919050565b6000611ecb82611dcd565b611f0a576040517f08c379a0000000000000000000000000000000000000000000000000000000008152600401611f0190614166565b60405180910390fd5b6000611f1583610f73565b90508073ffffffffffffffffffffffffffffffffffffffff168473ffffffffffffffffffffffffffffffffffffffff161480611f8457508373ffffffffffffffffffffffffffffffffffffffff16611f6c846107ee565b73ffffffffffffffffffffffffffffffffffffffff16145b80611f955750611f948185611858565b5b91505092915050565b8273ffffffffffffffffffffffffffffffffffffffff16611fbe82610f73565b73ffffffffffffffffffffffffffffffffffffffff1614612014576040517f08c379a000000000000000000000000000000000000000000000000000000000815260040161200b90614266565b60405180910390fd5b600073ffffffffffffffffffffffffffffffffffffffff168273ffffffffffffffffffffffffffffffffffffffff161415612084576040517f08c379a000000000000000000000000000000000000000000000000000000000815260040161207b906140e6565b60405180910390fd5b61208f838383612623565b61209a600082611df2565b6120eb81600160008673ffffffffffffffffffffffffffffffffffffffff1673ffffffffffffffffffffffffffffffffffffffff16815260200190815260200160002061262890919063ffffffff16565b5061213d81600160008573ffffffffffffffffffffffffffffffffffffffff1673ffffffffffffffffffffffffffffffffffffffff16815260200190815260200160002061264290919063ffffffff16565b506121548183600261265c9092919063ffffffff16565b50808273ffffffffffffffffffffffffffffffffffffffff168473ffffffffffffffffffffffffffffffffffffffff167fddf252ad1be2c89b69c2b068fc378daa952ba7f163c4a11628f55a4df523b3ef60405160405180910390a4505050565b60006121c48360000183612691565b60001c905092915050565b6000806000806121e286600001866126fe565b915091508160001c8160001c9350935050509250929050565b600061220e846000018460001b84612781565b60001c90509392505050565b600061222882600001612812565b9050919050565b61223a848484611f9e565b61224684848484612823565b612285576040517f08c379a000000000000000000000000000000000000000000000000000000000815260040161227c90614086565b60405180910390fd5b50505050565b606060008214156122d3576040518060400160405280600181526020017f300000000000000000000000000000000000000000000000000000000000000081525090506123cd565b600082905060005b600082146122fd578080600101915050600a82816122f557fe5b0491506122db565b60608167ffffffffffffffff8111801561231657600080fd5b506040519080825280601f01601f1916602001820160405280156123495781602001600182028036833780820191505090505b50905060006001830390508593505b600084146123c557600a848161236a57fe5b0660300160f81b8282806001900393508151811061238457fe5b60200101907effffffffffffffffffffffffffffffffffffffffffffffffffffffffffffff1916908160001a905350600a84816123bd57fe5b049350612358565b819450505050505b919050565b6001816000016000828254019250508190555050565b600081600001549050919050565b600073ffffffffffffffffffffffffffffffffffffffff168273ffffffffffffffffffffffffffffffffffffffff161415612466576040517f08c379a000000000000000000000000000000000000000000000000000000000815260040161245d906141e6565b60405180910390fd5b61246f81611dcd565b156124af576040517f08c379a00000000000000000000000000000000000000000000000000000000081526004016124a6906140c6565b60405180910390fd5b6124bb60008383612623565b61250c81600160008573ffffffffffffffffffffffffffffffffffffffff1673ffffffffffffffffffffffffffffffffffffffff16815260200190815260200160002061264290919063ffffffff16565b506125238183600261265c9092919063ffffffff16565b50808273ffffffffffffffffffffffffffffffffffffffff16600073ffffffffffffffffffffffffffffffffffffffff167fddf252ad1be2c89b69c2b068fc378daa952ba7f163c4a11628f55a4df523b3ef60405160405180910390a45050565b61258d82611dcd565b6125cc576040517f08c379a00000000000000000000000000000000000000000000000000000000081526004016125c390614226565b60405180910390fd5b806008600084815260200190815260200160002090805190602001906125f3929190612da8565b505050565b600061260a836000018360001b612987565b905092915050565b600081600001805490509050919050565b505050565b600061263a836000018360001b6129aa565b905092915050565b6000612654836000018360001b612a92565b905092915050565b6000612688846000018460001b8473ffffffffffffffffffffffffffffffffffffffff1660001b612b02565b90509392505050565b6000818360000180549050116126dc576040517f08c379a00000000000000000000000000000000000000000000000000000000081526004016126d390614066565b60405180910390fd5b8260000182815481106126eb57fe5b9060005260206000200154905092915050565b6000808284600001805490501161274a576040517f08c379a0000000000000000000000000000000000000000000000000000000008152600401612741906141c6565b60405180910390fd5b600084600001848154811061275b57fe5b906000526020600020906002020190508060000154816001015492509250509250929050565b600080846001016000858152602001908152602001600020549050600081141583906127e3576040517f08c379a00000000000000000000000000000000000000000000000000000000081526004016127da9190614024565b60405180910390fd5b508460000160018203815481106127f657fe5b9060005260206000209060020201600101549150509392505050565b600081600001805490509050919050565b60006128448473ffffffffffffffffffffffffffffffffffffffff16612bde565b612851576001905061297f565b606061291863150b7a0260e01b612866611dea565b88878760405160240161287c9493929190613ee1565b604051602081830303815290604052907bffffffffffffffffffffffffffffffffffffffffffffffffffffffff19166020820180517bffffffffffffffffffffffffffffffffffffffffffffffffffffffff8381831617835250505050604051806060016040528060328152602001614651603291398773ffffffffffffffffffffffffffffffffffffffff16612bf19092919063ffffffff16565b9050600081806020019051810190612930919061317a565b905063150b7a0260e01b7bffffffffffffffffffffffffffffffffffffffffffffffffffffffff1916817bffffffffffffffffffffffffffffffffffffffffffffffffffffffff191614925050505b949350505050565b600080836001016000848152602001908152602001600020541415905092915050565b60008083600101600084815260200190815260200160002054905060008114612a8657600060018203905060006001866000018054905003905060008660000182815481106129f557fe5b9060005260206000200154905080876000018481548110612a1257fe5b9060005260206000200181905550600183018760010160008381526020019081526020016000208190555086600001805480612a4a57fe5b60019003818190600052602060002001600090559055866001016000878152602001908152602001600020600090556001945050505050612a8c565b60009150505b92915050565b6000612a9e8383612c09565b612af7578260000182908060018154018082558091505060019003906000526020600020016000909190919091505582600001805490508360010160008481526020019081526020016000208190555060019050612afc565b600090505b92915050565b6000808460010160008581526020019081526020016000205490506000811415612ba957846000016040518060400160405280868152602001858152509080600181540180825580915050600190039060005260206000209060020201600090919091909150600082015181600001556020820151816001015550508460000180549050856001016000868152602001908152602001600020819055506001915050612bd7565b82856000016001830381548110612bbc57fe5b90600052602060002090600202016001018190555060009150505b9392505050565b600080823b905060008111915050919050565b6060612c008484600085612c2c565b90509392505050565b600080836001016000848152602001908152602001600020541415905092915050565b606082471015612c71576040517f08c379a0000000000000000000000000000000000000000000000000000000008152600401612c6890614146565b60405180910390fd5b612c7a85612bde565b612cb9576040517f08c379a0000000000000000000000000000000000000000000000000000000008152600401612cb090614326565b60405180910390fd5b600060608673ffffffffffffffffffffffffffffffffffffffff168587604051612ce39190613e8b565b60006040518083038185875af1925050503d8060008114612d20576040519150601f19603f3d011682016040523d82523d6000602084013e612d25565b606091505b5091509150612d35828286612d41565b92505050949350505050565b60608315612d5157829050612da1565b600083511115612d645782518084602001fd5b816040517f08c379a0000000000000000000000000000000000000000000000000000000008152600401612d989190614024565b60405180910390fd5b9392505050565b828054600181600116156101000203166002900490600052602060002090601f016020900481019282601f10612de957805160ff1916838001178555612e17565b82800160010185558215612e17579182015b82811115612e16578251825591602001919060010190612dfb565b5b509050612e249190612e28565b5090565b5b80821115612e41576000816000905550600101612e29565b5090565b600081359050612e54816145f4565b92915050565b600081359050612e698161460b565b92915050565b600081359050612e7e81614622565b92915050565b600081519050612e9381614622565b92915050565b600082601f830112612eaa57600080fd5b8135612ebd612eb8826143b2565b614381565b91508082526020830160208301858383011115612ed957600080fd5b612ee483828461459f565b50505092915050565b600082601f830112612efe57600080fd5b8135612f11612f0c826143e2565b614381565b91508082526020830160208301858383011115612f2d57600080fd5b612f3883828461459f565b50505092915050565b600081359050612f5081614639565b92915050565b600060208284031215612f6857600080fd5b6000612f7684828501612e45565b91505092915050565b60008060408385031215612f9257600080fd5b6000612fa085828601612e45565b9250506020612fb185828601612e45565b9150509250929050565b600080600060608486031215612fd057600080fd5b6000612fde86828701612e45565b9350506020612fef86828701612e45565b925050604061300086828701612f41565b9150509250925092565b6000806000806080858703121561302057600080fd5b600061302e87828801612e45565b945050602061303f87828801612e45565b935050604061305087828801612f41565b925050606085013567ffffffffffffffff81111561306d57600080fd5b61307987828801612e99565b91505092959194509250565b6000806040838503121561309857600080fd5b60006130a685828601612e45565b92505060206130b785828601612e5a565b9150509250929050565b600080604083850312156130d457600080fd5b60006130e285828601612e45565b925050602083013567ffffffffffffffff8111156130ff57600080fd5b61310b85828601612eed565b9150509250929050565b6000806040838503121561312857600080fd5b600061313685828601612e45565b925050602061314785828601612f41565b9150509250929050565b60006020828403121561316357600080fd5b600061317184828501612e6f565b91505092915050565b60006020828403121561318c57600080fd5b600061319a84828501612e84565b91505092915050565b6000806000606084860312156131b857600080fd5b600084013567ffffffffffffffff8111156131d257600080fd5b6131de86828701612eed565b93505060206131ef86828701612f41565b925050604061320086828701612f41565b9150509250925092565b60006020828403121561321c57600080fd5b600061322a84828501612f41565b91505092915050565b6000806040838503121561324657600080fd5b600061325485828601612f41565b925050602083013567ffffffffffffffff81111561327157600080fd5b61327d85828601612eed565b9150509250929050565b6000806040838503121561329a57600080fd5b60006132a885828601612f41565b92505060206132b985828601612f41565b9150509250929050565b60006132cf8383613df7565b905092915050565b60006132e38383613e6d565b60208301905092915050565b6132f881614569565b82525050565b613307816144f5565b82525050565b613316816144e3565b82525050565b600061332782614432565b6133318185614478565b93508360208202850161334385614412565b8060005b8581101561337f578484038952815161336085826132c3565b945061336b8361445e565b925060208a01995050600181019050613347565b50829750879550505050505092915050565b600061339c8261443d565b6133a68185614489565b93506133b183614422565b8060005b838110156133e25781516133c988826132d7565b97506133d48361446b565b9250506001810190506133b5565b5085935050505092915050565b6133f881614507565b82525050565b600061340982614448565b613413818561449a565b93506134238185602086016145ae565b61342c816145e3565b840191505092915050565b600061344282614448565b61344c81856144ab565b935061345c8185602086016145ae565b80840191505092915050565b600061347382614453565b61347d81856144b6565b935061348d8185602086016145ae565b613496816145e3565b840191505092915050565b60006134ac82614453565b6134b681856144c7565b93506134c68185602086016145ae565b6134cf816145e3565b840191505092915050565b60006134e582614453565b6134ef81856144d8565b93506134ff8185602086016145ae565b80840191505092915050565b60006135186013836144c7565b91507f546f6b656e20646f65736e2774206578697374000000000000000000000000006000830152602082019050919050565b60006135586022836144c7565b91507f456e756d657261626c655365743a20696e646578206f7574206f6620626f756e60008301527f64730000000000000000000000000000000000000000000000000000000000006020830152604082019050919050565b60006135be6032836144c7565b91507f4552433732313a207472616e7366657220746f206e6f6e20455243373231526560008301527f63656976657220696d706c656d656e74657200000000000000000000000000006020830152604082019050919050565b60006136246026836144c7565b91507f4f776e61626c653a206e6577206f776e657220697320746865207a65726f206160008301527f64647265737300000000000000000000000000000000000000000000000000006020830152604082019050919050565b600061368a601c836144c7565b91507f4552433732313a20746f6b656e20616c7265616479206d696e746564000000006000830152602082019050919050565b60006136ca6024836144c7565b91507f4552433732313a207472616e7366657220746f20746865207a65726f2061646460008301527f72657373000000000000000000000000000000000000000000000000000000006020830152604082019050919050565b60006137306019836144c7565b91507f4552433732313a20617070726f766520746f2063616c6c6572000000000000006000830152602082019050919050565b60006137706026836144c7565b91507f526571756573746564207472616e73666f726d6174696f6e20646f65736e277460008301527f20657869737400000000000000000000000000000000000000000000000000006020830152604082019050919050565b60006137d66026836144c7565b91507f416464726573733a20696e73756666696369656e742062616c616e636520666f60008301527f722063616c6c00000000000000000000000000000000000000000000000000006020830152604082019050919050565b600061383c602c836144c7565b91507f4552433732313a206f70657261746f7220717565727920666f72206e6f6e657860008301527f697374656e7420746f6b656e00000000000000000000000000000000000000006020830152604082019050919050565b60006138a26038836144c7565b91507f4552433732313a20617070726f76652063616c6c6572206973206e6f74206f7760008301527f6e6572206e6f7220617070726f76656420666f7220616c6c00000000000000006020830152604082019050919050565b6000613908602a836144c7565b91507f4552433732313a2062616c616e636520717565727920666f7220746865207a6560008301527f726f2061646472657373000000000000000000000000000000000000000000006020830152604082019050919050565b600061396e6022836144c7565b91507f456e756d657261626c654d61703a20696e646578206f7574206f6620626f756e60008301527f64730000000000000000000000000000000000000000000000000000000000006020830152604082019050919050565b60006139d46020836144c7565b91507f4552433732313a206d696e7420746f20746865207a65726f20616464726573736000830152602082019050919050565b6000613a14602c836144c7565b91507f4552433732313a20617070726f76656420717565727920666f72206e6f6e657860008301527f697374656e7420746f6b656e00000000000000000000000000000000000000006020830152604082019050919050565b6000613a7a602c836144c7565b91507f4552433732314d657461646174613a2055524920736574206f66206e6f6e657860008301527f697374656e7420746f6b656e00000000000000000000000000000000000000006020830152604082019050919050565b6000613ae06020836144c7565b91507f4f776e61626c653a2063616c6c6572206973206e6f7420746865206f776e65726000830152602082019050919050565b6000613b206029836144c7565b91507f4552433732313a207472616e73666572206f6620746f6b656e2074686174206960008301527f73206e6f74206f776e00000000000000000000000000000000000000000000006020830152604082019050919050565b6000613b86602f836144c7565b91507f4552433732314d657461646174613a2055524920717565727920666f72206e6f60008301527f6e6578697374656e7420746f6b656e00000000000000000000000000000000006020830152604082019050919050565b6000613bec6021836144c7565b91507f4552433732313a20617070726f76616c20746f2063757272656e74206f776e6560008301527f72000000000000000000000000000000000000000000000000000000000000006020830152604082019050919050565b6000613c52601c836144c7565b91507f5573657220686173206e6f2067656e65726174656420746f6b656e73000000006000830152602082019050919050565b6000613c926022836144c7565b91507f5472616e73666f726d6174696f6e20737570706c79206973206578686175737460008301527f65640000000000000000000000000000000000000000000000000000000000006020830152604082019050919050565b6000613cf86031836144c7565b91507f4552433732313a207472616e736665722063616c6c6572206973206e6f74206f60008301527f776e6572206e6f7220617070726f7665640000000000000000000000000000006020830152604082019050919050565b6000613d5e601d836144c7565b91507f416464726573733a2063616c6c20746f206e6f6e2d636f6e74726163740000006000830152602082019050919050565b6000613d9e6031836144c7565b91507f5472616e73616374696f6e2076616c7565206d757374206d617463682074726160008301527f6e73666f726d6174696f6e2070726963650000000000000000000000000000006020830152604082019050919050565b600060a083016000830151613e0f6000860182613e6d565b506020830151613e226020860182613e6d565b506040830151613e356040860182613e6d565b506060830151613e486060860182613e6d565b5060808301518482036080860152613e608282613468565b9150508091505092915050565b613e768161455f565b82525050565b613e858161455f565b82525050565b6000613e978284613437565b915081905092915050565b6000613eae82856134da565b9150613eba82846134da565b91508190509392505050565b6000602082019050613edb600083018461330d565b92915050565b6000608082019050613ef660008301876132fe565b613f03602083018661330d565b613f106040830185613e7c565b8181036060830152613f2281846133fe565b905095945050505050565b600060a082019050613f4260008301886132ef565b613f4f6020830187613e7c565b613f5c6040830186613e7c565b613f696060830185613e7c565b8181036080830152613f7b81846134a1565b90509695505050505050565b6000606082019050613f9c600083018661330d565b613fa96020830185613e7c565b8181036040830152613fbb81846134a1565b9050949350505050565b60006020820190508181036000830152613fdf818461331c565b905092915050565b600060208201905081810360008301526140018184613391565b905092915050565b600060208201905061401e60008301846133ef565b92915050565b6000602082019050818103600083015261403e81846134a1565b905092915050565b6000602082019050818103600083015261405f8161350b565b9050919050565b6000602082019050818103600083015261407f8161354b565b9050919050565b6000602082019050818103600083015261409f816135b1565b9050919050565b600060208201905081810360008301526140bf81613617565b9050919050565b600060208201905081810360008301526140df8161367d565b9050919050565b600060208201905081810360008301526140ff816136bd565b9050919050565b6000602082019050818103600083015261411f81613723565b9050919050565b6000602082019050818103600083015261413f81613763565b9050919050565b6000602082019050818103600083015261415f816137c9565b9050919050565b6000602082019050818103600083015261417f8161382f565b9050919050565b6000602082019050818103600083015261419f81613895565b9050919050565b600060208201905081810360008301526141bf816138fb565b9050919050565b600060208201905081810360008301526141df81613961565b9050919050565b600060208201905081810360008301526141ff816139c7565b9050919050565b6000602082019050818103600083015261421f81613a07565b9050919050565b6000602082019050818103600083015261423f81613a6d565b9050919050565b6000602082019050818103600083015261425f81613ad3565b9050919050565b6000602082019050818103600083015261427f81613b13565b9050919050565b6000602082019050818103600083015261429f81613b79565b9050919050565b600060208201905081810360008301526142bf81613bdf565b9050919050565b600060208201905081810360008301526142df81613c45565b9050919050565b600060208201905081810360008301526142ff81613c85565b9050919050565b6000602082019050818103600083015261431f81613ceb565b9050919050565b6000602082019050818103600083015261433f81613d51565b9050919050565b6000602082019050818103600083015261435f81613d91565b9050919050565b600060208201905061437b6000830184613e7c565b92915050565b6000604051905081810181811067ffffffffffffffff821117156143a8576143a76145e1565b5b8060405250919050565b600067ffffffffffffffff8211156143cd576143cc6145e1565b5b601f19601f8301169050602081019050919050565b600067ffffffffffffffff8211156143fd576143fc6145e1565b5b601f19601f8301169050602081019050919050565b6000819050602082019050919050565b6000819050602082019050919050565b600081519050919050565b600081519050919050565b600081519050919050565b600081519050919050565b6000602082019050919050565b6000602082019050919050565b600082825260208201905092915050565b600082825260208201905092915050565b600082825260208201905092915050565b600081905092915050565b600082825260208201905092915050565b600082825260208201905092915050565b600081905092915050565b60006144ee8261453f565b9050919050565b60006145008261453f565b9050919050565b60008115159050919050565b60007fffffffff0000000000000000000000000000000000000000000000000000000082169050919050565b600073ffffffffffffffffffffffffffffffffffffffff82169050919050565b6000819050919050565b60006145748261457b565b9050919050565b60006145868261458d565b9050919050565b60006145988261453f565b9050919050565b82818337600083830152505050565b60005b838110156145cc5780820151818401526020810190506145b1565b838111156145db576000848401525b50505050565bfe5b6000601f19601f8301169050919050565b6145fd816144e3565b811461460857600080fd5b50565b61461481614507565b811461461f57600080fd5b50565b61462b81614513565b811461463657600080fd5b50565b6146428161455f565b811461464d57600080fd5b5056fe4552433732313a207472616e7366657220746f206e6f6e20455243373231526563656976657220696d706c656d656e7465724552433732313a206f776e657220717565727920666f72206e6f6e6578697374656e7420746f6b656ea2646970667358221220f6a30df91d374df00a920b5802cae8e36a7854b9091c5b8df56e03de2a2ca61f64736f6c63430007030033",
  "linkReferences": {},
  "deployedLinkReferences": {}
}