{
  "_format": "hh-sol-artifact-1",
  "contractName": "StyleArt",
  "sourceName": "contracts/StyleArt.sol",
  "abi": [
    {
      "inputs": [],
      "stateMutability": "nonpayable",
      "type": "constructor"
    },
    {
      "anonymous": false,
      "inputs": [
        {
          "indexed": true,
          "internalType": "address",
          "name": "owner",
          "type": "address"
        },
        {
          "indexed": true,
          "internalType": "address",
          "name": "approved",
          "type": "address"
        },
        {
          "indexed": true,
          "internalType": "uint256",
          "name": "tokenId",
          "type": "uint256"
        }
      ],
      "name": "Approval",
      "type": "event"
    },
    {
      "anonymous": false,
      "inputs": [
        {
          "indexed": true,
          "internalType": "address",
          "name": "owner",
          "type": "address"
        },
        {
          "indexed": true,
          "internalType": "address",
          "name": "operator",
          "type": "address"
        },
        {
          "indexed": false,
          "internalType": "bool",
          "name": "approved",
          "type": "bool"
        }
      ],
      "name": "ApprovalForAll",
      "type": "event"
    },
    {
      "anonymous": false,
      "inputs": [
        {
          "indexed": false,
          "internalType": "address",
          "name": "sender",
          "type": "address"
        },
        {
          "indexed": false,
          "internalType": "uint256",
          "name": "value",
          "type": "uint256"
        },
        {
          "indexed": false,
          "internalType": "uint256",
          "name": "transformationId",
          "type": "uint256"
        },
        {
          "indexed": false,
          "internalType": "string",
          "name": "imageURL",
          "type": "string"
        }
      ],
      "name": "ImageGenerationPaid",
      "type": "event"
    },
    {
      "anonymous": false,
      "inputs": [
        {
          "indexed": true,
          "internalType": "address",
          "name": "previousOwner",
          "type": "address"
        },
        {
          "indexed": true,
          "internalType": "address",
          "name": "newOwner",
          "type": "address"
        }
      ],
      "name": "OwnershipTransferred",
      "type": "event"
    },
    {
      "anonymous": false,
      "inputs": [
        {
          "indexed": false,
          "internalType": "address",
          "name": "payer",
          "type": "address"
        },
        {
          "indexed": false,
          "internalType": "uint256",
          "name": "tokenId",
          "type": "uint256"
        },
        {
          "indexed": false,
          "internalType": "string",
          "name": "tokenURI",
          "type": "string"
        }
      ],
      "name": "TokenMinted",
      "type": "event"
    },
    {
      "anonymous": false,
      "inputs": [
        {
          "indexed": true,
          "internalType": "address",
          "name": "from",
          "type": "address"
        },
        {
          "indexed": true,
          "internalType": "address",
          "name": "to",
          "type": "address"
        },
        {
          "indexed": true,
          "internalType": "uint256",
          "name": "tokenId",
          "type": "uint256"
        }
      ],
      "name": "Transfer",
      "type": "event"
    },
    {
      "inputs": [
        {
          "internalType": "string",
          "name": "name",
          "type": "string"
        },
        {
          "internalType": "uint256",
          "name": "price",
          "type": "uint256"
        },
        {
          "internalType": "uint256",
          "name": "supply",
          "type": "uint256"
        }
      ],
      "name": "addTransformation",
      "outputs": [
        {
          "internalType": "uint256",
          "name": "",
          "type": "uint256"
        }
      ],
      "stateMutability": "nonpayable",
      "type": "function"
    },
    {
      "inputs": [
        {
          "internalType": "address",
          "name": "to",
          "type": "address"
        },
        {
          "internalType": "uint256",
          "name": "tokenId",
          "type": "uint256"
        }
      ],
      "name": "approve",
      "outputs": [],
      "stateMutability": "nonpayable",
      "type": "function"
    },
    {
      "inputs": [
        {
          "internalType": "address",
          "name": "owner",
          "type": "address"
        }
      ],
      "name": "balanceOf",
      "outputs": [
        {
          "internalType": "uint256",
          "name": "",
          "type": "uint256"
        }
      ],
      "stateMutability": "view",
      "type": "function"
    },
    {
      "inputs": [],
      "name": "baseURI",
      "outputs": [
        {
          "internalType": "string",
          "name": "",
          "type": "string"
        }
      ],
      "stateMutability": "view",
      "type": "function"
    },
    {
      "inputs": [
        {
          "internalType": "uint256",
          "name": "tokenId",
          "type": "uint256"
        }
      ],
      "name": "getApproved",
      "outputs": [
        {
          "internalType": "address",
          "name": "",
          "type": "address"
        }
      ],
      "stateMutability": "view",
      "type": "function"
    },
    {
      "inputs": [
        {
          "internalType": "address",
          "name": "owner",
          "type": "address"
        },
        {
          "internalType": "address",
          "name": "operator",
          "type": "address"
        }
      ],
      "name": "isApprovedForAll",
      "outputs": [
        {
          "internalType": "bool",
          "name": "",
          "type": "bool"
        }
      ],
      "stateMutability": "view",
      "type": "function"
    },
    {
      "inputs": [],
      "name": "listTransformations",
      "outputs": [
        {
          "components": [
            {
              "internalType": "uint256",
              "name": "id",
              "type": "uint256"
            },
            {
              "internalType": "uint256",
              "name": "price",
              "type": "uint256"
            },
            {
              "internalType": "uint256",
              "name": "supply",
              "type": "uint256"
            },
            {
              "internalType": "string",
              "name": "name",
              "type": "string"
            }
          ],
          "internalType": "struct StyleArt.Transformation[]",
          "name": "",
          "type": "tuple[]"
        }
      ],
      "stateMutability": "view",
      "type": "function"
    },
    {
      "inputs": [
        {
          "internalType": "address",
          "name": "payer",
          "type": "address"
        },
        {
          "internalType": "string",
          "name": "tokenURI",
          "type": "string"
        }
      ],
      "name": "mintNFT",
      "outputs": [
        {
          "internalType": "uint256",
          "name": "",
          "type": "uint256"
        }
      ],
      "stateMutability": "nonpayable",
      "type": "function"
    },
    {
      "inputs": [],
      "name": "name",
      "outputs": [
        {
          "internalType": "string",
          "name": "",
          "type": "string"
        }
      ],
      "stateMutability": "view",
      "type": "function"
    },
    {
      "inputs": [],
      "name": "owner",
      "outputs": [
        {
          "internalType": "address",
          "name": "",
          "type": "address"
        }
      ],
      "stateMutability": "view",
      "type": "function"
    },
    {
      "inputs": [
        {
          "internalType": "uint256",
          "name": "tokenId",
          "type": "uint256"
        }
      ],
      "name": "ownerOf",
      "outputs": [
        {
          "internalType": "address",
          "name": "",
          "type": "address"
        }
      ],
      "stateMutability": "view",
      "type": "function"
    },
    {
      "inputs": [
        {
          "internalType": "uint256",
          "name": "transformationId",
          "type": "uint256"
        },
        {
          "internalType": "string",
          "name": "imageUrl",
          "type": "string"
        }
      ],
      "name": "payGenerating",
      "outputs": [],
      "stateMutability": "payable",
      "type": "function"
    },
    {
      "inputs": [
        {
          "internalType": "uint256",
          "name": "tokenId",
          "type": "uint256"
        }
      ],
      "name": "payerOf",
      "outputs": [
        {
          "internalType": "address",
          "name": "",
          "type": "address"
        }
      ],
      "stateMutability": "view",
      "type": "function"
    },
    {
      "inputs": [],
      "name": "renounceOwnership",
      "outputs": [],
      "stateMutability": "nonpayable",
      "type": "function"
    },
    {
      "inputs": [
        {
          "internalType": "address",
          "name": "from",
          "type": "address"
        },
        {
          "internalType": "address",
          "name": "to",
          "type": "address"
        },
        {
          "internalType": "uint256",
          "name": "tokenId",
          "type": "uint256"
        }
      ],
      "name": "safeTransferFrom",
      "outputs": [],
      "stateMutability": "nonpayable",
      "type": "function"
    },
    {
      "inputs": [
        {
          "internalType": "address",
          "name": "from",
          "type": "address"
        },
        {
          "internalType": "address",
          "name": "to",
          "type": "address"
        },
        {
          "internalType": "uint256",
          "name": "tokenId",
          "type": "uint256"
        },
        {
          "internalType": "bytes",
          "name": "_data",
          "type": "bytes"
        }
      ],
      "name": "safeTransferFrom",
      "outputs": [],
      "stateMutability": "nonpayable",
      "type": "function"
    },
    {
      "inputs": [
        {
          "internalType": "address",
          "name": "operator",
          "type": "address"
        },
        {
          "internalType": "bool",
          "name": "approved",
          "type": "bool"
        }
      ],
      "name": "setApprovalForAll",
      "outputs": [],
      "stateMutability": "nonpayable",
      "type": "function"
    },
    {
      "inputs": [
        {
          "internalType": "bytes4",
          "name": "interfaceId",
          "type": "bytes4"
        }
      ],
      "name": "supportsInterface",
      "outputs": [
        {
          "internalType": "bool",
          "name": "",
          "type": "bool"
        }
      ],
      "stateMutability": "view",
      "type": "function"
    },
    {
      "inputs": [],
      "name": "symbol",
      "outputs": [
        {
          "internalType": "string",
          "name": "",
          "type": "string"
        }
      ],
      "stateMutability": "view",
      "type": "function"
    },
    {
      "inputs": [
        {
          "internalType": "uint256",
          "name": "index",
          "type": "uint256"
        }
      ],
      "name": "tokenByIndex",
      "outputs": [
        {
          "internalType": "uint256",
          "name": "",
          "type": "uint256"
        }
      ],
      "stateMutability": "view",
      "type": "function"
    },
    {
      "inputs": [
        {
          "internalType": "address",
          "name": "owner",
          "type": "address"
        },
        {
          "internalType": "uint256",
          "name": "index",
          "type": "uint256"
        }
      ],
      "name": "tokenOfOwnerByIndex",
      "outputs": [
        {
          "internalType": "uint256",
          "name": "",
          "type": "uint256"
        }
      ],
      "stateMutability": "view",
      "type": "function"
    },
    {
      "inputs": [
        {
          "internalType": "uint256",
          "name": "tokenId",
          "type": "uint256"
        }
      ],
      "name": "tokenURI",
      "outputs": [
        {
          "internalType": "string",
          "name": "",
          "type": "string"
        }
      ],
      "stateMutability": "view",
      "type": "function"
    },
    {
      "inputs": [],
      "name": "totalSupply",
      "outputs": [
        {
          "internalType": "uint256",
          "name": "",
          "type": "uint256"
        }
      ],
      "stateMutability": "view",
      "type": "function"
    },
    {
      "inputs": [
        {
          "internalType": "address",
          "name": "from",
          "type": "address"
        },
        {
          "internalType": "address",
          "name": "to",
          "type": "address"
        },
        {
          "internalType": "uint256",
          "name": "tokenId",
          "type": "uint256"
        }
      ],
      "name": "transferFrom",
      "outputs": [],
      "stateMutability": "nonpayable",
      "type": "function"
    },
    {
      "inputs": [
        {
          "internalType": "address",
          "name": "newOwner",
          "type": "address"
        }
      ],
      "name": "transferOwnership",
      "outputs": [],
      "stateMutability": "nonpayable",
      "type": "function"
    },
    {
      "inputs": [
        {
          "internalType": "uint256",
          "name": "id",
          "type": "uint256"
        },
        {
          "internalType": "uint256",
          "name": "price",
          "type": "uint256"
        }
      ],
      "name": "updateTransformationPrice",
      "outputs": [
        {
          "internalType": "bool",
          "name": "",
          "type": "bool"
        }
      ],
      "stateMutability": "nonpayable",
      "type": "function"
    },
    {
      "inputs": [
        {
          "internalType": "address",
          "name": "user",
          "type": "address"
        }
      ],
      "name": "userGeneratedTokens",
      "outputs": [
        {
          "internalType": "uint256[]",
          "name": "",
          "type": "uint256[]"
        }
      ],
      "stateMutability": "view",
      "type": "function"
    }
  ],
  "bytecode": "0x60806040523480156200001157600080fd5b506040518060400160405280600881526020017f7374796c656172740000000000000000000000000000000000000000000000008152506040518060400160405280600481526020017f7361727400000000000000000000000000000000000000000000000000000000815250620000966301ffc9a760e01b6200020a60201b60201c565b8160069080519060200190620000ae929190620002ea565b508060079080519060200190620000c7929190620002ea565b50620000e06380ac58cd60e01b6200020a60201b60201c565b620000f8635b5e139f60e01b6200020a60201b60201c565b6200011063780e9d6360e01b6200020a60201b60201c565b5050600062000124620002e260201b60201c565b905080600a60006101000a81548173ffffffffffffffffffffffffffffffffffffffff021916908373ffffffffffffffffffffffffffffffffffffffff1602179055508073ffffffffffffffffffffffffffffffffffffffff16600073ffffffffffffffffffffffffffffffffffffffff167f8be0079c531659141344cd1fd0a4f28419497f9722a3daafe3b4186f6b6457e060405160405180910390a35033600d60006101000a81548173ffffffffffffffffffffffffffffffffffffffff021916908373ffffffffffffffffffffffffffffffffffffffff16021790555062000405565b63ffffffff60e01b817bffffffffffffffffffffffffffffffffffffffffffffffffffffffff1916141562000276576040517f08c379a00000000000000000000000000000000000000000000000000000000081526004016200026d90620003d2565b60405180910390fd5b6001600080837bffffffffffffffffffffffffffffffffffffffffffffffffffffffff19167bffffffffffffffffffffffffffffffffffffffffffffffffffffffff1916815260200190815260200160002060006101000a81548160ff02191690831515021790555050565b600033905090565b828054600181600116156101000203166002900490600052602060002090601f016020900481019282601f106200032d57805160ff19168380011785556200035e565b828001600101855582156200035e579182015b828111156200035d57825182559160200191906001019062000340565b5b5090506200036d919062000371565b5090565b5b808211156200038c57600081600090555060010162000372565b5090565b60006200039f601c83620003f4565b91507f4552433136353a20696e76616c696420696e74657266616365206964000000006000830152602082019050919050565b60006020820190508181036000830152620003ed8162000390565b9050919050565b600082825260208201905092915050565b6146e680620004156000396000f3fe60806040526004361061019c5760003560e01c80636c0360eb116100ec578063b88d4fde1161008a578063e985e9c511610064578063e985e9c514610605578063e9c7723d14610642578063eacabe141461067f578063f2fde38b146106bc5761019c565b8063b88d4fde14610562578063c87b56dd1461058b578063e3a6f8fc146105c85761019c565b80637edcf18f116100c65780637edcf18f146104a65780638da5cb5b146104e357806395d89b411461050e578063a22cb465146105395761019c565b80636c0360eb1461042757806370a0823114610452578063715018a61461048f5761019c565b80632362382d1161015957806342842e0e1161013357806342842e0e146103685780634f6ccce71461039157806358a1388f146103ce5780636352211e146103ea5761019c565b80632362382d146102c557806323b872dd146103025780632f745c591461032b5761019c565b806301ffc9a7146101a157806306fdde03146101de578063081812fc14610209578063095ea7b31461024657806318160ddd1461026f5780631935ec9f1461029a575b600080fd5b3480156101ad57600080fd5b506101c860048036038101906101c3919061315a565b6106e5565b6040516101d59190614019565b60405180910390f35b3480156101ea57600080fd5b506101f361074c565b6040516102009190614034565b60405180910390f35b34801561021557600080fd5b50610230600480360381019061022b9190613213565b6107ee565b60405161023d9190613ee4565b60405180910390f35b34801561025257600080fd5b5061026d6004803603810190610268919061311e565b610873565b005b34801561027b57600080fd5b5061028461098b565b6040516102919190614356565b60405180910390f35b3480156102a657600080fd5b506102af61099c565b6040516102bc9190613fd5565b60405180910390f35b3480156102d157600080fd5b506102ec60048036038101906102e79190613290565b610abb565b6040516102f99190614019565b60405180910390f35b34801561030e57600080fd5b5061032960048036038101906103249190612fc4565b610bd0565b005b34801561033757600080fd5b50610352600480360381019061034d919061311e565b610c30565b60405161035f9190614356565b60405180910390f35b34801561037457600080fd5b5061038f600480360381019061038a9190612fc4565b610c8b565b005b34801561039d57600080fd5b506103b860048036038101906103b39190613213565b610cab565b6040516103c59190614356565b60405180910390f35b6103e860048036038101906103e3919061323c565b610cce565b005b3480156103f657600080fd5b50610411600480360381019061040c9190613213565b610f3a565b60405161041e9190613ee4565b60405180910390f35b34801561043357600080fd5b5061043c610f71565b6040516104499190614034565b60405180910390f35b34801561045e57600080fd5b5061047960048036038101906104749190612f5f565b611013565b6040516104869190614356565b60405180910390f35b34801561049b57600080fd5b506104a46110d2565b005b3480156104b257600080fd5b506104cd60048036038101906104c89190613213565b61122a565b6040516104da9190613ee4565b60405180910390f35b3480156104ef57600080fd5b506104f86112cd565b6040516105059190613ee4565b60405180910390f35b34801561051a57600080fd5b506105236112f7565b6040516105309190614034565b60405180910390f35b34801561054557600080fd5b50610560600480360381019061055b919061308e565b611399565b005b34801561056e57600080fd5b5061058960048036038101906105849190613013565b61151a565b005b34801561059757600080fd5b506105b260048036038101906105ad9190613213565b61157c565b6040516105bf9190614034565b60405180910390f35b3480156105d457600080fd5b506105ef60048036038101906105ea91906131ac565b611707565b6040516105fc9190614356565b60405180910390f35b34801561061157600080fd5b5061062c60048036038101906106279190612f88565b61184c565b6040516106399190614019565b60405180910390f35b34801561064e57600080fd5b5061066960048036038101906106649190612f5f565b6118e0565b6040516106769190613ff7565b60405180910390f35b34801561068b57600080fd5b506106a660048036038101906106a191906130ca565b611a02565b6040516106b39190614356565b60405180910390f35b3480156106c857600080fd5b506106e360048036038101906106de9190612f5f565b611c30565b005b6000806000837bffffffffffffffffffffffffffffffffffffffffffffffffffffffff19167bffffffffffffffffffffffffffffffffffffffffffffffffffffffff1916815260200190815260200160002060009054906101000a900460ff169050919050565b606060068054600181600116156101000203166002900480601f0160208091040260200160405190810160405280929190818152602001828054600181600116156101000203166002900480156107e45780601f106107b9576101008083540402835291602001916107e4565b820191906000526020600020905b8154815290600101906020018083116107c757829003601f168201915b5050505050905090565b60006107f982611df7565b610838576040517f08c379a000000000000000000000000000000000000000000000000000000000815260040161082f906141f6565b60405180910390fd5b6004600083815260200190815260200160002060009054906101000a900473ffffffffffffffffffffffffffffffffffffffff169050919050565b600061087e82610f3a565b90508073ffffffffffffffffffffffffffffffffffffffff168373ffffffffffffffffffffffffffffffffffffffff1614156108ef576040517f08c379a00000000000000000000000000000000000000000000000000000000081526004016108e690614296565b60405180910390fd5b8073ffffffffffffffffffffffffffffffffffffffff1661090e611e14565b73ffffffffffffffffffffffffffffffffffffffff16148061093d575061093c81610937611e14565b61184c565b5b61097c576040517f08c379a000000000000000000000000000000000000000000000000000000000815260040161097390614176565b60405180910390fd5b6109868383611e1c565b505050565b60006109976002611ed5565b905090565b60606010805480602002602001604051908101604052809291908181526020016000905b82821015610ab25783829060005260206000209060040201604051806080016040529081600082015481526020016001820154815260200160028201548152602001600382018054600181600116156101000203166002900480601f016020809104026020016040519081016040528092919081815260200182805460018160011615610100020316600290048015610a9a5780601f10610a6f57610100808354040283529160200191610a9a565b820191906000526020600020905b815481529060010190602001808311610a7d57829003601f168201915b505050505081525050815260200190600101906109c0565b50505050905090565b6000610ac5611e14565b73ffffffffffffffffffffffffffffffffffffffff16600a60009054906101000a900473ffffffffffffffffffffffffffffffffffffffff1673ffffffffffffffffffffffffffffffffffffffff1614610b54576040517f08c379a0000000000000000000000000000000000000000000000000000000008152600401610b4b90614236565b60405180910390fd5b60005b601080549050811015610bc4578360108281548110610b7257fe5b9060005260206000209060040201600001541415610bb7578260108281548110610b9857fe5b9060005260206000209060040201600101819055506001915050610bca565b8080600101915050610b57565b50600090505b92915050565b610be1610bdb611e14565b82611eea565b610c20576040517f08c379a0000000000000000000000000000000000000000000000000000000008152600401610c17906142f6565b60405180910390fd5b610c2b838383611fc8565b505050565b6000610c8382600160008673ffffffffffffffffffffffffffffffffffffffff1673ffffffffffffffffffffffffffffffffffffffff1681526020019081526020016000206121df90919063ffffffff16565b905092915050565b610ca68383836040518060200160405280600081525061151a565b505050565b600080610cc28360026121f990919063ffffffff16565b50905080915050919050565b81346000805b601080549050811015610dda578360108281548110610cef57fe5b9060005260206000209060040201600001541415610dcd57600191508260108281548110610d1957fe5b90600052602060002090600402016001015414610d6b576040517f08c379a0000000000000000000000000000000000000000000000000000000008152600401610d6290614336565b60405180910390fd5b600060108281548110610d7a57fe5b90600052602060002090600402016002015411610dcc576040517f08c379a0000000000000000000000000000000000000000000000000000000008152600401610dc3906142d6565b60405180910390fd5b5b8080600101915050610cd4565b5080610e1b576040517f08c379a0000000000000000000000000000000000000000000000000000000008152600401610e1290614136565b60405180910390fd5b60005b601080549050811015610e8c578560108281548110610e3957fe5b9060005260206000209060040201600001541415610e7f57600160108281548110610e6057fe5b9060005260206000209060040201600201600082825403925050819055505b8080600101915050610e1e565b50600d60009054906101000a900473ffffffffffffffffffffffffffffffffffffffff1673ffffffffffffffffffffffffffffffffffffffff166108fc349081150290604051600060405180830381858888f19350505050158015610ef5573d6000803e3d6000fd5b507fb4b3eea958fd79328ea998403a758ad1a0d9db9c72633bbf4b014b934939ae9033348787604051610f2b9493929190613f4b565b60405180910390a15050505050565b6000610f6a826040518060600160405280602981526020016146886029913960026122259092919063ffffffff16565b9050919050565b606060098054600181600116156101000203166002900480601f0160208091040260200160405190810160405280929190818152602001828054600181600116156101000203166002900480156110095780601f10610fde57610100808354040283529160200191611009565b820191906000526020600020905b815481529060010190602001808311610fec57829003601f168201915b5050505050905090565b60008073ffffffffffffffffffffffffffffffffffffffff168273ffffffffffffffffffffffffffffffffffffffff161415611084576040517f08c379a000000000000000000000000000000000000000000000000000000000815260040161107b90614196565b60405180910390fd5b6110cb600160008473ffffffffffffffffffffffffffffffffffffffff1673ffffffffffffffffffffffffffffffffffffffff168152602001908152602001600020612244565b9050919050565b6110da611e14565b73ffffffffffffffffffffffffffffffffffffffff16600a60009054906101000a900473ffffffffffffffffffffffffffffffffffffffff1673ffffffffffffffffffffffffffffffffffffffff1614611169576040517f08c379a000000000000000000000000000000000000000000000000000000000815260040161116090614236565b60405180910390fd5b600073ffffffffffffffffffffffffffffffffffffffff16600a60009054906101000a900473ffffffffffffffffffffffffffffffffffffffff1673ffffffffffffffffffffffffffffffffffffffff167f8be0079c531659141344cd1fd0a4f28419497f9722a3daafe3b4186f6b6457e060405160405180910390a36000600a60006101000a81548173ffffffffffffffffffffffffffffffffffffffff021916908373ffffffffffffffffffffffffffffffffffffffff160217905550565b6000600e600083815260200190815260200160002060020160009054906101000a900460ff1661128f576040517f08c379a000000000000000000000000000000000000000000000000000000000815260040161128690614056565b60405180910390fd5b600e600083815260200190815260200160002060000160009054906101000a900473ffffffffffffffffffffffffffffffffffffffff169050919050565b6000600a60009054906101000a900473ffffffffffffffffffffffffffffffffffffffff16905090565b606060078054600181600116156101000203166002900480601f01602080910402602001604051908101604052809291908181526020018280546001816001161561010002031660029004801561138f5780601f106113645761010080835404028352916020019161138f565b820191906000526020600020905b81548152906001019060200180831161137257829003601f168201915b5050505050905090565b6113a1611e14565b73ffffffffffffffffffffffffffffffffffffffff168273ffffffffffffffffffffffffffffffffffffffff16141561140f576040517f08c379a000000000000000000000000000000000000000000000000000000000815260040161140690614116565b60405180910390fd5b806005600061141c611e14565b73ffffffffffffffffffffffffffffffffffffffff1673ffffffffffffffffffffffffffffffffffffffff16815260200190815260200160002060008473ffffffffffffffffffffffffffffffffffffffff1673ffffffffffffffffffffffffffffffffffffffff16815260200190815260200160002060006101000a81548160ff0219169083151502179055508173ffffffffffffffffffffffffffffffffffffffff166114c9611e14565b73ffffffffffffffffffffffffffffffffffffffff167f17307eab39ab6107e8899845ad3d59bd9653f200f220920489ca2b5937696c318360405161150e9190614019565b60405180910390a35050565b61152b611525611e14565b83611eea565b61156a576040517f08c379a0000000000000000000000000000000000000000000000000000000008152600401611561906142f6565b60405180910390fd5b61157684848484612259565b50505050565b606061158782611df7565b6115c6576040517f08c379a00000000000000000000000000000000000000000000000000000000081526004016115bd90614276565b60405180910390fd5b6060600860008481526020019081526020016000208054600181600116156101000203166002900480601f01602080910402602001604051908101604052809291908181526020018280546001816001161561010002031660029004801561166f5780601f106116445761010080835404028352916020019161166f565b820191906000526020600020905b81548152906001019060200180831161165257829003601f168201915b5050505050905060006009805460018160011615610100020316600290049050141561169e5780915050611702565b6000815111156116d3576009816040516020016116bc929190613ec0565b604051602081830303815290604052915050611702565b60096116de846122b5565b6040516020016116ef929190613ec0565b6040516020818303038152906040529150505b919050565b6000611711611e14565b73ffffffffffffffffffffffffffffffffffffffff16600a60009054906101000a900473ffffffffffffffffffffffffffffffffffffffff1673ffffffffffffffffffffffffffffffffffffffff16146117a0576040517f08c379a000000000000000000000000000000000000000000000000000000000815260040161179790614236565b60405180910390fd5b6117aa600c6123fc565b60006117b6600c612412565b905060106040518060800160405280838152602001868152602001858152602001878152509080600181540180825580915050600190039060005260206000209060040201600090919091909150600082015181600001556020820151816001015560408201518160020155606082015181600301908051906020019061183e929190612db1565b505050809150509392505050565b6000600560008473ffffffffffffffffffffffffffffffffffffffff1673ffffffffffffffffffffffffffffffffffffffff16815260200190815260200160002060008373ffffffffffffffffffffffffffffffffffffffff1673ffffffffffffffffffffffffffffffffffffffff16815260200190815260200160002060009054906101000a900460ff16905092915050565b60606000600f60008473ffffffffffffffffffffffffffffffffffffffff1673ffffffffffffffffffffffffffffffffffffffff168152602001908152602001600020600001805490501161196a576040517f08c379a0000000000000000000000000000000000000000000000000000000008152600401611961906142b6565b60405180910390fd5b600f60008373ffffffffffffffffffffffffffffffffffffffff1673ffffffffffffffffffffffffffffffffffffffff1681526020019081526020016000206000018054806020026020016040519081016040528092919081815260200182805480156119f657602002820191906000526020600020905b8154815260200190600101908083116119e2575b50505050509050919050565b6000611a0c611e14565b73ffffffffffffffffffffffffffffffffffffffff16600a60009054906101000a900473ffffffffffffffffffffffffffffffffffffffff1673ffffffffffffffffffffffffffffffffffffffff1614611a9b576040517f08c379a0000000000000000000000000000000000000000000000000000000008152600401611a9290614236565b60405180910390fd5b611aa5600b6123fc565b6000611ab1600b612412565b9050611abd8482612420565b611ac781846125ae565b60405180606001604052808573ffffffffffffffffffffffffffffffffffffffff16815260200142815260200160011515815250600e600083815260200190815260200160002060008201518160000160006101000a81548173ffffffffffffffffffffffffffffffffffffffff021916908373ffffffffffffffffffffffffffffffffffffffff1602179055506020820151816001015560408201518160020160006101000a81548160ff021916908315150217905550905050600f60008573ffffffffffffffffffffffffffffffffffffffff1673ffffffffffffffffffffffffffffffffffffffff1681526020019081526020016000206000018190806001815401808255809150506001900390600052602060002001600090919091909150557fdf92894dc4675a7333caa5903b69cf5d8e8ec0d3f361c88207b6688e525703bb848285604051611c1e93929190613f97565b60405180910390a18091505092915050565b611c38611e14565b73ffffffffffffffffffffffffffffffffffffffff16600a60009054906101000a900473ffffffffffffffffffffffffffffffffffffffff1673ffffffffffffffffffffffffffffffffffffffff1614611cc7576040517f08c379a0000000000000000000000000000000000000000000000000000000008152600401611cbe90614236565b60405180910390fd5b600073ffffffffffffffffffffffffffffffffffffffff168173ffffffffffffffffffffffffffffffffffffffff161415611d37576040517f08c379a0000000000000000000000000000000000000000000000000000000008152600401611d2e906140b6565b60405180910390fd5b8073ffffffffffffffffffffffffffffffffffffffff16600a60009054906101000a900473ffffffffffffffffffffffffffffffffffffffff1673ffffffffffffffffffffffffffffffffffffffff167f8be0079c531659141344cd1fd0a4f28419497f9722a3daafe3b4186f6b6457e060405160405180910390a380600a60006101000a81548173ffffffffffffffffffffffffffffffffffffffff021916908373ffffffffffffffffffffffffffffffffffffffff16021790555050565b6000611e0d82600261262290919063ffffffff16565b9050919050565b600033905090565b816004600083815260200190815260200160002060006101000a81548173ffffffffffffffffffffffffffffffffffffffff021916908373ffffffffffffffffffffffffffffffffffffffff160217905550808273ffffffffffffffffffffffffffffffffffffffff16611e8f83610f3a565b73ffffffffffffffffffffffffffffffffffffffff167f8c5be1e5ebec7d5bd14f71427d1e84f3dd0314c0f7b2291e5b200ac8c7c3b92560405160405180910390a45050565b6000611ee38260000161263c565b9050919050565b6000611ef582611df7565b611f34576040517f08c379a0000000000000000000000000000000000000000000000000000000008152600401611f2b90614156565b60405180910390fd5b6000611f3f83610f3a565b90508073ffffffffffffffffffffffffffffffffffffffff168473ffffffffffffffffffffffffffffffffffffffff161480611fae57508373ffffffffffffffffffffffffffffffffffffffff16611f96846107ee565b73ffffffffffffffffffffffffffffffffffffffff16145b80611fbf5750611fbe818561184c565b5b91505092915050565b8273ffffffffffffffffffffffffffffffffffffffff16611fe882610f3a565b73ffffffffffffffffffffffffffffffffffffffff161461203e576040517f08c379a000000000000000000000000000000000000000000000000000000000815260040161203590614256565b60405180910390fd5b600073ffffffffffffffffffffffffffffffffffffffff168273ffffffffffffffffffffffffffffffffffffffff1614156120ae576040517f08c379a00000000000000000000000000000000000000000000000000000000081526004016120a5906140f6565b60405180910390fd5b6120b983838361264d565b6120c4600082611e1c565b61211581600160008673ffffffffffffffffffffffffffffffffffffffff1673ffffffffffffffffffffffffffffffffffffffff16815260200190815260200160002061265290919063ffffffff16565b5061216781600160008573ffffffffffffffffffffffffffffffffffffffff1673ffffffffffffffffffffffffffffffffffffffff16815260200190815260200160002061266c90919063ffffffff16565b5061217e818360026126869092919063ffffffff16565b50808273ffffffffffffffffffffffffffffffffffffffff168473ffffffffffffffffffffffffffffffffffffffff167fddf252ad1be2c89b69c2b068fc378daa952ba7f163c4a11628f55a4df523b3ef60405160405180910390a4505050565b60006121ee83600001836126bb565b60001c905092915050565b60008060008061220c8660000186612728565b915091508160001c8160001c9350935050509250929050565b6000612238846000018460001b846127ab565b60001c90509392505050565b60006122528260000161283c565b9050919050565b612264848484611fc8565b6122708484848461284d565b6122af576040517f08c379a00000000000000000000000000000000000000000000000000000000081526004016122a690614096565b60405180910390fd5b50505050565b606060008214156122fd576040518060400160405280600181526020017f300000000000000000000000000000000000000000000000000000000000000081525090506123f7565b600082905060005b60008214612327578080600101915050600a828161231f57fe5b049150612305565b60608167ffffffffffffffff8111801561234057600080fd5b506040519080825280601f01601f1916602001820160405280156123735781602001600182028036833780820191505090505b50905060006001830390508593505b600084146123ef57600a848161239457fe5b0660300160f81b828280600190039350815181106123ae57fe5b60200101907effffffffffffffffffffffffffffffffffffffffffffffffffffffffffffff1916908160001a905350600a84816123e757fe5b049350612382565b819450505050505b919050565b6001816000016000828254019250508190555050565b600081600001549050919050565b600073ffffffffffffffffffffffffffffffffffffffff168273ffffffffffffffffffffffffffffffffffffffff161415612490576040517f08c379a0000000000000000000000000000000000000000000000000000000008152600401612487906141d6565b60405180910390fd5b61249981611df7565b156124d9576040517f08c379a00000000000000000000000000000000000000000000000000000000081526004016124d0906140d6565b60405180910390fd5b6124e56000838361264d565b61253681600160008573ffffffffffffffffffffffffffffffffffffffff1673ffffffffffffffffffffffffffffffffffffffff16815260200190815260200160002061266c90919063ffffffff16565b5061254d818360026126869092919063ffffffff16565b50808273ffffffffffffffffffffffffffffffffffffffff16600073ffffffffffffffffffffffffffffffffffffffff167fddf252ad1be2c89b69c2b068fc378daa952ba7f163c4a11628f55a4df523b3ef60405160405180910390a45050565b6125b782611df7565b6125f6576040517f08c379a00000000000000000000000000000000000000000000000000000000081526004016125ed90614216565b60405180910390fd5b8060086000848152602001908152602001600020908051906020019061261d929190612db1565b505050565b6000612634836000018360001b6129b1565b905092915050565b600081600001805490509050919050565b505050565b6000612664836000018360001b6129d4565b905092915050565b600061267e836000018360001b612abc565b905092915050565b60006126b2846000018460001b8473ffffffffffffffffffffffffffffffffffffffff1660001b612b2c565b90509392505050565b600081836000018054905011612706576040517f08c379a00000000000000000000000000000000000000000000000000000000081526004016126fd90614076565b60405180910390fd5b82600001828154811061271557fe5b9060005260206000200154905092915050565b60008082846000018054905011612774576040517f08c379a000000000000000000000000000000000000000000000000000000000815260040161276b906141b6565b60405180910390fd5b600084600001848154811061278557fe5b906000526020600020906002020190508060000154816001015492509250509250929050565b6000808460010160008581526020019081526020016000205490506000811415839061280d576040517f08c379a00000000000000000000000000000000000000000000000000000000081526004016128049190614034565b60405180910390fd5b5084600001600182038154811061282057fe5b9060005260206000209060020201600101549150509392505050565b600081600001805490509050919050565b600061286e8473ffffffffffffffffffffffffffffffffffffffff16612c08565b61287b57600190506129a9565b606061294263150b7a0260e01b612890611e14565b8887876040516024016128a69493929190613eff565b604051602081830303815290604052907bffffffffffffffffffffffffffffffffffffffffffffffffffffffff19166020820180517bffffffffffffffffffffffffffffffffffffffffffffffffffffffff8381831617835250505050604051806060016040528060328152602001614656603291398773ffffffffffffffffffffffffffffffffffffffff16612c539092919063ffffffff16565b905060008180602001905181019061295a9190613183565b905063150b7a0260e01b7bffffffffffffffffffffffffffffffffffffffffffffffffffffffff1916817bffffffffffffffffffffffffffffffffffffffffffffffffffffffff191614925050505b949350505050565b600080836001016000848152602001908152602001600020541415905092915050565b60008083600101600084815260200190815260200160002054905060008114612ab05760006001820390506000600186600001805490500390506000866000018281548110612a1f57fe5b9060005260206000200154905080876000018481548110612a3c57fe5b9060005260206000200181905550600183018760010160008381526020019081526020016000208190555086600001805480612a7457fe5b60019003818190600052602060002001600090559055866001016000878152602001908152602001600020600090556001945050505050612ab6565b60009150505b92915050565b6000612ac88383612c6b565b612b21578260000182908060018154018082558091505060019003906000526020600020016000909190919091505582600001805490508360010160008481526020019081526020016000208190555060019050612b26565b600090505b92915050565b6000808460010160008581526020019081526020016000205490506000811415612bd357846000016040518060400160405280868152602001858152509080600181540180825580915050600190039060005260206000209060020201600090919091909150600082015181600001556020820151816001015550508460000180549050856001016000868152602001908152602001600020819055506001915050612c01565b82856000016001830381548110612be657fe5b90600052602060002090600202016001018190555060009150505b9392505050565b60008060007fc5d2460186f7233c927e7db2dcc703c0e500b653ca82273b7bfad8045d85a47060001b9050833f9150808214158015612c4a57506000801b8214155b92505050919050565b6060612c628484600085612c8e565b90509392505050565b600080836001016000848152602001908152602001600020541415905092915050565b6060612c9985612c08565b612cd8576040517f08c379a0000000000000000000000000000000000000000000000000000000008152600401612ccf90614316565b60405180910390fd5b600060608673ffffffffffffffffffffffffffffffffffffffff168587604051612d029190613ea9565b60006040518083038185875af1925050503d8060008114612d3f576040519150601f19603f3d011682016040523d82523d6000602084013e612d44565b606091505b50915091508115612d59578092505050612da9565b600081511115612d6c5780518082602001fd5b836040517f08c379a0000000000000000000000000000000000000000000000000000000008152600401612da09190614034565b60405180910390fd5b949350505050565b828054600181600116156101000203166002900490600052602060002090601f016020900481019282601f10612df257805160ff1916838001178555612e20565b82800160010185558215612e20579182015b82811115612e1f578251825591602001919060010190612e04565b5b509050612e2d9190612e31565b5090565b5b80821115612e4a576000816000905550600101612e32565b5090565b600081359050612e5d816145f9565b92915050565b600081359050612e7281614610565b92915050565b600081359050612e8781614627565b92915050565b600081519050612e9c81614627565b92915050565b600082601f830112612eb357600080fd5b8135612ec6612ec1826143a2565b614371565b91508082526020830160208301858383011115612ee257600080fd5b612eed8382846145a4565b50505092915050565b600082601f830112612f0757600080fd5b8135612f1a612f15826143d2565b614371565b91508082526020830160208301858383011115612f3657600080fd5b612f418382846145a4565b50505092915050565b600081359050612f598161463e565b92915050565b600060208284031215612f7157600080fd5b6000612f7f84828501612e4e565b91505092915050565b60008060408385031215612f9b57600080fd5b6000612fa985828601612e4e565b9250506020612fba85828601612e4e565b9150509250929050565b600080600060608486031215612fd957600080fd5b6000612fe786828701612e4e565b9350506020612ff886828701612e4e565b925050604061300986828701612f4a565b9150509250925092565b6000806000806080858703121561302957600080fd5b600061303787828801612e4e565b945050602061304887828801612e4e565b935050604061305987828801612f4a565b925050606085013567ffffffffffffffff81111561307657600080fd5b61308287828801612ea2565b91505092959194509250565b600080604083850312156130a157600080fd5b60006130af85828601612e4e565b92505060206130c085828601612e63565b9150509250929050565b600080604083850312156130dd57600080fd5b60006130eb85828601612e4e565b925050602083013567ffffffffffffffff81111561310857600080fd5b61311485828601612ef6565b9150509250929050565b6000806040838503121561313157600080fd5b600061313f85828601612e4e565b925050602061315085828601612f4a565b9150509250929050565b60006020828403121561316c57600080fd5b600061317a84828501612e78565b91505092915050565b60006020828403121561319557600080fd5b60006131a384828501612e8d565b91505092915050565b6000806000606084860312156131c157600080fd5b600084013567ffffffffffffffff8111156131db57600080fd5b6131e786828701612ef6565b93505060206131f886828701612f4a565b925050604061320986828701612f4a565b9150509250925092565b60006020828403121561322557600080fd5b600061323384828501612f4a565b91505092915050565b6000806040838503121561324f57600080fd5b600061325d85828601612f4a565b925050602083013567ffffffffffffffff81111561327a57600080fd5b61328685828601612ef6565b9150509250929050565b600080604083850312156132a357600080fd5b60006132b185828601612f4a565b92505060206132c285828601612f4a565b9150509250929050565b60006132d88383613e28565b905092915050565b60006132ec8383613e8b565b60208301905092915050565b6133018161456e565b82525050565b613310816144fa565b82525050565b61331f816144e8565b82525050565b600061333082614437565b61333a818561447d565b93508360208202850161334c85614402565b8060005b85811015613388578484038952815161336985826132cc565b945061337483614463565b925060208a01995050600181019050613350565b50829750879550505050505092915050565b60006133a582614442565b6133af818561448e565b93506133ba83614412565b8060005b838110156133eb5781516133d288826132e0565b97506133dd83614470565b9250506001810190506133be565b5085935050505092915050565b6134018161450c565b82525050565b60006134128261444d565b61341c818561449f565b935061342c8185602086016145b3565b613435816145e8565b840191505092915050565b600061344b8261444d565b61345581856144b0565b93506134658185602086016145b3565b80840191505092915050565b600061347c82614458565b61348681856144bb565b93506134968185602086016145b3565b61349f816145e8565b840191505092915050565b60006134b582614458565b6134bf81856144cc565b93506134cf8185602086016145b3565b6134d8816145e8565b840191505092915050565b60006134ee82614458565b6134f881856144dd565b93506135088185602086016145b3565b80840191505092915050565b60008154600181166000811461353157600181146135565761359a565b607f600283041661354281876144dd565b955060ff198316865280860193505061359a565b6002820461356481876144dd565b955061356f85614422565b60005b8281101561359157815481890152600182019150602081019050613572565b82880195505050505b505092915050565b60006135af6013836144cc565b91507f546f6b656e20646f65736e2774206578697374000000000000000000000000006000830152602082019050919050565b60006135ef6022836144cc565b91507f456e756d657261626c655365743a20696e646578206f7574206f6620626f756e60008301527f64730000000000000000000000000000000000000000000000000000000000006020830152604082019050919050565b60006136556032836144cc565b91507f4552433732313a207472616e7366657220746f206e6f6e20455243373231526560008301527f63656976657220696d706c656d656e74657200000000000000000000000000006020830152604082019050919050565b60006136bb6026836144cc565b91507f4f776e61626c653a206e6577206f776e657220697320746865207a65726f206160008301527f64647265737300000000000000000000000000000000000000000000000000006020830152604082019050919050565b6000613721601c836144cc565b91507f4552433732313a20746f6b656e20616c7265616479206d696e746564000000006000830152602082019050919050565b60006137616024836144cc565b91507f4552433732313a207472616e7366657220746f20746865207a65726f2061646460008301527f72657373000000000000000000000000000000000000000000000000000000006020830152604082019050919050565b60006137c76019836144cc565b91507f4552433732313a20617070726f766520746f2063616c6c6572000000000000006000830152602082019050919050565b60006138076026836144cc565b91507f526571756573746564207472616e73666f726d6174696f6e20646f65736e277460008301527f20657869737400000000000000000000000000000000000000000000000000006020830152604082019050919050565b600061386d602c836144cc565b91507f4552433732313a206f70657261746f7220717565727920666f72206e6f6e657860008301527f697374656e7420746f6b656e00000000000000000000000000000000000000006020830152604082019050919050565b60006138d36038836144cc565b91507f4552433732313a20617070726f76652063616c6c6572206973206e6f74206f7760008301527f6e6572206e6f7220617070726f76656420666f7220616c6c00000000000000006020830152604082019050919050565b6000613939602a836144cc565b91507f4552433732313a2062616c616e636520717565727920666f7220746865207a6560008301527f726f2061646472657373000000000000000000000000000000000000000000006020830152604082019050919050565b600061399f6022836144cc565b91507f456e756d657261626c654d61703a20696e646578206f7574206f6620626f756e60008301527f64730000000000000000000000000000000000000000000000000000000000006020830152604082019050919050565b6000613a056020836144cc565b91507f4552433732313a206d696e7420746f20746865207a65726f20616464726573736000830152602082019050919050565b6000613a45602c836144cc565b91507f4552433732313a20617070726f76656420717565727920666f72206e6f6e657860008301527f697374656e7420746f6b656e00000000000000000000000000000000000000006020830152604082019050919050565b6000613aab602c836144cc565b91507f4552433732314d657461646174613a2055524920736574206f66206e6f6e657860008301527f697374656e7420746f6b656e00000000000000000000000000000000000000006020830152604082019050919050565b6000613b116020836144cc565b91507f4f776e61626c653a2063616c6c6572206973206e6f7420746865206f776e65726000830152602082019050919050565b6000613b516029836144cc565b91507f4552433732313a207472616e73666572206f6620746f6b656e2074686174206960008301527f73206e6f74206f776e00000000000000000000000000000000000000000000006020830152604082019050919050565b6000613bb7602f836144cc565b91507f4552433732314d657461646174613a2055524920717565727920666f72206e6f60008301527f6e6578697374656e7420746f6b656e00000000000000000000000000000000006020830152604082019050919050565b6000613c1d6021836144cc565b91507f4552433732313a20617070726f76616c20746f2063757272656e74206f776e6560008301527f72000000000000000000000000000000000000000000000000000000000000006020830152604082019050919050565b6000613c83601c836144cc565b91507f5573657220686173206e6f2067656e65726174656420746f6b656e73000000006000830152602082019050919050565b6000613cc36022836144cc565b91507f5472616e73666f726d6174696f6e20737570706c79206973206578686175737460008301527f65640000000000000000000000000000000000000000000000000000000000006020830152604082019050919050565b6000613d296031836144cc565b91507f4552433732313a207472616e736665722063616c6c6572206973206e6f74206f60008301527f776e6572206e6f7220617070726f7665640000000000000000000000000000006020830152604082019050919050565b6000613d8f601d836144cc565b91507f416464726573733a2063616c6c20746f206e6f6e2d636f6e74726163740000006000830152602082019050919050565b6000613dcf6031836144cc565b91507f5472616e73616374696f6e2076616c7565206d757374206d617463682074726160008301527f6e73666f726d6174696f6e2070726963650000000000000000000000000000006020830152604082019050919050565b6000608083016000830151613e406000860182613e8b565b506020830151613e536020860182613e8b565b506040830151613e666040860182613e8b565b5060608301518482036060860152613e7e8282613471565b9150508091505092915050565b613e9481614564565b82525050565b613ea381614564565b82525050565b6000613eb58284613440565b915081905092915050565b6000613ecc8285613514565b9150613ed882846134e3565b91508190509392505050565b6000602082019050613ef96000830184613316565b92915050565b6000608082019050613f146000830187613307565b613f216020830186613316565b613f2e6040830185613e9a565b8181036060830152613f408184613407565b905095945050505050565b6000608082019050613f6060008301876132f8565b613f6d6020830186613e9a565b613f7a6040830185613e9a565b8181036060830152613f8c81846134aa565b905095945050505050565b6000606082019050613fac6000830186613316565b613fb96020830185613e9a565b8181036040830152613fcb81846134aa565b9050949350505050565b60006020820190508181036000830152613fef8184613325565b905092915050565b60006020820190508181036000830152614011818461339a565b905092915050565b600060208201905061402e60008301846133f8565b92915050565b6000602082019050818103600083015261404e81846134aa565b905092915050565b6000602082019050818103600083015261406f816135a2565b9050919050565b6000602082019050818103600083015261408f816135e2565b9050919050565b600060208201905081810360008301526140af81613648565b9050919050565b600060208201905081810360008301526140cf816136ae565b9050919050565b600060208201905081810360008301526140ef81613714565b9050919050565b6000602082019050818103600083015261410f81613754565b9050919050565b6000602082019050818103600083015261412f816137ba565b9050919050565b6000602082019050818103600083015261414f816137fa565b9050919050565b6000602082019050818103600083015261416f81613860565b9050919050565b6000602082019050818103600083015261418f816138c6565b9050919050565b600060208201905081810360008301526141af8161392c565b9050919050565b600060208201905081810360008301526141cf81613992565b9050919050565b600060208201905081810360008301526141ef816139f8565b9050919050565b6000602082019050818103600083015261420f81613a38565b9050919050565b6000602082019050818103600083015261422f81613a9e565b9050919050565b6000602082019050818103600083015261424f81613b04565b9050919050565b6000602082019050818103600083015261426f81613b44565b9050919050565b6000602082019050818103600083015261428f81613baa565b9050919050565b600060208201905081810360008301526142af81613c10565b9050919050565b600060208201905081810360008301526142cf81613c76565b9050919050565b600060208201905081810360008301526142ef81613cb6565b9050919050565b6000602082019050818103600083015261430f81613d1c565b9050919050565b6000602082019050818103600083015261432f81613d82565b9050919050565b6000602082019050818103600083015261434f81613dc2565b9050919050565b600060208201905061436b6000830184613e9a565b92915050565b6000604051905081810181811067ffffffffffffffff82111715614398576143976145e6565b5b8060405250919050565b600067ffffffffffffffff8211156143bd576143bc6145e6565b5b601f19601f8301169050602081019050919050565b600067ffffffffffffffff8211156143ed576143ec6145e6565b5b601f19601f8301169050602081019050919050565b6000819050602082019050919050565b6000819050602082019050919050565b60008190508160005260206000209050919050565b600081519050919050565b600081519050919050565b600081519050919050565b600081519050919050565b6000602082019050919050565b6000602082019050919050565b600082825260208201905092915050565b600082825260208201905092915050565b600082825260208201905092915050565b600081905092915050565b600082825260208201905092915050565b600082825260208201905092915050565b600081905092915050565b60006144f382614544565b9050919050565b600061450582614544565b9050919050565b60008115159050919050565b60007fffffffff0000000000000000000000000000000000000000000000000000000082169050919050565b600073ffffffffffffffffffffffffffffffffffffffff82169050919050565b6000819050919050565b600061457982614580565b9050919050565b600061458b82614592565b9050919050565b600061459d82614544565b9050919050565b82818337600083830152505050565b60005b838110156145d15780820151818401526020810190506145b6565b838111156145e0576000848401525b50505050565bfe5b6000601f19601f8301169050919050565b614602816144e8565b811461460d57600080fd5b50565b6146198161450c565b811461462457600080fd5b50565b61463081614518565b811461463b57600080fd5b50565b61464781614564565b811461465257600080fd5b5056fe4552433732313a207472616e7366657220746f206e6f6e20455243373231526563656976657220696d706c656d656e7465724552433732313a206f776e657220717565727920666f72206e6f6e6578697374656e7420746f6b656ea2646970667358221220c3def0183f203df5f8014b27be283e35c0ea011f8e82269c4315284bcc065fb964736f6c63430007030033",
  "linkReferences": {},
  "deployedLinkReferences": {}
}