{
  "_format": "hh-sol-artifact-1",
  "contractName": "StyleArt",
  "sourceName": "contracts/StyleArt.sol",
  "abi": [
    {
      "inputs": [],
      "stateMutability": "nonpayable",
      "type": "constructor"
    },
    {
      "anonymous": false,
      "inputs": [
        {
          "indexed": true,
          "internalType": "address",
          "name": "owner",
          "type": "address"
        },
        {
          "indexed": true,
          "internalType": "address",
          "name": "approved",
          "type": "address"
        },
        {
          "indexed": true,
          "internalType": "uint256",
          "name": "tokenId",
          "type": "uint256"
        }
      ],
      "name": "Approval",
      "type": "event"
    },
    {
      "anonymous": false,
      "inputs": [
        {
          "indexed": true,
          "internalType": "address",
          "name": "owner",
          "type": "address"
        },
        {
          "indexed": true,
          "internalType": "address",
          "name": "operator",
          "type": "address"
        },
        {
          "indexed": false,
          "internalType": "bool",
          "name": "approved",
          "type": "bool"
        }
      ],
      "name": "ApprovalForAll",
      "type": "event"
    },
    {
      "anonymous": false,
      "inputs": [
        {
          "indexed": false,
          "internalType": "address",
          "name": "sender",
          "type": "address"
        },
        {
          "indexed": false,
          "internalType": "uint256",
          "name": "value",
          "type": "uint256"
        },
        {
          "indexed": false,
          "internalType": "uint256",
          "name": "transformationId",
          "type": "uint256"
        },
        {
          "indexed": false,
          "internalType": "uint256",
          "name": "transformationNumber",
          "type": "uint256"
        },
        {
          "indexed": false,
          "internalType": "bytes",
          "name": "params",
          "type": "bytes"
        }
      ],
      "name": "ImageGenerationPaid",
      "type": "event"
    },
    {
      "anonymous": false,
      "inputs": [
        {
          "indexed": true,
          "internalType": "address",
          "name": "previousOwner",
          "type": "address"
        },
        {
          "indexed": true,
          "internalType": "address",
          "name": "newOwner",
          "type": "address"
        }
      ],
      "name": "OwnershipTransferred",
      "type": "event"
    },
    {
      "anonymous": false,
      "inputs": [
        {
          "indexed": false,
          "internalType": "address",
          "name": "payer",
          "type": "address"
        },
        {
          "indexed": false,
          "internalType": "uint256",
          "name": "tokenId",
          "type": "uint256"
        },
        {
          "indexed": false,
          "internalType": "string",
          "name": "tokenURI",
          "type": "string"
        }
      ],
      "name": "TokenMinted",
      "type": "event"
    },
    {
      "anonymous": false,
      "inputs": [
        {
          "indexed": true,
          "internalType": "address",
          "name": "from",
          "type": "address"
        },
        {
          "indexed": true,
          "internalType": "address",
          "name": "to",
          "type": "address"
        },
        {
          "indexed": true,
          "internalType": "uint256",
          "name": "tokenId",
          "type": "uint256"
        }
      ],
      "name": "Transfer",
      "type": "event"
    },
    {
      "inputs": [
        {
          "internalType": "address",
          "name": "minter",
          "type": "address"
        }
      ],
      "name": "addMinter",
      "outputs": [
        {
          "internalType": "bool",
          "name": "",
          "type": "bool"
        }
      ],
      "stateMutability": "nonpayable",
      "type": "function"
    },
    {
      "inputs": [
        {
          "internalType": "string",
          "name": "name",
          "type": "string"
        },
        {
          "internalType": "uint256",
          "name": "price",
          "type": "uint256"
        },
        {
          "internalType": "uint256",
          "name": "supply",
          "type": "uint256"
        }
      ],
      "name": "addTransformation",
      "outputs": [
        {
          "internalType": "uint256",
          "name": "",
          "type": "uint256"
        }
      ],
      "stateMutability": "nonpayable",
      "type": "function"
    },
    {
      "inputs": [
        {
          "internalType": "address",
          "name": "to",
          "type": "address"
        },
        {
          "internalType": "uint256",
          "name": "tokenId",
          "type": "uint256"
        }
      ],
      "name": "approve",
      "outputs": [],
      "stateMutability": "nonpayable",
      "type": "function"
    },
    {
      "inputs": [
        {
          "internalType": "address",
          "name": "owner",
          "type": "address"
        }
      ],
      "name": "balanceOf",
      "outputs": [
        {
          "internalType": "uint256",
          "name": "",
          "type": "uint256"
        }
      ],
      "stateMutability": "view",
      "type": "function"
    },
    {
      "inputs": [],
      "name": "baseURI",
      "outputs": [
        {
          "internalType": "string",
          "name": "",
          "type": "string"
        }
      ],
      "stateMutability": "view",
      "type": "function"
    },
    {
      "inputs": [
        {
          "internalType": "uint256",
          "name": "tokenId",
          "type": "uint256"
        }
      ],
      "name": "getApproved",
      "outputs": [
        {
          "internalType": "address",
          "name": "",
          "type": "address"
        }
      ],
      "stateMutability": "view",
      "type": "function"
    },
    {
      "inputs": [
        {
          "internalType": "address",
          "name": "owner",
          "type": "address"
        },
        {
          "internalType": "address",
          "name": "operator",
          "type": "address"
        }
      ],
      "name": "isApprovedForAll",
      "outputs": [
        {
          "internalType": "bool",
          "name": "",
          "type": "bool"
        }
      ],
      "stateMutability": "view",
      "type": "function"
    },
    {
      "inputs": [],
      "name": "listTransformations",
      "outputs": [
        {
          "components": [
            {
              "internalType": "uint256",
              "name": "id",
              "type": "uint256"
            },
            {
              "internalType": "uint256",
              "name": "price",
              "type": "uint256"
            },
            {
              "internalType": "uint256",
              "name": "supply",
              "type": "uint256"
            },
            {
              "internalType": "uint256",
              "name": "nTokens",
              "type": "uint256"
            },
            {
              "internalType": "string",
              "name": "name",
              "type": "string"
            },
            {
              "internalType": "bool",
              "name": "exists",
              "type": "bool"
            }
          ],
          "internalType": "struct StyleArt.Transformation[]",
          "name": "",
          "type": "tuple[]"
        }
      ],
      "stateMutability": "view",
      "type": "function"
    },
    {
      "inputs": [
        {
          "internalType": "address",
          "name": "payer",
          "type": "address"
        },
        {
          "internalType": "string",
          "name": "tokenURI",
          "type": "string"
        }
      ],
      "name": "mintNFT",
      "outputs": [
        {
          "internalType": "uint256",
          "name": "",
          "type": "uint256"
        }
      ],
      "stateMutability": "nonpayable",
      "type": "function"
    },
    {
      "inputs": [],
      "name": "name",
      "outputs": [
        {
          "internalType": "string",
          "name": "",
          "type": "string"
        }
      ],
      "stateMutability": "view",
      "type": "function"
    },
    {
      "inputs": [],
      "name": "owner",
      "outputs": [
        {
          "internalType": "address",
          "name": "",
          "type": "address"
        }
      ],
      "stateMutability": "view",
      "type": "function"
    },
    {
      "inputs": [
        {
          "internalType": "uint256",
          "name": "tokenId",
          "type": "uint256"
        }
      ],
      "name": "ownerOf",
      "outputs": [
        {
          "internalType": "address",
          "name": "",
          "type": "address"
        }
      ],
      "stateMutability": "view",
      "type": "function"
    },
    {
      "inputs": [
        {
          "internalType": "uint256",
          "name": "transformationId",
          "type": "uint256"
        },
        {
          "internalType": "bytes",
          "name": "params",
          "type": "bytes"
        }
      ],
      "name": "payGenerating",
      "outputs": [],
      "stateMutability": "payable",
      "type": "function"
    },
    {
      "inputs": [
        {
          "internalType": "address",
          "name": "minter",
          "type": "address"
        }
      ],
      "name": "removeMinter",
      "outputs": [
        {
          "internalType": "bool",
          "name": "",
          "type": "bool"
        }
      ],
      "stateMutability": "nonpayable",
      "type": "function"
    },
    {
      "inputs": [],
      "name": "renounceOwnership",
      "outputs": [],
      "stateMutability": "nonpayable",
      "type": "function"
    },
    {
      "inputs": [
        {
          "internalType": "address",
          "name": "from",
          "type": "address"
        },
        {
          "internalType": "address",
          "name": "to",
          "type": "address"
        },
        {
          "internalType": "uint256",
          "name": "tokenId",
          "type": "uint256"
        }
      ],
      "name": "safeTransferFrom",
      "outputs": [],
      "stateMutability": "nonpayable",
      "type": "function"
    },
    {
      "inputs": [
        {
          "internalType": "address",
          "name": "from",
          "type": "address"
        },
        {
          "internalType": "address",
          "name": "to",
          "type": "address"
        },
        {
          "internalType": "uint256",
          "name": "tokenId",
          "type": "uint256"
        },
        {
          "internalType": "bytes",
          "name": "_data",
          "type": "bytes"
        }
      ],
      "name": "safeTransferFrom",
      "outputs": [],
      "stateMutability": "nonpayable",
      "type": "function"
    },
    {
      "inputs": [
        {
          "internalType": "address",
          "name": "operator",
          "type": "address"
        },
        {
          "internalType": "bool",
          "name": "approved",
          "type": "bool"
        }
      ],
      "name": "setApprovalForAll",
      "outputs": [],
      "stateMutability": "nonpayable",
      "type": "function"
    },
    {
      "inputs": [
        {
          "internalType": "bytes4",
          "name": "interfaceId",
          "type": "bytes4"
        }
      ],
      "name": "supportsInterface",
      "outputs": [
        {
          "internalType": "bool",
          "name": "",
          "type": "bool"
        }
      ],
      "stateMutability": "view",
      "type": "function"
    },
    {
      "inputs": [],
      "name": "symbol",
      "outputs": [
        {
          "internalType": "string",
          "name": "",
          "type": "string"
        }
      ],
      "stateMutability": "view",
      "type": "function"
    },
    {
      "inputs": [
        {
          "internalType": "uint256",
          "name": "index",
          "type": "uint256"
        }
      ],
      "name": "tokenByIndex",
      "outputs": [
        {
          "internalType": "uint256",
          "name": "",
          "type": "uint256"
        }
      ],
      "stateMutability": "view",
      "type": "function"
    },
    {
      "inputs": [
        {
          "internalType": "address",
          "name": "owner",
          "type": "address"
        },
        {
          "internalType": "uint256",
          "name": "index",
          "type": "uint256"
        }
      ],
      "name": "tokenOfOwnerByIndex",
      "outputs": [
        {
          "internalType": "uint256",
          "name": "",
          "type": "uint256"
        }
      ],
      "stateMutability": "view",
      "type": "function"
    },
    {
      "inputs": [
        {
          "internalType": "uint256",
          "name": "tokenId",
          "type": "uint256"
        }
      ],
      "name": "tokenURI",
      "outputs": [
        {
          "internalType": "string",
          "name": "",
          "type": "string"
        }
      ],
      "stateMutability": "view",
      "type": "function"
    },
    {
      "inputs": [],
      "name": "totalSupply",
      "outputs": [
        {
          "internalType": "uint256",
          "name": "",
          "type": "uint256"
        }
      ],
      "stateMutability": "view",
      "type": "function"
    },
    {
      "inputs": [
        {
          "internalType": "address",
          "name": "from",
          "type": "address"
        },
        {
          "internalType": "address",
          "name": "to",
          "type": "address"
        },
        {
          "internalType": "uint256",
          "name": "tokenId",
          "type": "uint256"
        }
      ],
      "name": "transferFrom",
      "outputs": [],
      "stateMutability": "nonpayable",
      "type": "function"
    },
    {
      "inputs": [
        {
          "internalType": "address",
          "name": "newOwner",
          "type": "address"
        }
      ],
      "name": "transferOwnership",
      "outputs": [],
      "stateMutability": "nonpayable",
      "type": "function"
    },
    {
      "inputs": [
        {
          "internalType": "uint256",
          "name": "id",
          "type": "uint256"
        },
        {
          "internalType": "uint256",
          "name": "price",
          "type": "uint256"
        }
      ],
      "name": "updateTransformationPrice",
      "outputs": [
        {
          "internalType": "bool",
          "name": "",
          "type": "bool"
        }
      ],
      "stateMutability": "nonpayable",
      "type": "function"
    },
    {
      "inputs": [
        {
          "internalType": "address",
          "name": "user",
          "type": "address"
        }
      ],
      "name": "userGeneratedTokens",
      "outputs": [
        {
          "internalType": "uint256[]",
          "name": "",
          "type": "uint256[]"
        }
      ],
      "stateMutability": "view",
      "type": "function"
    }
  ],
  "bytecode": "0x60806040523480156200001157600080fd5b506040518060400160405280600881526020017f7374796c656172740000000000000000000000000000000000000000000000008152506040518060400160405280600481526020017f7361727400000000000000000000000000000000000000000000000000000000815250620000966301ffc9a760e01b6200020a60201b60201c565b8160069080519060200190620000ae929190620002ea565b508060079080519060200190620000c7929190620002ea565b50620000e06380ac58cd60e01b6200020a60201b60201c565b620000f8635b5e139f60e01b6200020a60201b60201c565b6200011063780e9d6360e01b6200020a60201b60201c565b5050600062000124620002e260201b60201c565b905080600a60006101000a81548173ffffffffffffffffffffffffffffffffffffffff021916908373ffffffffffffffffffffffffffffffffffffffff1602179055508073ffffffffffffffffffffffffffffffffffffffff16600073ffffffffffffffffffffffffffffffffffffffff167f8be0079c531659141344cd1fd0a4f28419497f9722a3daafe3b4186f6b6457e060405160405180910390a35033600d60006101000a81548173ffffffffffffffffffffffffffffffffffffffff021916908373ffffffffffffffffffffffffffffffffffffffff16021790555062000405565b63ffffffff60e01b817bffffffffffffffffffffffffffffffffffffffffffffffffffffffff1916141562000276576040517f08c379a00000000000000000000000000000000000000000000000000000000081526004016200026d90620003d2565b60405180910390fd5b6001600080837bffffffffffffffffffffffffffffffffffffffffffffffffffffffff19167bffffffffffffffffffffffffffffffffffffffffffffffffffffffff1916815260200190815260200160002060006101000a81548160ff02191690831515021790555050565b600033905090565b828054600181600116156101000203166002900490600052602060002090601f016020900481019282601f106200032d57805160ff19168380011785556200035e565b828001600101855582156200035e579182015b828111156200035d57825182559160200191906001019062000340565b5b5090506200036d919062000371565b5090565b5b808211156200038c57600081600090555060010162000372565b5090565b60006200039f601c83620003f4565b91507f4552433136353a20696e76616c696420696e74657266616365206964000000006000830152602082019050919050565b60006020820190508181036000830152620003ed8162000390565b9050919050565b600082825260208201905092915050565b61477480620004156000396000f3fe6080604052600436106101b75760003560e01c80636c0360eb116100ec578063b88d4fde1161008a578063e985e9c511610064578063e985e9c51461065d578063e9c7723d1461069a578063eacabe14146106d7578063f2fde38b14610714576101b7565b8063b88d4fde146105ba578063c87b56dd146105e3578063e3a6f8fc14610620576101b7565b80638da5cb5b116100c65780638da5cb5b146104fe57806395d89b4114610529578063983b2d5614610554578063a22cb46514610591576101b7565b80636c0360eb1461047f57806370a08231146104aa578063715018a6146104e7576101b7565b806323b872dd1161015957806342842e0e1161013357806342842e0e146103c05780634f6ccce7146103e95780636352211e146104265780636738856614610463576101b7565b806323b872dd1461031d5780632f745c59146103465780633092afd514610383576101b7565b8063095ea7b311610195578063095ea7b31461026157806318160ddd1461028a5780631935ec9f146102b55780632362382d146102e0576101b7565b806301ffc9a7146101bc57806306fdde03146101f9578063081812fc14610224575b600080fd5b3480156101c857600080fd5b506101e360048036038101906101de9190613222565b61073d565b6040516101f091906140bc565b60405180910390f35b34801561020557600080fd5b5061020e6107a4565b60405161021b91906140d7565b60405180910390f35b34801561023057600080fd5b5061024b600480360381019061024691906132db565b610846565b6040516102589190613f79565b60405180910390f35b34801561026d57600080fd5b50610288600480360381019061028391906131e6565b6108cb565b005b34801561029657600080fd5b5061029f6109e3565b6040516102ac91906143f9565b60405180910390f35b3480156102c157600080fd5b506102ca6109f4565b6040516102d79190614078565b60405180910390f35b3480156102ec57600080fd5b5061030760048036038101906103029190613358565b610ba6565b60405161031491906140bc565b60405180910390f35b34801561032957600080fd5b50610344600480360381019061033f919061308c565b610c49565b005b34801561035257600080fd5b5061036d600480360381019061036891906131e6565b610ca9565b60405161037a91906143f9565b60405180910390f35b34801561038f57600080fd5b506103aa60048036038101906103a59190613027565b610d04565b6040516103b791906140bc565b60405180910390f35b3480156103cc57600080fd5b506103e760048036038101906103e2919061308c565b610de3565b005b3480156103f557600080fd5b50610410600480360381019061040b91906132db565b610e03565b60405161041d91906143f9565b60405180910390f35b34801561043257600080fd5b5061044d600480360381019061044891906132db565b610e26565b60405161045a9190613f79565b60405180910390f35b61047d60048036038101906104789190613304565b610e5d565b005b34801561048b57600080fd5b506104946110a6565b6040516104a191906140d7565b60405180910390f35b3480156104b657600080fd5b506104d160048036038101906104cc9190613027565b611148565b6040516104de91906143f9565b60405180910390f35b3480156104f357600080fd5b506104fc611207565b005b34801561050a57600080fd5b50610513611344565b6040516105209190613f79565b60405180910390f35b34801561053557600080fd5b5061053e61136e565b60405161054b91906140d7565b60405180910390f35b34801561056057600080fd5b5061057b60048036038101906105769190613027565b611410565b60405161058891906140bc565b60405180910390f35b34801561059d57600080fd5b506105b860048036038101906105b39190613156565b6114ef565b005b3480156105c657600080fd5b506105e160048036038101906105dc91906130db565b611670565b005b3480156105ef57600080fd5b5061060a600480360381019061060591906132db565b6116d2565b60405161061791906140d7565b60405180910390f35b34801561062c57600080fd5b5061064760048036038101906106429190613274565b611855565b60405161065491906143f9565b60405180910390f35b34801561066957600080fd5b50610684600480360381019061067f9190613050565b6119cb565b60405161069191906140bc565b60405180910390f35b3480156106a657600080fd5b506106c160048036038101906106bc9190613027565b611a5f565b6040516106ce919061409a565b60405180910390f35b3480156106e357600080fd5b506106fe60048036038101906106f99190613192565b611af6565b60405161070b91906143f9565b60405180910390f35b34801561072057600080fd5b5061073b60048036038101906107369190613027565b611cba565b005b6000806000837bffffffffffffffffffffffffffffffffffffffffffffffffffffffff19167bffffffffffffffffffffffffffffffffffffffffffffffffffffffff1916815260200190815260200160002060009054906101000a900460ff169050919050565b606060068054600181600116156101000203166002900480601f01602080910402602001604051908101604052809291908181526020018280546001816001161561010002031660029004801561083c5780601f106108115761010080835404028352916020019161083c565b820191906000526020600020905b81548152906001019060200180831161081f57829003601f168201915b5050505050905090565b600061085182611e66565b610890576040517f08c379a0000000000000000000000000000000000000000000000000000000008152600401610887906142b9565b60405180910390fd5b6004600083815260200190815260200160002060009054906101000a900473ffffffffffffffffffffffffffffffffffffffff169050919050565b60006108d682610e26565b90508073ffffffffffffffffffffffffffffffffffffffff168373ffffffffffffffffffffffffffffffffffffffff161415610947576040517f08c379a000000000000000000000000000000000000000000000000000000000815260040161093e90614359565b60405180910390fd5b8073ffffffffffffffffffffffffffffffffffffffff16610966611e83565b73ffffffffffffffffffffffffffffffffffffffff16148061099557506109948161098f611e83565b6119cb565b5b6109d4576040517f08c379a00000000000000000000000000000000000000000000000000000000081526004016109cb90614239565b60405180910390fd5b6109de8383611e8b565b505050565b60006109ef6002611f44565b905090565b60608060108054905067ffffffffffffffff81118015610a1357600080fd5b50604051908082528060200260200182016040528015610a4d57816020015b610a3a612e41565b815260200190600190039081610a325790505b50905060005b601080549050811015610b9e576011600060108381548110610a7157fe5b906000526020600020015481526020019081526020016000206040518060c001604052908160008201548152602001600182015481526020016002820154815260200160038201548152602001600482018054600181600116156101000203166002900480601f016020809104026020016040519081016040528092919081815260200182805460018160011615610100020316600290048015610b565780601f10610b2b57610100808354040283529160200191610b56565b820191906000526020600020905b815481529060010190602001808311610b3957829003601f168201915b505050505081526020016005820160009054906101000a900460ff161515151581525050828281518110610b8657fe5b60200260200101819052508080600101915050610a53565b508091505090565b6000610bb0611e83565b73ffffffffffffffffffffffffffffffffffffffff16610bce611344565b73ffffffffffffffffffffffffffffffffffffffff1614610c24576040517f08c379a0000000000000000000000000000000000000000000000000000000008152600401610c1b906142f9565b60405180910390fd5b8160116000858152602001908152602001600020600101819055506001905092915050565b610c5a610c54611e83565b82611f59565b610c99576040517f08c379a0000000000000000000000000000000000000000000000000000000008152600401610c9090614399565b60405180910390fd5b610ca4838383612037565b505050565b6000610cfc82600160008673ffffffffffffffffffffffffffffffffffffffff1673ffffffffffffffffffffffffffffffffffffffff16815260200190815260200160002061224e90919063ffffffff16565b905092915050565b6000610d0e611e83565b73ffffffffffffffffffffffffffffffffffffffff16610d2c611344565b73ffffffffffffffffffffffffffffffffffffffff1614610d82576040517f08c379a0000000000000000000000000000000000000000000000000000000008152600401610d79906142f9565b60405180910390fd5b6000600e60008473ffffffffffffffffffffffffffffffffffffffff1673ffffffffffffffffffffffffffffffffffffffff16815260200190815260200160002060006101000a81548160ff02191690831515021790555060019050919050565b610dfe83838360405180602001604052806000815250611670565b505050565b600080610e1a83600261226890919063ffffffff16565b50905080915050919050565b6000610e56826040518060600160405280602981526020016147166029913960026122949092919063ffffffff16565b9050919050565b81346011600083815260200190815260200160002060050160009054906101000a900460ff1615610f535780601160008481526020019081526020016000206001015414610ee0576040517f08c379a0000000000000000000000000000000000000000000000000000000008152600401610ed7906143d9565b60405180910390fd5b6011600083815260200190815260200160002060020154601160008481526020019081526020016000206003015410610f4e576040517f08c379a0000000000000000000000000000000000000000000000000000000008152600401610f4590614379565b60405180910390fd5b610fb7565b6011600083815260200190815260200160002060050160009054906101000a900460ff16610fb6576040517f08c379a0000000000000000000000000000000000000000000000000000000008152600401610fad906141d9565b60405180910390fd5b5b60006001601160008781526020019081526020016000206003016000828254019250508190555060116000868152602001908152602001600020600301549050600d60009054906101000a900473ffffffffffffffffffffffffffffffffffffffff1673ffffffffffffffffffffffffffffffffffffffff166108fc349081150290604051600060405180830381858888f1935050505015801561105f573d6000803e3d6000fd5b507fd8e40976882f1a257a5dfa438d0b49ed3bba40181ff40ec72129a8338394a7143334878488604051611097959493929190613fe0565b60405180910390a15050505050565b606060098054600181600116156101000203166002900480601f01602080910402602001604051908101604052809291908181526020018280546001816001161561010002031660029004801561113e5780601f106111135761010080835404028352916020019161113e565b820191906000526020600020905b81548152906001019060200180831161112157829003601f168201915b5050505050905090565b60008073ffffffffffffffffffffffffffffffffffffffff168273ffffffffffffffffffffffffffffffffffffffff1614156111b9576040517f08c379a00000000000000000000000000000000000000000000000000000000081526004016111b090614259565b60405180910390fd5b611200600160008473ffffffffffffffffffffffffffffffffffffffff1673ffffffffffffffffffffffffffffffffffffffff1681526020019081526020016000206122b3565b9050919050565b61120f611e83565b73ffffffffffffffffffffffffffffffffffffffff1661122d611344565b73ffffffffffffffffffffffffffffffffffffffff1614611283576040517f08c379a000000000000000000000000000000000000000000000000000000000815260040161127a906142f9565b60405180910390fd5b600073ffffffffffffffffffffffffffffffffffffffff16600a60009054906101000a900473ffffffffffffffffffffffffffffffffffffffff1673ffffffffffffffffffffffffffffffffffffffff167f8be0079c531659141344cd1fd0a4f28419497f9722a3daafe3b4186f6b6457e060405160405180910390a36000600a60006101000a81548173ffffffffffffffffffffffffffffffffffffffff021916908373ffffffffffffffffffffffffffffffffffffffff160217905550565b6000600a60009054906101000a900473ffffffffffffffffffffffffffffffffffffffff16905090565b606060078054600181600116156101000203166002900480601f0160208091040260200160405190810160405280929190818152602001828054600181600116156101000203166002900480156114065780601f106113db57610100808354040283529160200191611406565b820191906000526020600020905b8154815290600101906020018083116113e957829003601f168201915b5050505050905090565b600061141a611e83565b73ffffffffffffffffffffffffffffffffffffffff16611438611344565b73ffffffffffffffffffffffffffffffffffffffff161461148e576040517f08c379a0000000000000000000000000000000000000000000000000000000008152600401611485906142f9565b60405180910390fd5b6001600e60008473ffffffffffffffffffffffffffffffffffffffff1673ffffffffffffffffffffffffffffffffffffffff16815260200190815260200160002060006101000a81548160ff02191690831515021790555060019050919050565b6114f7611e83565b73ffffffffffffffffffffffffffffffffffffffff168273ffffffffffffffffffffffffffffffffffffffff161415611565576040517f08c379a000000000000000000000000000000000000000000000000000000000815260040161155c906141b9565b60405180910390fd5b8060056000611572611e83565b73ffffffffffffffffffffffffffffffffffffffff1673ffffffffffffffffffffffffffffffffffffffff16815260200190815260200160002060008473ffffffffffffffffffffffffffffffffffffffff1673ffffffffffffffffffffffffffffffffffffffff16815260200190815260200160002060006101000a81548160ff0219169083151502179055508173ffffffffffffffffffffffffffffffffffffffff1661161f611e83565b73ffffffffffffffffffffffffffffffffffffffff167f17307eab39ab6107e8899845ad3d59bd9653f200f220920489ca2b5937696c318360405161166491906140bc565b60405180910390a35050565b61168161167b611e83565b83611f59565b6116c0576040517f08c379a00000000000000000000000000000000000000000000000000000000081526004016116b790614399565b60405180910390fd5b6116cc848484846122c8565b50505050565b60606116dd82611e66565b61171c576040517f08c379a000000000000000000000000000000000000000000000000000000000815260040161171390614339565b60405180910390fd5b6060600860008481526020019081526020016000208054600181600116156101000203166002900480601f0160208091040260200160405190810160405280929190818152602001828054600181600116156101000203166002900480156117c55780601f1061179a576101008083540402835291602001916117c5565b820191906000526020600020905b8154815290600101906020018083116117a857829003601f168201915b5050505050905060606117d66110a6565b90506000815114156117ec578192505050611850565b600082511115611821578082604051602001611809929190613f55565b60405160208183030381529060405292505050611850565b8061182b85612324565b60405160200161183c929190613f55565b604051602081830303815290604052925050505b919050565b600061185f611e83565b73ffffffffffffffffffffffffffffffffffffffff1661187d611344565b73ffffffffffffffffffffffffffffffffffffffff16146118d3576040517f08c379a00000000000000000000000000000000000000000000000000000000081526004016118ca906142f9565b60405180910390fd5b6118dd600c61246b565b60006118e9600c612481565b905060108190806001815401808255809150506001900390600052602060002001600090919091909150556040518060c0016040528082815260200185815260200184815260200160008152602001868152602001600115158152506011600083815260200190815260200160002060008201518160000155602082015181600101556040820151816002015560608201518160030155608082015181600401908051906020019061199c929190612e79565b5060a08201518160050160006101000a81548160ff021916908315150217905550905050809150509392505050565b6000600560008473ffffffffffffffffffffffffffffffffffffffff1673ffffffffffffffffffffffffffffffffffffffff16815260200190815260200160002060008373ffffffffffffffffffffffffffffffffffffffff1673ffffffffffffffffffffffffffffffffffffffff16815260200190815260200160002060009054906101000a900460ff16905092915050565b6060600f60008373ffffffffffffffffffffffffffffffffffffffff1673ffffffffffffffffffffffffffffffffffffffff168152602001908152602001600020805480602002602001604051908101604052809291908181526020018280548015611aea57602002820191906000526020600020905b815481526020019060010190808311611ad6575b50505050509050919050565b6000600d60009054906101000a900473ffffffffffffffffffffffffffffffffffffffff1673ffffffffffffffffffffffffffffffffffffffff163373ffffffffffffffffffffffffffffffffffffffff161480611ba4575060011515600e60003373ffffffffffffffffffffffffffffffffffffffff1673ffffffffffffffffffffffffffffffffffffffff16815260200190815260200160002060009054906101000a900460ff161515145b611be3576040517f08c379a0000000000000000000000000000000000000000000000000000000008152600401611bda90614119565b60405180910390fd5b611bed600b61246b565b6000611bf9600b612481565b9050611c05848261248f565b611c0f818461261d565b600f60008573ffffffffffffffffffffffffffffffffffffffff1673ffffffffffffffffffffffffffffffffffffffff1681526020019081526020016000208190806001815401808255809150506001900390600052602060002001600090919091909150557fdf92894dc4675a7333caa5903b69cf5d8e8ec0d3f361c88207b6688e525703bb848285604051611ca89392919061403a565b60405180910390a18091505092915050565b611cc2611e83565b73ffffffffffffffffffffffffffffffffffffffff16611ce0611344565b73ffffffffffffffffffffffffffffffffffffffff1614611d36576040517f08c379a0000000000000000000000000000000000000000000000000000000008152600401611d2d906142f9565b60405180910390fd5b600073ffffffffffffffffffffffffffffffffffffffff168173ffffffffffffffffffffffffffffffffffffffff161415611da6576040517f08c379a0000000000000000000000000000000000000000000000000000000008152600401611d9d90614159565b60405180910390fd5b8073ffffffffffffffffffffffffffffffffffffffff16600a60009054906101000a900473ffffffffffffffffffffffffffffffffffffffff1673ffffffffffffffffffffffffffffffffffffffff167f8be0079c531659141344cd1fd0a4f28419497f9722a3daafe3b4186f6b6457e060405160405180910390a380600a60006101000a81548173ffffffffffffffffffffffffffffffffffffffff021916908373ffffffffffffffffffffffffffffffffffffffff16021790555050565b6000611e7c82600261269190919063ffffffff16565b9050919050565b600033905090565b816004600083815260200190815260200160002060006101000a81548173ffffffffffffffffffffffffffffffffffffffff021916908373ffffffffffffffffffffffffffffffffffffffff160217905550808273ffffffffffffffffffffffffffffffffffffffff16611efe83610e26565b73ffffffffffffffffffffffffffffffffffffffff167f8c5be1e5ebec7d5bd14f71427d1e84f3dd0314c0f7b2291e5b200ac8c7c3b92560405160405180910390a45050565b6000611f52826000016126ab565b9050919050565b6000611f6482611e66565b611fa3576040517f08c379a0000000000000000000000000000000000000000000000000000000008152600401611f9a90614219565b60405180910390fd5b6000611fae83610e26565b90508073ffffffffffffffffffffffffffffffffffffffff168473ffffffffffffffffffffffffffffffffffffffff16148061201d57508373ffffffffffffffffffffffffffffffffffffffff1661200584610846565b73ffffffffffffffffffffffffffffffffffffffff16145b8061202e575061202d81856119cb565b5b91505092915050565b8273ffffffffffffffffffffffffffffffffffffffff1661205782610e26565b73ffffffffffffffffffffffffffffffffffffffff16146120ad576040517f08c379a00000000000000000000000000000000000000000000000000000000081526004016120a490614319565b60405180910390fd5b600073ffffffffffffffffffffffffffffffffffffffff168273ffffffffffffffffffffffffffffffffffffffff16141561211d576040517f08c379a000000000000000000000000000000000000000000000000000000000815260040161211490614199565b60405180910390fd5b6121288383836126bc565b612133600082611e8b565b61218481600160008673ffffffffffffffffffffffffffffffffffffffff1673ffffffffffffffffffffffffffffffffffffffff1681526020019081526020016000206126c190919063ffffffff16565b506121d681600160008573ffffffffffffffffffffffffffffffffffffffff1673ffffffffffffffffffffffffffffffffffffffff1681526020019081526020016000206126db90919063ffffffff16565b506121ed818360026126f59092919063ffffffff16565b50808273ffffffffffffffffffffffffffffffffffffffff168473ffffffffffffffffffffffffffffffffffffffff167fddf252ad1be2c89b69c2b068fc378daa952ba7f163c4a11628f55a4df523b3ef60405160405180910390a4505050565b600061225d836000018361272a565b60001c905092915050565b60008060008061227b8660000186612797565b915091508160001c8160001c9350935050509250929050565b60006122a7846000018460001b8461281a565b60001c90509392505050565b60006122c1826000016128ab565b9050919050565b6122d3848484612037565b6122df848484846128bc565b61231e576040517f08c379a000000000000000000000000000000000000000000000000000000000815260040161231590614139565b60405180910390fd5b50505050565b6060600082141561236c576040518060400160405280600181526020017f30000000000000000000000000000000000000000000000000000000000000008152509050612466565b600082905060005b60008214612396578080600101915050600a828161238e57fe5b049150612374565b60608167ffffffffffffffff811180156123af57600080fd5b506040519080825280601f01601f1916602001820160405280156123e25781602001600182028036833780820191505090505b50905060006001830390508593505b6000841461245e57600a848161240357fe5b0660300160f81b8282806001900393508151811061241d57fe5b60200101907effffffffffffffffffffffffffffffffffffffffffffffffffffffffffffff1916908160001a905350600a848161245657fe5b0493506123f1565b819450505050505b919050565b6001816000016000828254019250508190555050565b600081600001549050919050565b600073ffffffffffffffffffffffffffffffffffffffff168273ffffffffffffffffffffffffffffffffffffffff1614156124ff576040517f08c379a00000000000000000000000000000000000000000000000000000000081526004016124f690614299565b60405180910390fd5b61250881611e66565b15612548576040517f08c379a000000000000000000000000000000000000000000000000000000000815260040161253f90614179565b60405180910390fd5b612554600083836126bc565b6125a581600160008573ffffffffffffffffffffffffffffffffffffffff1673ffffffffffffffffffffffffffffffffffffffff1681526020019081526020016000206126db90919063ffffffff16565b506125bc818360026126f59092919063ffffffff16565b50808273ffffffffffffffffffffffffffffffffffffffff16600073ffffffffffffffffffffffffffffffffffffffff167fddf252ad1be2c89b69c2b068fc378daa952ba7f163c4a11628f55a4df523b3ef60405160405180910390a45050565b61262682611e66565b612665576040517f08c379a000000000000000000000000000000000000000000000000000000000815260040161265c906142d9565b60405180910390fd5b8060086000848152602001908152602001600020908051906020019061268c929190612e79565b505050565b60006126a3836000018360001b612a20565b905092915050565b600081600001805490509050919050565b505050565b60006126d3836000018360001b612a43565b905092915050565b60006126ed836000018360001b612b2b565b905092915050565b6000612721846000018460001b8473ffffffffffffffffffffffffffffffffffffffff1660001b612b9b565b90509392505050565b600081836000018054905011612775576040517f08c379a000000000000000000000000000000000000000000000000000000000815260040161276c906140f9565b60405180910390fd5b82600001828154811061278457fe5b9060005260206000200154905092915050565b600080828460000180549050116127e3576040517f08c379a00000000000000000000000000000000000000000000000000000000081526004016127da90614279565b60405180910390fd5b60008460000184815481106127f457fe5b906000526020600020906002020190508060000154816001015492509250509250929050565b6000808460010160008581526020019081526020016000205490506000811415839061287c576040517f08c379a000000000000000000000000000000000000000000000000000000000815260040161287391906140d7565b60405180910390fd5b5084600001600182038154811061288f57fe5b9060005260206000209060020201600101549150509392505050565b600081600001805490509050919050565b60006128dd8473ffffffffffffffffffffffffffffffffffffffff16612c77565b6128ea5760019050612a18565b60606129b163150b7a0260e01b6128ff611e83565b8887876040516024016129159493929190613f94565b604051602081830303815290604052907bffffffffffffffffffffffffffffffffffffffffffffffffffffffff19166020820180517bffffffffffffffffffffffffffffffffffffffffffffffffffffffff83818316178352505050506040518060600160405280603281526020016146e4603291398773ffffffffffffffffffffffffffffffffffffffff16612c8a9092919063ffffffff16565b90506000818060200190518101906129c9919061324b565b905063150b7a0260e01b7bffffffffffffffffffffffffffffffffffffffffffffffffffffffff1916817bffffffffffffffffffffffffffffffffffffffffffffffffffffffff191614925050505b949350505050565b600080836001016000848152602001908152602001600020541415905092915050565b60008083600101600084815260200190815260200160002054905060008114612b1f5760006001820390506000600186600001805490500390506000866000018281548110612a8e57fe5b9060005260206000200154905080876000018481548110612aab57fe5b9060005260206000200181905550600183018760010160008381526020019081526020016000208190555086600001805480612ae357fe5b60019003818190600052602060002001600090559055866001016000878152602001908152602001600020600090556001945050505050612b25565b60009150505b92915050565b6000612b378383612ca2565b612b90578260000182908060018154018082558091505060019003906000526020600020016000909190919091505582600001805490508360010160008481526020019081526020016000208190555060019050612b95565b600090505b92915050565b6000808460010160008581526020019081526020016000205490506000811415612c4257846000016040518060400160405280868152602001858152509080600181540180825580915050600190039060005260206000209060020201600090919091909150600082015181600001556020820151816001015550508460000180549050856001016000868152602001908152602001600020819055506001915050612c70565b82856000016001830381548110612c5557fe5b90600052602060002090600202016001018190555060009150505b9392505050565b600080823b905060008111915050919050565b6060612c998484600085612cc5565b90509392505050565b600080836001016000848152602001908152602001600020541415905092915050565b606082471015612d0a576040517f08c379a0000000000000000000000000000000000000000000000000000000008152600401612d01906141f9565b60405180910390fd5b612d1385612c77565b612d52576040517f08c379a0000000000000000000000000000000000000000000000000000000008152600401612d49906143b9565b60405180910390fd5b600060608673ffffffffffffffffffffffffffffffffffffffff168587604051612d7c9190613f3e565b60006040518083038185875af1925050503d8060008114612db9576040519150601f19603f3d011682016040523d82523d6000602084013e612dbe565b606091505b5091509150612dce828286612dda565b92505050949350505050565b60608315612dea57829050612e3a565b600083511115612dfd5782518084602001fd5b816040517f08c379a0000000000000000000000000000000000000000000000000000000008152600401612e3191906140d7565b60405180910390fd5b9392505050565b6040518060c0016040528060008152602001600081526020016000815260200160008152602001606081526020016000151581525090565b828054600181600116156101000203166002900490600052602060002090601f016020900481019282601f10612eba57805160ff1916838001178555612ee8565b82800160010185558215612ee8579182015b82811115612ee7578251825591602001919060010190612ecc565b5b509050612ef59190612ef9565b5090565b5b80821115612f12576000816000905550600101612efa565b5090565b600081359050612f2581614687565b92915050565b600081359050612f3a8161469e565b92915050565b600081359050612f4f816146b5565b92915050565b600081519050612f64816146b5565b92915050565b600082601f830112612f7b57600080fd5b8135612f8e612f8982614445565b614414565b91508082526020830160208301858383011115612faa57600080fd5b612fb5838284614632565b50505092915050565b600082601f830112612fcf57600080fd5b8135612fe2612fdd82614475565b614414565b91508082526020830160208301858383011115612ffe57600080fd5b613009838284614632565b50505092915050565b600081359050613021816146cc565b92915050565b60006020828403121561303957600080fd5b600061304784828501612f16565b91505092915050565b6000806040838503121561306357600080fd5b600061307185828601612f16565b925050602061308285828601612f16565b9150509250929050565b6000806000606084860312156130a157600080fd5b60006130af86828701612f16565b93505060206130c086828701612f16565b92505060406130d186828701613012565b9150509250925092565b600080600080608085870312156130f157600080fd5b60006130ff87828801612f16565b945050602061311087828801612f16565b935050604061312187828801613012565b925050606085013567ffffffffffffffff81111561313e57600080fd5b61314a87828801612f6a565b91505092959194509250565b6000806040838503121561316957600080fd5b600061317785828601612f16565b925050602061318885828601612f2b565b9150509250929050565b600080604083850312156131a557600080fd5b60006131b385828601612f16565b925050602083013567ffffffffffffffff8111156131d057600080fd5b6131dc85828601612fbe565b9150509250929050565b600080604083850312156131f957600080fd5b600061320785828601612f16565b925050602061321885828601613012565b9150509250929050565b60006020828403121561323457600080fd5b600061324284828501612f40565b91505092915050565b60006020828403121561325d57600080fd5b600061326b84828501612f55565b91505092915050565b60008060006060848603121561328957600080fd5b600084013567ffffffffffffffff8111156132a357600080fd5b6132af86828701612fbe565b93505060206132c086828701613012565b92505060406132d186828701613012565b9150509250925092565b6000602082840312156132ed57600080fd5b60006132fb84828501613012565b91505092915050565b6000806040838503121561331757600080fd5b600061332585828601613012565b925050602083013567ffffffffffffffff81111561334257600080fd5b61334e85828601612f6a565b9150509250929050565b6000806040838503121561336b57600080fd5b600061337985828601613012565b925050602061338a85828601613012565b9150509250929050565b60006133a08383613e97565b905092915050565b60006133b48383613f20565b60208301905092915050565b6133c9816145fc565b82525050565b6133d881614588565b82525050565b6133e781614576565b82525050565b60006133f8826144c5565b613402818561450b565b935083602082028501613414856144a5565b8060005b8581101561345057848403895281516134318582613394565b945061343c836144f1565b925060208a01995050600181019050613418565b50829750879550505050505092915050565b600061346d826144d0565b613477818561451c565b9350613482836144b5565b8060005b838110156134b357815161349a88826133a8565b97506134a5836144fe565b925050600181019050613486565b5085935050505092915050565b6134c98161459a565b82525050565b6134d88161459a565b82525050565b60006134e9826144db565b6134f3818561452d565b9350613503818560208601614641565b61350c81614676565b840191505092915050565b6000613522826144db565b61352c818561453e565b935061353c818560208601614641565b80840191505092915050565b6000613553826144e6565b61355d8185614549565b935061356d818560208601614641565b61357681614676565b840191505092915050565b600061358c826144e6565b613596818561455a565b93506135a6818560208601614641565b6135af81614676565b840191505092915050565b60006135c5826144e6565b6135cf818561456b565b93506135df818560208601614641565b80840191505092915050565b60006135f860228361455a565b91507f456e756d657261626c655365743a20696e646578206f7574206f6620626f756e60008301527f64730000000000000000000000000000000000000000000000000000000000006020830152604082019050919050565b600061365e60158361455a565b91507f4e6f207065726d697373696f6e20746f206d696e7400000000000000000000006000830152602082019050919050565b600061369e60328361455a565b91507f4552433732313a207472616e7366657220746f206e6f6e20455243373231526560008301527f63656976657220696d706c656d656e74657200000000000000000000000000006020830152604082019050919050565b600061370460268361455a565b91507f4f776e61626c653a206e6577206f776e657220697320746865207a65726f206160008301527f64647265737300000000000000000000000000000000000000000000000000006020830152604082019050919050565b600061376a601c8361455a565b91507f4552433732313a20746f6b656e20616c7265616479206d696e746564000000006000830152602082019050919050565b60006137aa60248361455a565b91507f4552433732313a207472616e7366657220746f20746865207a65726f2061646460008301527f72657373000000000000000000000000000000000000000000000000000000006020830152604082019050919050565b600061381060198361455a565b91507f4552433732313a20617070726f766520746f2063616c6c6572000000000000006000830152602082019050919050565b600061385060268361455a565b91507f526571756573746564207472616e73666f726d6174696f6e20646f65736e277460008301527f20657869737400000000000000000000000000000000000000000000000000006020830152604082019050919050565b60006138b660268361455a565b91507f416464726573733a20696e73756666696369656e742062616c616e636520666f60008301527f722063616c6c00000000000000000000000000000000000000000000000000006020830152604082019050919050565b600061391c602c8361455a565b91507f4552433732313a206f70657261746f7220717565727920666f72206e6f6e657860008301527f697374656e7420746f6b656e00000000000000000000000000000000000000006020830152604082019050919050565b600061398260388361455a565b91507f4552433732313a20617070726f76652063616c6c6572206973206e6f74206f7760008301527f6e6572206e6f7220617070726f76656420666f7220616c6c00000000000000006020830152604082019050919050565b60006139e8602a8361455a565b91507f4552433732313a2062616c616e636520717565727920666f7220746865207a6560008301527f726f2061646472657373000000000000000000000000000000000000000000006020830152604082019050919050565b6000613a4e60228361455a565b91507f456e756d657261626c654d61703a20696e646578206f7574206f6620626f756e60008301527f64730000000000000000000000000000000000000000000000000000000000006020830152604082019050919050565b6000613ab460208361455a565b91507f4552433732313a206d696e7420746f20746865207a65726f20616464726573736000830152602082019050919050565b6000613af4602c8361455a565b91507f4552433732313a20617070726f76656420717565727920666f72206e6f6e657860008301527f697374656e7420746f6b656e00000000000000000000000000000000000000006020830152604082019050919050565b6000613b5a602c8361455a565b91507f4552433732314d657461646174613a2055524920736574206f66206e6f6e657860008301527f697374656e7420746f6b656e00000000000000000000000000000000000000006020830152604082019050919050565b6000613bc060208361455a565b91507f4f776e61626c653a2063616c6c6572206973206e6f7420746865206f776e65726000830152602082019050919050565b6000613c0060298361455a565b91507f4552433732313a207472616e73666572206f6620746f6b656e2074686174206960008301527f73206e6f74206f776e00000000000000000000000000000000000000000000006020830152604082019050919050565b6000613c66602f8361455a565b91507f4552433732314d657461646174613a2055524920717565727920666f72206e6f60008301527f6e6578697374656e7420746f6b656e00000000000000000000000000000000006020830152604082019050919050565b6000613ccc60218361455a565b91507f4552433732313a20617070726f76616c20746f2063757272656e74206f776e6560008301527f72000000000000000000000000000000000000000000000000000000000000006020830152604082019050919050565b6000613d3260228361455a565b91507f5472616e73666f726d6174696f6e20737570706c79206973206578686175737460008301527f65640000000000000000000000000000000000000000000000000000000000006020830152604082019050919050565b6000613d9860318361455a565b91507f4552433732313a207472616e736665722063616c6c6572206973206e6f74206f60008301527f776e6572206e6f7220617070726f7665640000000000000000000000000000006020830152604082019050919050565b6000613dfe601d8361455a565b91507f416464726573733a2063616c6c20746f206e6f6e2d636f6e74726163740000006000830152602082019050919050565b6000613e3e60318361455a565b91507f5472616e73616374696f6e2076616c7565206d757374206d617463682074726160008301527f6e73666f726d6174696f6e2070726963650000000000000000000000000000006020830152604082019050919050565b600060c083016000830151613eaf6000860182613f20565b506020830151613ec26020860182613f20565b506040830151613ed56040860182613f20565b506060830151613ee86060860182613f20565b5060808301518482036080860152613f008282613548565b91505060a0830151613f1560a08601826134c0565b508091505092915050565b613f29816145f2565b82525050565b613f38816145f2565b82525050565b6000613f4a8284613517565b915081905092915050565b6000613f6182856135ba565b9150613f6d82846135ba565b91508190509392505050565b6000602082019050613f8e60008301846133de565b92915050565b6000608082019050613fa960008301876133cf565b613fb660208301866133de565b613fc36040830185613f2f565b8181036060830152613fd581846134de565b905095945050505050565b600060a082019050613ff560008301886133c0565b6140026020830187613f2f565b61400f6040830186613f2f565b61401c6060830185613f2f565b818103608083015261402e81846134de565b90509695505050505050565b600060608201905061404f60008301866133de565b61405c6020830185613f2f565b818103604083015261406e8184613581565b9050949350505050565b6000602082019050818103600083015261409281846133ed565b905092915050565b600060208201905081810360008301526140b48184613462565b905092915050565b60006020820190506140d160008301846134cf565b92915050565b600060208201905081810360008301526140f18184613581565b905092915050565b60006020820190508181036000830152614112816135eb565b9050919050565b6000602082019050818103600083015261413281613651565b9050919050565b6000602082019050818103600083015261415281613691565b9050919050565b60006020820190508181036000830152614172816136f7565b9050919050565b600060208201905081810360008301526141928161375d565b9050919050565b600060208201905081810360008301526141b28161379d565b9050919050565b600060208201905081810360008301526141d281613803565b9050919050565b600060208201905081810360008301526141f281613843565b9050919050565b60006020820190508181036000830152614212816138a9565b9050919050565b600060208201905081810360008301526142328161390f565b9050919050565b6000602082019050818103600083015261425281613975565b9050919050565b60006020820190508181036000830152614272816139db565b9050919050565b6000602082019050818103600083015261429281613a41565b9050919050565b600060208201905081810360008301526142b281613aa7565b9050919050565b600060208201905081810360008301526142d281613ae7565b9050919050565b600060208201905081810360008301526142f281613b4d565b9050919050565b6000602082019050818103600083015261431281613bb3565b9050919050565b6000602082019050818103600083015261433281613bf3565b9050919050565b6000602082019050818103600083015261435281613c59565b9050919050565b6000602082019050818103600083015261437281613cbf565b9050919050565b6000602082019050818103600083015261439281613d25565b9050919050565b600060208201905081810360008301526143b281613d8b565b9050919050565b600060208201905081810360008301526143d281613df1565b9050919050565b600060208201905081810360008301526143f281613e31565b9050919050565b600060208201905061440e6000830184613f2f565b92915050565b6000604051905081810181811067ffffffffffffffff8211171561443b5761443a614674565b5b8060405250919050565b600067ffffffffffffffff8211156144605761445f614674565b5b601f19601f8301169050602081019050919050565b600067ffffffffffffffff8211156144905761448f614674565b5b601f19601f8301169050602081019050919050565b6000819050602082019050919050565b6000819050602082019050919050565b600081519050919050565b600081519050919050565b600081519050919050565b600081519050919050565b6000602082019050919050565b6000602082019050919050565b600082825260208201905092915050565b600082825260208201905092915050565b600082825260208201905092915050565b600081905092915050565b600082825260208201905092915050565b600082825260208201905092915050565b600081905092915050565b6000614581826145d2565b9050919050565b6000614593826145d2565b9050919050565b60008115159050919050565b60007fffffffff0000000000000000000000000000000000000000000000000000000082169050919050565b600073ffffffffffffffffffffffffffffffffffffffff82169050919050565b6000819050919050565b60006146078261460e565b9050919050565b600061461982614620565b9050919050565b600061462b826145d2565b9050919050565b82818337600083830152505050565b60005b8381101561465f578082015181840152602081019050614644565b8381111561466e576000848401525b50505050565bfe5b6000601f19601f8301169050919050565b61469081614576565b811461469b57600080fd5b50565b6146a78161459a565b81146146b257600080fd5b50565b6146be816145a6565b81146146c957600080fd5b50565b6146d5816145f2565b81146146e057600080fd5b5056fe4552433732313a207472616e7366657220746f206e6f6e20455243373231526563656976657220696d706c656d656e7465724552433732313a206f776e657220717565727920666f72206e6f6e6578697374656e7420746f6b656ea26469706673582212207886f41f95f38fc8cb8ae7476a1414d782f9c9f4435ce4f2a527d8867358585f64736f6c63430007030033",
  "linkReferences": {},
  "deployedLinkReferences": {}
}