{
  "_format": "hh-sol-artifact-1",
  "contractName": "StyleArt",
  "sourceName": "contracts/StyleArt.sol",
  "abi": [
    {
      "inputs": [],
      "stateMutability": "nonpayable",
      "type": "constructor"
    },
    {
      "anonymous": false,
      "inputs": [
        {
          "indexed": true,
          "internalType": "address",
          "name": "owner",
          "type": "address"
        },
        {
          "indexed": true,
          "internalType": "address",
          "name": "approved",
          "type": "address"
        },
        {
          "indexed": true,
          "internalType": "uint256",
          "name": "tokenId",
          "type": "uint256"
        }
      ],
      "name": "Approval",
      "type": "event"
    },
    {
      "anonymous": false,
      "inputs": [
        {
          "indexed": true,
          "internalType": "address",
          "name": "owner",
          "type": "address"
        },
        {
          "indexed": true,
          "internalType": "address",
          "name": "operator",
          "type": "address"
        },
        {
          "indexed": false,
          "internalType": "bool",
          "name": "approved",
          "type": "bool"
        }
      ],
      "name": "ApprovalForAll",
      "type": "event"
    },
    {
      "anonymous": false,
      "inputs": [
        {
          "indexed": false,
          "internalType": "address",
          "name": "sender",
          "type": "address"
        },
        {
          "indexed": false,
          "internalType": "uint256",
          "name": "value",
          "type": "uint256"
        },
        {
          "indexed": false,
          "internalType": "uint256",
          "name": "transformationId",
          "type": "uint256"
        },
        {
          "indexed": false,
          "internalType": "uint256",
          "name": "transformationNumber",
          "type": "uint256"
        },
        {
          "indexed": false,
          "internalType": "string",
          "name": "imageURL",
          "type": "string"
        }
      ],
      "name": "ImageGenerationPaid",
      "type": "event"
    },
    {
      "anonymous": false,
      "inputs": [
        {
          "indexed": true,
          "internalType": "address",
          "name": "previousOwner",
          "type": "address"
        },
        {
          "indexed": true,
          "internalType": "address",
          "name": "newOwner",
          "type": "address"
        }
      ],
      "name": "OwnershipTransferred",
      "type": "event"
    },
    {
      "anonymous": false,
      "inputs": [
        {
          "indexed": false,
          "internalType": "address",
          "name": "payer",
          "type": "address"
        },
        {
          "indexed": false,
          "internalType": "uint256",
          "name": "tokenId",
          "type": "uint256"
        },
        {
          "indexed": false,
          "internalType": "string",
          "name": "tokenURI",
          "type": "string"
        }
      ],
      "name": "TokenMinted",
      "type": "event"
    },
    {
      "anonymous": false,
      "inputs": [
        {
          "indexed": true,
          "internalType": "address",
          "name": "from",
          "type": "address"
        },
        {
          "indexed": true,
          "internalType": "address",
          "name": "to",
          "type": "address"
        },
        {
          "indexed": true,
          "internalType": "uint256",
          "name": "tokenId",
          "type": "uint256"
        }
      ],
      "name": "Transfer",
      "type": "event"
    },
    {
      "inputs": [
        {
          "internalType": "string",
          "name": "name",
          "type": "string"
        },
        {
          "internalType": "string",
          "name": "description",
          "type": "string"
        },
        {
          "internalType": "uint256",
          "name": "price",
          "type": "uint256"
        },
        {
          "internalType": "uint256",
          "name": "supply",
          "type": "uint256"
        }
      ],
      "name": "addTransformation",
      "outputs": [
        {
          "internalType": "uint256",
          "name": "",
          "type": "uint256"
        }
      ],
      "stateMutability": "nonpayable",
      "type": "function"
    },
    {
      "inputs": [
        {
          "internalType": "address",
          "name": "to",
          "type": "address"
        },
        {
          "internalType": "uint256",
          "name": "tokenId",
          "type": "uint256"
        }
      ],
      "name": "approve",
      "outputs": [],
      "stateMutability": "nonpayable",
      "type": "function"
    },
    {
      "inputs": [
        {
          "internalType": "address",
          "name": "owner",
          "type": "address"
        }
      ],
      "name": "balanceOf",
      "outputs": [
        {
          "internalType": "uint256",
          "name": "",
          "type": "uint256"
        }
      ],
      "stateMutability": "view",
      "type": "function"
    },
    {
      "inputs": [],
      "name": "baseURI",
      "outputs": [
        {
          "internalType": "string",
          "name": "",
          "type": "string"
        }
      ],
      "stateMutability": "view",
      "type": "function"
    },
    {
      "inputs": [
        {
          "internalType": "uint256",
          "name": "tokenId",
          "type": "uint256"
        }
      ],
      "name": "getApproved",
      "outputs": [
        {
          "internalType": "address",
          "name": "",
          "type": "address"
        }
      ],
      "stateMutability": "view",
      "type": "function"
    },
    {
      "inputs": [
        {
          "internalType": "address",
          "name": "owner",
          "type": "address"
        },
        {
          "internalType": "address",
          "name": "operator",
          "type": "address"
        }
      ],
      "name": "isApprovedForAll",
      "outputs": [
        {
          "internalType": "bool",
          "name": "",
          "type": "bool"
        }
      ],
      "stateMutability": "view",
      "type": "function"
    },
    {
      "inputs": [],
      "name": "listTransformations",
      "outputs": [
        {
          "components": [
            {
              "internalType": "uint256",
              "name": "id",
              "type": "uint256"
            },
            {
              "internalType": "uint256",
              "name": "price",
              "type": "uint256"
            },
            {
              "internalType": "uint256",
              "name": "supply",
              "type": "uint256"
            },
            {
              "internalType": "uint256",
              "name": "nTokens",
              "type": "uint256"
            },
            {
              "internalType": "string",
              "name": "name",
              "type": "string"
            },
            {
              "internalType": "string",
              "name": "description",
              "type": "string"
            }
          ],
          "internalType": "struct StyleArt.Transformation[]",
          "name": "",
          "type": "tuple[]"
        }
      ],
      "stateMutability": "view",
      "type": "function"
    },
    {
      "inputs": [
        {
          "internalType": "address",
          "name": "payer",
          "type": "address"
        },
        {
          "internalType": "string",
          "name": "tokenURI",
          "type": "string"
        }
      ],
      "name": "mintNFT",
      "outputs": [
        {
          "internalType": "uint256",
          "name": "",
          "type": "uint256"
        }
      ],
      "stateMutability": "nonpayable",
      "type": "function"
    },
    {
      "inputs": [],
      "name": "name",
      "outputs": [
        {
          "internalType": "string",
          "name": "",
          "type": "string"
        }
      ],
      "stateMutability": "view",
      "type": "function"
    },
    {
      "inputs": [],
      "name": "owner",
      "outputs": [
        {
          "internalType": "address",
          "name": "",
          "type": "address"
        }
      ],
      "stateMutability": "view",
      "type": "function"
    },
    {
      "inputs": [
        {
          "internalType": "uint256",
          "name": "tokenId",
          "type": "uint256"
        }
      ],
      "name": "ownerOf",
      "outputs": [
        {
          "internalType": "address",
          "name": "",
          "type": "address"
        }
      ],
      "stateMutability": "view",
      "type": "function"
    },
    {
      "inputs": [
        {
          "internalType": "uint256",
          "name": "transformationId",
          "type": "uint256"
        },
        {
          "internalType": "string",
          "name": "imageUrl",
          "type": "string"
        }
      ],
      "name": "payGenerating",
      "outputs": [],
      "stateMutability": "payable",
      "type": "function"
    },
    {
      "inputs": [
        {
          "internalType": "uint256",
          "name": "tokenId",
          "type": "uint256"
        }
      ],
      "name": "payerOf",
      "outputs": [
        {
          "internalType": "address",
          "name": "",
          "type": "address"
        }
      ],
      "stateMutability": "view",
      "type": "function"
    },
    {
      "inputs": [],
      "name": "renounceOwnership",
      "outputs": [],
      "stateMutability": "nonpayable",
      "type": "function"
    },
    {
      "inputs": [
        {
          "internalType": "address",
          "name": "from",
          "type": "address"
        },
        {
          "internalType": "address",
          "name": "to",
          "type": "address"
        },
        {
          "internalType": "uint256",
          "name": "tokenId",
          "type": "uint256"
        }
      ],
      "name": "safeTransferFrom",
      "outputs": [],
      "stateMutability": "nonpayable",
      "type": "function"
    },
    {
      "inputs": [
        {
          "internalType": "address",
          "name": "from",
          "type": "address"
        },
        {
          "internalType": "address",
          "name": "to",
          "type": "address"
        },
        {
          "internalType": "uint256",
          "name": "tokenId",
          "type": "uint256"
        },
        {
          "internalType": "bytes",
          "name": "_data",
          "type": "bytes"
        }
      ],
      "name": "safeTransferFrom",
      "outputs": [],
      "stateMutability": "nonpayable",
      "type": "function"
    },
    {
      "inputs": [
        {
          "internalType": "address",
          "name": "operator",
          "type": "address"
        },
        {
          "internalType": "bool",
          "name": "approved",
          "type": "bool"
        }
      ],
      "name": "setApprovalForAll",
      "outputs": [],
      "stateMutability": "nonpayable",
      "type": "function"
    },
    {
      "inputs": [
        {
          "internalType": "bytes4",
          "name": "interfaceId",
          "type": "bytes4"
        }
      ],
      "name": "supportsInterface",
      "outputs": [
        {
          "internalType": "bool",
          "name": "",
          "type": "bool"
        }
      ],
      "stateMutability": "view",
      "type": "function"
    },
    {
      "inputs": [],
      "name": "symbol",
      "outputs": [
        {
          "internalType": "string",
          "name": "",
          "type": "string"
        }
      ],
      "stateMutability": "view",
      "type": "function"
    },
    {
      "inputs": [
        {
          "internalType": "uint256",
          "name": "index",
          "type": "uint256"
        }
      ],
      "name": "tokenByIndex",
      "outputs": [
        {
          "internalType": "uint256",
          "name": "",
          "type": "uint256"
        }
      ],
      "stateMutability": "view",
      "type": "function"
    },
    {
      "inputs": [
        {
          "internalType": "address",
          "name": "owner",
          "type": "address"
        },
        {
          "internalType": "uint256",
          "name": "index",
          "type": "uint256"
        }
      ],
      "name": "tokenOfOwnerByIndex",
      "outputs": [
        {
          "internalType": "uint256",
          "name": "",
          "type": "uint256"
        }
      ],
      "stateMutability": "view",
      "type": "function"
    },
    {
      "inputs": [
        {
          "internalType": "uint256",
          "name": "tokenId",
          "type": "uint256"
        }
      ],
      "name": "tokenURI",
      "outputs": [
        {
          "internalType": "string",
          "name": "",
          "type": "string"
        }
      ],
      "stateMutability": "view",
      "type": "function"
    },
    {
      "inputs": [],
      "name": "totalSupply",
      "outputs": [
        {
          "internalType": "uint256",
          "name": "",
          "type": "uint256"
        }
      ],
      "stateMutability": "view",
      "type": "function"
    },
    {
      "inputs": [
        {
          "internalType": "address",
          "name": "from",
          "type": "address"
        },
        {
          "internalType": "address",
          "name": "to",
          "type": "address"
        },
        {
          "internalType": "uint256",
          "name": "tokenId",
          "type": "uint256"
        }
      ],
      "name": "transferFrom",
      "outputs": [],
      "stateMutability": "nonpayable",
      "type": "function"
    },
    {
      "inputs": [
        {
          "internalType": "address",
          "name": "newOwner",
          "type": "address"
        }
      ],
      "name": "transferOwnership",
      "outputs": [],
      "stateMutability": "nonpayable",
      "type": "function"
    },
    {
      "inputs": [
        {
          "internalType": "uint256",
          "name": "id",
          "type": "uint256"
        },
        {
          "internalType": "uint256",
          "name": "price",
          "type": "uint256"
        }
      ],
      "name": "updateTransformationPrice",
      "outputs": [
        {
          "internalType": "bool",
          "name": "",
          "type": "bool"
        }
      ],
      "stateMutability": "nonpayable",
      "type": "function"
    },
    {
      "inputs": [
        {
          "internalType": "address",
          "name": "user",
          "type": "address"
        }
      ],
      "name": "userGeneratedTokens",
      "outputs": [
        {
          "internalType": "uint256[]",
          "name": "",
          "type": "uint256[]"
        }
      ],
      "stateMutability": "view",
      "type": "function"
    }
  ],
  "bytecode": "0x60806040523480156200001157600080fd5b506040518060400160405280600881526020017f7374796c656172740000000000000000000000000000000000000000000000008152506040518060400160405280600481526020017f7361727400000000000000000000000000000000000000000000000000000000815250620000966301ffc9a760e01b6200020a60201b60201c565b8160069080519060200190620000ae929190620002ea565b508060079080519060200190620000c7929190620002ea565b50620000e06380ac58cd60e01b6200020a60201b60201c565b620000f8635b5e139f60e01b6200020a60201b60201c565b6200011063780e9d6360e01b6200020a60201b60201c565b5050600062000124620002e260201b60201c565b905080600a60006101000a81548173ffffffffffffffffffffffffffffffffffffffff021916908373ffffffffffffffffffffffffffffffffffffffff1602179055508073ffffffffffffffffffffffffffffffffffffffff16600073ffffffffffffffffffffffffffffffffffffffff167f8be0079c531659141344cd1fd0a4f28419497f9722a3daafe3b4186f6b6457e060405160405180910390a35033600d60006101000a81548173ffffffffffffffffffffffffffffffffffffffff021916908373ffffffffffffffffffffffffffffffffffffffff16021790555062000405565b63ffffffff60e01b817bffffffffffffffffffffffffffffffffffffffffffffffffffffffff1916141562000276576040517f08c379a00000000000000000000000000000000000000000000000000000000081526004016200026d90620003d2565b60405180910390fd5b6001600080837bffffffffffffffffffffffffffffffffffffffffffffffffffffffff19167bffffffffffffffffffffffffffffffffffffffffffffffffffffffff1916815260200190815260200160002060006101000a81548160ff02191690831515021790555050565b600033905090565b828054600181600116156101000203166002900490600052602060002090601f016020900481019282601f106200032d57805160ff19168380011785556200035e565b828001600101855582156200035e579182015b828111156200035d57825182559160200191906001019062000340565b5b5090506200036d919062000371565b5090565b5b808211156200038c57600081600090555060010162000372565b5090565b60006200039f601c83620003f4565b91507f4552433136353a20696e76616c696420696e74657266616365206964000000006000830152602082019050919050565b60006020820190508181036000830152620003ed8162000390565b9050919050565b600082825260208201905092915050565b6147ed80620004156000396000f3fe60806040526004361061019c5760003560e01c80636352211e116100ec578063a22cb4651161008a578063e985e9c511610064578063e985e9c514610605578063e9c7723d14610642578063eacabe141461067f578063f2fde38b146106bc5761019c565b8063a22cb46514610576578063b88d4fde1461059f578063c87b56dd146105c85761019c565b8063715018a6116100c6578063715018a6146104cc5780637edcf18f146104e35780638da5cb5b1461052057806395d89b411461054b5761019c565b80636352211e146104275780636c0360eb1461046457806370a082311461048f5761019c565b80631ec16676116101595780632f745c59116101335780632f745c591461036857806342842e0e146103a55780634f6ccce7146103ce57806358a1388f1461040b5761019c565b80631ec16676146102c55780632362382d1461030257806323b872dd1461033f5761019c565b806301ffc9a7146101a157806306fdde03146101de578063081812fc14610209578063095ea7b31461024657806318160ddd1461026f5780631935ec9f1461029a575b600080fd5b3480156101ad57600080fd5b506101c860048036038101906101c39190613217565b6106e5565b6040516101d59190614115565b60405180910390f35b3480156101ea57600080fd5b506101f361074c565b6040516102009190614130565b60405180910390f35b34801561021557600080fd5b50610230600480360381019061022b91906132fc565b6107ee565b60405161023d9190613fd2565b60405180910390f35b34801561025257600080fd5b5061026d600480360381019061026891906131db565b610873565b005b34801561027b57600080fd5b5061028461098b565b6040516102919190614472565b60405180910390f35b3480156102a657600080fd5b506102af61099c565b6040516102bc91906140d1565b60405180910390f35b3480156102d157600080fd5b506102ec60048036038101906102e79190613269565b610b67565b6040516102f99190614472565b60405180910390f35b34801561030e57600080fd5b5061032960048036038101906103249190613379565b610cc6565b6040516103369190614115565b60405180910390f35b34801561034b57600080fd5b5061036660048036038101906103619190613081565b610dc0565b005b34801561037457600080fd5b5061038f600480360381019061038a91906131db565b610e20565b60405161039c9190614472565b60405180910390f35b3480156103b157600080fd5b506103cc60048036038101906103c79190613081565b610e7b565b005b3480156103da57600080fd5b506103f560048036038101906103f091906132fc565b610e9b565b6040516104029190614472565b60405180910390f35b61042560048036038101906104209190613325565b610ebe565b005b34801561043357600080fd5b5061044e600480360381019061044991906132fc565b611174565b60405161045b9190613fd2565b60405180910390f35b34801561047057600080fd5b506104796111ab565b6040516104869190614130565b60405180910390f35b34801561049b57600080fd5b506104b660048036038101906104b1919061301c565b61124d565b6040516104c39190614472565b60405180910390f35b3480156104d857600080fd5b506104e161130c565b005b3480156104ef57600080fd5b5061050a600480360381019061050591906132fc565b611449565b6040516105179190613fd2565b60405180910390f35b34801561052c57600080fd5b506105356114ec565b6040516105429190613fd2565b60405180910390f35b34801561055757600080fd5b50610560611516565b60405161056d9190614130565b60405180910390f35b34801561058257600080fd5b5061059d6004803603810190610598919061314b565b6115b8565b005b3480156105ab57600080fd5b506105c660048036038101906105c191906130d0565b611739565b005b3480156105d457600080fd5b506105ef60048036038101906105ea91906132fc565b61179b565b6040516105fc9190614130565b60405180910390f35b34801561061157600080fd5b5061062c60048036038101906106279190613045565b61191e565b6040516106399190614115565b60405180910390f35b34801561064e57600080fd5b506106696004803603810190610664919061301c565b6119b2565b60405161067691906140f3565b60405180910390f35b34801561068b57600080fd5b506106a660048036038101906106a19190613187565b611ad4565b6040516106b39190614472565b60405180910390f35b3480156106c857600080fd5b506106e360048036038101906106de919061301c565b611ce7565b005b6000806000837bffffffffffffffffffffffffffffffffffffffffffffffffffffffff19167bffffffffffffffffffffffffffffffffffffffffffffffffffffffff1916815260200190815260200160002060009054906101000a900460ff169050919050565b606060068054600181600116156101000203166002900480601f0160208091040260200160405190810160405280929190818152602001828054600181600116156101000203166002900480156107e45780601f106107b9576101008083540402835291602001916107e4565b820191906000526020600020905b8154815290600101906020018083116107c757829003601f168201915b5050505050905090565b60006107f982611e93565b610838576040517f08c379a000000000000000000000000000000000000000000000000000000000815260040161082f90614312565b60405180910390fd5b6004600083815260200190815260200160002060009054906101000a900473ffffffffffffffffffffffffffffffffffffffff169050919050565b600061087e82611174565b90508073ffffffffffffffffffffffffffffffffffffffff168373ffffffffffffffffffffffffffffffffffffffff1614156108ef576040517f08c379a00000000000000000000000000000000000000000000000000000000081526004016108e6906143b2565b60405180910390fd5b8073ffffffffffffffffffffffffffffffffffffffff1661090e611eb0565b73ffffffffffffffffffffffffffffffffffffffff16148061093d575061093c81610937611eb0565b61191e565b5b61097c576040517f08c379a000000000000000000000000000000000000000000000000000000000815260040161097390614292565b60405180910390fd5b6109868383611eb8565b505050565b60006109976002611f71565b905090565b60606010805480602002602001604051908101604052809291908181526020016000905b82821015610b5e57838290600052602060002090600602016040518060c001604052908160008201548152602001600182015481526020016002820154815260200160038201548152602001600482018054600181600116156101000203166002900480601f016020809104026020016040519081016040528092919081815260200182805460018160011615610100020316600290048015610aa45780601f10610a7957610100808354040283529160200191610aa4565b820191906000526020600020905b815481529060010190602001808311610a8757829003601f168201915b50505050508152602001600582018054600181600116156101000203166002900480601f016020809104026020016040519081016040528092919081815260200182805460018160011615610100020316600290048015610b465780601f10610b1b57610100808354040283529160200191610b46565b820191906000526020600020905b815481529060010190602001808311610b2957829003601f168201915b505050505081525050815260200190600101906109c0565b50505050905090565b6000610b71611eb0565b73ffffffffffffffffffffffffffffffffffffffff16610b8f6114ec565b73ffffffffffffffffffffffffffffffffffffffff1614610be5576040517f08c379a0000000000000000000000000000000000000000000000000000000008152600401610bdc90614352565b60405180910390fd5b610bef600c611f86565b6000610bfb600c611f9c565b905060106040518060c0016040528083815260200186815260200185815260200160008152602001888152602001878152509080600181540180825580915050600190039060005260206000209060060201600090919091909150600082015181600001556020820151816001015560408201518160020155606082015181600301556080820151816004019080519060200190610c9a929190612e6e565b5060a0820151816005019080519060200190610cb7929190612e6e565b50505080915050949350505050565b6000610cd0611eb0565b73ffffffffffffffffffffffffffffffffffffffff16610cee6114ec565b73ffffffffffffffffffffffffffffffffffffffff1614610d44576040517f08c379a0000000000000000000000000000000000000000000000000000000008152600401610d3b90614352565b60405180910390fd5b60005b601080549050811015610db4578360108281548110610d6257fe5b9060005260206000209060060201600001541415610da7578260108281548110610d8857fe5b9060005260206000209060060201600101819055506001915050610dba565b8080600101915050610d47565b50600090505b92915050565b610dd1610dcb611eb0565b82611faa565b610e10576040517f08c379a0000000000000000000000000000000000000000000000000000000008152600401610e0790614412565b60405180910390fd5b610e1b838383612088565b505050565b6000610e7382600160008673ffffffffffffffffffffffffffffffffffffffff1673ffffffffffffffffffffffffffffffffffffffff16815260200190815260200160002061229f90919063ffffffff16565b905092915050565b610e9683838360405180602001604052806000815250611739565b505050565b600080610eb28360026122b990919063ffffffff16565b50905080915050919050565b81346000805b601080549050811015610fe7578360108281548110610edf57fe5b9060005260206000209060060201600001541415610fda57600191508260108281548110610f0957fe5b90600052602060002090600602016001015414610f5b576040517f08c379a0000000000000000000000000000000000000000000000000000000008152600401610f5290614452565b60405180910390fd5b60108181548110610f6857fe5b90600052602060002090600602016002015460108281548110610f8757fe5b90600052602060002090600602016003015410610fd9576040517f08c379a0000000000000000000000000000000000000000000000000000000008152600401610fd0906143f2565b60405180910390fd5b5b8080600101915050610ec4565b5080611028576040517f08c379a000000000000000000000000000000000000000000000000000000000815260040161101f90614232565b60405180910390fd5b600080600090505b6010805490508110156110c357866010828154811061104b57fe5b90600052602060002090600602016000015414156110b65760016010828154811061107257fe5b9060005260206000209060060201600301600082825401925050819055506010818154811061109d57fe5b90600052602060002090600602016003015491506110c3565b8080600101915050611030565b50600d60009054906101000a900473ffffffffffffffffffffffffffffffffffffffff1673ffffffffffffffffffffffffffffffffffffffff166108fc349081150290604051600060405180830381858888f1935050505015801561112c573d6000803e3d6000fd5b507f81d4cad9cb4f927b4ee31e3bd4535f9bdb3426d1b822eb1cb91059ddfa3b42b03334888489604051611164959493929190614039565b60405180910390a1505050505050565b60006111a48260405180606001604052806029815260200161478f6029913960026122e59092919063ffffffff16565b9050919050565b606060098054600181600116156101000203166002900480601f0160208091040260200160405190810160405280929190818152602001828054600181600116156101000203166002900480156112435780601f1061121857610100808354040283529160200191611243565b820191906000526020600020905b81548152906001019060200180831161122657829003601f168201915b5050505050905090565b60008073ffffffffffffffffffffffffffffffffffffffff168273ffffffffffffffffffffffffffffffffffffffff1614156112be576040517f08c379a00000000000000000000000000000000000000000000000000000000081526004016112b5906142b2565b60405180910390fd5b611305600160008473ffffffffffffffffffffffffffffffffffffffff1673ffffffffffffffffffffffffffffffffffffffff168152602001908152602001600020612304565b9050919050565b611314611eb0565b73ffffffffffffffffffffffffffffffffffffffff166113326114ec565b73ffffffffffffffffffffffffffffffffffffffff1614611388576040517f08c379a000000000000000000000000000000000000000000000000000000000815260040161137f90614352565b60405180910390fd5b600073ffffffffffffffffffffffffffffffffffffffff16600a60009054906101000a900473ffffffffffffffffffffffffffffffffffffffff1673ffffffffffffffffffffffffffffffffffffffff167f8be0079c531659141344cd1fd0a4f28419497f9722a3daafe3b4186f6b6457e060405160405180910390a36000600a60006101000a81548173ffffffffffffffffffffffffffffffffffffffff021916908373ffffffffffffffffffffffffffffffffffffffff160217905550565b6000600e600083815260200190815260200160002060020160009054906101000a900460ff166114ae576040517f08c379a00000000000000000000000000000000000000000000000000000000081526004016114a590614152565b60405180910390fd5b600e600083815260200190815260200160002060000160009054906101000a900473ffffffffffffffffffffffffffffffffffffffff169050919050565b6000600a60009054906101000a900473ffffffffffffffffffffffffffffffffffffffff16905090565b606060078054600181600116156101000203166002900480601f0160208091040260200160405190810160405280929190818152602001828054600181600116156101000203166002900480156115ae5780601f10611583576101008083540402835291602001916115ae565b820191906000526020600020905b81548152906001019060200180831161159157829003601f168201915b5050505050905090565b6115c0611eb0565b73ffffffffffffffffffffffffffffffffffffffff168273ffffffffffffffffffffffffffffffffffffffff16141561162e576040517f08c379a000000000000000000000000000000000000000000000000000000000815260040161162590614212565b60405180910390fd5b806005600061163b611eb0565b73ffffffffffffffffffffffffffffffffffffffff1673ffffffffffffffffffffffffffffffffffffffff16815260200190815260200160002060008473ffffffffffffffffffffffffffffffffffffffff1673ffffffffffffffffffffffffffffffffffffffff16815260200190815260200160002060006101000a81548160ff0219169083151502179055508173ffffffffffffffffffffffffffffffffffffffff166116e8611eb0565b73ffffffffffffffffffffffffffffffffffffffff167f17307eab39ab6107e8899845ad3d59bd9653f200f220920489ca2b5937696c318360405161172d9190614115565b60405180910390a35050565b61174a611744611eb0565b83611faa565b611789576040517f08c379a000000000000000000000000000000000000000000000000000000000815260040161178090614412565b60405180910390fd5b61179584848484612319565b50505050565b60606117a682611e93565b6117e5576040517f08c379a00000000000000000000000000000000000000000000000000000000081526004016117dc90614392565b60405180910390fd5b6060600860008481526020019081526020016000208054600181600116156101000203166002900480601f01602080910402602001604051908101604052809291908181526020018280546001816001161561010002031660029004801561188e5780601f106118635761010080835404028352916020019161188e565b820191906000526020600020905b81548152906001019060200180831161187157829003601f168201915b50505050509050606061189f6111ab565b90506000815114156118b5578192505050611919565b6000825111156118ea5780826040516020016118d2929190613fae565b60405160208183030381529060405292505050611919565b806118f485612375565b604051602001611905929190613fae565b604051602081830303815290604052925050505b919050565b6000600560008473ffffffffffffffffffffffffffffffffffffffff1673ffffffffffffffffffffffffffffffffffffffff16815260200190815260200160002060008373ffffffffffffffffffffffffffffffffffffffff1673ffffffffffffffffffffffffffffffffffffffff16815260200190815260200160002060009054906101000a900460ff16905092915050565b60606000600f60008473ffffffffffffffffffffffffffffffffffffffff1673ffffffffffffffffffffffffffffffffffffffff1681526020019081526020016000206000018054905011611a3c576040517f08c379a0000000000000000000000000000000000000000000000000000000008152600401611a33906143d2565b60405180910390fd5b600f60008373ffffffffffffffffffffffffffffffffffffffff1673ffffffffffffffffffffffffffffffffffffffff168152602001908152602001600020600001805480602002602001604051908101604052809291908181526020018280548015611ac857602002820191906000526020600020905b815481526020019060010190808311611ab4575b50505050509050919050565b6000611ade611eb0565b73ffffffffffffffffffffffffffffffffffffffff16611afc6114ec565b73ffffffffffffffffffffffffffffffffffffffff1614611b52576040517f08c379a0000000000000000000000000000000000000000000000000000000008152600401611b4990614352565b60405180910390fd5b611b5c600b611f86565b6000611b68600b611f9c565b9050611b7484826124bc565b611b7e818461264a565b60405180606001604052808573ffffffffffffffffffffffffffffffffffffffff16815260200142815260200160011515815250600e600083815260200190815260200160002060008201518160000160006101000a81548173ffffffffffffffffffffffffffffffffffffffff021916908373ffffffffffffffffffffffffffffffffffffffff1602179055506020820151816001015560408201518160020160006101000a81548160ff021916908315150217905550905050600f60008573ffffffffffffffffffffffffffffffffffffffff1673ffffffffffffffffffffffffffffffffffffffff1681526020019081526020016000206000018190806001815401808255809150506001900390600052602060002001600090919091909150557fdf92894dc4675a7333caa5903b69cf5d8e8ec0d3f361c88207b6688e525703bb848285604051611cd593929190614093565b60405180910390a18091505092915050565b611cef611eb0565b73ffffffffffffffffffffffffffffffffffffffff16611d0d6114ec565b73ffffffffffffffffffffffffffffffffffffffff1614611d63576040517f08c379a0000000000000000000000000000000000000000000000000000000008152600401611d5a90614352565b60405180910390fd5b600073ffffffffffffffffffffffffffffffffffffffff168173ffffffffffffffffffffffffffffffffffffffff161415611dd3576040517f08c379a0000000000000000000000000000000000000000000000000000000008152600401611dca906141b2565b60405180910390fd5b8073ffffffffffffffffffffffffffffffffffffffff16600a60009054906101000a900473ffffffffffffffffffffffffffffffffffffffff1673ffffffffffffffffffffffffffffffffffffffff167f8be0079c531659141344cd1fd0a4f28419497f9722a3daafe3b4186f6b6457e060405160405180910390a380600a60006101000a81548173ffffffffffffffffffffffffffffffffffffffff021916908373ffffffffffffffffffffffffffffffffffffffff16021790555050565b6000611ea98260026126be90919063ffffffff16565b9050919050565b600033905090565b816004600083815260200190815260200160002060006101000a81548173ffffffffffffffffffffffffffffffffffffffff021916908373ffffffffffffffffffffffffffffffffffffffff160217905550808273ffffffffffffffffffffffffffffffffffffffff16611f2b83611174565b73ffffffffffffffffffffffffffffffffffffffff167f8c5be1e5ebec7d5bd14f71427d1e84f3dd0314c0f7b2291e5b200ac8c7c3b92560405160405180910390a45050565b6000611f7f826000016126d8565b9050919050565b6001816000016000828254019250508190555050565b600081600001549050919050565b6000611fb582611e93565b611ff4576040517f08c379a0000000000000000000000000000000000000000000000000000000008152600401611feb90614272565b60405180910390fd5b6000611fff83611174565b90508073ffffffffffffffffffffffffffffffffffffffff168473ffffffffffffffffffffffffffffffffffffffff16148061206e57508373ffffffffffffffffffffffffffffffffffffffff16612056846107ee565b73ffffffffffffffffffffffffffffffffffffffff16145b8061207f575061207e818561191e565b5b91505092915050565b8273ffffffffffffffffffffffffffffffffffffffff166120a882611174565b73ffffffffffffffffffffffffffffffffffffffff16146120fe576040517f08c379a00000000000000000000000000000000000000000000000000000000081526004016120f590614372565b60405180910390fd5b600073ffffffffffffffffffffffffffffffffffffffff168273ffffffffffffffffffffffffffffffffffffffff16141561216e576040517f08c379a0000000000000000000000000000000000000000000000000000000008152600401612165906141f2565b60405180910390fd5b6121798383836126e9565b612184600082611eb8565b6121d581600160008673ffffffffffffffffffffffffffffffffffffffff1673ffffffffffffffffffffffffffffffffffffffff1681526020019081526020016000206126ee90919063ffffffff16565b5061222781600160008573ffffffffffffffffffffffffffffffffffffffff1673ffffffffffffffffffffffffffffffffffffffff16815260200190815260200160002061270890919063ffffffff16565b5061223e818360026127229092919063ffffffff16565b50808273ffffffffffffffffffffffffffffffffffffffff168473ffffffffffffffffffffffffffffffffffffffff167fddf252ad1be2c89b69c2b068fc378daa952ba7f163c4a11628f55a4df523b3ef60405160405180910390a4505050565b60006122ae8360000183612757565b60001c905092915050565b6000806000806122cc86600001866127c4565b915091508160001c8160001c9350935050509250929050565b60006122f8846000018460001b84612847565b60001c90509392505050565b6000612312826000016128d8565b9050919050565b612324848484612088565b612330848484846128e9565b61236f576040517f08c379a000000000000000000000000000000000000000000000000000000000815260040161236690614192565b60405180910390fd5b50505050565b606060008214156123bd576040518060400160405280600181526020017f300000000000000000000000000000000000000000000000000000000000000081525090506124b7565b600082905060005b600082146123e7578080600101915050600a82816123df57fe5b0491506123c5565b60608167ffffffffffffffff8111801561240057600080fd5b506040519080825280601f01601f1916602001820160405280156124335781602001600182028036833780820191505090505b50905060006001830390508593505b600084146124af57600a848161245457fe5b0660300160f81b8282806001900393508151811061246e57fe5b60200101907effffffffffffffffffffffffffffffffffffffffffffffffffffffffffffff1916908160001a905350600a84816124a757fe5b049350612442565b819450505050505b919050565b600073ffffffffffffffffffffffffffffffffffffffff168273ffffffffffffffffffffffffffffffffffffffff16141561252c576040517f08c379a0000000000000000000000000000000000000000000000000000000008152600401612523906142f2565b60405180910390fd5b61253581611e93565b15612575576040517f08c379a000000000000000000000000000000000000000000000000000000000815260040161256c906141d2565b60405180910390fd5b612581600083836126e9565b6125d281600160008573ffffffffffffffffffffffffffffffffffffffff1673ffffffffffffffffffffffffffffffffffffffff16815260200190815260200160002061270890919063ffffffff16565b506125e9818360026127229092919063ffffffff16565b50808273ffffffffffffffffffffffffffffffffffffffff16600073ffffffffffffffffffffffffffffffffffffffff167fddf252ad1be2c89b69c2b068fc378daa952ba7f163c4a11628f55a4df523b3ef60405160405180910390a45050565b61265382611e93565b612692576040517f08c379a000000000000000000000000000000000000000000000000000000000815260040161268990614332565b60405180910390fd5b806008600084815260200190815260200160002090805190602001906126b9929190612e6e565b505050565b60006126d0836000018360001b612a4d565b905092915050565b600081600001805490509050919050565b505050565b6000612700836000018360001b612a70565b905092915050565b600061271a836000018360001b612b58565b905092915050565b600061274e846000018460001b8473ffffffffffffffffffffffffffffffffffffffff1660001b612bc8565b90509392505050565b6000818360000180549050116127a2576040517f08c379a000000000000000000000000000000000000000000000000000000000815260040161279990614172565b60405180910390fd5b8260000182815481106127b157fe5b9060005260206000200154905092915050565b60008082846000018054905011612810576040517f08c379a0000000000000000000000000000000000000000000000000000000008152600401612807906142d2565b60405180910390fd5b600084600001848154811061282157fe5b906000526020600020906002020190508060000154816001015492509250509250929050565b600080846001016000858152602001908152602001600020549050600081141583906128a9576040517f08c379a00000000000000000000000000000000000000000000000000000000081526004016128a09190614130565b60405180910390fd5b508460000160018203815481106128bc57fe5b9060005260206000209060020201600101549150509392505050565b600081600001805490509050919050565b600061290a8473ffffffffffffffffffffffffffffffffffffffff16612ca4565b6129175760019050612a45565b60606129de63150b7a0260e01b61292c611eb0565b8887876040516024016129429493929190613fed565b604051602081830303815290604052907bffffffffffffffffffffffffffffffffffffffffffffffffffffffff19166020820180517bffffffffffffffffffffffffffffffffffffffffffffffffffffffff838183161783525050505060405180606001604052806032815260200161475d603291398773ffffffffffffffffffffffffffffffffffffffff16612cb79092919063ffffffff16565b90506000818060200190518101906129f69190613240565b905063150b7a0260e01b7bffffffffffffffffffffffffffffffffffffffffffffffffffffffff1916817bffffffffffffffffffffffffffffffffffffffffffffffffffffffff191614925050505b949350505050565b600080836001016000848152602001908152602001600020541415905092915050565b60008083600101600084815260200190815260200160002054905060008114612b4c5760006001820390506000600186600001805490500390506000866000018281548110612abb57fe5b9060005260206000200154905080876000018481548110612ad857fe5b9060005260206000200181905550600183018760010160008381526020019081526020016000208190555086600001805480612b1057fe5b60019003818190600052602060002001600090559055866001016000878152602001908152602001600020600090556001945050505050612b52565b60009150505b92915050565b6000612b648383612ccf565b612bbd578260000182908060018154018082558091505060019003906000526020600020016000909190919091505582600001805490508360010160008481526020019081526020016000208190555060019050612bc2565b600090505b92915050565b6000808460010160008581526020019081526020016000205490506000811415612c6f57846000016040518060400160405280868152602001858152509080600181540180825580915050600190039060005260206000209060020201600090919091909150600082015181600001556020820151816001015550508460000180549050856001016000868152602001908152602001600020819055506001915050612c9d565b82856000016001830381548110612c8257fe5b90600052602060002090600202016001018190555060009150505b9392505050565b600080823b905060008111915050919050565b6060612cc68484600085612cf2565b90509392505050565b600080836001016000848152602001908152602001600020541415905092915050565b606082471015612d37576040517f08c379a0000000000000000000000000000000000000000000000000000000008152600401612d2e90614252565b60405180910390fd5b612d4085612ca4565b612d7f576040517f08c379a0000000000000000000000000000000000000000000000000000000008152600401612d7690614432565b60405180910390fd5b600060608673ffffffffffffffffffffffffffffffffffffffff168587604051612da99190613f97565b60006040518083038185875af1925050503d8060008114612de6576040519150601f19603f3d011682016040523d82523d6000602084013e612deb565b606091505b5091509150612dfb828286612e07565b92505050949350505050565b60608315612e1757829050612e67565b600083511115612e2a5782518084602001fd5b816040517f08c379a0000000000000000000000000000000000000000000000000000000008152600401612e5e9190614130565b60405180910390fd5b9392505050565b828054600181600116156101000203166002900490600052602060002090601f016020900481019282601f10612eaf57805160ff1916838001178555612edd565b82800160010185558215612edd579182015b82811115612edc578251825591602001919060010190612ec1565b5b509050612eea9190612eee565b5090565b5b80821115612f07576000816000905550600101612eef565b5090565b600081359050612f1a81614700565b92915050565b600081359050612f2f81614717565b92915050565b600081359050612f448161472e565b92915050565b600081519050612f598161472e565b92915050565b600082601f830112612f7057600080fd5b8135612f83612f7e826144be565b61448d565b91508082526020830160208301858383011115612f9f57600080fd5b612faa8382846146ab565b50505092915050565b600082601f830112612fc457600080fd5b8135612fd7612fd2826144ee565b61448d565b91508082526020830160208301858383011115612ff357600080fd5b612ffe8382846146ab565b50505092915050565b60008135905061301681614745565b92915050565b60006020828403121561302e57600080fd5b600061303c84828501612f0b565b91505092915050565b6000806040838503121561305857600080fd5b600061306685828601612f0b565b925050602061307785828601612f0b565b9150509250929050565b60008060006060848603121561309657600080fd5b60006130a486828701612f0b565b93505060206130b586828701612f0b565b92505060406130c686828701613007565b9150509250925092565b600080600080608085870312156130e657600080fd5b60006130f487828801612f0b565b945050602061310587828801612f0b565b935050604061311687828801613007565b925050606085013567ffffffffffffffff81111561313357600080fd5b61313f87828801612f5f565b91505092959194509250565b6000806040838503121561315e57600080fd5b600061316c85828601612f0b565b925050602061317d85828601612f20565b9150509250929050565b6000806040838503121561319a57600080fd5b60006131a885828601612f0b565b925050602083013567ffffffffffffffff8111156131c557600080fd5b6131d185828601612fb3565b9150509250929050565b600080604083850312156131ee57600080fd5b60006131fc85828601612f0b565b925050602061320d85828601613007565b9150509250929050565b60006020828403121561322957600080fd5b600061323784828501612f35565b91505092915050565b60006020828403121561325257600080fd5b600061326084828501612f4a565b91505092915050565b6000806000806080858703121561327f57600080fd5b600085013567ffffffffffffffff81111561329957600080fd5b6132a587828801612fb3565b945050602085013567ffffffffffffffff8111156132c257600080fd5b6132ce87828801612fb3565b93505060406132df87828801613007565b92505060606132f087828801613007565b91505092959194509250565b60006020828403121561330e57600080fd5b600061331c84828501613007565b91505092915050565b6000806040838503121561333857600080fd5b600061334685828601613007565b925050602083013567ffffffffffffffff81111561336357600080fd5b61336f85828601612fb3565b9150509250929050565b6000806040838503121561338c57600080fd5b600061339a85828601613007565b92505060206133ab85828601613007565b9150509250929050565b60006133c18383613ee9565b905092915050565b60006133d58383613f79565b60208301905092915050565b6133ea81614675565b82525050565b6133f981614601565b82525050565b613408816145ef565b82525050565b60006134198261453e565b6134238185614584565b9350836020820285016134358561451e565b8060005b85811015613471578484038952815161345285826133b5565b945061345d8361456a565b925060208a01995050600181019050613439565b50829750879550505050505092915050565b600061348e82614549565b6134988185614595565b93506134a38361452e565b8060005b838110156134d45781516134bb88826133c9565b97506134c683614577565b9250506001810190506134a7565b5085935050505092915050565b6134ea81614613565b82525050565b60006134fb82614554565b61350581856145a6565b93506135158185602086016146ba565b61351e816146ef565b840191505092915050565b600061353482614554565b61353e81856145b7565b935061354e8185602086016146ba565b80840191505092915050565b60006135658261455f565b61356f81856145c2565b935061357f8185602086016146ba565b613588816146ef565b840191505092915050565b600061359e8261455f565b6135a881856145d3565b93506135b88185602086016146ba565b6135c1816146ef565b840191505092915050565b60006135d78261455f565b6135e181856145e4565b93506135f18185602086016146ba565b80840191505092915050565b600061360a6013836145d3565b91507f546f6b656e20646f65736e2774206578697374000000000000000000000000006000830152602082019050919050565b600061364a6022836145d3565b91507f456e756d657261626c655365743a20696e646578206f7574206f6620626f756e60008301527f64730000000000000000000000000000000000000000000000000000000000006020830152604082019050919050565b60006136b06032836145d3565b91507f4552433732313a207472616e7366657220746f206e6f6e20455243373231526560008301527f63656976657220696d706c656d656e74657200000000000000000000000000006020830152604082019050919050565b60006137166026836145d3565b91507f4f776e61626c653a206e6577206f776e657220697320746865207a65726f206160008301527f64647265737300000000000000000000000000000000000000000000000000006020830152604082019050919050565b600061377c601c836145d3565b91507f4552433732313a20746f6b656e20616c7265616479206d696e746564000000006000830152602082019050919050565b60006137bc6024836145d3565b91507f4552433732313a207472616e7366657220746f20746865207a65726f2061646460008301527f72657373000000000000000000000000000000000000000000000000000000006020830152604082019050919050565b60006138226019836145d3565b91507f4552433732313a20617070726f766520746f2063616c6c6572000000000000006000830152602082019050919050565b60006138626026836145d3565b91507f526571756573746564207472616e73666f726d6174696f6e20646f65736e277460008301527f20657869737400000000000000000000000000000000000000000000000000006020830152604082019050919050565b60006138c86026836145d3565b91507f416464726573733a20696e73756666696369656e742062616c616e636520666f60008301527f722063616c6c00000000000000000000000000000000000000000000000000006020830152604082019050919050565b600061392e602c836145d3565b91507f4552433732313a206f70657261746f7220717565727920666f72206e6f6e657860008301527f697374656e7420746f6b656e00000000000000000000000000000000000000006020830152604082019050919050565b60006139946038836145d3565b91507f4552433732313a20617070726f76652063616c6c6572206973206e6f74206f7760008301527f6e6572206e6f7220617070726f76656420666f7220616c6c00000000000000006020830152604082019050919050565b60006139fa602a836145d3565b91507f4552433732313a2062616c616e636520717565727920666f7220746865207a6560008301527f726f2061646472657373000000000000000000000000000000000000000000006020830152604082019050919050565b6000613a606022836145d3565b91507f456e756d657261626c654d61703a20696e646578206f7574206f6620626f756e60008301527f64730000000000000000000000000000000000000000000000000000000000006020830152604082019050919050565b6000613ac66020836145d3565b91507f4552433732313a206d696e7420746f20746865207a65726f20616464726573736000830152602082019050919050565b6000613b06602c836145d3565b91507f4552433732313a20617070726f76656420717565727920666f72206e6f6e657860008301527f697374656e7420746f6b656e00000000000000000000000000000000000000006020830152604082019050919050565b6000613b6c602c836145d3565b91507f4552433732314d657461646174613a2055524920736574206f66206e6f6e657860008301527f697374656e7420746f6b656e00000000000000000000000000000000000000006020830152604082019050919050565b6000613bd26020836145d3565b91507f4f776e61626c653a2063616c6c6572206973206e6f7420746865206f776e65726000830152602082019050919050565b6000613c126029836145d3565b91507f4552433732313a207472616e73666572206f6620746f6b656e2074686174206960008301527f73206e6f74206f776e00000000000000000000000000000000000000000000006020830152604082019050919050565b6000613c78602f836145d3565b91507f4552433732314d657461646174613a2055524920717565727920666f72206e6f60008301527f6e6578697374656e7420746f6b656e00000000000000000000000000000000006020830152604082019050919050565b6000613cde6021836145d3565b91507f4552433732313a20617070726f76616c20746f2063757272656e74206f776e6560008301527f72000000000000000000000000000000000000000000000000000000000000006020830152604082019050919050565b6000613d44601c836145d3565b91507f5573657220686173206e6f2067656e65726174656420746f6b656e73000000006000830152602082019050919050565b6000613d846022836145d3565b91507f5472616e73666f726d6174696f6e20737570706c79206973206578686175737460008301527f65640000000000000000000000000000000000000000000000000000000000006020830152604082019050919050565b6000613dea6031836145d3565b91507f4552433732313a207472616e736665722063616c6c6572206973206e6f74206f60008301527f776e6572206e6f7220617070726f7665640000000000000000000000000000006020830152604082019050919050565b6000613e50601d836145d3565b91507f416464726573733a2063616c6c20746f206e6f6e2d636f6e74726163740000006000830152602082019050919050565b6000613e906031836145d3565b91507f5472616e73616374696f6e2076616c7565206d757374206d617463682074726160008301527f6e73666f726d6174696f6e2070726963650000000000000000000000000000006020830152604082019050919050565b600060c083016000830151613f016000860182613f79565b506020830151613f146020860182613f79565b506040830151613f276040860182613f79565b506060830151613f3a6060860182613f79565b5060808301518482036080860152613f52828261355a565b91505060a083015184820360a0860152613f6c828261355a565b9150508091505092915050565b613f828161466b565b82525050565b613f918161466b565b82525050565b6000613fa38284613529565b915081905092915050565b6000613fba82856135cc565b9150613fc682846135cc565b91508190509392505050565b6000602082019050613fe760008301846133ff565b92915050565b600060808201905061400260008301876133f0565b61400f60208301866133ff565b61401c6040830185613f88565b818103606083015261402e81846134f0565b905095945050505050565b600060a08201905061404e60008301886133e1565b61405b6020830187613f88565b6140686040830186613f88565b6140756060830185613f88565b81810360808301526140878184613593565b90509695505050505050565b60006060820190506140a860008301866133ff565b6140b56020830185613f88565b81810360408301526140c78184613593565b9050949350505050565b600060208201905081810360008301526140eb818461340e565b905092915050565b6000602082019050818103600083015261410d8184613483565b905092915050565b600060208201905061412a60008301846134e1565b92915050565b6000602082019050818103600083015261414a8184613593565b905092915050565b6000602082019050818103600083015261416b816135fd565b9050919050565b6000602082019050818103600083015261418b8161363d565b9050919050565b600060208201905081810360008301526141ab816136a3565b9050919050565b600060208201905081810360008301526141cb81613709565b9050919050565b600060208201905081810360008301526141eb8161376f565b9050919050565b6000602082019050818103600083015261420b816137af565b9050919050565b6000602082019050818103600083015261422b81613815565b9050919050565b6000602082019050818103600083015261424b81613855565b9050919050565b6000602082019050818103600083015261426b816138bb565b9050919050565b6000602082019050818103600083015261428b81613921565b9050919050565b600060208201905081810360008301526142ab81613987565b9050919050565b600060208201905081810360008301526142cb816139ed565b9050919050565b600060208201905081810360008301526142eb81613a53565b9050919050565b6000602082019050818103600083015261430b81613ab9565b9050919050565b6000602082019050818103600083015261432b81613af9565b9050919050565b6000602082019050818103600083015261434b81613b5f565b9050919050565b6000602082019050818103600083015261436b81613bc5565b9050919050565b6000602082019050818103600083015261438b81613c05565b9050919050565b600060208201905081810360008301526143ab81613c6b565b9050919050565b600060208201905081810360008301526143cb81613cd1565b9050919050565b600060208201905081810360008301526143eb81613d37565b9050919050565b6000602082019050818103600083015261440b81613d77565b9050919050565b6000602082019050818103600083015261442b81613ddd565b9050919050565b6000602082019050818103600083015261444b81613e43565b9050919050565b6000602082019050818103600083015261446b81613e83565b9050919050565b60006020820190506144876000830184613f88565b92915050565b6000604051905081810181811067ffffffffffffffff821117156144b4576144b36146ed565b5b8060405250919050565b600067ffffffffffffffff8211156144d9576144d86146ed565b5b601f19601f8301169050602081019050919050565b600067ffffffffffffffff821115614509576145086146ed565b5b601f19601f8301169050602081019050919050565b6000819050602082019050919050565b6000819050602082019050919050565b600081519050919050565b600081519050919050565b600081519050919050565b600081519050919050565b6000602082019050919050565b6000602082019050919050565b600082825260208201905092915050565b600082825260208201905092915050565b600082825260208201905092915050565b600081905092915050565b600082825260208201905092915050565b600082825260208201905092915050565b600081905092915050565b60006145fa8261464b565b9050919050565b600061460c8261464b565b9050919050565b60008115159050919050565b60007fffffffff0000000000000000000000000000000000000000000000000000000082169050919050565b600073ffffffffffffffffffffffffffffffffffffffff82169050919050565b6000819050919050565b600061468082614687565b9050919050565b600061469282614699565b9050919050565b60006146a48261464b565b9050919050565b82818337600083830152505050565b60005b838110156146d85780820151818401526020810190506146bd565b838111156146e7576000848401525b50505050565bfe5b6000601f19601f8301169050919050565b614709816145ef565b811461471457600080fd5b50565b61472081614613565b811461472b57600080fd5b50565b6147378161461f565b811461474257600080fd5b50565b61474e8161466b565b811461475957600080fd5b5056fe4552433732313a207472616e7366657220746f206e6f6e20455243373231526563656976657220696d706c656d656e7465724552433732313a206f776e657220717565727920666f72206e6f6e6578697374656e7420746f6b656ea26469706673582212203af4860c49c47f28164368a450feffa00a1d5e6b710de578a5b3380e5f132a4f64736f6c63430007030033",
  "linkReferences": {},
  "deployedLinkReferences": {}
}