{
  "_format": "hh-sol-artifact-1",
  "contractName": "StyleNFT",
  "sourceName": "contracts/StyleNFT.sol",
  "abi": [
    {
      "inputs": [],
      "stateMutability": "nonpayable",
      "type": "constructor"
    },
    {
      "anonymous": false,
      "inputs": [
        {
          "indexed": true,
          "internalType": "address",
          "name": "owner",
          "type": "address"
        },
        {
          "indexed": true,
          "internalType": "address",
          "name": "approved",
          "type": "address"
        },
        {
          "indexed": true,
          "internalType": "uint256",
          "name": "tokenId",
          "type": "uint256"
        }
      ],
      "name": "Approval",
      "type": "event"
    },
    {
      "anonymous": false,
      "inputs": [
        {
          "indexed": true,
          "internalType": "address",
          "name": "owner",
          "type": "address"
        },
        {
          "indexed": true,
          "internalType": "address",
          "name": "operator",
          "type": "address"
        },
        {
          "indexed": false,
          "internalType": "bool",
          "name": "approved",
          "type": "bool"
        }
      ],
      "name": "ApprovalForAll",
      "type": "event"
    },
    {
      "anonymous": false,
      "inputs": [
        {
          "indexed": false,
          "internalType": "address",
          "name": "sender",
          "type": "address"
        },
        {
          "indexed": false,
          "internalType": "uint256",
          "name": "value",
          "type": "uint256"
        },
        {
          "indexed": false,
          "internalType": "string",
          "name": "imageURL",
          "type": "string"
        }
      ],
      "name": "ImageGenerationPaid",
      "type": "event"
    },
    {
      "anonymous": false,
      "inputs": [
        {
          "indexed": false,
          "internalType": "address",
          "name": "sender",
          "type": "address"
        },
        {
          "indexed": false,
          "internalType": "uint256",
          "name": "value",
          "type": "uint256"
        },
        {
          "indexed": false,
          "internalType": "uint256",
          "name": "tokenId",
          "type": "uint256"
        }
      ],
      "name": "ImagePaid",
      "type": "event"
    },
    {
      "anonymous": false,
      "inputs": [
        {
          "indexed": true,
          "internalType": "address",
          "name": "previousOwner",
          "type": "address"
        },
        {
          "indexed": true,
          "internalType": "address",
          "name": "newOwner",
          "type": "address"
        }
      ],
      "name": "OwnershipTransferred",
      "type": "event"
    },
    {
      "anonymous": false,
      "inputs": [
        {
          "indexed": false,
          "internalType": "address",
          "name": "recipient",
          "type": "address"
        },
        {
          "indexed": false,
          "internalType": "address",
          "name": "payer",
          "type": "address"
        },
        {
          "indexed": false,
          "internalType": "uint256",
          "name": "tokenId",
          "type": "uint256"
        },
        {
          "indexed": false,
          "internalType": "string",
          "name": "tokenURI",
          "type": "string"
        },
        {
          "indexed": false,
          "internalType": "uint256",
          "name": "price",
          "type": "uint256"
        }
      ],
      "name": "TokenMinted",
      "type": "event"
    },
    {
      "anonymous": false,
      "inputs": [
        {
          "indexed": false,
          "internalType": "address",
          "name": "sender",
          "type": "address"
        },
        {
          "indexed": false,
          "internalType": "address",
          "name": "recipient",
          "type": "address"
        },
        {
          "indexed": false,
          "internalType": "uint256",
          "name": "tokenId",
          "type": "uint256"
        }
      ],
      "name": "TokenTransfered",
      "type": "event"
    },
    {
      "anonymous": false,
      "inputs": [
        {
          "indexed": true,
          "internalType": "address",
          "name": "from",
          "type": "address"
        },
        {
          "indexed": true,
          "internalType": "address",
          "name": "to",
          "type": "address"
        },
        {
          "indexed": true,
          "internalType": "uint256",
          "name": "tokenId",
          "type": "uint256"
        }
      ],
      "name": "Transfer",
      "type": "event"
    },
    {
      "inputs": [
        {
          "internalType": "address",
          "name": "to",
          "type": "address"
        },
        {
          "internalType": "uint256",
          "name": "tokenId",
          "type": "uint256"
        }
      ],
      "name": "approve",
      "outputs": [],
      "stateMutability": "nonpayable",
      "type": "function"
    },
    {
      "inputs": [
        {
          "internalType": "address",
          "name": "owner",
          "type": "address"
        }
      ],
      "name": "balanceOf",
      "outputs": [
        {
          "internalType": "uint256",
          "name": "",
          "type": "uint256"
        }
      ],
      "stateMutability": "view",
      "type": "function"
    },
    {
      "inputs": [],
      "name": "baseURI",
      "outputs": [
        {
          "internalType": "string",
          "name": "",
          "type": "string"
        }
      ],
      "stateMutability": "view",
      "type": "function"
    },
    {
      "inputs": [
        {
          "internalType": "uint256",
          "name": "tokenId",
          "type": "uint256"
        }
      ],
      "name": "getApproved",
      "outputs": [
        {
          "internalType": "address",
          "name": "",
          "type": "address"
        }
      ],
      "stateMutability": "view",
      "type": "function"
    },
    {
      "inputs": [
        {
          "internalType": "address",
          "name": "owner",
          "type": "address"
        },
        {
          "internalType": "address",
          "name": "operator",
          "type": "address"
        }
      ],
      "name": "isApprovedForAll",
      "outputs": [
        {
          "internalType": "bool",
          "name": "",
          "type": "bool"
        }
      ],
      "stateMutability": "view",
      "type": "function"
    },
    {
      "inputs": [
        {
          "internalType": "address",
          "name": "recipient",
          "type": "address"
        },
        {
          "internalType": "address",
          "name": "payer",
          "type": "address"
        },
        {
          "internalType": "string",
          "name": "tokenURI",
          "type": "string"
        },
        {
          "internalType": "uint256",
          "name": "price",
          "type": "uint256"
        }
      ],
      "name": "mintNFT",
      "outputs": [
        {
          "internalType": "uint256",
          "name": "",
          "type": "uint256"
        }
      ],
      "stateMutability": "nonpayable",
      "type": "function"
    },
    {
      "inputs": [],
      "name": "name",
      "outputs": [
        {
          "internalType": "string",
          "name": "",
          "type": "string"
        }
      ],
      "stateMutability": "view",
      "type": "function"
    },
    {
      "inputs": [],
      "name": "owner",
      "outputs": [
        {
          "internalType": "address",
          "name": "",
          "type": "address"
        }
      ],
      "stateMutability": "view",
      "type": "function"
    },
    {
      "inputs": [
        {
          "internalType": "uint256",
          "name": "tokenId",
          "type": "uint256"
        }
      ],
      "name": "ownerOf",
      "outputs": [
        {
          "internalType": "address",
          "name": "",
          "type": "address"
        }
      ],
      "stateMutability": "view",
      "type": "function"
    },
    {
      "inputs": [
        {
          "internalType": "string",
          "name": "imageUrl",
          "type": "string"
        }
      ],
      "name": "payGenerating",
      "outputs": [],
      "stateMutability": "payable",
      "type": "function"
    },
    {
      "inputs": [
        {
          "internalType": "uint256",
          "name": "tokenId",
          "type": "uint256"
        }
      ],
      "name": "payImage",
      "outputs": [],
      "stateMutability": "payable",
      "type": "function"
    },
    {
      "inputs": [
        {
          "internalType": "uint256",
          "name": "tokenId",
          "type": "uint256"
        }
      ],
      "name": "payerOf",
      "outputs": [
        {
          "internalType": "address",
          "name": "",
          "type": "address"
        }
      ],
      "stateMutability": "view",
      "type": "function"
    },
    {
      "inputs": [
        {
          "internalType": "uint256",
          "name": "",
          "type": "uint256"
        }
      ],
      "name": "payers",
      "outputs": [
        {
          "internalType": "address",
          "name": "payer",
          "type": "address"
        },
        {
          "internalType": "uint256",
          "name": "time",
          "type": "uint256"
        },
        {
          "internalType": "bool",
          "name": "exists",
          "type": "bool"
        },
        {
          "internalType": "uint256",
          "name": "price",
          "type": "uint256"
        }
      ],
      "stateMutability": "view",
      "type": "function"
    },
    {
      "inputs": [],
      "name": "renounceOwnership",
      "outputs": [],
      "stateMutability": "nonpayable",
      "type": "function"
    },
    {
      "inputs": [
        {
          "internalType": "address",
          "name": "from",
          "type": "address"
        },
        {
          "internalType": "address",
          "name": "to",
          "type": "address"
        },
        {
          "internalType": "uint256",
          "name": "tokenId",
          "type": "uint256"
        }
      ],
      "name": "safeTransferFrom",
      "outputs": [],
      "stateMutability": "nonpayable",
      "type": "function"
    },
    {
      "inputs": [
        {
          "internalType": "address",
          "name": "from",
          "type": "address"
        },
        {
          "internalType": "address",
          "name": "to",
          "type": "address"
        },
        {
          "internalType": "uint256",
          "name": "tokenId",
          "type": "uint256"
        },
        {
          "internalType": "bytes",
          "name": "_data",
          "type": "bytes"
        }
      ],
      "name": "safeTransferFrom",
      "outputs": [],
      "stateMutability": "nonpayable",
      "type": "function"
    },
    {
      "inputs": [
        {
          "internalType": "address",
          "name": "operator",
          "type": "address"
        },
        {
          "internalType": "bool",
          "name": "approved",
          "type": "bool"
        }
      ],
      "name": "setApprovalForAll",
      "outputs": [],
      "stateMutability": "nonpayable",
      "type": "function"
    },
    {
      "inputs": [
        {
          "internalType": "bytes4",
          "name": "interfaceId",
          "type": "bytes4"
        }
      ],
      "name": "supportsInterface",
      "outputs": [
        {
          "internalType": "bool",
          "name": "",
          "type": "bool"
        }
      ],
      "stateMutability": "view",
      "type": "function"
    },
    {
      "inputs": [],
      "name": "symbol",
      "outputs": [
        {
          "internalType": "string",
          "name": "",
          "type": "string"
        }
      ],
      "stateMutability": "view",
      "type": "function"
    },
    {
      "inputs": [
        {
          "internalType": "uint256",
          "name": "index",
          "type": "uint256"
        }
      ],
      "name": "tokenByIndex",
      "outputs": [
        {
          "internalType": "uint256",
          "name": "",
          "type": "uint256"
        }
      ],
      "stateMutability": "view",
      "type": "function"
    },
    {
      "inputs": [
        {
          "internalType": "address",
          "name": "owner",
          "type": "address"
        },
        {
          "internalType": "uint256",
          "name": "index",
          "type": "uint256"
        }
      ],
      "name": "tokenOfOwnerByIndex",
      "outputs": [
        {
          "internalType": "uint256",
          "name": "",
          "type": "uint256"
        }
      ],
      "stateMutability": "view",
      "type": "function"
    },
    {
      "inputs": [
        {
          "internalType": "uint256",
          "name": "tokenId",
          "type": "uint256"
        }
      ],
      "name": "tokenURI",
      "outputs": [
        {
          "internalType": "string",
          "name": "",
          "type": "string"
        }
      ],
      "stateMutability": "view",
      "type": "function"
    },
    {
      "inputs": [],
      "name": "totalSupply",
      "outputs": [
        {
          "internalType": "uint256",
          "name": "",
          "type": "uint256"
        }
      ],
      "stateMutability": "view",
      "type": "function"
    },
    {
      "inputs": [
        {
          "internalType": "address",
          "name": "from",
          "type": "address"
        },
        {
          "internalType": "address",
          "name": "to",
          "type": "address"
        },
        {
          "internalType": "uint256",
          "name": "tokenId",
          "type": "uint256"
        }
      ],
      "name": "transferFrom",
      "outputs": [],
      "stateMutability": "nonpayable",
      "type": "function"
    },
    {
      "inputs": [
        {
          "internalType": "address",
          "name": "newOwner",
          "type": "address"
        }
      ],
      "name": "transferOwnership",
      "outputs": [],
      "stateMutability": "nonpayable",
      "type": "function"
    }
  ],
  "bytecode": "0x60806040523480156200001157600080fd5b506040518060400160405280600481526020017f4e465432000000000000000000000000000000000000000000000000000000008152506040518060400160405280600481526020017f4e46543200000000000000000000000000000000000000000000000000000000815250620000966301ffc9a760e01b6200020a60201b60201c565b8160069080519060200190620000ae9291906200031b565b508060079080519060200190620000c79291906200031b565b50620000e06380ac58cd60e01b6200020a60201b60201c565b620000f8635b5e139f60e01b6200020a60201b60201c565b6200011063780e9d6360e01b6200020a60201b60201c565b50506000620001246200031360201b60201c565b905080600a60006101000a81548173ffffffffffffffffffffffffffffffffffffffff021916908373ffffffffffffffffffffffffffffffffffffffff1602179055508073ffffffffffffffffffffffffffffffffffffffff16600073ffffffffffffffffffffffffffffffffffffffff167f8be0079c531659141344cd1fd0a4f28419497f9722a3daafe3b4186f6b6457e060405160405180910390a35033600c60006101000a81548173ffffffffffffffffffffffffffffffffffffffff021916908373ffffffffffffffffffffffffffffffffffffffff160217905550620003c1565b63ffffffff60e01b817bffffffffffffffffffffffffffffffffffffffffffffffffffffffff19161415620002a7576040517f08c379a000000000000000000000000000000000000000000000000000000000815260040180806020018281038252601c8152602001807f4552433136353a20696e76616c696420696e746572666163652069640000000081525060200191505060405180910390fd5b6001600080837bffffffffffffffffffffffffffffffffffffffffffffffffffffffff19167bffffffffffffffffffffffffffffffffffffffffffffffffffffffff1916815260200190815260200160002060006101000a81548160ff02191690831515021790555050565b600033905090565b828054600181600116156101000203166002900490600052602060002090601f016020900481019282601f106200035e57805160ff19168380011785556200038f565b828001600101855582156200038f579182015b828111156200038e57825182559160200191906001019062000371565b5b5090506200039e9190620003a2565b5090565b5b80821115620003bd576000816000905550600101620003a3565b5090565b613b2280620003d16000396000f3fe6080604052600436106101665760003560e01c80636352211e116100d157806395d89b411161008a578063c19be47811610064578063c19be47814610af0578063c87b56dd14610bab578063e985e9c514610c5f578063f2fde38b14610ce657610166565b806395d89b41146108f1578063a22cb46514610981578063b88d4fde146109de57610166565b80636352211e146106da5780636c0360eb1461073f57806370a08231146107cf578063715018a6146108345780637edcf18f1461084b5780638da5cb5b146108b057610166565b80632f745c59116101235780632f745c59146103d15780633ccfbd031461044057806342842e0e146104bc5780634f6ccce7146105375780635e45d17e146105865780636031dd95146105b457610166565b806301ffc9a71461016b57806306fdde03146101db578063081812fc1461026b578063095ea7b3146102d057806318160ddd1461032b57806323b872dd14610356575b600080fd5b34801561017757600080fd5b506101c36004803603602081101561018e57600080fd5b8101908080357bffffffffffffffffffffffffffffffffffffffffffffffffffffffff19169060200190929190505050610d37565b60405180821515815260200191505060405180910390f35b3480156101e757600080fd5b506101f0610d9e565b6040518080602001828103825283818151815260200191508051906020019080838360005b83811015610230578082015181840152602081019050610215565b50505050905090810190601f16801561025d5780820380516001836020036101000a031916815260200191505b509250505060405180910390f35b34801561027757600080fd5b506102a46004803603602081101561028e57600080fd5b8101908080359060200190929190505050610e40565b604051808273ffffffffffffffffffffffffffffffffffffffff16815260200191505060405180910390f35b3480156102dc57600080fd5b50610329600480360360408110156102f357600080fd5b81019080803573ffffffffffffffffffffffffffffffffffffffff16906020019092919080359060200190929190505050610edb565b005b34801561033757600080fd5b5061034061101f565b6040518082815260200191505060405180910390f35b34801561036257600080fd5b506103cf6004803603606081101561037957600080fd5b81019080803573ffffffffffffffffffffffffffffffffffffffff169060200190929190803573ffffffffffffffffffffffffffffffffffffffff16906020019092919080359060200190929190505050611030565b005b3480156103dd57600080fd5b5061042a600480360360408110156103f457600080fd5b81019080803573ffffffffffffffffffffffffffffffffffffffff169060200190929190803590602001909291905050506110a6565b6040518082815260200191505060405180910390f35b34801561044c57600080fd5b506104796004803603602081101561046357600080fd5b8101908080359060200190929190505050611101565b604051808573ffffffffffffffffffffffffffffffffffffffff168152602001848152602001831515815260200182815260200194505050505060405180910390f35b3480156104c857600080fd5b50610535600480360360608110156104df57600080fd5b81019080803573ffffffffffffffffffffffffffffffffffffffff169060200190929190803573ffffffffffffffffffffffffffffffffffffffff1690602001909291908035906020019092919050505061115e565b005b34801561054357600080fd5b506105706004803603602081101561055a57600080fd5b810190808035906020019092919050505061117e565b6040518082815260200191505060405180910390f35b6105b26004803603602081101561059c57600080fd5b81019080803590602001909291905050506111a1565b005b3480156105c057600080fd5b506106c4600480360360808110156105d757600080fd5b81019080803573ffffffffffffffffffffffffffffffffffffffff169060200190929190803573ffffffffffffffffffffffffffffffffffffffff1690602001909291908035906020019064010000000081111561063457600080fd5b82018360208201111561064657600080fd5b8035906020019184600183028401116401000000008311171561066857600080fd5b91908080601f016020809104026020016040519081016040528093929190818152602001838380828437600081840152601f19601f820116905080830192505050505050509192919290803590602001909291905050506113de565b6040518082815260200191505060405180910390f35b3480156106e657600080fd5b50610713600480360360208110156106fd57600080fd5b8101908080359060200190929190505050611695565b604051808273ffffffffffffffffffffffffffffffffffffffff16815260200191505060405180910390f35b34801561074b57600080fd5b506107546116cc565b6040518080602001828103825283818151815260200191508051906020019080838360005b83811015610794578082015181840152602081019050610779565b50505050905090810190601f1680156107c15780820380516001836020036101000a031916815260200191505b509250505060405180910390f35b3480156107db57600080fd5b5061081e600480360360208110156107f257600080fd5b81019080803573ffffffffffffffffffffffffffffffffffffffff16906020019092919050505061176e565b6040518082815260200191505060405180910390f35b34801561084057600080fd5b50610849611843565b005b34801561085757600080fd5b506108846004803603602081101561086e57600080fd5b81019080803590602001909291905050506119ce565b604051808273ffffffffffffffffffffffffffffffffffffffff16815260200191505060405180910390f35b3480156108bc57600080fd5b506108c5611aa4565b604051808273ffffffffffffffffffffffffffffffffffffffff16815260200191505060405180910390f35b3480156108fd57600080fd5b50610906611ace565b6040518080602001828103825283818151815260200191508051906020019080838360005b8381101561094657808201518184015260208101905061092b565b50505050905090810190601f1680156109735780820380516001836020036101000a031916815260200191505b509250505060405180910390f35b34801561098d57600080fd5b506109dc600480360360408110156109a457600080fd5b81019080803573ffffffffffffffffffffffffffffffffffffffff169060200190929190803515159060200190929190505050611b70565b005b3480156109ea57600080fd5b50610aee60048036036080811015610a0157600080fd5b81019080803573ffffffffffffffffffffffffffffffffffffffff169060200190929190803573ffffffffffffffffffffffffffffffffffffffff1690602001909291908035906020019092919080359060200190640100000000811115610a6857600080fd5b820183602082011115610a7a57600080fd5b80359060200191846001830284011164010000000083111715610a9c57600080fd5b91908080601f016020809104026020016040519081016040528093929190818152602001838380828437600081840152601f19601f820116905080830192505050505050509192919290505050611d26565b005b610ba960048036036020811015610b0657600080fd5b8101908080359060200190640100000000811115610b2357600080fd5b820183602082011115610b3557600080fd5b80359060200191846001830284011164010000000083111715610b5757600080fd5b91908080601f016020809104026020016040519081016040528093929190818152602001838380828437600081840152601f19601f820116905080830192505050505050509192919290505050611d9e565b005b348015610bb757600080fd5b50610be460048036036020811015610bce57600080fd5b8101908080359060200190929190505050611f2c565b6040518080602001828103825283818151815260200191508051906020019080838360005b83811015610c24578082015181840152602081019050610c09565b50505050905090810190601f168015610c515780820380516001836020036101000a031916815260200191505b509250505060405180910390f35b348015610c6b57600080fd5b50610cce60048036036040811015610c8257600080fd5b81019080803573ffffffffffffffffffffffffffffffffffffffff169060200190929190803573ffffffffffffffffffffffffffffffffffffffff169060200190929190505050612215565b60405180821515815260200191505060405180910390f35b348015610cf257600080fd5b50610d3560048036036020811015610d0957600080fd5b81019080803573ffffffffffffffffffffffffffffffffffffffff1690602001909291905050506122a9565b005b6000806000837bffffffffffffffffffffffffffffffffffffffffffffffffffffffff19167bffffffffffffffffffffffffffffffffffffffffffffffffffffffff1916815260200190815260200160002060009054906101000a900460ff169050919050565b606060068054600181600116156101000203166002900480601f016020809104026020016040519081016040528092919081815260200182805460018160011615610100020316600290048015610e365780601f10610e0b57610100808354040283529160200191610e36565b820191906000526020600020905b815481529060010190602001808311610e1957829003601f168201915b5050505050905090565b6000610e4b826124b9565b610ea0576040517f08c379a000000000000000000000000000000000000000000000000000000000815260040180806020018281038252602c8152602001806139eb602c913960400191505060405180910390fd5b6004600083815260200190815260200160002060009054906101000a900473ffffffffffffffffffffffffffffffffffffffff169050919050565b6000610ee682611695565b90508073ffffffffffffffffffffffffffffffffffffffff168373ffffffffffffffffffffffffffffffffffffffff161415610f6d576040517f08c379a0000000000000000000000000000000000000000000000000000000008152600401808060200182810382526021815260200180613a9b6021913960400191505060405180910390fd5b8073ffffffffffffffffffffffffffffffffffffffff16610f8c6124d6565b73ffffffffffffffffffffffffffffffffffffffff161480610fbb5750610fba81610fb56124d6565b612215565b5b611010576040517f08c379a00000000000000000000000000000000000000000000000000000000081526004018080602001828103825260388152602001806138fa6038913960400191505060405180910390fd5b61101a83836124de565b505050565b600061102b6002612597565b905090565b61104161103b6124d6565b826125ac565b611096576040517f08c379a0000000000000000000000000000000000000000000000000000000008152600401808060200182810382526031815260200180613abc6031913960400191505060405180910390fd5b6110a18383836126a0565b505050565b60006110f982600160008673ffffffffffffffffffffffffffffffffffffffff1673ffffffffffffffffffffffffffffffffffffffff1681526020019081526020016000206128e390919063ffffffff16565b905092915050565b600d6020528060005260406000206000915090508060000160009054906101000a900473ffffffffffffffffffffffffffffffffffffffff16908060010154908060020160009054906101000a900460ff16908060030154905084565b61117983838360405180602001604052806000815250611d26565b505050565b6000806111958360026128fd90919063ffffffff16565b50905080915050919050565b33816014600d6000838152602001908152602001600020600101540142101561127f578173ffffffffffffffffffffffffffffffffffffffff16600d600083815260200190815260200160002060000160009054906101000a900473ffffffffffffffffffffffffffffffffffffffff1673ffffffffffffffffffffffffffffffffffffffff161461127e576040517f08c379a00000000000000000000000000000000000000000000000000000000081526004018080602001828103825260448152602001806139856044913960600191505060405180910390fd5b5b6000600d6000858152602001908152602001600020600301546001029050803414611312576040517f08c379a00000000000000000000000000000000000000000000000000000000081526004018080602001828103825260208152602001807f4e6f7420656e6f75676820636f696e7320746f207472616e73666572206e667481525060200191505060405180910390fd5b600c60009054906101000a900473ffffffffffffffffffffffffffffffffffffffff1673ffffffffffffffffffffffffffffffffffffffff166108fc349081150290604051600060405180830381858888f1935050505015801561137a573d6000803e3d6000fd5b507fe73afeaacaf168c89f8eca1d95b1e592a2a43d550dd0e3de98218e418a198f45333486604051808473ffffffffffffffffffffffffffffffffffffffff168152602001838152602001828152602001935050505060405180910390a150505050565b60006113e86124d6565b73ffffffffffffffffffffffffffffffffffffffff16600a60009054906101000a900473ffffffffffffffffffffffffffffffffffffffff1673ffffffffffffffffffffffffffffffffffffffff16146114aa576040517f08c379a00000000000000000000000000000000000000000000000000000000081526004018080602001828103825260208152602001807f4f776e61626c653a2063616c6c6572206973206e6f7420746865206f776e657281525060200191505060405180910390fd5b6114b4600b612929565b60006114c0600b61293f565b90506114cc868261294d565b6114d68185612b41565b60405180608001604052808673ffffffffffffffffffffffffffffffffffffffff16815260200142815260200160011515815260200184815250600d600083815260200190815260200160002060008201518160000160006101000a81548173ffffffffffffffffffffffffffffffffffffffff021916908373ffffffffffffffffffffffffffffffffffffffff1602179055506020820151816001015560408201518160020160006101000a81548160ff021916908315150217905550606082015181600301559050507f9bc29a7be16d04de3c353003faca2ab9ecae65d0443b11bcc70d01948a78a3d88686838787604051808673ffffffffffffffffffffffffffffffffffffffff1681526020018573ffffffffffffffffffffffffffffffffffffffff16815260200184815260200180602001838152602001828103825284818151815260200191508051906020019080838360005b8381101561164b578082015181840152602081019050611630565b50505050905090810190601f1680156116785780820380516001836020036101000a031916815260200191505b50965050505050505060405180910390a180915050949350505050565b60006116c58260405180606001604052806029815260200161395c602991396002612bcb9092919063ffffffff16565b9050919050565b606060098054600181600116156101000203166002900480601f0160208091040260200160405190810160405280929190818152602001828054600181600116156101000203166002900480156117645780601f1061173957610100808354040283529160200191611764565b820191906000526020600020905b81548152906001019060200180831161174757829003601f168201915b5050505050905090565b60008073ffffffffffffffffffffffffffffffffffffffff168273ffffffffffffffffffffffffffffffffffffffff1614156117f5576040517f08c379a000000000000000000000000000000000000000000000000000000000815260040180806020018281038252602a815260200180613932602a913960400191505060405180910390fd5b61183c600160008473ffffffffffffffffffffffffffffffffffffffff1673ffffffffffffffffffffffffffffffffffffffff168152602001908152602001600020612bea565b9050919050565b61184b6124d6565b73ffffffffffffffffffffffffffffffffffffffff16600a60009054906101000a900473ffffffffffffffffffffffffffffffffffffffff1673ffffffffffffffffffffffffffffffffffffffff161461190d576040517f08c379a00000000000000000000000000000000000000000000000000000000081526004018080602001828103825260208152602001807f4f776e61626c653a2063616c6c6572206973206e6f7420746865206f776e657281525060200191505060405180910390fd5b600073ffffffffffffffffffffffffffffffffffffffff16600a60009054906101000a900473ffffffffffffffffffffffffffffffffffffffff1673ffffffffffffffffffffffffffffffffffffffff167f8be0079c531659141344cd1fd0a4f28419497f9722a3daafe3b4186f6b6457e060405160405180910390a36000600a60006101000a81548173ffffffffffffffffffffffffffffffffffffffff021916908373ffffffffffffffffffffffffffffffffffffffff160217905550565b6000600d600083815260200190815260200160002060020160009054906101000a900460ff16611a66576040517f08c379a00000000000000000000000000000000000000000000000000000000081526004018080602001828103825260138152602001807f546f6b656e20646f65736e27742065786973740000000000000000000000000081525060200191505060405180910390fd5b600d600083815260200190815260200160002060000160009054906101000a900473ffffffffffffffffffffffffffffffffffffffff169050919050565b6000600a60009054906101000a900473ffffffffffffffffffffffffffffffffffffffff16905090565b606060078054600181600116156101000203166002900480601f016020809104026020016040519081016040528092919081815260200182805460018160011615610100020316600290048015611b665780601f10611b3b57610100808354040283529160200191611b66565b820191906000526020600020905b815481529060010190602001808311611b4957829003601f168201915b5050505050905090565b611b786124d6565b73ffffffffffffffffffffffffffffffffffffffff168273ffffffffffffffffffffffffffffffffffffffff161415611c19576040517f08c379a00000000000000000000000000000000000000000000000000000000081526004018080602001828103825260198152602001807f4552433732313a20617070726f766520746f2063616c6c65720000000000000081525060200191505060405180910390fd5b8060056000611c266124d6565b73ffffffffffffffffffffffffffffffffffffffff1673ffffffffffffffffffffffffffffffffffffffff16815260200190815260200160002060008473ffffffffffffffffffffffffffffffffffffffff1673ffffffffffffffffffffffffffffffffffffffff16815260200190815260200160002060006101000a81548160ff0219169083151502179055508173ffffffffffffffffffffffffffffffffffffffff16611cd36124d6565b73ffffffffffffffffffffffffffffffffffffffff167f17307eab39ab6107e8899845ad3d59bd9653f200f220920489ca2b5937696c318360405180821515815260200191505060405180910390a35050565b611d37611d316124d6565b836125ac565b611d8c576040517f08c379a0000000000000000000000000000000000000000000000000000000008152600401808060200182810382526031815260200180613abc6031913960400191505060405180910390fd5b611d9884848484612bff565b50505050565b670de0b6b3a76400003414611dfe576040517f08c379a00000000000000000000000000000000000000000000000000000000081526004018080602001828103825260228152602001806138886022913960400191505060405180910390fd5b600c60009054906101000a900473ffffffffffffffffffffffffffffffffffffffff1673ffffffffffffffffffffffffffffffffffffffff166108fc349081150290604051600060405180830381858888f19350505050158015611e66573d6000803e3d6000fd5b507fcf407d7cf32eb45bbe6d84b6c0499daec1dc1a74958122ba6972fc38b94927d0333483604051808473ffffffffffffffffffffffffffffffffffffffff16815260200183815260200180602001828103825283818151815260200191508051906020019080838360005b83811015611eed578082015181840152602081019050611ed2565b50505050905090810190601f168015611f1a5780820380516001836020036101000a031916815260200191505b5094505050505060405180910390a150565b6060611f37826124b9565b611f8c576040517f08c379a000000000000000000000000000000000000000000000000000000000815260040180806020018281038252602f815260200180613a6c602f913960400191505060405180910390fd5b6060600860008481526020019081526020016000208054600181600116156101000203166002900480601f0160208091040260200160405190810160405280929190818152602001828054600181600116156101000203166002900480156120355780601f1061200a57610100808354040283529160200191612035565b820191906000526020600020905b81548152906001019060200180831161201857829003601f168201915b505050505090506000600980546001816001161561010002031660029004905014156120645780915050612210565b60008151111561213d5760098160405160200180838054600181600116156101000203166002900480156120cf5780601f106120ad5761010080835404028352918201916120cf565b820191906000526020600020905b8154815290600101906020018083116120bb575b505082805190602001908083835b6020831061210057805182526020820191506020810190506020830392506120dd565b6001836020036101000a03801982511681845116808217855250505050505090500192505050604051602081830303815290604052915050612210565b600961214884612c71565b60405160200180838054600181600116156101000203166002900480156121a65780601f106121845761010080835404028352918201916121a6565b820191906000526020600020905b815481529060010190602001808311612192575b505082805190602001908083835b602083106121d757805182526020820191506020810190506020830392506121b4565b6001836020036101000a038019825116818451168082178552505050505050905001925050506040516020818303038152906040529150505b919050565b6000600560008473ffffffffffffffffffffffffffffffffffffffff1673ffffffffffffffffffffffffffffffffffffffff16815260200190815260200160002060008373ffffffffffffffffffffffffffffffffffffffff1673ffffffffffffffffffffffffffffffffffffffff16815260200190815260200160002060009054906101000a900460ff16905092915050565b6122b16124d6565b73ffffffffffffffffffffffffffffffffffffffff16600a60009054906101000a900473ffffffffffffffffffffffffffffffffffffffff1673ffffffffffffffffffffffffffffffffffffffff1614612373576040517f08c379a00000000000000000000000000000000000000000000000000000000081526004018080602001828103825260208152602001807f4f776e61626c653a2063616c6c6572206973206e6f7420746865206f776e657281525060200191505060405180910390fd5b600073ffffffffffffffffffffffffffffffffffffffff168173ffffffffffffffffffffffffffffffffffffffff1614156123f9576040517f08c379a00000000000000000000000000000000000000000000000000000000081526004018080602001828103825260268152602001806138626026913960400191505060405180910390fd5b8073ffffffffffffffffffffffffffffffffffffffff16600a60009054906101000a900473ffffffffffffffffffffffffffffffffffffffff1673ffffffffffffffffffffffffffffffffffffffff167f8be0079c531659141344cd1fd0a4f28419497f9722a3daafe3b4186f6b6457e060405160405180910390a380600a60006101000a81548173ffffffffffffffffffffffffffffffffffffffff021916908373ffffffffffffffffffffffffffffffffffffffff16021790555050565b60006124cf826002612db890919063ffffffff16565b9050919050565b600033905090565b816004600083815260200190815260200160002060006101000a81548173ffffffffffffffffffffffffffffffffffffffff021916908373ffffffffffffffffffffffffffffffffffffffff160217905550808273ffffffffffffffffffffffffffffffffffffffff1661255183611695565b73ffffffffffffffffffffffffffffffffffffffff167f8c5be1e5ebec7d5bd14f71427d1e84f3dd0314c0f7b2291e5b200ac8c7c3b92560405160405180910390a45050565b60006125a582600001612dd2565b9050919050565b60006125b7826124b9565b61260c576040517f08c379a000000000000000000000000000000000000000000000000000000000815260040180806020018281038252602c8152602001806138ce602c913960400191505060405180910390fd5b600061261783611695565b90508073ffffffffffffffffffffffffffffffffffffffff168473ffffffffffffffffffffffffffffffffffffffff16148061268657508373ffffffffffffffffffffffffffffffffffffffff1661266e84610e40565b73ffffffffffffffffffffffffffffffffffffffff16145b8061269757506126968185612215565b5b91505092915050565b8273ffffffffffffffffffffffffffffffffffffffff166126c082611695565b73ffffffffffffffffffffffffffffffffffffffff161461272c576040517f08c379a0000000000000000000000000000000000000000000000000000000008152600401808060200182810382526029815260200180613a436029913960400191505060405180910390fd5b600073ffffffffffffffffffffffffffffffffffffffff168273ffffffffffffffffffffffffffffffffffffffff1614156127b2576040517f08c379a00000000000000000000000000000000000000000000000000000000081526004018080602001828103825260248152602001806138aa6024913960400191505060405180910390fd5b6127bd838383612de3565b6127c86000826124de565b61281981600160008673ffffffffffffffffffffffffffffffffffffffff1673ffffffffffffffffffffffffffffffffffffffff168152602001908152602001600020612de890919063ffffffff16565b5061286b81600160008573ffffffffffffffffffffffffffffffffffffffff1673ffffffffffffffffffffffffffffffffffffffff168152602001908152602001600020612e0290919063ffffffff16565b5061288281836002612e1c9092919063ffffffff16565b50808273ffffffffffffffffffffffffffffffffffffffff168473ffffffffffffffffffffffffffffffffffffffff167fddf252ad1be2c89b69c2b068fc378daa952ba7f163c4a11628f55a4df523b3ef60405160405180910390a4505050565b60006128f28360000183612e51565b60001c905092915050565b6000806000806129108660000186612ed4565b915091508160001c8160001c9350935050509250929050565b6001816000016000828254019250508190555050565b600081600001549050919050565b600073ffffffffffffffffffffffffffffffffffffffff168273ffffffffffffffffffffffffffffffffffffffff1614156129f0576040517f08c379a00000000000000000000000000000000000000000000000000000000081526004018080602001828103825260208152602001807f4552433732313a206d696e7420746f20746865207a65726f206164647265737381525060200191505060405180910390fd5b6129f9816124b9565b15612a6c576040517f08c379a000000000000000000000000000000000000000000000000000000000815260040180806020018281038252601c8152602001807f4552433732313a20746f6b656e20616c7265616479206d696e7465640000000081525060200191505060405180910390fd5b612a7860008383612de3565b612ac981600160008573ffffffffffffffffffffffffffffffffffffffff1673ffffffffffffffffffffffffffffffffffffffff168152602001908152602001600020612e0290919063ffffffff16565b50612ae081836002612e1c9092919063ffffffff16565b50808273ffffffffffffffffffffffffffffffffffffffff16600073ffffffffffffffffffffffffffffffffffffffff167fddf252ad1be2c89b69c2b068fc378daa952ba7f163c4a11628f55a4df523b3ef60405160405180910390a45050565b612b4a826124b9565b612b9f576040517f08c379a000000000000000000000000000000000000000000000000000000000815260040180806020018281038252602c815260200180613a17602c913960400191505060405180910390fd5b80600860008481526020019081526020016000209080519060200190612bc6929190613770565b505050565b6000612bde846000018460001b84612f6d565b60001c90509392505050565b6000612bf882600001613063565b9050919050565b612c0a8484846126a0565b612c1684848484613074565b612c6b576040517f08c379a00000000000000000000000000000000000000000000000000000000081526004018080602001828103825260328152602001806138306032913960400191505060405180910390fd5b50505050565b60606000821415612cb9576040518060400160405280600181526020017f30000000000000000000000000000000000000000000000000000000000000008152509050612db3565b600082905060005b60008214612ce3578080600101915050600a8281612cdb57fe5b049150612cc1565b60608167ffffffffffffffff81118015612cfc57600080fd5b506040519080825280601f01601f191660200182016040528015612d2f5781602001600182028036833780820191505090505b50905060006001830390508593505b60008414612dab57600a8481612d5057fe5b0660300160f81b82828060019003935081518110612d6a57fe5b60200101907effffffffffffffffffffffffffffffffffffffffffffffffffffffffffffff1916908160001a905350600a8481612da357fe5b049350612d3e565b819450505050505b919050565b6000612dca836000018360001b61328d565b905092915050565b600081600001805490509050919050565b505050565b6000612dfa836000018360001b6132b0565b905092915050565b6000612e14836000018360001b613398565b905092915050565b6000612e48846000018460001b8473ffffffffffffffffffffffffffffffffffffffff1660001b613408565b90509392505050565b600081836000018054905011612eb2576040517f08c379a000000000000000000000000000000000000000000000000000000000815260040180806020018281038252602281526020018061380e6022913960400191505060405180910390fd5b826000018281548110612ec157fe5b9060005260206000200154905092915050565b60008082846000018054905011612f36576040517f08c379a00000000000000000000000000000000000000000000000000000000081526004018080602001828103825260228152602001806139c96022913960400191505060405180910390fd5b6000846000018481548110612f4757fe5b906000526020600020906002020190508060000154816001015492509250509250929050565b60008084600101600085815260200190815260200160002054905060008114158390613034576040517f08c379a00000000000000000000000000000000000000000000000000000000081526004018080602001828103825283818151815260200191508051906020019080838360005b83811015612ff9578082015181840152602081019050612fde565b50505050905090810190601f1680156130265780820380516001836020036101000a031916815260200191505b509250505060405180910390fd5b5084600001600182038154811061304757fe5b9060005260206000209060020201600101549150509392505050565b600081600001805490509050919050565b60006130958473ffffffffffffffffffffffffffffffffffffffff166134e4565b6130a25760019050613285565b606061320c63150b7a0260e01b6130b76124d6565b888787604051602401808573ffffffffffffffffffffffffffffffffffffffff1681526020018473ffffffffffffffffffffffffffffffffffffffff16815260200183815260200180602001828103825283818151815260200191508051906020019080838360005b8381101561313b578082015181840152602081019050613120565b50505050905090810190601f1680156131685780820380516001836020036101000a031916815260200191505b5095505050505050604051602081830303815290604052907bffffffffffffffffffffffffffffffffffffffffffffffffffffffff19166020820180517bffffffffffffffffffffffffffffffffffffffffffffffffffffffff8381831617835250505050604051806060016040528060328152602001613830603291398773ffffffffffffffffffffffffffffffffffffffff1661352f9092919063ffffffff16565b9050600081806020019051602081101561322557600080fd5b8101908080519060200190929190505050905063150b7a0260e01b7bffffffffffffffffffffffffffffffffffffffffffffffffffffffff1916817bffffffffffffffffffffffffffffffffffffffffffffffffffffffff191614925050505b949350505050565b600080836001016000848152602001908152602001600020541415905092915050565b6000808360010160008481526020019081526020016000205490506000811461338c57600060018203905060006001866000018054905003905060008660000182815481106132fb57fe5b906000526020600020015490508087600001848154811061331857fe5b906000526020600020018190555060018301876001016000838152602001908152602001600020819055508660000180548061335057fe5b60019003818190600052602060002001600090559055866001016000878152602001908152602001600020600090556001945050505050613392565b60009150505b92915050565b60006133a48383613547565b6133fd578260000182908060018154018082558091505060019003906000526020600020016000909190919091505582600001805490508360010160008481526020019081526020016000208190555060019050613402565b600090505b92915050565b60008084600101600085815260200190815260200160002054905060008114156134af578460000160405180604001604052808681526020018581525090806001815401808255809150506001900390600052602060002090600202016000909190919091506000820151816000015560208201518160010155505084600001805490508560010160008681526020019081526020016000208190555060019150506134dd565b828560000160018303815481106134c257fe5b90600052602060002090600202016001018190555060009150505b9392505050565b60008060007fc5d2460186f7233c927e7db2dcc703c0e500b653ca82273b7bfad8045d85a47060001b9050833f915080821415801561352657506000801b8214155b92505050919050565b606061353e848460008561356a565b90509392505050565b600080836001016000848152602001908152602001600020541415905092915050565b6060613575856134e4565b6135e7576040517f08c379a000000000000000000000000000000000000000000000000000000000815260040180806020018281038252601d8152602001807f416464726573733a2063616c6c20746f206e6f6e2d636f6e747261637400000081525060200191505060405180910390fd5b600060608673ffffffffffffffffffffffffffffffffffffffff1685876040518082805190602001908083835b602083106136375780518252602082019150602081019050602083039250613614565b6001836020036101000a03801982511681845116808217855250505050505090500191505060006040518083038185875af1925050503d8060008114613699576040519150601f19603f3d011682016040523d82523d6000602084013e61369e565b606091505b509150915081156136b3578092505050613768565b6000815111156136c65780518082602001fd5b836040517f08c379a00000000000000000000000000000000000000000000000000000000081526004018080602001828103825283818151815260200191508051906020019080838360005b8381101561372d578082015181840152602081019050613712565b50505050905090810190601f16801561375a5780820380516001836020036101000a031916815260200191505b509250505060405180910390fd5b949350505050565b828054600181600116156101000203166002900490600052602060002090601f016020900481019282601f106137b157805160ff19168380011785556137df565b828001600101855582156137df579182015b828111156137de5782518255916020019190600101906137c3565b5b5090506137ec91906137f0565b5090565b5b808211156138095760008160009055506001016137f1565b509056fe456e756d657261626c655365743a20696e646578206f7574206f6620626f756e64734552433732313a207472616e7366657220746f206e6f6e20455243373231526563656976657220696d706c656d656e7465724f776e61626c653a206e6577206f776e657220697320746865207a65726f20616464726573734e6f7420656e6f75676820636f696e7320746f2067656e657261746520696d6167654552433732313a207472616e7366657220746f20746865207a65726f20616464726573734552433732313a206f70657261746f7220717565727920666f72206e6f6e6578697374656e7420746f6b656e4552433732313a20617070726f76652063616c6c6572206973206e6f74206f776e6572206e6f7220617070726f76656420666f7220616c6c4552433732313a2062616c616e636520717565727920666f7220746865207a65726f20616464726573734552433732313a206f776e657220717565727920666f72206e6f6e6578697374656e7420746f6b656e4f6e6c792074686520706572736f6e2077686f2067656e6572617465642074686520696d6167652063616e2062757920697420696e2074686520666972737420686f7572456e756d657261626c654d61703a20696e646578206f7574206f6620626f756e64734552433732313a20617070726f76656420717565727920666f72206e6f6e6578697374656e7420746f6b656e4552433732314d657461646174613a2055524920736574206f66206e6f6e6578697374656e7420746f6b656e4552433732313a207472616e73666572206f6620746f6b656e2074686174206973206e6f74206f776e4552433732314d657461646174613a2055524920717565727920666f72206e6f6e6578697374656e7420746f6b656e4552433732313a20617070726f76616c20746f2063757272656e74206f776e65724552433732313a207472616e736665722063616c6c6572206973206e6f74206f776e6572206e6f7220617070726f766564a2646970667358221220d51aeb23c6cf33d50ddcdbf63e04f78b99576a8686a8b0631c3c1ed8ff1f420364736f6c63430007030033",
  "linkReferences": {},
  "deployedLinkReferences": {}
}