{
  "_format": "hh-sol-artifact-1",
  "contractName": "KekNFT",
  "sourceName": "contracts/KekNFT.sol",
  "abi": [
    {
      "inputs": [],
      "stateMutability": "nonpayable",
      "type": "constructor"
    },
    {
      "anonymous": false,
      "inputs": [
        {
          "indexed": true,
          "internalType": "address",
          "name": "owner",
          "type": "address"
        },
        {
          "indexed": true,
          "internalType": "address",
          "name": "approved",
          "type": "address"
        },
        {
          "indexed": true,
          "internalType": "uint256",
          "name": "tokenId",
          "type": "uint256"
        }
      ],
      "name": "Approval",
      "type": "event"
    },
    {
      "anonymous": false,
      "inputs": [
        {
          "indexed": true,
          "internalType": "address",
          "name": "owner",
          "type": "address"
        },
        {
          "indexed": true,
          "internalType": "address",
          "name": "operator",
          "type": "address"
        },
        {
          "indexed": false,
          "internalType": "bool",
          "name": "approved",
          "type": "bool"
        }
      ],
      "name": "ApprovalForAll",
      "type": "event"
    },
    {
      "anonymous": false,
      "inputs": [
        {
          "indexed": true,
          "internalType": "address",
          "name": "previousOwner",
          "type": "address"
        },
        {
          "indexed": true,
          "internalType": "address",
          "name": "newOwner",
          "type": "address"
        }
      ],
      "name": "OwnershipTransferred",
      "type": "event"
    },
    {
      "anonymous": false,
      "inputs": [
        {
          "indexed": true,
          "internalType": "address",
          "name": "from",
          "type": "address"
        },
        {
          "indexed": true,
          "internalType": "address",
          "name": "to",
          "type": "address"
        },
        {
          "indexed": true,
          "internalType": "uint256",
          "name": "tokenId",
          "type": "uint256"
        }
      ],
      "name": "Transfer",
      "type": "event"
    },
    {
      "inputs": [
        {
          "internalType": "address",
          "name": "to",
          "type": "address"
        },
        {
          "internalType": "uint256",
          "name": "tokenId",
          "type": "uint256"
        }
      ],
      "name": "approve",
      "outputs": [],
      "stateMutability": "nonpayable",
      "type": "function"
    },
    {
      "inputs": [
        {
          "internalType": "address",
          "name": "owner",
          "type": "address"
        }
      ],
      "name": "balanceOf",
      "outputs": [
        {
          "internalType": "uint256",
          "name": "",
          "type": "uint256"
        }
      ],
      "stateMutability": "view",
      "type": "function"
    },
    {
      "inputs": [],
      "name": "baseURI",
      "outputs": [
        {
          "internalType": "string",
          "name": "",
          "type": "string"
        }
      ],
      "stateMutability": "view",
      "type": "function"
    },
    {
      "inputs": [
        {
          "internalType": "uint256",
          "name": "tokenId",
          "type": "uint256"
        }
      ],
      "name": "getApproved",
      "outputs": [
        {
          "internalType": "address",
          "name": "",
          "type": "address"
        }
      ],
      "stateMutability": "view",
      "type": "function"
    },
    {
      "inputs": [
        {
          "internalType": "address",
          "name": "owner",
          "type": "address"
        },
        {
          "internalType": "address",
          "name": "operator",
          "type": "address"
        }
      ],
      "name": "isApprovedForAll",
      "outputs": [
        {
          "internalType": "bool",
          "name": "",
          "type": "bool"
        }
      ],
      "stateMutability": "view",
      "type": "function"
    },
    {
      "inputs": [
        {
          "internalType": "address",
          "name": "recipient",
          "type": "address"
        },
        {
          "internalType": "string",
          "name": "tokenURI",
          "type": "string"
        }
      ],
      "name": "mintNFT",
      "outputs": [
        {
          "internalType": "uint256",
          "name": "",
          "type": "uint256"
        }
      ],
      "stateMutability": "payable",
      "type": "function"
    },
    {
      "inputs": [],
      "name": "name",
      "outputs": [
        {
          "internalType": "string",
          "name": "",
          "type": "string"
        }
      ],
      "stateMutability": "view",
      "type": "function"
    },
    {
      "inputs": [],
      "name": "owner",
      "outputs": [
        {
          "internalType": "address",
          "name": "",
          "type": "address"
        }
      ],
      "stateMutability": "view",
      "type": "function"
    },
    {
      "inputs": [
        {
          "internalType": "uint256",
          "name": "tokenId",
          "type": "uint256"
        }
      ],
      "name": "ownerOf",
      "outputs": [
        {
          "internalType": "address",
          "name": "",
          "type": "address"
        }
      ],
      "stateMutability": "view",
      "type": "function"
    },
    {
      "inputs": [],
      "name": "renounceOwnership",
      "outputs": [],
      "stateMutability": "nonpayable",
      "type": "function"
    },
    {
      "inputs": [
        {
          "internalType": "address",
          "name": "from",
          "type": "address"
        },
        {
          "internalType": "address",
          "name": "to",
          "type": "address"
        },
        {
          "internalType": "uint256",
          "name": "tokenId",
          "type": "uint256"
        }
      ],
      "name": "safeTransferFrom",
      "outputs": [],
      "stateMutability": "nonpayable",
      "type": "function"
    },
    {
      "inputs": [
        {
          "internalType": "address",
          "name": "from",
          "type": "address"
        },
        {
          "internalType": "address",
          "name": "to",
          "type": "address"
        },
        {
          "internalType": "uint256",
          "name": "tokenId",
          "type": "uint256"
        },
        {
          "internalType": "bytes",
          "name": "_data",
          "type": "bytes"
        }
      ],
      "name": "safeTransferFrom",
      "outputs": [],
      "stateMutability": "nonpayable",
      "type": "function"
    },
    {
      "inputs": [
        {
          "internalType": "address",
          "name": "operator",
          "type": "address"
        },
        {
          "internalType": "bool",
          "name": "approved",
          "type": "bool"
        }
      ],
      "name": "setApprovalForAll",
      "outputs": [],
      "stateMutability": "nonpayable",
      "type": "function"
    },
    {
      "inputs": [
        {
          "internalType": "bytes4",
          "name": "interfaceId",
          "type": "bytes4"
        }
      ],
      "name": "supportsInterface",
      "outputs": [
        {
          "internalType": "bool",
          "name": "",
          "type": "bool"
        }
      ],
      "stateMutability": "view",
      "type": "function"
    },
    {
      "inputs": [],
      "name": "symbol",
      "outputs": [
        {
          "internalType": "string",
          "name": "",
          "type": "string"
        }
      ],
      "stateMutability": "view",
      "type": "function"
    },
    {
      "inputs": [
        {
          "internalType": "uint256",
          "name": "index",
          "type": "uint256"
        }
      ],
      "name": "tokenByIndex",
      "outputs": [
        {
          "internalType": "uint256",
          "name": "",
          "type": "uint256"
        }
      ],
      "stateMutability": "view",
      "type": "function"
    },
    {
      "inputs": [
        {
          "internalType": "address",
          "name": "owner",
          "type": "address"
        },
        {
          "internalType": "uint256",
          "name": "index",
          "type": "uint256"
        }
      ],
      "name": "tokenOfOwnerByIndex",
      "outputs": [
        {
          "internalType": "uint256",
          "name": "",
          "type": "uint256"
        }
      ],
      "stateMutability": "view",
      "type": "function"
    },
    {
      "inputs": [
        {
          "internalType": "uint256",
          "name": "tokenId",
          "type": "uint256"
        }
      ],
      "name": "tokenURI",
      "outputs": [
        {
          "internalType": "string",
          "name": "",
          "type": "string"
        }
      ],
      "stateMutability": "view",
      "type": "function"
    },
    {
      "inputs": [],
      "name": "totalSupply",
      "outputs": [
        {
          "internalType": "uint256",
          "name": "",
          "type": "uint256"
        }
      ],
      "stateMutability": "view",
      "type": "function"
    },
    {
      "inputs": [
        {
          "internalType": "address",
          "name": "from",
          "type": "address"
        },
        {
          "internalType": "address",
          "name": "to",
          "type": "address"
        },
        {
          "internalType": "uint256",
          "name": "tokenId",
          "type": "uint256"
        }
      ],
      "name": "transferFrom",
      "outputs": [],
      "stateMutability": "nonpayable",
      "type": "function"
    },
    {
      "inputs": [
        {
          "internalType": "address",
          "name": "newOwner",
          "type": "address"
        }
      ],
      "name": "transferOwnership",
      "outputs": [],
      "stateMutability": "nonpayable",
      "type": "function"
    }
  ],
  "bytecode": "0x60806040523480156200001157600080fd5b506040518060400160405280600681526020017f4b656b4e465400000000000000000000000000000000000000000000000000008152506040518060400160405280600381526020017f6b656b0000000000000000000000000000000000000000000000000000000000815250620000966301ffc9a760e01b620001c960201b60201c565b8160069080519060200190620000ae929190620002da565b508060079080519060200190620000c7929190620002da565b50620000e06380ac58cd60e01b620001c960201b60201c565b620000f8635b5e139f60e01b620001c960201b60201c565b6200011063780e9d6360e01b620001c960201b60201c565b5050600062000124620002d260201b60201c565b905080600a60006101000a81548173ffffffffffffffffffffffffffffffffffffffff021916908373ffffffffffffffffffffffffffffffffffffffff1602179055508073ffffffffffffffffffffffffffffffffffffffff16600073ffffffffffffffffffffffffffffffffffffffff167f8be0079c531659141344cd1fd0a4f28419497f9722a3daafe3b4186f6b6457e060405160405180910390a35062000380565b63ffffffff60e01b817bffffffffffffffffffffffffffffffffffffffffffffffffffffffff1916141562000266576040517f08c379a000000000000000000000000000000000000000000000000000000000815260040180806020018281038252601c8152602001807f4552433136353a20696e76616c696420696e746572666163652069640000000081525060200191505060405180910390fd5b6001600080837bffffffffffffffffffffffffffffffffffffffffffffffffffffffff19167bffffffffffffffffffffffffffffffffffffffffffffffffffffffff1916815260200190815260200160002060006101000a81548160ff02191690831515021790555050565b600033905090565b828054600181600116156101000203166002900490600052602060002090601f016020900481019282601f106200031d57805160ff19168380011785556200034e565b828001600101855582156200034e579182015b828111156200034d57825182559160200191906001019062000330565b5b5090506200035d919062000361565b5090565b5b808211156200037c57600081600090555060010162000362565b5090565b61324980620003906000396000f3fe60806040526004361061012a5760003560e01c80636c0360eb116100ab578063a22cb4651161006f578063a22cb46514610710578063b88d4fde1461076d578063c87b56dd1461087f578063e985e9c514610933578063eacabe14146109ba578063f2fde38b14610aa95761012a565b80636c0360eb1461053357806370a08231146105c3578063715018a6146106285780638da5cb5b1461063f57806395d89b41146106805761012a565b806323b872dd116100f257806323b872dd1461031a5780632f745c591461039557806342842e0e146104045780634f6ccce71461047f5780636352211e146104ce5761012a565b806301ffc9a71461012f57806306fdde031461019f578063081812fc1461022f578063095ea7b31461029457806318160ddd146102ef575b600080fd5b34801561013b57600080fd5b506101876004803603602081101561015257600080fd5b8101908080357bffffffffffffffffffffffffffffffffffffffffffffffffffffffff19169060200190929190505050610afa565b60405180821515815260200191505060405180910390f35b3480156101ab57600080fd5b506101b4610b61565b6040518080602001828103825283818151815260200191508051906020019080838360005b838110156101f45780820151818401526020810190506101d9565b50505050905090810190601f1680156102215780820380516001836020036101000a031916815260200191505b509250505060405180910390f35b34801561023b57600080fd5b506102686004803603602081101561025257600080fd5b8101908080359060200190929190505050610c03565b604051808273ffffffffffffffffffffffffffffffffffffffff16815260200191505060405180910390f35b3480156102a057600080fd5b506102ed600480360360408110156102b757600080fd5b81019080803573ffffffffffffffffffffffffffffffffffffffff16906020019092919080359060200190929190505050610c9e565b005b3480156102fb57600080fd5b50610304610de2565b6040518082815260200191505060405180910390f35b34801561032657600080fd5b506103936004803603606081101561033d57600080fd5b81019080803573ffffffffffffffffffffffffffffffffffffffff169060200190929190803573ffffffffffffffffffffffffffffffffffffffff16906020019092919080359060200190929190505050610df3565b005b3480156103a157600080fd5b506103ee600480360360408110156103b857600080fd5b81019080803573ffffffffffffffffffffffffffffffffffffffff16906020019092919080359060200190929190505050610e69565b6040518082815260200191505060405180910390f35b34801561041057600080fd5b5061047d6004803603606081101561042757600080fd5b81019080803573ffffffffffffffffffffffffffffffffffffffff169060200190929190803573ffffffffffffffffffffffffffffffffffffffff16906020019092919080359060200190929190505050610ec4565b005b34801561048b57600080fd5b506104b8600480360360208110156104a257600080fd5b8101908080359060200190929190505050610ee4565b6040518082815260200191505060405180910390f35b3480156104da57600080fd5b50610507600480360360208110156104f157600080fd5b8101908080359060200190929190505050610f07565b604051808273ffffffffffffffffffffffffffffffffffffffff16815260200191505060405180910390f35b34801561053f57600080fd5b50610548610f3e565b6040518080602001828103825283818151815260200191508051906020019080838360005b8381101561058857808201518184015260208101905061056d565b50505050905090810190601f1680156105b55780820380516001836020036101000a031916815260200191505b509250505060405180910390f35b3480156105cf57600080fd5b50610612600480360360208110156105e657600080fd5b81019080803573ffffffffffffffffffffffffffffffffffffffff169060200190929190505050610fe0565b6040518082815260200191505060405180910390f35b34801561063457600080fd5b5061063d6110b5565b005b34801561064b57600080fd5b50610654611240565b604051808273ffffffffffffffffffffffffffffffffffffffff16815260200191505060405180910390f35b34801561068c57600080fd5b5061069561126a565b6040518080602001828103825283818151815260200191508051906020019080838360005b838110156106d55780820151818401526020810190506106ba565b50505050905090810190601f1680156107025780820380516001836020036101000a031916815260200191505b509250505060405180910390f35b34801561071c57600080fd5b5061076b6004803603604081101561073357600080fd5b81019080803573ffffffffffffffffffffffffffffffffffffffff16906020019092919080351515906020019092919050505061130c565b005b34801561077957600080fd5b5061087d6004803603608081101561079057600080fd5b81019080803573ffffffffffffffffffffffffffffffffffffffff169060200190929190803573ffffffffffffffffffffffffffffffffffffffff16906020019092919080359060200190929190803590602001906401000000008111156107f757600080fd5b82018360208201111561080957600080fd5b8035906020019184600183028401116401000000008311171561082b57600080fd5b91908080601f016020809104026020016040519081016040528093929190818152602001838380828437600081840152601f19601f8201169050808301925050505050505091929192905050506114c2565b005b34801561088b57600080fd5b506108b8600480360360208110156108a257600080fd5b810190808035906020019092919050505061153a565b6040518080602001828103825283818151815260200191508051906020019080838360005b838110156108f85780820151818401526020810190506108dd565b50505050905090810190601f1680156109255780820380516001836020036101000a031916815260200191505b509250505060405180910390f35b34801561093f57600080fd5b506109a26004803603604081101561095657600080fd5b81019080803573ffffffffffffffffffffffffffffffffffffffff169060200190929190803573ffffffffffffffffffffffffffffffffffffffff169060200190929190505050611823565b60405180821515815260200191505060405180910390f35b610a93600480360360408110156109d057600080fd5b81019080803573ffffffffffffffffffffffffffffffffffffffff16906020019092919080359060200190640100000000811115610a0d57600080fd5b820183602082011115610a1f57600080fd5b80359060200191846001830284011164010000000083111715610a4157600080fd5b91908080601f016020809104026020016040519081016040528093929190818152602001838380828437600081840152601f19601f8201169050808301925050505050505091929192905050506118b7565b6040518082815260200191505060405180910390f35b348015610ab557600080fd5b50610af860048036036020811015610acc57600080fd5b81019080803573ffffffffffffffffffffffffffffffffffffffff169060200190929190505050611a36565b005b6000806000837bffffffffffffffffffffffffffffffffffffffffffffffffffffffff19167bffffffffffffffffffffffffffffffffffffffffffffffffffffffff1916815260200190815260200160002060009054906101000a900460ff169050919050565b606060068054600181600116156101000203166002900480601f016020809104026020016040519081016040528092919081815260200182805460018160011615610100020316600290048015610bf95780601f10610bce57610100808354040283529160200191610bf9565b820191906000526020600020905b815481529060010190602001808311610bdc57829003601f168201915b5050505050905090565b6000610c0e82611c46565b610c63576040517f08c379a000000000000000000000000000000000000000000000000000000000815260040180806020018281038252602c815260200180613112602c913960400191505060405180910390fd5b6004600083815260200190815260200160002060009054906101000a900473ffffffffffffffffffffffffffffffffffffffff169050919050565b6000610ca982610f07565b90508073ffffffffffffffffffffffffffffffffffffffff168373ffffffffffffffffffffffffffffffffffffffff161415610d30576040517f08c379a00000000000000000000000000000000000000000000000000000000081526004018080602001828103825260218152602001806131c26021913960400191505060405180910390fd5b8073ffffffffffffffffffffffffffffffffffffffff16610d4f611c63565b73ffffffffffffffffffffffffffffffffffffffff161480610d7e5750610d7d81610d78611c63565b611823565b5b610dd3576040517f08c379a00000000000000000000000000000000000000000000000000000000081526004018080602001828103825260388152602001806130656038913960400191505060405180910390fd5b610ddd8383611c6b565b505050565b6000610dee6002611d24565b905090565b610e04610dfe611c63565b82611d39565b610e59576040517f08c379a00000000000000000000000000000000000000000000000000000000081526004018080602001828103825260318152602001806131e36031913960400191505060405180910390fd5b610e64838383611e2d565b505050565b6000610ebc82600160008673ffffffffffffffffffffffffffffffffffffffff1673ffffffffffffffffffffffffffffffffffffffff16815260200190815260200160002061207090919063ffffffff16565b905092915050565b610edf838383604051806020016040528060008152506114c2565b505050565b600080610efb83600261208a90919063ffffffff16565b50905080915050919050565b6000610f37826040518060600160405280602981526020016130c76029913960026120b69092919063ffffffff16565b9050919050565b606060098054600181600116156101000203166002900480601f016020809104026020016040519081016040528092919081815260200182805460018160011615610100020316600290048015610fd65780601f10610fab57610100808354040283529160200191610fd6565b820191906000526020600020905b815481529060010190602001808311610fb957829003601f168201915b5050505050905090565b60008073ffffffffffffffffffffffffffffffffffffffff168273ffffffffffffffffffffffffffffffffffffffff161415611067576040517f08c379a000000000000000000000000000000000000000000000000000000000815260040180806020018281038252602a81526020018061309d602a913960400191505060405180910390fd5b6110ae600160008473ffffffffffffffffffffffffffffffffffffffff1673ffffffffffffffffffffffffffffffffffffffff1681526020019081526020016000206120d5565b9050919050565b6110bd611c63565b73ffffffffffffffffffffffffffffffffffffffff16600a60009054906101000a900473ffffffffffffffffffffffffffffffffffffffff1673ffffffffffffffffffffffffffffffffffffffff161461117f576040517f08c379a00000000000000000000000000000000000000000000000000000000081526004018080602001828103825260208152602001807f4f776e61626c653a2063616c6c6572206973206e6f7420746865206f776e657281525060200191505060405180910390fd5b600073ffffffffffffffffffffffffffffffffffffffff16600a60009054906101000a900473ffffffffffffffffffffffffffffffffffffffff1673ffffffffffffffffffffffffffffffffffffffff167f8be0079c531659141344cd1fd0a4f28419497f9722a3daafe3b4186f6b6457e060405160405180910390a36000600a60006101000a81548173ffffffffffffffffffffffffffffffffffffffff021916908373ffffffffffffffffffffffffffffffffffffffff160217905550565b6000600a60009054906101000a900473ffffffffffffffffffffffffffffffffffffffff16905090565b606060078054600181600116156101000203166002900480601f0160208091040260200160405190810160405280929190818152602001828054600181600116156101000203166002900480156113025780601f106112d757610100808354040283529160200191611302565b820191906000526020600020905b8154815290600101906020018083116112e557829003601f168201915b5050505050905090565b611314611c63565b73ffffffffffffffffffffffffffffffffffffffff168273ffffffffffffffffffffffffffffffffffffffff1614156113b5576040517f08c379a00000000000000000000000000000000000000000000000000000000081526004018080602001828103825260198152602001807f4552433732313a20617070726f766520746f2063616c6c65720000000000000081525060200191505060405180910390fd5b80600560006113c2611c63565b73ffffffffffffffffffffffffffffffffffffffff1673ffffffffffffffffffffffffffffffffffffffff16815260200190815260200160002060008473ffffffffffffffffffffffffffffffffffffffff1673ffffffffffffffffffffffffffffffffffffffff16815260200190815260200160002060006101000a81548160ff0219169083151502179055508173ffffffffffffffffffffffffffffffffffffffff1661146f611c63565b73ffffffffffffffffffffffffffffffffffffffff167f17307eab39ab6107e8899845ad3d59bd9653f200f220920489ca2b5937696c318360405180821515815260200191505060405180910390a35050565b6114d36114cd611c63565b83611d39565b611528576040517f08c379a00000000000000000000000000000000000000000000000000000000081526004018080602001828103825260318152602001806131e36031913960400191505060405180910390fd5b611534848484846120ea565b50505050565b606061154582611c46565b61159a576040517f08c379a000000000000000000000000000000000000000000000000000000000815260040180806020018281038252602f815260200180613193602f913960400191505060405180910390fd5b6060600860008481526020019081526020016000208054600181600116156101000203166002900480601f0160208091040260200160405190810160405280929190818152602001828054600181600116156101000203166002900480156116435780601f1061161857610100808354040283529160200191611643565b820191906000526020600020905b81548152906001019060200180831161162657829003601f168201915b50505050509050600060098054600181600116156101000203166002900490501415611672578091505061181e565b60008151111561174b5760098160405160200180838054600181600116156101000203166002900480156116dd5780601f106116bb5761010080835404028352918201916116dd565b820191906000526020600020905b8154815290600101906020018083116116c9575b505082805190602001908083835b6020831061170e57805182526020820191506020810190506020830392506116eb565b6001836020036101000a0380198251168184511680821785525050505050509050019250505060405160208183030381529060405291505061181e565b60096117568461215c565b60405160200180838054600181600116156101000203166002900480156117b45780601f106117925761010080835404028352918201916117b4565b820191906000526020600020905b8154815290600101906020018083116117a0575b505082805190602001908083835b602083106117e557805182526020820191506020810190506020830392506117c2565b6001836020036101000a038019825116818451168082178552505050505050905001925050506040516020818303038152906040529150505b919050565b6000600560008473ffffffffffffffffffffffffffffffffffffffff1673ffffffffffffffffffffffffffffffffffffffff16815260200190815260200160002060008373ffffffffffffffffffffffffffffffffffffffff1673ffffffffffffffffffffffffffffffffffffffff16815260200190815260200160002060009054906101000a900460ff16905092915050565b60006118c1611c63565b73ffffffffffffffffffffffffffffffffffffffff16600a60009054906101000a900473ffffffffffffffffffffffffffffffffffffffff1673ffffffffffffffffffffffffffffffffffffffff1614611983576040517f08c379a00000000000000000000000000000000000000000000000000000000081526004018080602001828103825260208152602001807f4f776e61626c653a2063616c6c6572206973206e6f7420746865206f776e657281525060200191505060405180910390fd5b670de0b6b3a76400003414611a00576040517f08c379a00000000000000000000000000000000000000000000000000000000081526004018080602001828103825260088152602001807f47696220676f6c6400000000000000000000000000000000000000000000000081525060200191505060405180910390fd5b611a0a600b6122a3565b6000611a16600b6122b9565b9050611a2284826122c7565b611a2c81846124bb565b8091505092915050565b611a3e611c63565b73ffffffffffffffffffffffffffffffffffffffff16600a60009054906101000a900473ffffffffffffffffffffffffffffffffffffffff1673ffffffffffffffffffffffffffffffffffffffff1614611b00576040517f08c379a00000000000000000000000000000000000000000000000000000000081526004018080602001828103825260208152602001807f4f776e61626c653a2063616c6c6572206973206e6f7420746865206f776e657281525060200191505060405180910390fd5b600073ffffffffffffffffffffffffffffffffffffffff168173ffffffffffffffffffffffffffffffffffffffff161415611b86576040517f08c379a0000000000000000000000000000000000000000000000000000000008152600401808060200182810382526026815260200180612fef6026913960400191505060405180910390fd5b8073ffffffffffffffffffffffffffffffffffffffff16600a60009054906101000a900473ffffffffffffffffffffffffffffffffffffffff1673ffffffffffffffffffffffffffffffffffffffff167f8be0079c531659141344cd1fd0a4f28419497f9722a3daafe3b4186f6b6457e060405160405180910390a380600a60006101000a81548173ffffffffffffffffffffffffffffffffffffffff021916908373ffffffffffffffffffffffffffffffffffffffff16021790555050565b6000611c5c82600261254590919063ffffffff16565b9050919050565b600033905090565b816004600083815260200190815260200160002060006101000a81548173ffffffffffffffffffffffffffffffffffffffff021916908373ffffffffffffffffffffffffffffffffffffffff160217905550808273ffffffffffffffffffffffffffffffffffffffff16611cde83610f07565b73ffffffffffffffffffffffffffffffffffffffff167f8c5be1e5ebec7d5bd14f71427d1e84f3dd0314c0f7b2291e5b200ac8c7c3b92560405160405180910390a45050565b6000611d328260000161255f565b9050919050565b6000611d4482611c46565b611d99576040517f08c379a000000000000000000000000000000000000000000000000000000000815260040180806020018281038252602c815260200180613039602c913960400191505060405180910390fd5b6000611da483610f07565b90508073ffffffffffffffffffffffffffffffffffffffff168473ffffffffffffffffffffffffffffffffffffffff161480611e1357508373ffffffffffffffffffffffffffffffffffffffff16611dfb84610c03565b73ffffffffffffffffffffffffffffffffffffffff16145b80611e245750611e238185611823565b5b91505092915050565b8273ffffffffffffffffffffffffffffffffffffffff16611e4d82610f07565b73ffffffffffffffffffffffffffffffffffffffff1614611eb9576040517f08c379a000000000000000000000000000000000000000000000000000000000815260040180806020018281038252602981526020018061316a6029913960400191505060405180910390fd5b600073ffffffffffffffffffffffffffffffffffffffff168273ffffffffffffffffffffffffffffffffffffffff161415611f3f576040517f08c379a00000000000000000000000000000000000000000000000000000000081526004018080602001828103825260248152602001806130156024913960400191505060405180910390fd5b611f4a838383612570565b611f55600082611c6b565b611fa681600160008673ffffffffffffffffffffffffffffffffffffffff1673ffffffffffffffffffffffffffffffffffffffff16815260200190815260200160002061257590919063ffffffff16565b50611ff881600160008573ffffffffffffffffffffffffffffffffffffffff1673ffffffffffffffffffffffffffffffffffffffff16815260200190815260200160002061258f90919063ffffffff16565b5061200f818360026125a99092919063ffffffff16565b50808273ffffffffffffffffffffffffffffffffffffffff168473ffffffffffffffffffffffffffffffffffffffff167fddf252ad1be2c89b69c2b068fc378daa952ba7f163c4a11628f55a4df523b3ef60405160405180910390a4505050565b600061207f83600001836125de565b60001c905092915050565b60008060008061209d8660000186612661565b915091508160001c8160001c9350935050509250929050565b60006120c9846000018460001b846126fa565b60001c90509392505050565b60006120e3826000016127f0565b9050919050565b6120f5848484611e2d565b61210184848484612801565b612156576040517f08c379a0000000000000000000000000000000000000000000000000000000008152600401808060200182810382526032815260200180612fbd6032913960400191505060405180910390fd5b50505050565b606060008214156121a4576040518060400160405280600181526020017f3000000000000000000000000000000000000000000000000000000000000000815250905061229e565b600082905060005b600082146121ce578080600101915050600a82816121c657fe5b0491506121ac565b60608167ffffffffffffffff811180156121e757600080fd5b506040519080825280601f01601f19166020018201604052801561221a5781602001600182028036833780820191505090505b50905060006001830390508593505b6000841461229657600a848161223b57fe5b0660300160f81b8282806001900393508151811061225557fe5b60200101907effffffffffffffffffffffffffffffffffffffffffffffffffffffffffffff1916908160001a905350600a848161228e57fe5b049350612229565b819450505050505b919050565b6001816000016000828254019250508190555050565b600081600001549050919050565b600073ffffffffffffffffffffffffffffffffffffffff168273ffffffffffffffffffffffffffffffffffffffff16141561236a576040517f08c379a00000000000000000000000000000000000000000000000000000000081526004018080602001828103825260208152602001807f4552433732313a206d696e7420746f20746865207a65726f206164647265737381525060200191505060405180910390fd5b61237381611c46565b156123e6576040517f08c379a000000000000000000000000000000000000000000000000000000000815260040180806020018281038252601c8152602001807f4552433732313a20746f6b656e20616c7265616479206d696e7465640000000081525060200191505060405180910390fd5b6123f260008383612570565b61244381600160008573ffffffffffffffffffffffffffffffffffffffff1673ffffffffffffffffffffffffffffffffffffffff16815260200190815260200160002061258f90919063ffffffff16565b5061245a818360026125a99092919063ffffffff16565b50808273ffffffffffffffffffffffffffffffffffffffff16600073ffffffffffffffffffffffffffffffffffffffff167fddf252ad1be2c89b69c2b068fc378daa952ba7f163c4a11628f55a4df523b3ef60405160405180910390a45050565b6124c482611c46565b612519576040517f08c379a000000000000000000000000000000000000000000000000000000000815260040180806020018281038252602c81526020018061313e602c913960400191505060405180910390fd5b80600860008481526020019081526020016000209080519060200190612540929190612efd565b505050565b6000612557836000018360001b612a1a565b905092915050565b600081600001805490509050919050565b505050565b6000612587836000018360001b612a3d565b905092915050565b60006125a1836000018360001b612b25565b905092915050565b60006125d5846000018460001b8473ffffffffffffffffffffffffffffffffffffffff1660001b612b95565b90509392505050565b60008183600001805490501161263f576040517f08c379a0000000000000000000000000000000000000000000000000000000008152600401808060200182810382526022815260200180612f9b6022913960400191505060405180910390fd5b82600001828154811061264e57fe5b9060005260206000200154905092915050565b600080828460000180549050116126c3576040517f08c379a00000000000000000000000000000000000000000000000000000000081526004018080602001828103825260228152602001806130f06022913960400191505060405180910390fd5b60008460000184815481106126d457fe5b906000526020600020906002020190508060000154816001015492509250509250929050565b600080846001016000858152602001908152602001600020549050600081141583906127c1576040517f08c379a00000000000000000000000000000000000000000000000000000000081526004018080602001828103825283818151815260200191508051906020019080838360005b8381101561278657808201518184015260208101905061276b565b50505050905090810190601f1680156127b35780820380516001836020036101000a031916815260200191505b509250505060405180910390fd5b508460000160018203815481106127d457fe5b9060005260206000209060020201600101549150509392505050565b600081600001805490509050919050565b60006128228473ffffffffffffffffffffffffffffffffffffffff16612c71565b61282f5760019050612a12565b606061299963150b7a0260e01b612844611c63565b888787604051602401808573ffffffffffffffffffffffffffffffffffffffff1681526020018473ffffffffffffffffffffffffffffffffffffffff16815260200183815260200180602001828103825283818151815260200191508051906020019080838360005b838110156128c85780820151818401526020810190506128ad565b50505050905090810190601f1680156128f55780820380516001836020036101000a031916815260200191505b5095505050505050604051602081830303815290604052907bffffffffffffffffffffffffffffffffffffffffffffffffffffffff19166020820180517bffffffffffffffffffffffffffffffffffffffffffffffffffffffff8381831617835250505050604051806060016040528060328152602001612fbd603291398773ffffffffffffffffffffffffffffffffffffffff16612cbc9092919063ffffffff16565b905060008180602001905160208110156129b257600080fd5b8101908080519060200190929190505050905063150b7a0260e01b7bffffffffffffffffffffffffffffffffffffffffffffffffffffffff1916817bffffffffffffffffffffffffffffffffffffffffffffffffffffffff191614925050505b949350505050565b600080836001016000848152602001908152602001600020541415905092915050565b60008083600101600084815260200190815260200160002054905060008114612b195760006001820390506000600186600001805490500390506000866000018281548110612a8857fe5b9060005260206000200154905080876000018481548110612aa557fe5b9060005260206000200181905550600183018760010160008381526020019081526020016000208190555086600001805480612add57fe5b60019003818190600052602060002001600090559055866001016000878152602001908152602001600020600090556001945050505050612b1f565b60009150505b92915050565b6000612b318383612cd4565b612b8a578260000182908060018154018082558091505060019003906000526020600020016000909190919091505582600001805490508360010160008481526020019081526020016000208190555060019050612b8f565b600090505b92915050565b6000808460010160008581526020019081526020016000205490506000811415612c3c57846000016040518060400160405280868152602001858152509080600181540180825580915050600190039060005260206000209060020201600090919091909150600082015181600001556020820151816001015550508460000180549050856001016000868152602001908152602001600020819055506001915050612c6a565b82856000016001830381548110612c4f57fe5b90600052602060002090600202016001018190555060009150505b9392505050565b60008060007fc5d2460186f7233c927e7db2dcc703c0e500b653ca82273b7bfad8045d85a47060001b9050833f9150808214158015612cb357506000801b8214155b92505050919050565b6060612ccb8484600085612cf7565b90509392505050565b600080836001016000848152602001908152602001600020541415905092915050565b6060612d0285612c71565b612d74576040517f08c379a000000000000000000000000000000000000000000000000000000000815260040180806020018281038252601d8152602001807f416464726573733a2063616c6c20746f206e6f6e2d636f6e747261637400000081525060200191505060405180910390fd5b600060608673ffffffffffffffffffffffffffffffffffffffff1685876040518082805190602001908083835b60208310612dc45780518252602082019150602081019050602083039250612da1565b6001836020036101000a03801982511681845116808217855250505050505090500191505060006040518083038185875af1925050503d8060008114612e26576040519150601f19603f3d011682016040523d82523d6000602084013e612e2b565b606091505b50915091508115612e40578092505050612ef5565b600081511115612e535780518082602001fd5b836040517f08c379a00000000000000000000000000000000000000000000000000000000081526004018080602001828103825283818151815260200191508051906020019080838360005b83811015612eba578082015181840152602081019050612e9f565b50505050905090810190601f168015612ee75780820380516001836020036101000a031916815260200191505b509250505060405180910390fd5b949350505050565b828054600181600116156101000203166002900490600052602060002090601f016020900481019282601f10612f3e57805160ff1916838001178555612f6c565b82800160010185558215612f6c579182015b82811115612f6b578251825591602001919060010190612f50565b5b509050612f799190612f7d565b5090565b5b80821115612f96576000816000905550600101612f7e565b509056fe456e756d657261626c655365743a20696e646578206f7574206f6620626f756e64734552433732313a207472616e7366657220746f206e6f6e20455243373231526563656976657220696d706c656d656e7465724f776e61626c653a206e6577206f776e657220697320746865207a65726f20616464726573734552433732313a207472616e7366657220746f20746865207a65726f20616464726573734552433732313a206f70657261746f7220717565727920666f72206e6f6e6578697374656e7420746f6b656e4552433732313a20617070726f76652063616c6c6572206973206e6f74206f776e6572206e6f7220617070726f76656420666f7220616c6c4552433732313a2062616c616e636520717565727920666f7220746865207a65726f20616464726573734552433732313a206f776e657220717565727920666f72206e6f6e6578697374656e7420746f6b656e456e756d657261626c654d61703a20696e646578206f7574206f6620626f756e64734552433732313a20617070726f76656420717565727920666f72206e6f6e6578697374656e7420746f6b656e4552433732314d657461646174613a2055524920736574206f66206e6f6e6578697374656e7420746f6b656e4552433732313a207472616e73666572206f6620746f6b656e2074686174206973206e6f74206f776e4552433732314d657461646174613a2055524920717565727920666f72206e6f6e6578697374656e7420746f6b656e4552433732313a20617070726f76616c20746f2063757272656e74206f776e65724552433732313a207472616e736665722063616c6c6572206973206e6f74206f776e6572206e6f7220617070726f766564a264697066735822122047aa420983fcf67b756c00c34d03b5b25ae71fa578bd8a3dbbb77e9103887ff164736f6c63430007030033",
  "linkReferences": {},
  "deployedLinkReferences": {}
}